{
  "_format": "hh-sol-artifact-1",
  "contractName": "NFTtestContract1",
  "sourceName": "contracts/NFTtestContract1.sol",
  "abi": [
    {
      "inputs": [],
      "stateMutability": "nonpayable",
      "type": "constructor"
    },
    {
      "inputs": [],
      "name": "ApprovalCallerNotOwnerNorApproved",
      "type": "error"
    },
    {
      "inputs": [],
      "name": "ApprovalQueryForNonexistentToken",
      "type": "error"
    },
    {
      "inputs": [],
      "name": "ApprovalToCurrentOwner",
      "type": "error"
    },
    {
      "inputs": [],
      "name": "ApproveToCaller",
      "type": "error"
    },
    {
      "inputs": [],
      "name": "BalanceQueryForZeroAddress",
      "type": "error"
    },
    {
      "inputs": [],
      "name": "MintToZeroAddress",
      "type": "error"
    },
    {
      "inputs": [],
      "name": "MintZeroQuantity",
      "type": "error"
    },
    {
      "inputs": [],
      "name": "OwnerQueryForNonexistentToken",
      "type": "error"
    },
    {
      "inputs": [],
      "name": "TransferCallerNotOwnerNorApproved",
      "type": "error"
    },
    {
      "inputs": [],
      "name": "TransferFromIncorrectOwner",
      "type": "error"
    },
    {
      "inputs": [],
      "name": "TransferToNonERC721ReceiverImplementer",
      "type": "error"
    },
    {
      "inputs": [],
      "name": "TransferToZeroAddress",
      "type": "error"
    },
    {
      "anonymous": false,
      "inputs": [
        {
          "indexed": true,
          "internalType": "address",
          "name": "owner",
          "type": "address"
        },
        {
          "indexed": true,
          "internalType": "address",
          "name": "approved",
          "type": "address"
        },
        {
          "indexed": true,
          "internalType": "uint256",
          "name": "tokenId",
          "type": "uint256"
        }
      ],
      "name": "Approval",
      "type": "event"
    },
    {
      "anonymous": false,
      "inputs": [
        {
          "indexed": true,
          "internalType": "address",
          "name": "owner",
          "type": "address"
        },
        {
          "indexed": true,
          "internalType": "address",
          "name": "operator",
          "type": "address"
        },
        {
          "indexed": false,
          "internalType": "bool",
          "name": "approved",
          "type": "bool"
        }
      ],
      "name": "ApprovalForAll",
      "type": "event"
    },
    {
      "anonymous": false,
      "inputs": [
        {
          "indexed": true,
          "internalType": "address",
          "name": "previousOwner",
          "type": "address"
        },
        {
          "indexed": true,
          "internalType": "address",
          "name": "newOwner",
          "type": "address"
        }
      ],
      "name": "OwnershipTransferred",
      "type": "event"
    },
    {
      "anonymous": false,
      "inputs": [
        {
          "indexed": true,
          "internalType": "address",
          "name": "from",
          "type": "address"
        },
        {
          "indexed": true,
          "internalType": "address",
          "name": "to",
          "type": "address"
        },
        {
          "indexed": true,
          "internalType": "uint256",
          "name": "tokenId",
          "type": "uint256"
        }
      ],
      "name": "Transfer",
      "type": "event"
    },
    {
      "inputs": [],
      "name": "MAX_PUBLIC_MINT",
      "outputs": [
        {
          "internalType": "uint256",
          "name": "",
          "type": "uint256"
        }
      ],
      "stateMutability": "view",
      "type": "function"
    },
    {
      "inputs": [],
      "name": "MAX_SUPPLY",
      "outputs": [
        {
          "internalType": "uint256",
          "name": "",
          "type": "uint256"
        }
      ],
      "stateMutability": "view",
      "type": "function"
    },
    {
      "inputs": [],
      "name": "MAX_WHITELIST_MINT",
      "outputs": [
        {
          "internalType": "uint256",
          "name": "",
          "type": "uint256"
        }
      ],
      "stateMutability": "view",
      "type": "function"
    },
    {
      "inputs": [],
      "name": "MaxPerPublicWallet",
      "outputs": [
        {
          "internalType": "uint256",
          "name": "",
          "type": "uint256"
        }
      ],
      "stateMutability": "view",
      "type": "function"
    },
    {
      "inputs": [],
      "name": "MaxPerWhiteListWallet",
      "outputs": [
        {
          "internalType": "uint256",
          "name": "",
          "type": "uint256"
        }
      ],
      "stateMutability": "view",
      "type": "function"
    },
    {
      "inputs": [],
      "name": "PUBLIC_SALE_PRICE",
      "outputs": [
        {
          "internalType": "uint256",
          "name": "",
          "type": "uint256"
        }
      ],
      "stateMutability": "view",
      "type": "function"
    },
    {
      "inputs": [],
      "name": "WHITELIST_SALE_PRICE",
      "outputs": [
        {
          "internalType": "uint256",
          "name": "",
          "type": "uint256"
        }
      ],
      "stateMutability": "view",
      "type": "function"
    },
    {
      "inputs": [
        {
          "internalType": "address[]",
          "name": "_address",
          "type": "address[]"
        }
      ],
      "name": "addWhiteListAddress",
      "outputs": [],
      "stateMutability": "nonpayable",
      "type": "function"
    },
    {
      "inputs": [
        {
          "internalType": "address",
          "name": "to",
          "type": "address"
        },
        {
          "internalType": "uint256",
          "name": "tokenId",
          "type": "uint256"
        }
      ],
      "name": "approve",
      "outputs": [],
      "stateMutability": "nonpayable",
      "type": "function"
    },
    {
      "inputs": [
        {
          "internalType": "address",
          "name": "owner",
          "type": "address"
        }
      ],
      "name": "balanceOf",
      "outputs": [
        {
          "internalType": "uint256",
          "name": "",
          "type": "uint256"
        }
      ],
      "stateMutability": "view",
      "type": "function"
    },
    {
      "inputs": [
        {
          "internalType": "uint256",
          "name": "tokenId",
          "type": "uint256"
        }
      ],
      "name": "getApproved",
      "outputs": [
        {
          "internalType": "address",
          "name": "",
          "type": "address"
        }
      ],
      "stateMutability": "view",
      "type": "function"
    },
    {
      "inputs": [],
      "name": "getMaxPerPublicMint",
      "outputs": [
        {
          "internalType": "uint256",
          "name": "",
          "type": "uint256"
        }
      ],
      "stateMutability": "view",
      "type": "function"
    },
    {
      "inputs": [],
      "name": "getMaxPerPublicWallet",
      "outputs": [
        {
          "internalType": "uint256",
          "name": "",
          "type": "uint256"
        }
      ],
      "stateMutability": "view",
      "type": "function"
    },
    {
      "inputs": [],
      "name": "getMaxPerWhiteListMint",
      "outputs": [
        {
          "internalType": "uint256",
          "name": "",
          "type": "uint256"
        }
      ],
      "stateMutability": "view",
      "type": "function"
    },
    {
      "inputs": [],
      "name": "getMaxPetWhiteListWallet",
      "outputs": [
        {
          "internalType": "uint256",
          "name": "",
          "type": "uint256"
        }
      ],
      "stateMutability": "view",
      "type": "function"
    },
    {
      "inputs": [
        {
          "internalType": "uint256",
          "name": "_quantity",
          "type": "uint256"
        }
      ],
      "name": "getPublicPrice",
      "outputs": [
        {
          "internalType": "uint256",
          "name": "",
          "type": "uint256"
        }
      ],
      "stateMutability": "view",
      "type": "function"
    },
    {
      "inputs": [
        {
          "internalType": "uint256",
          "name": "_quantity",
          "type": "uint256"
        }
      ],
      "name": "getWhiteListPrice",
      "outputs": [
        {
          "internalType": "uint256",
          "name": "",
          "type": "uint256"
        }
      ],
      "stateMutability": "view",
      "type": "function"
    },
    {
      "inputs": [
        {
          "internalType": "address",
          "name": "owner",
          "type": "address"
        },
        {
          "internalType": "address",
          "name": "operator",
          "type": "address"
        }
      ],
      "name": "isApprovedForAll",
      "outputs": [
        {
          "internalType": "bool",
          "name": "",
          "type": "bool"
        }
      ],
      "stateMutability": "view",
      "type": "function"
    },
    {
      "inputs": [],
      "name": "isRevealed",
      "outputs": [
        {
          "internalType": "bool",
          "name": "",
          "type": "bool"
        }
      ],
      "stateMutability": "view",
      "type": "function"
    },
    {
      "inputs": [
        {
          "internalType": "uint256",
          "name": "_quantity",
          "type": "uint256"
        }
      ],
      "name": "mint",
      "outputs": [],
      "stateMutability": "payable",
      "type": "function"
    },
    {
      "inputs": [],
      "name": "name",
      "outputs": [
        {
          "internalType": "string",
          "name": "",
          "type": "string"
        }
      ],
      "stateMutability": "view",
      "type": "function"
    },
    {
      "inputs": [],
      "name": "owner",
      "outputs": [
        {
          "internalType": "address",
          "name": "",
          "type": "address"
        }
      ],
      "stateMutability": "view",
      "type": "function"
    },
    {
      "inputs": [
        {
          "internalType": "uint256",
          "name": "tokenId",
          "type": "uint256"
        }
      ],
      "name": "ownerOf",
      "outputs": [
        {
          "internalType": "address",
          "name": "",
          "type": "address"
        }
      ],
      "stateMutability": "view",
      "type": "function"
    },
    {
      "inputs": [],
      "name": "pause",
      "outputs": [
        {
          "internalType": "bool",
          "name": "",
          "type": "bool"
        }
      ],
      "stateMutability": "view",
      "type": "function"
    },
    {
      "inputs": [],
      "name": "placeholderTokenUri",
      "outputs": [
        {
          "internalType": "string",
          "name": "",
          "type": "string"
        }
      ],
      "stateMutability": "view",
      "type": "function"
    },
    {
      "inputs": [],
      "name": "publicSale",
      "outputs": [
        {
          "internalType": "bool",
          "name": "",
          "type": "bool"
        }
      ],
      "stateMutability": "view",
      "type": "function"
    },
    {
      "inputs": [],
      "name": "renounceOwnership",
      "outputs": [],
      "stateMutability": "nonpayable",
      "type": "function"
    },
    {
      "inputs": [
        {
          "internalType": "address",
          "name": "from",
          "type": "address"
        },
        {
          "internalType": "address",
          "name": "to",
          "type": "address"
        },
        {
          "internalType": "uint256",
          "name": "tokenId",
          "type": "uint256"
        }
      ],
      "name": "safeTransferFrom",
      "outputs": [],
      "stateMutability": "nonpayable",
      "type": "function"
    },
    {
      "inputs": [
        {
          "internalType": "address",
          "name": "from",
          "type": "address"
        },
        {
          "internalType": "address",
          "name": "to",
          "type": "address"
        },
        {
          "internalType": "uint256",
          "name": "tokenId",
          "type": "uint256"
        },
        {
          "internalType": "bytes",
          "name": "_data",
          "type": "bytes"
        }
      ],
      "name": "safeTransferFrom",
      "outputs": [],
      "stateMutability": "nonpayable",
      "type": "function"
    },
    {
      "inputs": [
        {
          "internalType": "address",
          "name": "operator",
          "type": "address"
        },
        {
          "internalType": "bool",
          "name": "approved",
          "type": "bool"
        }
      ],
      "name": "setApprovalForAll",
      "outputs": [],
      "stateMutability": "nonpayable",
      "type": "function"
    },
    {
      "inputs": [
        {
          "internalType": "uint256",
          "name": "_quantity",
          "type": "uint256"
        }
      ],
      "name": "setMaxPerPublicMint",
      "outputs": [],
      "stateMutability": "nonpayable",
      "type": "function"
    },
    {
      "inputs": [
        {
          "internalType": "uint256",
          "name": "_maxPerPublicWallet",
          "type": "uint256"
        }
      ],
      "name": "setMaxPerPublicWallet",
      "outputs": [],
      "stateMutability": "nonpayable",
      "type": "function"
    },
    {
      "inputs": [
        {
          "internalType": "uint256",
          "name": "_quantity",
          "type": "uint256"
        }
      ],
      "name": "setMaxPerWhiteListMint",
      "outputs": [],
      "stateMutability": "nonpayable",
      "type": "function"
    },
    {
      "inputs": [
        {
          "internalType": "uint256",
          "name": "_maxPerWhiteListWallet",
          "type": "uint256"
        }
      ],
      "name": "setMaxPerWhiteListWallet",
      "outputs": [],
      "stateMutability": "nonpayable",
      "type": "function"
    },
    {
      "inputs": [
        {
          "internalType": "string",
          "name": "_placeholderTokenUri",
          "type": "string"
        }
      ],
      "name": "setPlaceHolderUri",
      "outputs": [],
      "stateMutability": "nonpayable",
      "type": "function"
    },
    {
      "inputs": [
        {
          "internalType": "uint256",
          "name": "_newPrice",
          "type": "uint256"
        }
      ],
      "name": "setPublicPrice",
      "outputs": [],
      "stateMutability": "nonpayable",
      "type": "function"
    },
    {
      "inputs": [
        {
          "internalType": "string",
          "name": "_baseTokenUri",
          "type": "string"
        }
      ],
      "name": "setTokenUri",
      "outputs": [],
      "stateMutability": "nonpayable",
      "type": "function"
    },
    {
      "inputs": [
        {
          "internalType": "uint256",
          "name": "_newPrice",
          "type": "uint256"
        }
      ],
      "name": "setWhiteListPrice",
      "outputs": [],
      "stateMutability": "nonpayable",
      "type": "function"
    },
    {
      "inputs": [
        {
          "internalType": "bytes4",
          "name": "interfaceId",
          "type": "bytes4"
        }
      ],
      "name": "supportsInterface",
      "outputs": [
        {
          "internalType": "bool",
          "name": "",
          "type": "bool"
        }
      ],
      "stateMutability": "view",
      "type": "function"
    },
    {
      "inputs": [],
      "name": "symbol",
      "outputs": [
        {
          "internalType": "string",
          "name": "",
          "type": "string"
        }
      ],
      "stateMutability": "view",
      "type": "function"
    },
    {
      "inputs": [],
      "name": "teamMint",
      "outputs": [],
      "stateMutability": "nonpayable",
      "type": "function"
    },
    {
      "inputs": [],
      "name": "teamMinted",
      "outputs": [
        {
          "internalType": "bool",
          "name": "",
          "type": "bool"
        }
      ],
      "stateMutability": "view",
      "type": "function"
    },
    {
      "inputs": [],
      "name": "togglePause",
      "outputs": [],
      "stateMutability": "nonpayable",
      "type": "function"
    },
    {
      "inputs": [],
      "name": "togglePublicSale",
      "outputs": [],
      "stateMutability": "nonpayable",
      "type": "function"
    },
    {
      "inputs": [],
      "name": "toggleReveal",
      "outputs": [],
      "stateMutability": "nonpayable",
      "type": "function"
    },
    {
      "inputs": [],
      "name": "toggleWhiteListSale",
      "outputs": [],
      "stateMutability": "nonpayable",
      "type": "function"
    },
    {
      "inputs": [
        {
          "internalType": "uint256",
          "name": "tokenId",
          "type": "uint256"
        }
      ],
      "name": "tokenURI",
      "outputs": [
        {
          "internalType": "string",
          "name": "",
          "type": "string"
        }
      ],
      "stateMutability": "view",
      "type": "function"
    },
    {
      "inputs": [
        {
          "internalType": "address",
          "name": "",
          "type": "address"
        }
      ],
      "name": "totalPublicMint",
      "outputs": [
        {
          "internalType": "uint256",
          "name": "",
          "type": "uint256"
        }
      ],
      "stateMutability": "view",
      "type": "function"
    },
    {
      "inputs": [],
      "name": "totalSupply",
      "outputs": [
        {
          "internalType": "uint256",
          "name": "",
          "type": "uint256"
        }
      ],
      "stateMutability": "view",
      "type": "function"
    },
    {
      "inputs": [
        {
          "internalType": "address",
          "name": "",
          "type": "address"
        }
      ],
      "name": "totalWhitelistMint",
      "outputs": [
        {
          "internalType": "uint256",
          "name": "",
          "type": "uint256"
        }
      ],
      "stateMutability": "view",
      "type": "function"
    },
    {
      "inputs": [
        {
          "internalType": "address",
          "name": "from",
          "type": "address"
        },
        {
          "internalType": "address",
          "name": "to",
          "type": "address"
        },
        {
          "internalType": "uint256",
          "name": "tokenId",
          "type": "uint256"
        }
      ],
      "name": "transferFrom",
      "outputs": [],
      "stateMutability": "nonpayable",
      "type": "function"
    },
    {
      "inputs": [
        {
          "internalType": "address",
          "name": "newOwner",
          "type": "address"
        }
      ],
      "name": "transferOwnership",
      "outputs": [],
      "stateMutability": "nonpayable",
      "type": "function"
    },
    {
      "inputs": [],
      "name": "walletOf",
      "outputs": [
        {
          "internalType": "uint256[]",
          "name": "",
          "type": "uint256[]"
        }
      ],
      "stateMutability": "view",
      "type": "function"
    },
    {
      "inputs": [],
      "name": "whiteListSale",
      "outputs": [
        {
          "internalType": "bool",
          "name": "",
          "type": "bool"
        }
      ],
      "stateMutability": "view",
      "type": "function"
    },
    {
      "inputs": [
        {
          "internalType": "address",
          "name": "",
          "type": "address"
        }
      ],
      "name": "whiteListedAddress",
      "outputs": [
        {
          "internalType": "bool",
          "name": "",
          "type": "bool"
        }
      ],
      "stateMutability": "view",
      "type": "function"
    },
    {
      "inputs": [
        {
          "internalType": "uint256",
          "name": "_quantity",
          "type": "uint256"
        }
      ],
      "name": "whitelistMint",
      "outputs": [],
      "stateMutability": "payable",
      "type": "function"
    },
    {
      "inputs": [],
      "name": "withdraw",
      "outputs": [],
      "stateMutability": "nonpayable",
      "type": "function"
    }
  ],
  "bytecode": "0x60806040527390ee4b80c3b15b8b83510be8fcf2bced69a4c9db600960006101000a81548173ffffffffffffffffffffffffffffffffffffffff021916908373ffffffffffffffffffffffffffffffffffffffff1602179055506064600a556064600b556014600c556028600d55666a94d74f430000600e5566470de4df820000600f553480156200009057600080fd5b506040518060400160405280601081526020017f4e465474657374436f6e747261637431000000000000000000000000000000008152506040518060400160405280600381526020017f4e4654000000000000000000000000000000000000000000000000000000000081525081600290805190602001906200011592919062000240565b5080600390805190602001906200012e92919062000240565b506200013f6200016d60201b60201c565b6000819055505050620001676200015b6200017260201b60201c565b6200017a60201b60201c565b62000355565b600090565b600033905090565b6000600860009054906101000a900473ffffffffffffffffffffffffffffffffffffffff16905081600860006101000a81548173ffffffffffffffffffffffffffffffffffffffff021916908373ffffffffffffffffffffffffffffffffffffffff1602179055508173ffffffffffffffffffffffffffffffffffffffff168173ffffffffffffffffffffffffffffffffffffffff167f8be0079c531659141344cd1fd0a4f28419497f9722a3daafe3b4186f6b6457e060405160405180910390a35050565b8280546200024e906200031f565b90600052602060002090601f016020900481019282620002725760008555620002be565b82601f106200028d57805160ff1916838001178555620002be565b82800160010185558215620002be579182015b82811115620002bd578251825591602001919060010190620002a0565b5b509050620002cd9190620002d1565b5090565b5b80821115620002ec576000816000905550600101620002d2565b5090565b7f4e487b7100000000000000000000000000000000000000000000000000000000600052602260045260246000fd5b600060028204905060018216806200033857607f821691505b602082108114156200034f576200034e620002f0565b5b50919050565b61576180620003656000396000f3fe6080604052600436106103765760003560e01c806380398115116101d1578063b88d4fde11610102578063c6275255116100a0578063e8b5498d1161006f578063e8b5498d14610c52578063e985e9c514610c7d578063f20903e814610cba578063f2fde38b14610ce357610376565b8063c627525514610bac578063c87b56dd14610bd5578063d96d1bc714610c12578063e222c7f914610c3b57610376565b8063beafc89b116100dc578063beafc89b14610b04578063c08dfd3c14610b2d578063c166d13d14610b58578063c4ae316814610b9557610376565b8063b88d4fde14610a99578063ba7a86b814610ac2578063bc912e1a14610ad957610376565b80638f4e38e31161016f578063a22cb46511610149578063a22cb465146109f1578063a4a3828414610a1a578063b0962c5314610a45578063b3202c1214610a6e57610376565b80638f4e38e31461097f57806395d89b41146109aa578063a0712d68146109d557610376565b8063868ff4a2116101ab578063868ff4a2146108f657806386a173ee146109125780638bb64a8c1461093d5780638da5cb5b1461095457610376565b8063803981151461087557806383a974a2146108a05780638456cb59146108cb57610376565b806333bc1c5c116102ab5780636352211e1161024957806367316b3f1161022357806367316b3f146107cf57806370a08231146107f8578063715018a6146108355780637aa4a7121461084c57610376565b80636352211e1461073c578063636dfd2c1461077957806365f13097146107a457610376565b80634cf5f7a4116102855780634cf5f7a4146106a657806354214f69146106d157806354efb8bf146106fc5780635b8ad4291461072557610376565b806333bc1c5c1461063b5780633ccfd60b1461066657806342842e0e1461067d57610376565b806311a6c4901161031857806323b872dd116102f257806323b872dd1461056d57806330a3f4461461059657806332cb6b0c146105d357806332d6e5b0146105fe57610376565b806311a6c490146104da57806318160ddd146105055780631c16521c1461053057610376565b806306fdde031161035457806306fdde031461041e57806307e89ec014610449578063081812fc14610474578063095ea7b3146104b157610376565b806301ffc9a71461037b5780630345e3cb146103b85780630675b7c6146103f5575b600080fd5b34801561038757600080fd5b506103a2600480360381019061039d91906141e6565b610d0c565b6040516103af919061422e565b60405180910390f35b3480156103c457600080fd5b506103df60048036038101906103da91906142a7565b610dee565b6040516103ec91906142ed565b60405180910390f35b34801561040157600080fd5b5061041c6004803603810190610417919061444e565b610e06565b005b34801561042a57600080fd5b50610433610eed565b604051610440919061451f565b60405180910390f35b34801561045557600080fd5b5061045e610f7f565b60405161046b91906142ed565b60405180910390f35b34801561048057600080fd5b5061049b6004803603810190610496919061456d565b610f85565b6040516104a891906145a9565b60405180910390f35b3480156104bd57600080fd5b506104d860048036038101906104d391906145c4565b611001565b005b3480156104e657600080fd5b506104ef61110c565b6040516104fc91906142ed565b60405180910390f35b34801561051157600080fd5b5061051a611112565b60405161052791906142ed565b60405180910390f35b34801561053c57600080fd5b50610557600480360381019061055291906142a7565b611129565b60405161056491906142ed565b60405180910390f35b34801561057957600080fd5b50610594600480360381019061058f9190614604565b611141565b005b3480156105a257600080fd5b506105bd60048036038101906105b8919061456d565b611151565b6040516105ca91906142ed565b60405180910390f35b3480156105df57600080fd5b506105e8611168565b6040516105f591906142ed565b60405180910390f35b34801561060a57600080fd5b506106256004803603810190610620919061456d565b61116e565b60405161063291906142ed565b60405180910390f35b34801561064757600080fd5b50610650611185565b60405161065d919061422e565b60405180910390f35b34801561067257600080fd5b5061067b611198565b005b34801561068957600080fd5b506106a4600480360381019061069f9190614604565b61142f565b005b3480156106b257600080fd5b506106bb61144f565b6040516106c8919061451f565b60405180910390f35b3480156106dd57600080fd5b506106e66114dd565b6040516106f3919061422e565b60405180910390f35b34801561070857600080fd5b50610723600480360381019061071e919061456d565b6114f0565b005b34801561073157600080fd5b5061073a6115c7565b005b34801561074857600080fd5b50610763600480360381019061075e919061456d565b6116c0565b60405161077091906145a9565b60405180910390f35b34801561078557600080fd5b5061078e6116d6565b60405161079b91906142ed565b60405180910390f35b3480156107b057600080fd5b506107b96116e0565b6040516107c691906142ed565b60405180910390f35b3480156107db57600080fd5b506107f660048036038101906107f1919061471f565b6116e6565b005b34801561080457600080fd5b5061081f600480360381019061081a91906142a7565b611848565b60405161082c91906142ed565b60405180910390f35b34801561084157600080fd5b5061084a611918565b005b34801561085857600080fd5b50610873600480360381019061086e919061456d565b6119f1565b005b34801561088157600080fd5b5061088a611ac8565b60405161089791906142ed565b60405180910390f35b3480156108ac57600080fd5b506108b5611ad2565b6040516108c29190614826565b60405180910390f35b3480156108d757600080fd5b506108e0611b5b565b6040516108ed919061422e565b60405180910390f35b610910600480360381019061090b919061456d565b611b6e565b005b34801561091e57600080fd5b50610927611ea8565b604051610934919061422e565b60405180910390f35b34801561094957600080fd5b50610952611ebb565b005b34801561096057600080fd5b50610969611fb4565b60405161097691906145a9565b60405180910390f35b34801561098b57600080fd5b50610994611fde565b6040516109a191906142ed565b60405180910390f35b3480156109b657600080fd5b506109bf611fe8565b6040516109cc919061451f565b60405180910390f35b6109ef60048036038101906109ea919061456d565b61207a565b005b3480156109fd57600080fd5b50610a186004803603810190610a139190614874565b612328565b005b348015610a2657600080fd5b50610a2f6124a0565b604051610a3c91906142ed565b60405180910390f35b348015610a5157600080fd5b50610a6c6004803603810190610a67919061444e565b6124aa565b005b348015610a7a57600080fd5b50610a83612591565b604051610a9091906142ed565b60405180910390f35b348015610aa557600080fd5b50610ac06004803603810190610abb9190614955565b612597565b005b348015610ace57600080fd5b50610ad7612613565b005b348015610ae557600080fd5b50610aee612758565b604051610afb91906142ed565b60405180910390f35b348015610b1057600080fd5b50610b2b6004803603810190610b26919061456d565b61275e565b005b348015610b3957600080fd5b50610b42612835565b604051610b4f91906142ed565b60405180910390f35b348015610b6457600080fd5b50610b7f6004803603810190610b7a91906142a7565b61283b565b604051610b8c919061422e565b60405180910390f35b348015610ba157600080fd5b50610baa61285b565b005b348015610bb857600080fd5b50610bd36004803603810190610bce919061456d565b612954565b005b348015610be157600080fd5b50610bfc6004803603810190610bf7919061456d565b612a2b565b604051610c09919061451f565b60405180910390f35b348015610c1e57600080fd5b50610c396004803603810190610c34919061456d565b612b8d565b005b348015610c4757600080fd5b50610c50612c64565b005b348015610c5e57600080fd5b50610c67612d5d565b604051610c74919061422e565b60405180910390f35b348015610c8957600080fd5b50610ca46004803603810190610c9f91906149d8565b612d70565b604051610cb1919061422e565b60405180910390f35b348015610cc657600080fd5b50610ce16004803603810190610cdc919061456d565b612e04565b005b348015610cef57600080fd5b50610d0a6004803603810190610d0591906142a7565b612edb565b005b60007f80ac58cd000000000000000000000000000000000000000000000000000000007bffffffffffffffffffffffffffffffffffffffffffffffffffffffff1916827bffffffffffffffffffffffffffffffffffffffffffffffffffffffff19161480610dd757507f5b5e139f000000000000000000000000000000000000000000000000000000007bffffffffffffffffffffffffffffffffffffffffffffffffffffffff1916827bffffffffffffffffffffffffffffffffffffffffffffffffffffffff1916145b80610de75750610de682613024565b5b9050919050565b60156020528060005260406000206000915090505481565b3373ffffffffffffffffffffffffffffffffffffffff16610e25611fb4565b73ffffffffffffffffffffffffffffffffffffffff161480610e9457503373ffffffffffffffffffffffffffffffffffffffff16600960009054906101000a900473ffffffffffffffffffffffffffffffffffffffff1673ffffffffffffffffffffffffffffffffffffffff16145b610ed3576040517f08c379a0000000000000000000000000000000000000000000000000000000008152600401610eca90614a64565b60405180910390fd5b8060109080519060200190610ee9929190614094565b5050565b606060028054610efc90614ab3565b80601f0160208091040260200160405190810160405280929190818152602001828054610f2890614ab3565b8015610f755780601f10610f4a57610100808354040283529160200191610f75565b820191906000526020600020905b815481529060010190602001808311610f5857829003601f168201915b5050505050905090565b600e5481565b6000610f908261308e565b610fc6576040517fcf4700e400000000000000000000000000000000000000000000000000000000815260040160405180910390fd5b6006600083815260200190815260200160002060009054906101000a900473ffffffffffffffffffffffffffffffffffffffff169050919050565b600061100c826116c0565b90508073ffffffffffffffffffffffffffffffffffffffff168373ffffffffffffffffffffffffffffffffffffffff161415611074576040517f943f7b8c00000000000000000000000000000000000000000000000000000000815260040160405180910390fd5b8073ffffffffffffffffffffffffffffffffffffffff166110936130dc565b73ffffffffffffffffffffffffffffffffffffffff16141580156110c557506110c3816110be6130dc565b612d70565b155b156110fc576040517fcfb3b94200000000000000000000000000000000000000000000000000000000815260040160405180910390fd5b6111078383836130e4565b505050565b600c5481565b600061111c613196565b6001546000540303905090565b60146020528060005260406000206000915090505481565b61114c83838361319b565b505050565b6000600e54826111619190614b14565b9050919050565b6108ae81565b6000600f548261117e9190614b14565b9050919050565b601260019054906101000a900460ff1681565b3373ffffffffffffffffffffffffffffffffffffffff166111b7611fb4565b73ffffffffffffffffffffffffffffffffffffffff16148061122657503373ffffffffffffffffffffffffffffffffffffffff16600960009054906101000a900473ffffffffffffffffffffffffffffffffffffffff1673ffffffffffffffffffffffffffffffffffffffff16145b611265576040517f08c379a000000000000000000000000000000000000000000000000000000000815260040161125c90614a64565b60405180910390fd5b600060646023476112769190614b14565b6112809190614b9d565b905060006064601483476112949190614bce565b61129e9190614b14565b6112a89190614b9d565b905060006064600584476112bc9190614bce565b6112c69190614b14565b6112d09190614b9d565b9050735008139c6e151f2464002255527ea5873566a2b873ffffffffffffffffffffffffffffffffffffffff166108fc849081150290604051600060405180830381858888f1935050505015801561132c573d6000803e3d6000fd5b507328f99cfb1426837332397b438555ce494ba96d3473ffffffffffffffffffffffffffffffffffffffff166108fc839081150290604051600060405180830381858888f19350505050158015611387573d6000803e3d6000fd5b507390ee4b80c3b15b8b83510be8fcf2bced69a4c9db73ffffffffffffffffffffffffffffffffffffffff166108fc829081150290604051600060405180830381858888f193505050501580156113e2573d6000803e3d6000fd5b503373ffffffffffffffffffffffffffffffffffffffff166108fc479081150290604051600060405180830381858888f19350505050158015611429573d6000803e3d6000fd5b50505050565b61144a83838360405180602001604052806000815250612597565b505050565b6011805461145c90614ab3565b80601f016020809104026020016040519081016040528092919081815260200182805461148890614ab3565b80156114d55780601f106114aa576101008083540402835291602001916114d5565b820191906000526020600020905b8154815290600101906020018083116114b857829003601f168201915b505050505081565b601260009054906101000a900460ff1681565b3373ffffffffffffffffffffffffffffffffffffffff1661150f611fb4565b73ffffffffffffffffffffffffffffffffffffffff16148061157e57503373ffffffffffffffffffffffffffffffffffffffff16600960009054906101000a900473ffffffffffffffffffffffffffffffffffffffff1673ffffffffffffffffffffffffffffffffffffffff16145b6115bd576040517f08c379a00000000000000000000000000000000000000000000000000000000081526004016115b490614a64565b60405180910390fd5b80600a8190555050565b3373ffffffffffffffffffffffffffffffffffffffff166115e6611fb4565b73ffffffffffffffffffffffffffffffffffffffff16148061165557503373ffffffffffffffffffffffffffffffffffffffff16600960009054906101000a900473ffffffffffffffffffffffffffffffffffffffff1673ffffffffffffffffffffffffffffffffffffffff16145b611694576040517f08c379a000000000000000000000000000000000000000000000000000000000815260040161168b90614a64565b60405180910390fd5b601260009054906101000a900460ff1615601260006101000a81548160ff021916908315150217905550565b60006116cb82613651565b600001519050919050565b6000600a54905090565b600a5481565b3373ffffffffffffffffffffffffffffffffffffffff16611705611fb4565b73ffffffffffffffffffffffffffffffffffffffff16148061177457503373ffffffffffffffffffffffffffffffffffffffff16600960009054906101000a900473ffffffffffffffffffffffffffffffffffffffff1673ffffffffffffffffffffffffffffffffffffffff16145b6117b3576040517f08c379a00000000000000000000000000000000000000000000000000000000081526004016117aa90614a64565b60405180910390fd5b60005b8151811015611844576001601360008484815181106117d8576117d7614c02565b5b602002602001015173ffffffffffffffffffffffffffffffffffffffff1673ffffffffffffffffffffffffffffffffffffffff16815260200190815260200160002060006101000a81548160ff021916908315150217905550808061183c90614c31565b9150506117b6565b5050565b60008073ffffffffffffffffffffffffffffffffffffffff168273ffffffffffffffffffffffffffffffffffffffff1614156118b0576040517f8f4eb60400000000000000000000000000000000000000000000000000000000815260040160405180910390fd5b600560008373ffffffffffffffffffffffffffffffffffffffff1673ffffffffffffffffffffffffffffffffffffffff16815260200190815260200160002060000160009054906101000a900467ffffffffffffffff1667ffffffffffffffff169050919050565b3373ffffffffffffffffffffffffffffffffffffffff16611937611fb4565b73ffffffffffffffffffffffffffffffffffffffff1614806119a657503373ffffffffffffffffffffffffffffffffffffffff16600960009054906101000a900473ffffffffffffffffffffffffffffffffffffffff1673ffffffffffffffffffffffffffffffffffffffff16145b6119e5576040517f08c379a00000000000000000000000000000000000000000000000000000000081526004016119dc90614a64565b60405180910390fd5b6119ef60006138e0565b565b3373ffffffffffffffffffffffffffffffffffffffff16611a10611fb4565b73ffffffffffffffffffffffffffffffffffffffff161480611a7f57503373ffffffffffffffffffffffffffffffffffffffff16600960009054906101000a900473ffffffffffffffffffffffffffffffffffffffff1673ffffffffffffffffffffffffffffffffffffffff16145b611abe576040517f08c379a0000000000000000000000000000000000000000000000000000000008152600401611ab590614a64565b60405180910390fd5b80600c8190555050565b6000600c54905090565b606060003390506000611ae482611848565b905060008167ffffffffffffffff811115611b0257611b01614323565b5b604051908082528060200260200182016040528015611b305781602001602082028036833780820191505090505b50905060005b82811015611b51578080611b4990614c31565b915050611b36565b5080935050505090565b601260039054906101000a900460ff1681565b3373ffffffffffffffffffffffffffffffffffffffff163273ffffffffffffffffffffffffffffffffffffffff1614611bdc576040517f08c379a0000000000000000000000000000000000000000000000000000000008152600401611bd390614cec565b60405180910390fd5b601260029054906101000a900460ff16611c2b576040517f08c379a0000000000000000000000000000000000000000000000000000000008152600401611c2290614d7e565b60405180910390fd5b6108ae81611c37611112565b611c419190614d9e565b1115611c82576040517f08c379a0000000000000000000000000000000000000000000000000000000008152600401611c7990614e66565b60405180910390fd5b600b5481601560003373ffffffffffffffffffffffffffffffffffffffff1673ffffffffffffffffffffffffffffffffffffffff16815260200190815260200160002054611cd09190614d9e565b1115611d11576040517f08c379a0000000000000000000000000000000000000000000000000000000008152600401611d0890614ef8565b60405180910390fd5b80600f54611d1f9190614b14565b341015611d61576040517f08c379a0000000000000000000000000000000000000000000000000000000008152600401611d5890614f8a565b60405180910390fd5b600d54611d6d33611848565b82611d789190614d9e565b1115611db9576040517f08c379a0000000000000000000000000000000000000000000000000000000008152600401611db090615042565b60405180910390fd5b601360003373ffffffffffffffffffffffffffffffffffffffff1673ffffffffffffffffffffffffffffffffffffffff16815260200190815260200160002060009054906101000a900460ff16611e45576040517f08c379a0000000000000000000000000000000000000000000000000000000008152600401611e3c906150d4565b60405180910390fd5b80601560003373ffffffffffffffffffffffffffffffffffffffff1673ffffffffffffffffffffffffffffffffffffffff1681526020019081526020016000206000828254611e949190614d9e565b92505081905550611ea533826139a6565b50565b601260029054906101000a900460ff1681565b3373ffffffffffffffffffffffffffffffffffffffff16611eda611fb4565b73ffffffffffffffffffffffffffffffffffffffff161480611f4957503373ffffffffffffffffffffffffffffffffffffffff16600960009054906101000a900473ffffffffffffffffffffffffffffffffffffffff1673ffffffffffffffffffffffffffffffffffffffff16145b611f88576040517f08c379a0000000000000000000000000000000000000000000000000000000008152600401611f7f90614a64565b60405180910390fd5b601260029054906101000a900460ff1615601260026101000a81548160ff021916908315150217905550565b6000600860009054906101000a900473ffffffffffffffffffffffffffffffffffffffff16905090565b6000600b54905090565b606060038054611ff790614ab3565b80601f016020809104026020016040519081016040528092919081815260200182805461202390614ab3565b80156120705780601f1061204557610100808354040283529160200191612070565b820191906000526020600020905b81548152906001019060200180831161205357829003601f168201915b5050505050905090565b3373ffffffffffffffffffffffffffffffffffffffff163273ffffffffffffffffffffffffffffffffffffffff16146120e8576040517f08c379a00000000000000000000000000000000000000000000000000000000081526004016120df90614cec565b60405180910390fd5b601260019054906101000a900460ff16612137576040517f08c379a000000000000000000000000000000000000000000000000000000000815260040161212e90615166565b60405180910390fd5b6108ae81612143611112565b61214d9190614d9e565b111561218e576040517f08c379a0000000000000000000000000000000000000000000000000000000008152600401612185906151f8565b60405180910390fd5b600a5481601460003373ffffffffffffffffffffffffffffffffffffffff1673ffffffffffffffffffffffffffffffffffffffff168152602001908152602001600020546121dc9190614d9e565b111561221d576040517f08c379a00000000000000000000000000000000000000000000000000000000081526004016122149061528a565b60405180910390fd5b80600e5461222b9190614b14565b34101561226d576040517f08c379a0000000000000000000000000000000000000000000000000000000008152600401612264906152f6565b60405180910390fd5b600c5461227933611848565b826122849190614d9e565b11156122c5576040517f08c379a00000000000000000000000000000000000000000000000000000000081526004016122bc90615042565b60405180910390fd5b80601460003373ffffffffffffffffffffffffffffffffffffffff1673ffffffffffffffffffffffffffffffffffffffff16815260200190815260200160002060008282546123149190614d9e565b9250508190555061232533826139a6565b50565b6123306130dc565b73ffffffffffffffffffffffffffffffffffffffff168273ffffffffffffffffffffffffffffffffffffffff161415612395576040517fb06307db00000000000000000000000000000000000000000000000000000000815260040160405180910390fd5b80600760006123a26130dc565b73ffffffffffffffffffffffffffffffffffffffff1673ffffffffffffffffffffffffffffffffffffffff16815260200190815260200160002060008473ffffffffffffffffffffffffffffffffffffffff1673ffffffffffffffffffffffffffffffffffffffff16815260200190815260200160002060006101000a81548160ff0219169083151502179055508173ffffffffffffffffffffffffffffffffffffffff1661244f6130dc565b73ffffffffffffffffffffffffffffffffffffffff167f17307eab39ab6107e8899845ad3d59bd9653f200f220920489ca2b5937696c3183604051612494919061422e565b60405180910390a35050565b6000600d54905090565b3373ffffffffffffffffffffffffffffffffffffffff166124c9611fb4565b73ffffffffffffffffffffffffffffffffffffffff16148061253857503373ffffffffffffffffffffffffffffffffffffffff16600960009054906101000a900473ffffffffffffffffffffffffffffffffffffffff1673ffffffffffffffffffffffffffffffffffffffff16145b612577576040517f08c379a000000000000000000000000000000000000000000000000000000000815260040161256e90614a64565b60405180910390fd5b806011908051906020019061258d929190614094565b5050565b600d5481565b6125a284848461319b565b6125c18373ffffffffffffffffffffffffffffffffffffffff166139c4565b80156125d657506125d4848484846139e7565b155b1561260d576040517fd1a57ed600000000000000000000000000000000000000000000000000000000815260040160405180910390fd5b50505050565b3373ffffffffffffffffffffffffffffffffffffffff16612632611fb4565b73ffffffffffffffffffffffffffffffffffffffff1614806126a157503373ffffffffffffffffffffffffffffffffffffffff16600960009054906101000a900473ffffffffffffffffffffffffffffffffffffffff1673ffffffffffffffffffffffffffffffffffffffff16145b6126e0576040517f08c379a00000000000000000000000000000000000000000000000000000000081526004016126d790614a64565b60405180910390fd5b601260049054906101000a900460ff1615612730576040517f08c379a000000000000000000000000000000000000000000000000000000000815260040161272790615388565b60405180910390fd5b6001601260046101000a81548160ff0219169083151502179055506127563360c86139a6565b565b600f5481565b3373ffffffffffffffffffffffffffffffffffffffff1661277d611fb4565b73ffffffffffffffffffffffffffffffffffffffff1614806127ec57503373ffffffffffffffffffffffffffffffffffffffff16600960009054906101000a900473ffffffffffffffffffffffffffffffffffffffff1673ffffffffffffffffffffffffffffffffffffffff16145b61282b576040517f08c379a000000000000000000000000000000000000000000000000000000000815260040161282290614a64565b60405180910390fd5b80600f8190555050565b600b5481565b60136020528060005260406000206000915054906101000a900460ff1681565b3373ffffffffffffffffffffffffffffffffffffffff1661287a611fb4565b73ffffffffffffffffffffffffffffffffffffffff1614806128e957503373ffffffffffffffffffffffffffffffffffffffff16600960009054906101000a900473ffffffffffffffffffffffffffffffffffffffff1673ffffffffffffffffffffffffffffffffffffffff16145b612928576040517f08c379a000000000000000000000000000000000000000000000000000000000815260040161291f90614a64565b60405180910390fd5b601260039054906101000a900460ff1615601260036101000a81548160ff021916908315150217905550565b3373ffffffffffffffffffffffffffffffffffffffff16612973611fb4565b73ffffffffffffffffffffffffffffffffffffffff1614806129e257503373ffffffffffffffffffffffffffffffffffffffff16600960009054906101000a900473ffffffffffffffffffffffffffffffffffffffff1673ffffffffffffffffffffffffffffffffffffffff16145b612a21576040517f08c379a0000000000000000000000000000000000000000000000000000000008152600401612a1890614a64565b60405180910390fd5b80600e8190555050565b6060612a368261308e565b612a75576040517f08c379a0000000000000000000000000000000000000000000000000000000008152600401612a6c9061541a565b60405180910390fd5b6000600183612a849190614d9e565b9050601260009054906101000a900460ff16612b2d5760118054612aa790614ab3565b80601f0160208091040260200160405190810160405280929190818152602001828054612ad390614ab3565b8015612b205780601f10612af557610100808354040283529160200191612b20565b820191906000526020600020905b815481529060010190602001808311612b0357829003601f168201915b5050505050915050612b88565b600060108054612b3c90614ab3565b905011612b585760405180602001604052806000815250612b84565b6010612b6382613b47565b604051602001612b74929190615556565b6040516020818303038152906040525b9150505b919050565b3373ffffffffffffffffffffffffffffffffffffffff16612bac611fb4565b73ffffffffffffffffffffffffffffffffffffffff161480612c1b57503373ffffffffffffffffffffffffffffffffffffffff16600960009054906101000a900473ffffffffffffffffffffffffffffffffffffffff1673ffffffffffffffffffffffffffffffffffffffff16145b612c5a576040517f08c379a0000000000000000000000000000000000000000000000000000000008152600401612c5190614a64565b60405180910390fd5b80600b8190555050565b3373ffffffffffffffffffffffffffffffffffffffff16612c83611fb4565b73ffffffffffffffffffffffffffffffffffffffff161480612cf257503373ffffffffffffffffffffffffffffffffffffffff16600960009054906101000a900473ffffffffffffffffffffffffffffffffffffffff1673ffffffffffffffffffffffffffffffffffffffff16145b612d31576040517f08c379a0000000000000000000000000000000000000000000000000000000008152600401612d2890614a64565b60405180910390fd5b601260019054906101000a900460ff1615601260016101000a81548160ff021916908315150217905550565b601260049054906101000a900460ff1681565b6000600760008473ffffffffffffffffffffffffffffffffffffffff1673ffffffffffffffffffffffffffffffffffffffff16815260200190815260200160002060008373ffffffffffffffffffffffffffffffffffffffff1673ffffffffffffffffffffffffffffffffffffffff16815260200190815260200160002060009054906101000a900460ff16905092915050565b3373ffffffffffffffffffffffffffffffffffffffff16612e23611fb4565b73ffffffffffffffffffffffffffffffffffffffff161480612e9257503373ffffffffffffffffffffffffffffffffffffffff16600960009054906101000a900473ffffffffffffffffffffffffffffffffffffffff1673ffffffffffffffffffffffffffffffffffffffff16145b612ed1576040517f08c379a0000000000000000000000000000000000000000000000000000000008152600401612ec890614a64565b60405180910390fd5b80600d8190555050565b3373ffffffffffffffffffffffffffffffffffffffff16612efa611fb4565b73ffffffffffffffffffffffffffffffffffffffff161480612f6957503373ffffffffffffffffffffffffffffffffffffffff16600960009054906101000a900473ffffffffffffffffffffffffffffffffffffffff1673ffffffffffffffffffffffffffffffffffffffff16145b612fa8576040517f08c379a0000000000000000000000000000000000000000000000000000000008152600401612f9f90614a64565b60405180910390fd5b600073ffffffffffffffffffffffffffffffffffffffff168173ffffffffffffffffffffffffffffffffffffffff161415613018576040517f08c379a000000000000000000000000000000000000000000000000000000000815260040161300f906155f7565b60405180910390fd5b613021816138e0565b50565b60007f01ffc9a7000000000000000000000000000000000000000000000000000000007bffffffffffffffffffffffffffffffffffffffffffffffffffffffff1916827bffffffffffffffffffffffffffffffffffffffffffffffffffffffff1916149050919050565b600081613099613196565b111580156130a8575060005482105b80156130d5575060046000838152602001908152602001600020600001601c9054906101000a900460ff16155b9050919050565b600033905090565b826006600084815260200190815260200160002060006101000a81548173ffffffffffffffffffffffffffffffffffffffff021916908373ffffffffffffffffffffffffffffffffffffffff160217905550818373ffffffffffffffffffffffffffffffffffffffff168273ffffffffffffffffffffffffffffffffffffffff167f8c5be1e5ebec7d5bd14f71427d1e84f3dd0314c0f7b2291e5b200ac8c7c3b92560405160405180910390a4505050565b600090565b60006131a682613651565b90508373ffffffffffffffffffffffffffffffffffffffff16816000015173ffffffffffffffffffffffffffffffffffffffff1614613211576040517fa114810000000000000000000000000000000000000000000000000000000000815260040160405180910390fd5b60008473ffffffffffffffffffffffffffffffffffffffff166132326130dc565b73ffffffffffffffffffffffffffffffffffffffff16148061326157506132608561325b6130dc565b612d70565b5b806132a6575061326f6130dc565b73ffffffffffffffffffffffffffffffffffffffff1661328e84610f85565b73ffffffffffffffffffffffffffffffffffffffff16145b9050806132df576040517f59c896be00000000000000000000000000000000000000000000000000000000815260040160405180910390fd5b600073ffffffffffffffffffffffffffffffffffffffff168473ffffffffffffffffffffffffffffffffffffffff161415613346576040517fea553b3400000000000000000000000000000000000000000000000000000000815260040160405180910390fd5b6133538585856001613ca8565b61335f600084876130e4565b6001600560008773ffffffffffffffffffffffffffffffffffffffff1673ffffffffffffffffffffffffffffffffffffffff16815260200190815260200160002060000160008282829054906101000a900467ffffffffffffffff160392506101000a81548167ffffffffffffffff021916908367ffffffffffffffff1602179055506001600560008673ffffffffffffffffffffffffffffffffffffffff1673ffffffffffffffffffffffffffffffffffffffff16815260200190815260200160002060000160008282829054906101000a900467ffffffffffffffff160192506101000a81548167ffffffffffffffff021916908367ffffffffffffffff1602179055506000600460008581526020019081526020016000209050848160000160006101000a81548173ffffffffffffffffffffffffffffffffffffffff021916908373ffffffffffffffffffffffffffffffffffffffff160217905550428160000160146101000a81548167ffffffffffffffff021916908367ffffffffffffffff16021790555060006001850190506000600460008381526020019081526020016000209050600073ffffffffffffffffffffffffffffffffffffffff168160000160009054906101000a900473ffffffffffffffffffffffffffffffffffffffff1673ffffffffffffffffffffffffffffffffffffffff1614156135df5760005482146135de57878160000160006101000a81548173ffffffffffffffffffffffffffffffffffffffff021916908373ffffffffffffffffffffffffffffffffffffffff16021790555084602001518160000160146101000a81548167ffffffffffffffff021916908367ffffffffffffffff1602179055505b5b505050828473ffffffffffffffffffffffffffffffffffffffff168673ffffffffffffffffffffffffffffffffffffffff167fddf252ad1be2c89b69c2b068fc378daa952ba7f163c4a11628f55a4df523b3ef60405160405180910390a461364a8585856001613cae565b5050505050565b61365961411a565b600082905080613667613196565b11158015613676575060005481105b156138a9576000600460008381526020019081526020016000206040518060600160405290816000820160009054906101000a900473ffffffffffffffffffffffffffffffffffffffff1673ffffffffffffffffffffffffffffffffffffffff1673ffffffffffffffffffffffffffffffffffffffff1681526020016000820160149054906101000a900467ffffffffffffffff1667ffffffffffffffff1667ffffffffffffffff16815260200160008201601c9054906101000a900460ff161515151581525050905080604001516138a757600073ffffffffffffffffffffffffffffffffffffffff16816000015173ffffffffffffffffffffffffffffffffffffffff161461378b5780925050506138db565b5b6001156138a657818060019003925050600460008381526020019081526020016000206040518060600160405290816000820160009054906101000a900473ffffffffffffffffffffffffffffffffffffffff1673ffffffffffffffffffffffffffffffffffffffff1673ffffffffffffffffffffffffffffffffffffffff1681526020016000820160149054906101000a900467ffffffffffffffff1667ffffffffffffffff1667ffffffffffffffff16815260200160008201601c9054906101000a900460ff1615151515815250509050600073ffffffffffffffffffffffffffffffffffffffff16816000015173ffffffffffffffffffffffffffffffffffffffff16146138a15780925050506138db565b61378c565b5b505b6040517fdf2d9b4200000000000000000000000000000000000000000000000000000000815260040160405180910390fd5b919050565b6000600860009054906101000a900473ffffffffffffffffffffffffffffffffffffffff16905081600860006101000a81548173ffffffffffffffffffffffffffffffffffffffff021916908373ffffffffffffffffffffffffffffffffffffffff1602179055508173ffffffffffffffffffffffffffffffffffffffff168173ffffffffffffffffffffffffffffffffffffffff167f8be0079c531659141344cd1fd0a4f28419497f9722a3daafe3b4186f6b6457e060405160405180910390a35050565b6139c0828260405180602001604052806000815250613cb4565b5050565b6000808273ffffffffffffffffffffffffffffffffffffffff163b119050919050565b60008373ffffffffffffffffffffffffffffffffffffffff1663150b7a02613a0d6130dc565b8786866040518563ffffffff1660e01b8152600401613a2f949392919061566c565b602060405180830381600087803b158015613a4957600080fd5b505af1925050508015613a7a57506040513d601f19601f82011682018060405250810190613a7791906156cd565b60015b613af4573d8060008114613aaa576040519150601f19603f3d011682016040523d82523d6000602084013e613aaf565b606091505b50600081511415613aec576040517fd1a57ed600000000000000000000000000000000000000000000000000000000815260040160405180910390fd5b805181602001fd5b63150b7a0260e01b7bffffffffffffffffffffffffffffffffffffffffffffffffffffffff1916817bffffffffffffffffffffffffffffffffffffffffffffffffffffffff191614915050949350505050565b60606000821415613b8f576040518060400160405280600181526020017f30000000000000000000000000000000000000000000000000000000000000008152509050613ca3565b600082905060005b60008214613bc1578080613baa90614c31565b915050600a82613bba9190614b9d565b9150613b97565b60008167ffffffffffffffff811115613bdd57613bdc614323565b5b6040519080825280601f01601f191660200182016040528015613c0f5781602001600182028036833780820191505090505b5090505b60008514613c9c57600182613c289190614bce565b9150600a85613c3791906156fa565b6030613c439190614d9e565b60f81b818381518110613c5957613c58614c02565b5b60200101907effffffffffffffffffffffffffffffffffffffffffffffffffffffffffffff1916908160001a905350600a85613c959190614b9d565b9450613c13565b8093505050505b919050565b50505050565b50505050565b613cc18383836001613cc6565b505050565b600080549050600073ffffffffffffffffffffffffffffffffffffffff168573ffffffffffffffffffffffffffffffffffffffff161415613d33576040517f2e07630000000000000000000000000000000000000000000000000000000000815260040160405180910390fd5b6000841415613d6e576040517fb562e8dd00000000000000000000000000000000000000000000000000000000815260040160405180910390fd5b613d7b6000868387613ca8565b83600560008773ffffffffffffffffffffffffffffffffffffffff1673ffffffffffffffffffffffffffffffffffffffff16815260200190815260200160002060000160008282829054906101000a900467ffffffffffffffff160192506101000a81548167ffffffffffffffff021916908367ffffffffffffffff16021790555083600560008773ffffffffffffffffffffffffffffffffffffffff1673ffffffffffffffffffffffffffffffffffffffff16815260200190815260200160002060000160088282829054906101000a900467ffffffffffffffff160192506101000a81548167ffffffffffffffff021916908367ffffffffffffffff160217905550846004600083815260200190815260200160002060000160006101000a81548173ffffffffffffffffffffffffffffffffffffffff021916908373ffffffffffffffffffffffffffffffffffffffff160217905550426004600083815260200190815260200160002060000160146101000a81548167ffffffffffffffff021916908367ffffffffffffffff160217905550600081905060008582019050838015613f455750613f448773ffffffffffffffffffffffffffffffffffffffff166139c4565b5b1561400b575b818773ffffffffffffffffffffffffffffffffffffffff16600073ffffffffffffffffffffffffffffffffffffffff167fddf252ad1be2c89b69c2b068fc378daa952ba7f163c4a11628f55a4df523b3ef60405160405180910390a4613fba60008884806001019550886139e7565b613ff0576040517fd1a57ed600000000000000000000000000000000000000000000000000000000815260040160405180910390fd5b80821415613f4b57826000541461400657600080fd5b614077565b5b818060010192508773ffffffffffffffffffffffffffffffffffffffff16600073ffffffffffffffffffffffffffffffffffffffff167fddf252ad1be2c89b69c2b068fc378daa952ba7f163c4a11628f55a4df523b3ef60405160405180910390a48082141561400c575b81600081905550505061408d6000868387613cae565b5050505050565b8280546140a090614ab3565b90600052602060002090601f0160209004810192826140c25760008555614109565b82601f106140db57805160ff1916838001178555614109565b82800160010185558215614109579182015b828111156141085782518255916020019190600101906140ed565b5b509050614116919061415d565b5090565b6040518060600160405280600073ffffffffffffffffffffffffffffffffffffffff168152602001600067ffffffffffffffff1681526020016000151581525090565b5b8082111561417657600081600090555060010161415e565b5090565b6000604051905090565b600080fd5b600080fd5b60007fffffffff0000000000000000000000000000000000000000000000000000000082169050919050565b6141c38161418e565b81146141ce57600080fd5b50565b6000813590506141e0816141ba565b92915050565b6000602082840312156141fc576141fb614184565b5b600061420a848285016141d1565b91505092915050565b60008115159050919050565b61422881614213565b82525050565b6000602082019050614243600083018461421f565b92915050565b600073ffffffffffffffffffffffffffffffffffffffff82169050919050565b600061427482614249565b9050919050565b61428481614269565b811461428f57600080fd5b50565b6000813590506142a18161427b565b92915050565b6000602082840312156142bd576142bc614184565b5b60006142cb84828501614292565b91505092915050565b6000819050919050565b6142e7816142d4565b82525050565b600060208201905061430260008301846142de565b92915050565b600080fd5b600080fd5b6000601f19601f8301169050919050565b7f4e487b7100000000000000000000000000000000000000000000000000000000600052604160045260246000fd5b61435b82614312565b810181811067ffffffffffffffff8211171561437a57614379614323565b5b80604052505050565b600061438d61417a565b90506143998282614352565b919050565b600067ffffffffffffffff8211156143b9576143b8614323565b5b6143c282614312565b9050602081019050919050565b82818337600083830152505050565b60006143f16143ec8461439e565b614383565b90508281526020810184848401111561440d5761440c61430d565b5b6144188482856143cf565b509392505050565b600082601f83011261443557614434614308565b5b81356144458482602086016143de565b91505092915050565b60006020828403121561446457614463614184565b5b600082013567ffffffffffffffff81111561448257614481614189565b5b61448e84828501614420565b91505092915050565b600081519050919050565b600082825260208201905092915050565b60005b838110156144d15780820151818401526020810190506144b6565b838111156144e0576000848401525b50505050565b60006144f182614497565b6144fb81856144a2565b935061450b8185602086016144b3565b61451481614312565b840191505092915050565b6000602082019050818103600083015261453981846144e6565b905092915050565b61454a816142d4565b811461455557600080fd5b50565b60008135905061456781614541565b92915050565b60006020828403121561458357614582614184565b5b600061459184828501614558565b91505092915050565b6145a381614269565b82525050565b60006020820190506145be600083018461459a565b92915050565b600080604083850312156145db576145da614184565b5b60006145e985828601614292565b92505060206145fa85828601614558565b9150509250929050565b60008060006060848603121561461d5761461c614184565b5b600061462b86828701614292565b935050602061463c86828701614292565b925050604061464d86828701614558565b9150509250925092565b600067ffffffffffffffff82111561467257614671614323565b5b602082029050602081019050919050565b600080fd5b600061469b61469684614657565b614383565b905080838252602082019050602084028301858111156146be576146bd614683565b5b835b818110156146e757806146d38882614292565b8452602084019350506020810190506146c0565b5050509392505050565b600082601f83011261470657614705614308565b5b8135614716848260208601614688565b91505092915050565b60006020828403121561473557614734614184565b5b600082013567ffffffffffffffff81111561475357614752614189565b5b61475f848285016146f1565b91505092915050565b600081519050919050565b600082825260208201905092915050565b6000819050602082019050919050565b61479d816142d4565b82525050565b60006147af8383614794565b60208301905092915050565b6000602082019050919050565b60006147d382614768565b6147dd8185614773565b93506147e883614784565b8060005b8381101561481957815161480088826147a3565b975061480b836147bb565b9250506001810190506147ec565b5085935050505092915050565b6000602082019050818103600083015261484081846147c8565b905092915050565b61485181614213565b811461485c57600080fd5b50565b60008135905061486e81614848565b92915050565b6000806040838503121561488b5761488a614184565b5b600061489985828601614292565b92505060206148aa8582860161485f565b9150509250929050565b600067ffffffffffffffff8211156148cf576148ce614323565b5b6148d882614312565b9050602081019050919050565b60006148f86148f3846148b4565b614383565b9050828152602081018484840111156149145761491361430d565b5b61491f8482856143cf565b509392505050565b600082601f83011261493c5761493b614308565b5b813561494c8482602086016148e5565b91505092915050565b6000806000806080858703121561496f5761496e614184565b5b600061497d87828801614292565b945050602061498e87828801614292565b935050604061499f87828801614558565b925050606085013567ffffffffffffffff8111156149c0576149bf614189565b5b6149cc87828801614927565b91505092959194509250565b600080604083850312156149ef576149ee614184565b5b60006149fd85828601614292565b9250506020614a0e85828601614292565b9150509250929050565b7f4f776e61626c653a2063616c6c6572206973206e6f7420746865206f776e6572600082015250565b6000614a4e6020836144a2565b9150614a5982614a18565b602082019050919050565b60006020820190508181036000830152614a7d81614a41565b9050919050565b7f4e487b7100000000000000000000000000000000000000000000000000000000600052602260045260246000fd5b60006002820490506001821680614acb57607f821691505b60208210811415614adf57614ade614a84565b5b50919050565b7f4e487b7100000000000000000000000000000000000000000000000000000000600052601160045260246000fd5b6000614b1f826142d4565b9150614b2a836142d4565b9250817fffffffffffffffffffffffffffffffffffffffffffffffffffffffffffffffff0483118215151615614b6357614b62614ae5565b5b828202905092915050565b7f4e487b7100000000000000000000000000000000000000000000000000000000600052601260045260246000fd5b6000614ba8826142d4565b9150614bb3836142d4565b925082614bc357614bc2614b6e565b5b828204905092915050565b6000614bd9826142d4565b9150614be4836142d4565b925082821015614bf757614bf6614ae5565b5b828203905092915050565b7f4e487b7100000000000000000000000000000000000000000000000000000000600052603260045260246000fd5b6000614c3c826142d4565b91507fffffffffffffffffffffffffffffffffffffffffffffffffffffffffffffffff821415614c6f57614c6e614ae5565b5b600182019050919050565b7f54455354204d757368726f6f6d73203a3a2043616e6e6f742062652063616c6c60008201527f6564206279206120636f6e747261637400000000000000000000000000000000602082015250565b6000614cd66030836144a2565b9150614ce182614c7a565b604082019050919050565b60006020820190508181036000830152614d0581614cc9565b9050919050565b7f54455354204d757368726f6f6d73203a3a204d696e74696e67206973206f6e2060008201527f5061757365000000000000000000000000000000000000000000000000000000602082015250565b6000614d686025836144a2565b9150614d7382614d0c565b604082019050919050565b60006020820190508181036000830152614d9781614d5b565b9050919050565b6000614da9826142d4565b9150614db4836142d4565b9250827fffffffffffffffffffffffffffffffffffffffffffffffffffffffffffffffff03821115614de957614de8614ae5565b5b828201905092915050565b7f54455354204d757368726f6f6d73203a3a2043616e6e6f74206d696e7420626560008201527f796f6e64206d617820737570706c790000000000000000000000000000000000602082015250565b6000614e50602f836144a2565b9150614e5b82614df4565b604082019050919050565b60006020820190508181036000830152614e7f81614e43565b9050919050565b7f54455354204d757368726f6f6d733a3a2043616e6e6f74206d696e742062657960008201527f6f6e642077686974656c697374206d6178206d696e7421000000000000000000602082015250565b6000614ee26037836144a2565b9150614eed82614e86565b604082019050919050565b60006020820190508181036000830152614f1181614ed5565b9050919050565b7f54455354204d757368726f6f6d73203a3a205061796d656e742069732062656c60008201527f6f77207468652070726963650000000000000000000000000000000000000000602082015250565b6000614f74602c836144a2565b9150614f7f82614f18565b604082019050919050565b60006020820190508181036000830152614fa381614f67565b9050919050565b7f54455354204d757368726f6f6d73203a3a20596f752063616e206e6f74206d6960008201527f6e74206d6f7265207468616e20746865206d6178696d756d20616c6c6f77656460208201527f2070657220757365722e00000000000000000000000000000000000000000000604082015250565b600061502c604a836144a2565b915061503782614faa565b606082019050919050565b6000602082019050818103600083015261505b8161501f565b9050919050565b7f54455354204d757368726f6f6d73203a3a20536f72727920796f75206172652060008201527f6e6f74207768697465206c697374656421000000000000000000000000000000602082015250565b60006150be6031836144a2565b91506150c982615062565b604082019050919050565b600060208201905081810360008301526150ed816150b1565b9050919050565b7f54455354204d757368726f6f6d73203a3a204e6f74205965742041637469766560008201527f2e00000000000000000000000000000000000000000000000000000000000000602082015250565b60006151506021836144a2565b915061515b826150f4565b604082019050919050565b6000602082019050818103600083015261517f81615143565b9050919050565b7f54455354204d757368726f6f6d73203a3a204265796f6e64204d61782053757060008201527f706c790000000000000000000000000000000000000000000000000000000000602082015250565b60006151e26023836144a2565b91506151ed82615186565b604082019050919050565b60006020820190508181036000830152615211816151d5565b9050919050565b7f54455354204d757368726f6f6d73203a3a20416c7265616479206d696e74656460008201527f20332074696d6573210000000000000000000000000000000000000000000000602082015250565b60006152746029836144a2565b915061527f82615218565b604082019050919050565b600060208201905081810360008301526152a381615267565b9050919050565b7f54455354204d757368726f6f6d73203a3a2042656c6f77200000000000000000600082015250565b60006152e06018836144a2565b91506152eb826152aa565b602082019050919050565b6000602082019050818103600083015261530f816152d3565b9050919050565b7f54455354204d757368726f6f6d73203a3a205465616d20616c7265616479206d60008201527f696e746564000000000000000000000000000000000000000000000000000000602082015250565b60006153726025836144a2565b915061537d82615316565b604082019050919050565b600060208201905081810360008301526153a181615365565b9050919050565b7f4552433732314d657461646174613a2055524920717565727920666f72206e6f60008201527f6e6578697374656e7420746f6b656e0000000000000000000000000000000000602082015250565b6000615404602f836144a2565b915061540f826153a8565b604082019050919050565b60006020820190508181036000830152615433816153f7565b9050919050565b600081905092915050565b60008190508160005260206000209050919050565b6000815461546781614ab3565b615471818661543a565b9450600182166000811461548c576001811461549d576154d0565b60ff198316865281860193506154d0565b6154a685615445565b60005b838110156154c8578154818901526001820191506020810190506154a9565b838801955050505b50505092915050565b60006154e482614497565b6154ee818561543a565b93506154fe8185602086016144b3565b80840191505092915050565b7f2e6a736f6e000000000000000000000000000000000000000000000000000000600082015250565b600061554060058361543a565b915061554b8261550a565b600582019050919050565b6000615562828561545a565b915061556e82846154d9565b915061557982615533565b91508190509392505050565b7f4f776e61626c653a206e6577206f776e657220697320746865207a65726f206160008201527f6464726573730000000000000000000000000000000000000000000000000000602082015250565b60006155e16026836144a2565b91506155ec82615585565b604082019050919050565b60006020820190508181036000830152615610816155d4565b9050919050565b600081519050919050565b600082825260208201905092915050565b600061563e82615617565b6156488185615622565b93506156588185602086016144b3565b61566181614312565b840191505092915050565b6000608082019050615681600083018761459a565b61568e602083018661459a565b61569b60408301856142de565b81810360608301526156ad8184615633565b905095945050505050565b6000815190506156c7816141ba565b92915050565b6000602082840312156156e3576156e2614184565b5b60006156f1848285016156b8565b91505092915050565b6000615705826142d4565b9150615710836142d4565b9250826157205761571f614b6e565b5b82820690509291505056fea26469706673582212201efe2eba01068081450a21a4522c9b78df35b7ff3a56526015518314c209c35f64736f6c63430008090033",
  "linkReferences": {},
  "deployedLinkReferences": {}
}