{
  "_format": "hh-sol-artifact-1",
  "contractName": "NFTtest2",
  "sourceName": "contracts/ERC721AcontractExtra.sol",
  "abi": [
    {
      "inputs": [],
      "stateMutability": "nonpayable",
      "type": "constructor"
    },
    {
      "inputs": [],
      "name": "ApprovalCallerNotOwnerNorApproved",
      "type": "error"
    },
    {
      "inputs": [],
      "name": "ApprovalQueryForNonexistentToken",
      "type": "error"
    },
    {
      "inputs": [],
      "name": "ApprovalToCurrentOwner",
      "type": "error"
    },
    {
      "inputs": [],
      "name": "ApproveToCaller",
      "type": "error"
    },
    {
      "inputs": [],
      "name": "BalanceQueryForZeroAddress",
      "type": "error"
    },
    {
      "inputs": [],
      "name": "MintToZeroAddress",
      "type": "error"
    },
    {
      "inputs": [],
      "name": "MintZeroQuantity",
      "type": "error"
    },
    {
      "inputs": [],
      "name": "OwnerQueryForNonexistentToken",
      "type": "error"
    },
    {
      "inputs": [],
      "name": "TransferCallerNotOwnerNorApproved",
      "type": "error"
    },
    {
      "inputs": [],
      "name": "TransferFromIncorrectOwner",
      "type": "error"
    },
    {
      "inputs": [],
      "name": "TransferToNonERC721ReceiverImplementer",
      "type": "error"
    },
    {
      "inputs": [],
      "name": "TransferToZeroAddress",
      "type": "error"
    },
    {
      "anonymous": false,
      "inputs": [
        {
          "indexed": true,
          "internalType": "address",
          "name": "owner",
          "type": "address"
        },
        {
          "indexed": true,
          "internalType": "address",
          "name": "approved",
          "type": "address"
        },
        {
          "indexed": true,
          "internalType": "uint256",
          "name": "tokenId",
          "type": "uint256"
        }
      ],
      "name": "Approval",
      "type": "event"
    },
    {
      "anonymous": false,
      "inputs": [
        {
          "indexed": true,
          "internalType": "address",
          "name": "owner",
          "type": "address"
        },
        {
          "indexed": true,
          "internalType": "address",
          "name": "operator",
          "type": "address"
        },
        {
          "indexed": false,
          "internalType": "bool",
          "name": "approved",
          "type": "bool"
        }
      ],
      "name": "ApprovalForAll",
      "type": "event"
    },
    {
      "anonymous": false,
      "inputs": [
        {
          "indexed": true,
          "internalType": "address",
          "name": "previousOwner",
          "type": "address"
        },
        {
          "indexed": true,
          "internalType": "address",
          "name": "newOwner",
          "type": "address"
        }
      ],
      "name": "OwnershipTransferred",
      "type": "event"
    },
    {
      "anonymous": false,
      "inputs": [
        {
          "indexed": true,
          "internalType": "address",
          "name": "from",
          "type": "address"
        },
        {
          "indexed": true,
          "internalType": "address",
          "name": "to",
          "type": "address"
        },
        {
          "indexed": true,
          "internalType": "uint256",
          "name": "tokenId",
          "type": "uint256"
        }
      ],
      "name": "Transfer",
      "type": "event"
    },
    {
      "inputs": [],
      "name": "MAX_PUBLIC_MINT",
      "outputs": [
        {
          "internalType": "uint256",
          "name": "",
          "type": "uint256"
        }
      ],
      "stateMutability": "view",
      "type": "function"
    },
    {
      "inputs": [],
      "name": "MAX_SUPPLY",
      "outputs": [
        {
          "internalType": "uint256",
          "name": "",
          "type": "uint256"
        }
      ],
      "stateMutability": "view",
      "type": "function"
    },
    {
      "inputs": [],
      "name": "MAX_WHITELIST_MINT",
      "outputs": [
        {
          "internalType": "uint256",
          "name": "",
          "type": "uint256"
        }
      ],
      "stateMutability": "view",
      "type": "function"
    },
    {
      "inputs": [],
      "name": "MaxPerPublicWallet",
      "outputs": [
        {
          "internalType": "uint256",
          "name": "",
          "type": "uint256"
        }
      ],
      "stateMutability": "view",
      "type": "function"
    },
    {
      "inputs": [],
      "name": "MaxPerWhiteListWallet",
      "outputs": [
        {
          "internalType": "uint256",
          "name": "",
          "type": "uint256"
        }
      ],
      "stateMutability": "view",
      "type": "function"
    },
    {
      "inputs": [],
      "name": "PUBLIC_SALE_PRICE",
      "outputs": [
        {
          "internalType": "uint256",
          "name": "",
          "type": "uint256"
        }
      ],
      "stateMutability": "view",
      "type": "function"
    },
    {
      "inputs": [],
      "name": "WHITELIST_SALE_PRICE",
      "outputs": [
        {
          "internalType": "uint256",
          "name": "",
          "type": "uint256"
        }
      ],
      "stateMutability": "view",
      "type": "function"
    },
    {
      "inputs": [
        {
          "internalType": "address",
          "name": "to",
          "type": "address"
        },
        {
          "internalType": "uint256",
          "name": "tokenId",
          "type": "uint256"
        }
      ],
      "name": "approve",
      "outputs": [],
      "stateMutability": "nonpayable",
      "type": "function"
    },
    {
      "inputs": [
        {
          "internalType": "address",
          "name": "owner",
          "type": "address"
        }
      ],
      "name": "balanceOf",
      "outputs": [
        {
          "internalType": "uint256",
          "name": "",
          "type": "uint256"
        }
      ],
      "stateMutability": "view",
      "type": "function"
    },
    {
      "inputs": [
        {
          "internalType": "uint256",
          "name": "tokenId",
          "type": "uint256"
        }
      ],
      "name": "getApproved",
      "outputs": [
        {
          "internalType": "address",
          "name": "",
          "type": "address"
        }
      ],
      "stateMutability": "view",
      "type": "function"
    },
    {
      "inputs": [],
      "name": "getMaxPerPublicMint",
      "outputs": [
        {
          "internalType": "uint256",
          "name": "",
          "type": "uint256"
        }
      ],
      "stateMutability": "view",
      "type": "function"
    },
    {
      "inputs": [],
      "name": "getMaxPerPublicWallet",
      "outputs": [
        {
          "internalType": "uint256",
          "name": "",
          "type": "uint256"
        }
      ],
      "stateMutability": "view",
      "type": "function"
    },
    {
      "inputs": [],
      "name": "getMaxPerWhiteListMint",
      "outputs": [
        {
          "internalType": "uint256",
          "name": "",
          "type": "uint256"
        }
      ],
      "stateMutability": "view",
      "type": "function"
    },
    {
      "inputs": [],
      "name": "getMaxPetWhiteListWallet",
      "outputs": [
        {
          "internalType": "uint256",
          "name": "",
          "type": "uint256"
        }
      ],
      "stateMutability": "view",
      "type": "function"
    },
    {
      "inputs": [],
      "name": "getMerkleRoot",
      "outputs": [
        {
          "internalType": "bytes32",
          "name": "",
          "type": "bytes32"
        }
      ],
      "stateMutability": "view",
      "type": "function"
    },
    {
      "inputs": [
        {
          "internalType": "uint256",
          "name": "_quantity",
          "type": "uint256"
        }
      ],
      "name": "getPublicPrice",
      "outputs": [
        {
          "internalType": "uint256",
          "name": "",
          "type": "uint256"
        }
      ],
      "stateMutability": "view",
      "type": "function"
    },
    {
      "inputs": [
        {
          "internalType": "uint256",
          "name": "_quantity",
          "type": "uint256"
        }
      ],
      "name": "getWhiteListPrice",
      "outputs": [
        {
          "internalType": "uint256",
          "name": "",
          "type": "uint256"
        }
      ],
      "stateMutability": "view",
      "type": "function"
    },
    {
      "inputs": [
        {
          "internalType": "address",
          "name": "owner",
          "type": "address"
        },
        {
          "internalType": "address",
          "name": "operator",
          "type": "address"
        }
      ],
      "name": "isApprovedForAll",
      "outputs": [
        {
          "internalType": "bool",
          "name": "",
          "type": "bool"
        }
      ],
      "stateMutability": "view",
      "type": "function"
    },
    {
      "inputs": [],
      "name": "isRevealed",
      "outputs": [
        {
          "internalType": "bool",
          "name": "",
          "type": "bool"
        }
      ],
      "stateMutability": "view",
      "type": "function"
    },
    {
      "inputs": [
        {
          "internalType": "uint256",
          "name": "_quantity",
          "type": "uint256"
        }
      ],
      "name": "mint",
      "outputs": [],
      "stateMutability": "payable",
      "type": "function"
    },
    {
      "inputs": [],
      "name": "name",
      "outputs": [
        {
          "internalType": "string",
          "name": "",
          "type": "string"
        }
      ],
      "stateMutability": "view",
      "type": "function"
    },
    {
      "inputs": [],
      "name": "owner",
      "outputs": [
        {
          "internalType": "address",
          "name": "",
          "type": "address"
        }
      ],
      "stateMutability": "view",
      "type": "function"
    },
    {
      "inputs": [
        {
          "internalType": "uint256",
          "name": "tokenId",
          "type": "uint256"
        }
      ],
      "name": "ownerOf",
      "outputs": [
        {
          "internalType": "address",
          "name": "",
          "type": "address"
        }
      ],
      "stateMutability": "view",
      "type": "function"
    },
    {
      "inputs": [],
      "name": "pause",
      "outputs": [
        {
          "internalType": "bool",
          "name": "",
          "type": "bool"
        }
      ],
      "stateMutability": "view",
      "type": "function"
    },
    {
      "inputs": [],
      "name": "placeholderTokenUri",
      "outputs": [
        {
          "internalType": "string",
          "name": "",
          "type": "string"
        }
      ],
      "stateMutability": "view",
      "type": "function"
    },
    {
      "inputs": [],
      "name": "publicSale",
      "outputs": [
        {
          "internalType": "bool",
          "name": "",
          "type": "bool"
        }
      ],
      "stateMutability": "view",
      "type": "function"
    },
    {
      "inputs": [],
      "name": "renounceOwnership",
      "outputs": [],
      "stateMutability": "nonpayable",
      "type": "function"
    },
    {
      "inputs": [
        {
          "internalType": "address",
          "name": "from",
          "type": "address"
        },
        {
          "internalType": "address",
          "name": "to",
          "type": "address"
        },
        {
          "internalType": "uint256",
          "name": "tokenId",
          "type": "uint256"
        }
      ],
      "name": "safeTransferFrom",
      "outputs": [],
      "stateMutability": "nonpayable",
      "type": "function"
    },
    {
      "inputs": [
        {
          "internalType": "address",
          "name": "from",
          "type": "address"
        },
        {
          "internalType": "address",
          "name": "to",
          "type": "address"
        },
        {
          "internalType": "uint256",
          "name": "tokenId",
          "type": "uint256"
        },
        {
          "internalType": "bytes",
          "name": "_data",
          "type": "bytes"
        }
      ],
      "name": "safeTransferFrom",
      "outputs": [],
      "stateMutability": "nonpayable",
      "type": "function"
    },
    {
      "inputs": [
        {
          "internalType": "address",
          "name": "operator",
          "type": "address"
        },
        {
          "internalType": "bool",
          "name": "approved",
          "type": "bool"
        }
      ],
      "name": "setApprovalForAll",
      "outputs": [],
      "stateMutability": "nonpayable",
      "type": "function"
    },
    {
      "inputs": [
        {
          "internalType": "uint256",
          "name": "_quantity",
          "type": "uint256"
        }
      ],
      "name": "setMaxPerPublicMint",
      "outputs": [],
      "stateMutability": "nonpayable",
      "type": "function"
    },
    {
      "inputs": [
        {
          "internalType": "uint256",
          "name": "_maxPerPublicWallet",
          "type": "uint256"
        }
      ],
      "name": "setMaxPerPublicWallet",
      "outputs": [],
      "stateMutability": "nonpayable",
      "type": "function"
    },
    {
      "inputs": [
        {
          "internalType": "uint256",
          "name": "_quantity",
          "type": "uint256"
        }
      ],
      "name": "setMaxPerWhiteListMint",
      "outputs": [],
      "stateMutability": "nonpayable",
      "type": "function"
    },
    {
      "inputs": [
        {
          "internalType": "uint256",
          "name": "_maxPerWhiteListWallet",
          "type": "uint256"
        }
      ],
      "name": "setMaxPerWhiteListWallet",
      "outputs": [],
      "stateMutability": "nonpayable",
      "type": "function"
    },
    {
      "inputs": [
        {
          "internalType": "bytes32",
          "name": "_merkleRoot",
          "type": "bytes32"
        }
      ],
      "name": "setMerkleRoot",
      "outputs": [],
      "stateMutability": "nonpayable",
      "type": "function"
    },
    {
      "inputs": [
        {
          "internalType": "string",
          "name": "_placeholderTokenUri",
          "type": "string"
        }
      ],
      "name": "setPlaceHolderUri",
      "outputs": [],
      "stateMutability": "nonpayable",
      "type": "function"
    },
    {
      "inputs": [
        {
          "internalType": "uint256",
          "name": "_newPrice",
          "type": "uint256"
        }
      ],
      "name": "setPublicPrice",
      "outputs": [],
      "stateMutability": "nonpayable",
      "type": "function"
    },
    {
      "inputs": [
        {
          "internalType": "string",
          "name": "_baseTokenUri",
          "type": "string"
        }
      ],
      "name": "setTokenUri",
      "outputs": [],
      "stateMutability": "nonpayable",
      "type": "function"
    },
    {
      "inputs": [
        {
          "internalType": "uint256",
          "name": "_newPrice",
          "type": "uint256"
        }
      ],
      "name": "setWhiteListPrice",
      "outputs": [],
      "stateMutability": "nonpayable",
      "type": "function"
    },
    {
      "inputs": [
        {
          "internalType": "bytes4",
          "name": "interfaceId",
          "type": "bytes4"
        }
      ],
      "name": "supportsInterface",
      "outputs": [
        {
          "internalType": "bool",
          "name": "",
          "type": "bool"
        }
      ],
      "stateMutability": "view",
      "type": "function"
    },
    {
      "inputs": [],
      "name": "symbol",
      "outputs": [
        {
          "internalType": "string",
          "name": "",
          "type": "string"
        }
      ],
      "stateMutability": "view",
      "type": "function"
    },
    {
      "inputs": [],
      "name": "teamMint",
      "outputs": [],
      "stateMutability": "nonpayable",
      "type": "function"
    },
    {
      "inputs": [],
      "name": "teamMinted",
      "outputs": [
        {
          "internalType": "bool",
          "name": "",
          "type": "bool"
        }
      ],
      "stateMutability": "view",
      "type": "function"
    },
    {
      "inputs": [],
      "name": "togglePause",
      "outputs": [],
      "stateMutability": "nonpayable",
      "type": "function"
    },
    {
      "inputs": [],
      "name": "togglePublicSale",
      "outputs": [],
      "stateMutability": "nonpayable",
      "type": "function"
    },
    {
      "inputs": [],
      "name": "toggleReveal",
      "outputs": [],
      "stateMutability": "nonpayable",
      "type": "function"
    },
    {
      "inputs": [],
      "name": "toggleWhiteListSale",
      "outputs": [],
      "stateMutability": "nonpayable",
      "type": "function"
    },
    {
      "inputs": [
        {
          "internalType": "uint256",
          "name": "tokenId",
          "type": "uint256"
        }
      ],
      "name": "tokenURI",
      "outputs": [
        {
          "internalType": "string",
          "name": "",
          "type": "string"
        }
      ],
      "stateMutability": "view",
      "type": "function"
    },
    {
      "inputs": [
        {
          "internalType": "address",
          "name": "",
          "type": "address"
        }
      ],
      "name": "totalPublicMint",
      "outputs": [
        {
          "internalType": "uint256",
          "name": "",
          "type": "uint256"
        }
      ],
      "stateMutability": "view",
      "type": "function"
    },
    {
      "inputs": [],
      "name": "totalSupply",
      "outputs": [
        {
          "internalType": "uint256",
          "name": "",
          "type": "uint256"
        }
      ],
      "stateMutability": "view",
      "type": "function"
    },
    {
      "inputs": [
        {
          "internalType": "address",
          "name": "",
          "type": "address"
        }
      ],
      "name": "totalWhitelistMint",
      "outputs": [
        {
          "internalType": "uint256",
          "name": "",
          "type": "uint256"
        }
      ],
      "stateMutability": "view",
      "type": "function"
    },
    {
      "inputs": [
        {
          "internalType": "address",
          "name": "from",
          "type": "address"
        },
        {
          "internalType": "address",
          "name": "to",
          "type": "address"
        },
        {
          "internalType": "uint256",
          "name": "tokenId",
          "type": "uint256"
        }
      ],
      "name": "transferFrom",
      "outputs": [],
      "stateMutability": "nonpayable",
      "type": "function"
    },
    {
      "inputs": [
        {
          "internalType": "address",
          "name": "newOwner",
          "type": "address"
        }
      ],
      "name": "transferOwnership",
      "outputs": [],
      "stateMutability": "nonpayable",
      "type": "function"
    },
    {
      "inputs": [],
      "name": "walletOf",
      "outputs": [
        {
          "internalType": "uint256[]",
          "name": "",
          "type": "uint256[]"
        }
      ],
      "stateMutability": "view",
      "type": "function"
    },
    {
      "inputs": [],
      "name": "whiteListSale",
      "outputs": [
        {
          "internalType": "bool",
          "name": "",
          "type": "bool"
        }
      ],
      "stateMutability": "view",
      "type": "function"
    },
    {
      "inputs": [
        {
          "internalType": "bytes32[]",
          "name": "_merkleProof",
          "type": "bytes32[]"
        },
        {
          "internalType": "uint256",
          "name": "_quantity",
          "type": "uint256"
        }
      ],
      "name": "whitelistMint",
      "outputs": [],
      "stateMutability": "payable",
      "type": "function"
    },
    {
      "inputs": [],
      "name": "withdraw",
      "outputs": [],
      "stateMutability": "nonpayable",
      "type": "function"
    }
  ],
  "bytecode": "0x60806040527390ee4b80c3b15b8b83510be8fcf2bced69a4c9db600960006101000a81548173ffffffffffffffffffffffffffffffffffffffff021916908373ffffffffffffffffffffffffffffffffffffffff1602179055506064600a556064600b556014600c556028600d55666a94d74f430000600e5566470de4df820000600f553480156200009057600080fd5b506040518060400160405280600781526020017f4e465474657374000000000000000000000000000000000000000000000000008152506040518060400160405280600381526020017f4e4654000000000000000000000000000000000000000000000000000000000081525081600290805190602001906200011592919062000240565b5080600390805190602001906200012e92919062000240565b506200013f6200016d60201b60201c565b6000819055505050620001676200015b6200017260201b60201c565b6200017a60201b60201c565b62000355565b600090565b600033905090565b6000600860009054906101000a900473ffffffffffffffffffffffffffffffffffffffff16905081600860006101000a81548173ffffffffffffffffffffffffffffffffffffffff021916908373ffffffffffffffffffffffffffffffffffffffff1602179055508173ffffffffffffffffffffffffffffffffffffffff168173ffffffffffffffffffffffffffffffffffffffff167f8be0079c531659141344cd1fd0a4f28419497f9722a3daafe3b4186f6b6457e060405160405180910390a35050565b8280546200024e906200031f565b90600052602060002090601f016020900481019282620002725760008555620002be565b82601f106200028d57805160ff1916838001178555620002be565b82800160010185558215620002be579182015b82811115620002bd578251825591602001919060010190620002a0565b5b509050620002cd9190620002d1565b5090565b5b80821115620002ec576000816000905550600101620002d2565b5090565b7f4e487b7100000000000000000000000000000000000000000000000000000000600052602260045260246000fd5b600060028204905060018216806200033857607f821691505b602082108114156200034f576200034e620002f0565b5b50919050565b61581b80620003656000396000f3fe6080604052600436106103765760003560e01c80637aa4a712116101d1578063b3202c1211610102578063c6275255116100a0578063e8b5498d1161006f578063e8b5498d14610c40578063e985e9c514610c6b578063f20903e814610ca8578063f2fde38b14610cd157610376565b8063c627525514610b9a578063c87b56dd14610bc3578063d96d1bc714610c00578063e222c7f914610c2957610376565b8063bc912e1a116100dc578063bc912e1a14610b04578063beafc89b14610b2f578063c08dfd3c14610b58578063c4ae316814610b8357610376565b8063b3202c1214610a99578063b88d4fde14610ac4578063ba7a86b814610aed57610376565b80638da5cb5b1161016f578063a0712d6811610149578063a0712d6814610a00578063a22cb46514610a1c578063a4a3828414610a45578063b0962c5314610a7057610376565b80638da5cb5b1461097f5780638f4e38e3146109aa57806395d89b41146109d557610376565b806383a974a2116101ab57806383a974a2146108e75780638456cb591461091257806386a173ee1461093d5780638bb64a8c1461096857610376565b80637aa4a7121461086a5780637cb647591461089357806380398115146108bc57610376565b806332d6e5b0116102ab57806354efb8bf11610249578063636dfd2c11610223578063636dfd2c146107c057806365f13097146107eb57806370a0823114610816578063715018a61461085357610376565b806354efb8bf146107435780635b8ad4291461076c5780636352211e1461078357610376565b806342842e0e1161028557806342842e0e1461069957806349590657146106c25780634cf5f7a4146106ed57806354214f691461071857610376565b806332d6e5b01461061a57806333bc1c5c146106575780633ccfd60b1461068257610376565b806311a6c4901161031857806323b872dd116102f257806323b872dd1461056d5780632904e6d91461059657806330a3f446146105b257806332cb6b0c146105ef57610376565b806311a6c490146104da57806318160ddd146105055780631c16521c1461053057610376565b806306fdde031161035457806306fdde031461041e57806307e89ec014610449578063081812fc14610474578063095ea7b3146104b157610376565b806301ffc9a71461037b5780630345e3cb146103b85780630675b7c6146103f5575b600080fd5b34801561038757600080fd5b506103a2600480360381019061039d91906141c3565b610cfa565b6040516103af919061420b565b60405180910390f35b3480156103c457600080fd5b506103df60048036038101906103da9190614284565b610ddc565b6040516103ec91906142ca565b60405180910390f35b34801561040157600080fd5b5061041c6004803603810190610417919061442b565b610df4565b005b34801561042a57600080fd5b50610433610edb565b60405161044091906144fc565b60405180910390f35b34801561045557600080fd5b5061045e610f6d565b60405161046b91906142ca565b60405180910390f35b34801561048057600080fd5b5061049b6004803603810190610496919061454a565b610f73565b6040516104a89190614586565b60405180910390f35b3480156104bd57600080fd5b506104d860048036038101906104d391906145a1565b610fef565b005b3480156104e657600080fd5b506104ef6110fa565b6040516104fc91906142ca565b60405180910390f35b34801561051157600080fd5b5061051a611100565b60405161052791906142ca565b60405180910390f35b34801561053c57600080fd5b5061055760048036038101906105529190614284565b611117565b60405161056491906142ca565b60405180910390f35b34801561057957600080fd5b50610594600480360381019061058f91906145e1565b61112f565b005b6105b060048036038101906105ab9190614732565b61113f565b005b3480156105be57600080fd5b506105d960048036038101906105d4919061454a565b611466565b6040516105e691906142ca565b60405180910390f35b3480156105fb57600080fd5b5061060461147d565b60405161061191906142ca565b60405180910390f35b34801561062657600080fd5b50610641600480360381019061063c919061454a565b611483565b60405161064e91906142ca565b60405180910390f35b34801561066357600080fd5b5061066c61149a565b604051610679919061420b565b60405180910390f35b34801561068e57600080fd5b506106976114ad565b005b3480156106a557600080fd5b506106c060048036038101906106bb91906145e1565b611744565b005b3480156106ce57600080fd5b506106d7611764565b6040516106e4919061479d565b60405180910390f35b3480156106f957600080fd5b5061070261176e565b60405161070f91906144fc565b60405180910390f35b34801561072457600080fd5b5061072d6117fc565b60405161073a919061420b565b60405180910390f35b34801561074f57600080fd5b5061076a6004803603810190610765919061454a565b61180f565b005b34801561077857600080fd5b506107816118e6565b005b34801561078f57600080fd5b506107aa60048036038101906107a5919061454a565b6119df565b6040516107b79190614586565b60405180910390f35b3480156107cc57600080fd5b506107d56119f5565b6040516107e291906142ca565b60405180910390f35b3480156107f757600080fd5b506108006119ff565b60405161080d91906142ca565b60405180910390f35b34801561082257600080fd5b5061083d60048036038101906108389190614284565b611a05565b60405161084a91906142ca565b60405180910390f35b34801561085f57600080fd5b50610868611ad5565b005b34801561087657600080fd5b50610891600480360381019061088c919061454a565b611bae565b005b34801561089f57600080fd5b506108ba60048036038101906108b591906147b8565b611c85565b005b3480156108c857600080fd5b506108d1611d5c565b6040516108de91906142ca565b60405180910390f35b3480156108f357600080fd5b506108fc611d66565b60405161090991906148a3565b60405180910390f35b34801561091e57600080fd5b50610927611def565b604051610934919061420b565b60405180910390f35b34801561094957600080fd5b50610952611e02565b60405161095f919061420b565b60405180910390f35b34801561097457600080fd5b5061097d611e15565b005b34801561098b57600080fd5b50610994611f0e565b6040516109a19190614586565b60405180910390f35b3480156109b657600080fd5b506109bf611f38565b6040516109cc91906142ca565b60405180910390f35b3480156109e157600080fd5b506109ea611f42565b6040516109f791906144fc565b60405180910390f35b610a1a6004803603810190610a15919061454a565b611fd4565b005b348015610a2857600080fd5b50610a436004803603810190610a3e91906148f1565b612282565b005b348015610a5157600080fd5b50610a5a6123fa565b604051610a6791906142ca565b60405180910390f35b348015610a7c57600080fd5b50610a976004803603810190610a92919061442b565b612404565b005b348015610aa557600080fd5b50610aae6124eb565b604051610abb91906142ca565b60405180910390f35b348015610ad057600080fd5b50610aeb6004803603810190610ae691906149d2565b6124f1565b005b348015610af957600080fd5b50610b0261256d565b005b348015610b1057600080fd5b50610b196126b2565b604051610b2691906142ca565b60405180910390f35b348015610b3b57600080fd5b50610b566004803603810190610b51919061454a565b6126b8565b005b348015610b6457600080fd5b50610b6d61278f565b604051610b7a91906142ca565b60405180910390f35b348015610b8f57600080fd5b50610b98612795565b005b348015610ba657600080fd5b50610bc16004803603810190610bbc919061454a565b61288e565b005b348015610bcf57600080fd5b50610bea6004803603810190610be5919061454a565b612965565b604051610bf791906144fc565b60405180910390f35b348015610c0c57600080fd5b50610c276004803603810190610c22919061454a565b612ac7565b005b348015610c3557600080fd5b50610c3e612b9e565b005b348015610c4c57600080fd5b50610c55612c97565b604051610c62919061420b565b60405180910390f35b348015610c7757600080fd5b50610c926004803603810190610c8d9190614a55565b612caa565b604051610c9f919061420b565b60405180910390f35b348015610cb457600080fd5b50610ccf6004803603810190610cca919061454a565b612d3e565b005b348015610cdd57600080fd5b50610cf86004803603810190610cf39190614284565b612e15565b005b60007f80ac58cd000000000000000000000000000000000000000000000000000000007bffffffffffffffffffffffffffffffffffffffffffffffffffffffff1916827bffffffffffffffffffffffffffffffffffffffffffffffffffffffff19161480610dc557507f5b5e139f000000000000000000000000000000000000000000000000000000007bffffffffffffffffffffffffffffffffffffffffffffffffffffffff1916827bffffffffffffffffffffffffffffffffffffffffffffffffffffffff1916145b80610dd55750610dd482612f5e565b5b9050919050565b60156020528060005260406000206000915090505481565b3373ffffffffffffffffffffffffffffffffffffffff16610e13611f0e565b73ffffffffffffffffffffffffffffffffffffffff161480610e8257503373ffffffffffffffffffffffffffffffffffffffff16600960009054906101000a900473ffffffffffffffffffffffffffffffffffffffff1673ffffffffffffffffffffffffffffffffffffffff16145b610ec1576040517f08c379a0000000000000000000000000000000000000000000000000000000008152600401610eb890614ae1565b60405180910390fd5b8060109080519060200190610ed7929190614071565b5050565b606060028054610eea90614b30565b80601f0160208091040260200160405190810160405280929190818152602001828054610f1690614b30565b8015610f635780601f10610f3857610100808354040283529160200191610f63565b820191906000526020600020905b815481529060010190602001808311610f4657829003601f168201915b5050505050905090565b600e5481565b6000610f7e82612fc8565b610fb4576040517fcf4700e400000000000000000000000000000000000000000000000000000000815260040160405180910390fd5b6006600083815260200190815260200160002060009054906101000a900473ffffffffffffffffffffffffffffffffffffffff169050919050565b6000610ffa826119df565b90508073ffffffffffffffffffffffffffffffffffffffff168373ffffffffffffffffffffffffffffffffffffffff161415611062576040517f943f7b8c00000000000000000000000000000000000000000000000000000000815260040160405180910390fd5b8073ffffffffffffffffffffffffffffffffffffffff16611081613016565b73ffffffffffffffffffffffffffffffffffffffff16141580156110b357506110b1816110ac613016565b612caa565b155b156110ea576040517fcfb3b94200000000000000000000000000000000000000000000000000000000815260040160405180910390fd5b6110f583838361301e565b505050565b600c5481565b600061110a6130d0565b6001546000540303905090565b60146020528060005260406000206000915090505481565b61113a8383836130d5565b505050565b3373ffffffffffffffffffffffffffffffffffffffff163273ffffffffffffffffffffffffffffffffffffffff16146111ad576040517f08c379a00000000000000000000000000000000000000000000000000000000081526004016111a490614bd4565b60405180910390fd5b601260029054906101000a900460ff166111fc576040517f08c379a00000000000000000000000000000000000000000000000000000000081526004016111f390614c66565b60405180910390fd5b6108ae81611208611100565b6112129190614cb5565b1115611253576040517f08c379a000000000000000000000000000000000000000000000000000000000815260040161124a90614d7d565b60405180910390fd5b600b5481601560003373ffffffffffffffffffffffffffffffffffffffff1673ffffffffffffffffffffffffffffffffffffffff168152602001908152602001600020546112a19190614cb5565b11156112e2576040517f08c379a00000000000000000000000000000000000000000000000000000000081526004016112d990614e0f565b60405180910390fd5b80600f546112f09190614e2f565b341015611332576040517f08c379a000000000000000000000000000000000000000000000000000000000815260040161132990614efb565b60405180910390fd5b600d5461133e33611a05565b826113499190614cb5565b111561138a576040517f08c379a000000000000000000000000000000000000000000000000000000000815260040161138190614f8d565b60405180910390fd5b60003360405160200161139d9190614ff5565b6040516020818303038152906040528051906020012090506113c2836013548361358b565b611401576040517f08c379a00000000000000000000000000000000000000000000000000000000081526004016113f890615082565b60405180910390fd5b81601560003373ffffffffffffffffffffffffffffffffffffffff1673ffffffffffffffffffffffffffffffffffffffff16815260200190815260200160002060008282546114509190614cb5565b9250508190555061146133836135a2565b505050565b6000600e54826114769190614e2f565b9050919050565b6108ae81565b6000600f54826114939190614e2f565b9050919050565b601260019054906101000a900460ff1681565b3373ffffffffffffffffffffffffffffffffffffffff166114cc611f0e565b73ffffffffffffffffffffffffffffffffffffffff16148061153b57503373ffffffffffffffffffffffffffffffffffffffff16600960009054906101000a900473ffffffffffffffffffffffffffffffffffffffff1673ffffffffffffffffffffffffffffffffffffffff16145b61157a576040517f08c379a000000000000000000000000000000000000000000000000000000000815260040161157190614ae1565b60405180910390fd5b6000606460234761158b9190614e2f565b61159591906150d1565b905060006064601483476115a99190615102565b6115b39190614e2f565b6115bd91906150d1565b905060006064600584476115d19190615102565b6115db9190614e2f565b6115e591906150d1565b9050735008139c6e151f2464002255527ea5873566a2b873ffffffffffffffffffffffffffffffffffffffff166108fc849081150290604051600060405180830381858888f19350505050158015611641573d6000803e3d6000fd5b507328f99cfb1426837332397b438555ce494ba96d3473ffffffffffffffffffffffffffffffffffffffff166108fc839081150290604051600060405180830381858888f1935050505015801561169c573d6000803e3d6000fd5b507353e59b7d7346f30096a80ae8359a264271f65bc873ffffffffffffffffffffffffffffffffffffffff166108fc829081150290604051600060405180830381858888f193505050501580156116f7573d6000803e3d6000fd5b503373ffffffffffffffffffffffffffffffffffffffff166108fc479081150290604051600060405180830381858888f1935050505015801561173e573d6000803e3d6000fd5b50505050565b61175f838383604051806020016040528060008152506124f1565b505050565b6000601354905090565b6011805461177b90614b30565b80601f01602080910402602001604051908101604052809291908181526020018280546117a790614b30565b80156117f45780601f106117c9576101008083540402835291602001916117f4565b820191906000526020600020905b8154815290600101906020018083116117d757829003601f168201915b505050505081565b601260009054906101000a900460ff1681565b3373ffffffffffffffffffffffffffffffffffffffff1661182e611f0e565b73ffffffffffffffffffffffffffffffffffffffff16148061189d57503373ffffffffffffffffffffffffffffffffffffffff16600960009054906101000a900473ffffffffffffffffffffffffffffffffffffffff1673ffffffffffffffffffffffffffffffffffffffff16145b6118dc576040517f08c379a00000000000000000000000000000000000000000000000000000000081526004016118d390614ae1565b60405180910390fd5b80600a8190555050565b3373ffffffffffffffffffffffffffffffffffffffff16611905611f0e565b73ffffffffffffffffffffffffffffffffffffffff16148061197457503373ffffffffffffffffffffffffffffffffffffffff16600960009054906101000a900473ffffffffffffffffffffffffffffffffffffffff1673ffffffffffffffffffffffffffffffffffffffff16145b6119b3576040517f08c379a00000000000000000000000000000000000000000000000000000000081526004016119aa90614ae1565b60405180910390fd5b601260009054906101000a900460ff1615601260006101000a81548160ff021916908315150217905550565b60006119ea826135c0565b600001519050919050565b6000600a54905090565b600a5481565b60008073ffffffffffffffffffffffffffffffffffffffff168273ffffffffffffffffffffffffffffffffffffffff161415611a6d576040517f8f4eb60400000000000000000000000000000000000000000000000000000000815260040160405180910390fd5b600560008373ffffffffffffffffffffffffffffffffffffffff1673ffffffffffffffffffffffffffffffffffffffff16815260200190815260200160002060000160009054906101000a900467ffffffffffffffff1667ffffffffffffffff169050919050565b3373ffffffffffffffffffffffffffffffffffffffff16611af4611f0e565b73ffffffffffffffffffffffffffffffffffffffff161480611b6357503373ffffffffffffffffffffffffffffffffffffffff16600960009054906101000a900473ffffffffffffffffffffffffffffffffffffffff1673ffffffffffffffffffffffffffffffffffffffff16145b611ba2576040517f08c379a0000000000000000000000000000000000000000000000000000000008152600401611b9990614ae1565b60405180910390fd5b611bac600061384f565b565b3373ffffffffffffffffffffffffffffffffffffffff16611bcd611f0e565b73ffffffffffffffffffffffffffffffffffffffff161480611c3c57503373ffffffffffffffffffffffffffffffffffffffff16600960009054906101000a900473ffffffffffffffffffffffffffffffffffffffff1673ffffffffffffffffffffffffffffffffffffffff16145b611c7b576040517f08c379a0000000000000000000000000000000000000000000000000000000008152600401611c7290614ae1565b60405180910390fd5b80600c8190555050565b3373ffffffffffffffffffffffffffffffffffffffff16611ca4611f0e565b73ffffffffffffffffffffffffffffffffffffffff161480611d1357503373ffffffffffffffffffffffffffffffffffffffff16600960009054906101000a900473ffffffffffffffffffffffffffffffffffffffff1673ffffffffffffffffffffffffffffffffffffffff16145b611d52576040517f08c379a0000000000000000000000000000000000000000000000000000000008152600401611d4990614ae1565b60405180910390fd5b8060138190555050565b6000600c54905090565b606060003390506000611d7882611a05565b905060008167ffffffffffffffff811115611d9657611d95614300565b5b604051908082528060200260200182016040528015611dc45781602001602082028036833780820191505090505b50905060005b82811015611de5578080611ddd90615136565b915050611dca565b5080935050505090565b601260039054906101000a900460ff1681565b601260029054906101000a900460ff1681565b3373ffffffffffffffffffffffffffffffffffffffff16611e34611f0e565b73ffffffffffffffffffffffffffffffffffffffff161480611ea357503373ffffffffffffffffffffffffffffffffffffffff16600960009054906101000a900473ffffffffffffffffffffffffffffffffffffffff1673ffffffffffffffffffffffffffffffffffffffff16145b611ee2576040517f08c379a0000000000000000000000000000000000000000000000000000000008152600401611ed990614ae1565b60405180910390fd5b601260029054906101000a900460ff1615601260026101000a81548160ff021916908315150217905550565b6000600860009054906101000a900473ffffffffffffffffffffffffffffffffffffffff16905090565b6000600b54905090565b606060038054611f5190614b30565b80601f0160208091040260200160405190810160405280929190818152602001828054611f7d90614b30565b8015611fca5780601f10611f9f57610100808354040283529160200191611fca565b820191906000526020600020905b815481529060010190602001808311611fad57829003601f168201915b5050505050905090565b3373ffffffffffffffffffffffffffffffffffffffff163273ffffffffffffffffffffffffffffffffffffffff1614612042576040517f08c379a000000000000000000000000000000000000000000000000000000000815260040161203990614bd4565b60405180910390fd5b601260019054906101000a900460ff16612091576040517f08c379a0000000000000000000000000000000000000000000000000000000008152600401612088906151f1565b60405180910390fd5b6108ae8161209d611100565b6120a79190614cb5565b11156120e8576040517f08c379a00000000000000000000000000000000000000000000000000000000081526004016120df90615283565b60405180910390fd5b600a5481601460003373ffffffffffffffffffffffffffffffffffffffff1673ffffffffffffffffffffffffffffffffffffffff168152602001908152602001600020546121369190614cb5565b1115612177576040517f08c379a000000000000000000000000000000000000000000000000000000000815260040161216e90615315565b60405180910390fd5b80600e546121859190614e2f565b3410156121c7576040517f08c379a00000000000000000000000000000000000000000000000000000000081526004016121be90615381565b60405180910390fd5b600c546121d333611a05565b826121de9190614cb5565b111561221f576040517f08c379a000000000000000000000000000000000000000000000000000000000815260040161221690614f8d565b60405180910390fd5b80601460003373ffffffffffffffffffffffffffffffffffffffff1673ffffffffffffffffffffffffffffffffffffffff168152602001908152602001600020600082825461226e9190614cb5565b9250508190555061227f33826135a2565b50565b61228a613016565b73ffffffffffffffffffffffffffffffffffffffff168273ffffffffffffffffffffffffffffffffffffffff1614156122ef576040517fb06307db00000000000000000000000000000000000000000000000000000000815260040160405180910390fd5b80600760006122fc613016565b73ffffffffffffffffffffffffffffffffffffffff1673ffffffffffffffffffffffffffffffffffffffff16815260200190815260200160002060008473ffffffffffffffffffffffffffffffffffffffff1673ffffffffffffffffffffffffffffffffffffffff16815260200190815260200160002060006101000a81548160ff0219169083151502179055508173ffffffffffffffffffffffffffffffffffffffff166123a9613016565b73ffffffffffffffffffffffffffffffffffffffff167f17307eab39ab6107e8899845ad3d59bd9653f200f220920489ca2b5937696c31836040516123ee919061420b565b60405180910390a35050565b6000600d54905090565b3373ffffffffffffffffffffffffffffffffffffffff16612423611f0e565b73ffffffffffffffffffffffffffffffffffffffff16148061249257503373ffffffffffffffffffffffffffffffffffffffff16600960009054906101000a900473ffffffffffffffffffffffffffffffffffffffff1673ffffffffffffffffffffffffffffffffffffffff16145b6124d1576040517f08c379a00000000000000000000000000000000000000000000000000000000081526004016124c890614ae1565b60405180910390fd5b80601190805190602001906124e7929190614071565b5050565b600d5481565b6124fc8484846130d5565b61251b8373ffffffffffffffffffffffffffffffffffffffff16613915565b8015612530575061252e84848484613938565b155b15612567576040517fd1a57ed600000000000000000000000000000000000000000000000000000000815260040160405180910390fd5b50505050565b3373ffffffffffffffffffffffffffffffffffffffff1661258c611f0e565b73ffffffffffffffffffffffffffffffffffffffff1614806125fb57503373ffffffffffffffffffffffffffffffffffffffff16600960009054906101000a900473ffffffffffffffffffffffffffffffffffffffff1673ffffffffffffffffffffffffffffffffffffffff16145b61263a576040517f08c379a000000000000000000000000000000000000000000000000000000000815260040161263190614ae1565b60405180910390fd5b601260049054906101000a900460ff161561268a576040517f08c379a000000000000000000000000000000000000000000000000000000000815260040161268190615413565b60405180910390fd5b6001601260046101000a81548160ff0219169083151502179055506126b03360c86135a2565b565b600f5481565b3373ffffffffffffffffffffffffffffffffffffffff166126d7611f0e565b73ffffffffffffffffffffffffffffffffffffffff16148061274657503373ffffffffffffffffffffffffffffffffffffffff16600960009054906101000a900473ffffffffffffffffffffffffffffffffffffffff1673ffffffffffffffffffffffffffffffffffffffff16145b612785576040517f08c379a000000000000000000000000000000000000000000000000000000000815260040161277c90614ae1565b60405180910390fd5b80600f8190555050565b600b5481565b3373ffffffffffffffffffffffffffffffffffffffff166127b4611f0e565b73ffffffffffffffffffffffffffffffffffffffff16148061282357503373ffffffffffffffffffffffffffffffffffffffff16600960009054906101000a900473ffffffffffffffffffffffffffffffffffffffff1673ffffffffffffffffffffffffffffffffffffffff16145b612862576040517f08c379a000000000000000000000000000000000000000000000000000000000815260040161285990614ae1565b60405180910390fd5b601260039054906101000a900460ff1615601260036101000a81548160ff021916908315150217905550565b3373ffffffffffffffffffffffffffffffffffffffff166128ad611f0e565b73ffffffffffffffffffffffffffffffffffffffff16148061291c57503373ffffffffffffffffffffffffffffffffffffffff16600960009054906101000a900473ffffffffffffffffffffffffffffffffffffffff1673ffffffffffffffffffffffffffffffffffffffff16145b61295b576040517f08c379a000000000000000000000000000000000000000000000000000000000815260040161295290614ae1565b60405180910390fd5b80600e8190555050565b606061297082612fc8565b6129af576040517f08c379a00000000000000000000000000000000000000000000000000000000081526004016129a6906154a5565b60405180910390fd5b60006001836129be9190614cb5565b9050601260009054906101000a900460ff16612a6757601180546129e190614b30565b80601f0160208091040260200160405190810160405280929190818152602001828054612a0d90614b30565b8015612a5a5780601f10612a2f57610100808354040283529160200191612a5a565b820191906000526020600020905b815481529060010190602001808311612a3d57829003601f168201915b5050505050915050612ac2565b600060108054612a7690614b30565b905011612a925760405180602001604052806000815250612abe565b6010612a9d82613a98565b604051602001612aae9291906155e1565b6040516020818303038152906040525b9150505b919050565b3373ffffffffffffffffffffffffffffffffffffffff16612ae6611f0e565b73ffffffffffffffffffffffffffffffffffffffff161480612b5557503373ffffffffffffffffffffffffffffffffffffffff16600960009054906101000a900473ffffffffffffffffffffffffffffffffffffffff1673ffffffffffffffffffffffffffffffffffffffff16145b612b94576040517f08c379a0000000000000000000000000000000000000000000000000000000008152600401612b8b90614ae1565b60405180910390fd5b80600b8190555050565b3373ffffffffffffffffffffffffffffffffffffffff16612bbd611f0e565b73ffffffffffffffffffffffffffffffffffffffff161480612c2c57503373ffffffffffffffffffffffffffffffffffffffff16600960009054906101000a900473ffffffffffffffffffffffffffffffffffffffff1673ffffffffffffffffffffffffffffffffffffffff16145b612c6b576040517f08c379a0000000000000000000000000000000000000000000000000000000008152600401612c6290614ae1565b60405180910390fd5b601260019054906101000a900460ff1615601260016101000a81548160ff021916908315150217905550565b601260049054906101000a900460ff1681565b6000600760008473ffffffffffffffffffffffffffffffffffffffff1673ffffffffffffffffffffffffffffffffffffffff16815260200190815260200160002060008373ffffffffffffffffffffffffffffffffffffffff1673ffffffffffffffffffffffffffffffffffffffff16815260200190815260200160002060009054906101000a900460ff16905092915050565b3373ffffffffffffffffffffffffffffffffffffffff16612d5d611f0e565b73ffffffffffffffffffffffffffffffffffffffff161480612dcc57503373ffffffffffffffffffffffffffffffffffffffff16600960009054906101000a900473ffffffffffffffffffffffffffffffffffffffff1673ffffffffffffffffffffffffffffffffffffffff16145b612e0b576040517f08c379a0000000000000000000000000000000000000000000000000000000008152600401612e0290614ae1565b60405180910390fd5b80600d8190555050565b3373ffffffffffffffffffffffffffffffffffffffff16612e34611f0e565b73ffffffffffffffffffffffffffffffffffffffff161480612ea357503373ffffffffffffffffffffffffffffffffffffffff16600960009054906101000a900473ffffffffffffffffffffffffffffffffffffffff1673ffffffffffffffffffffffffffffffffffffffff16145b612ee2576040517f08c379a0000000000000000000000000000000000000000000000000000000008152600401612ed990614ae1565b60405180910390fd5b600073ffffffffffffffffffffffffffffffffffffffff168173ffffffffffffffffffffffffffffffffffffffff161415612f52576040517f08c379a0000000000000000000000000000000000000000000000000000000008152600401612f4990615682565b60405180910390fd5b612f5b8161384f565b50565b60007f01ffc9a7000000000000000000000000000000000000000000000000000000007bffffffffffffffffffffffffffffffffffffffffffffffffffffffff1916827bffffffffffffffffffffffffffffffffffffffffffffffffffffffff1916149050919050565b600081612fd36130d0565b11158015612fe2575060005482105b801561300f575060046000838152602001908152602001600020600001601c9054906101000a900460ff16155b9050919050565b600033905090565b826006600084815260200190815260200160002060006101000a81548173ffffffffffffffffffffffffffffffffffffffff021916908373ffffffffffffffffffffffffffffffffffffffff160217905550818373ffffffffffffffffffffffffffffffffffffffff168273ffffffffffffffffffffffffffffffffffffffff167f8c5be1e5ebec7d5bd14f71427d1e84f3dd0314c0f7b2291e5b200ac8c7c3b92560405160405180910390a4505050565b600090565b60006130e0826135c0565b90508373ffffffffffffffffffffffffffffffffffffffff16816000015173ffffffffffffffffffffffffffffffffffffffff161461314b576040517fa114810000000000000000000000000000000000000000000000000000000000815260040160405180910390fd5b60008473ffffffffffffffffffffffffffffffffffffffff1661316c613016565b73ffffffffffffffffffffffffffffffffffffffff16148061319b575061319a85613195613016565b612caa565b5b806131e057506131a9613016565b73ffffffffffffffffffffffffffffffffffffffff166131c884610f73565b73ffffffffffffffffffffffffffffffffffffffff16145b905080613219576040517f59c896be00000000000000000000000000000000000000000000000000000000815260040160405180910390fd5b600073ffffffffffffffffffffffffffffffffffffffff168473ffffffffffffffffffffffffffffffffffffffff161415613280576040517fea553b3400000000000000000000000000000000000000000000000000000000815260040160405180910390fd5b61328d8585856001613bf9565b6132996000848761301e565b6001600560008773ffffffffffffffffffffffffffffffffffffffff1673ffffffffffffffffffffffffffffffffffffffff16815260200190815260200160002060000160008282829054906101000a900467ffffffffffffffff160392506101000a81548167ffffffffffffffff021916908367ffffffffffffffff1602179055506001600560008673ffffffffffffffffffffffffffffffffffffffff1673ffffffffffffffffffffffffffffffffffffffff16815260200190815260200160002060000160008282829054906101000a900467ffffffffffffffff160192506101000a81548167ffffffffffffffff021916908367ffffffffffffffff1602179055506000600460008581526020019081526020016000209050848160000160006101000a81548173ffffffffffffffffffffffffffffffffffffffff021916908373ffffffffffffffffffffffffffffffffffffffff160217905550428160000160146101000a81548167ffffffffffffffff021916908367ffffffffffffffff16021790555060006001850190506000600460008381526020019081526020016000209050600073ffffffffffffffffffffffffffffffffffffffff168160000160009054906101000a900473ffffffffffffffffffffffffffffffffffffffff1673ffffffffffffffffffffffffffffffffffffffff16141561351957600054821461351857878160000160006101000a81548173ffffffffffffffffffffffffffffffffffffffff021916908373ffffffffffffffffffffffffffffffffffffffff16021790555084602001518160000160146101000a81548167ffffffffffffffff021916908367ffffffffffffffff1602179055505b5b505050828473ffffffffffffffffffffffffffffffffffffffff168673ffffffffffffffffffffffffffffffffffffffff167fddf252ad1be2c89b69c2b068fc378daa952ba7f163c4a11628f55a4df523b3ef60405160405180910390a46135848585856001613bff565b5050505050565b6000826135988584613c05565b1490509392505050565b6135bc828260405180602001604052806000815250613c7a565b5050565b6135c86140f7565b6000829050806135d66130d0565b111580156135e5575060005481105b15613818576000600460008381526020019081526020016000206040518060600160405290816000820160009054906101000a900473ffffffffffffffffffffffffffffffffffffffff1673ffffffffffffffffffffffffffffffffffffffff1673ffffffffffffffffffffffffffffffffffffffff1681526020016000820160149054906101000a900467ffffffffffffffff1667ffffffffffffffff1667ffffffffffffffff16815260200160008201601c9054906101000a900460ff1615151515815250509050806040015161381657600073ffffffffffffffffffffffffffffffffffffffff16816000015173ffffffffffffffffffffffffffffffffffffffff16146136fa57809250505061384a565b5b60011561381557818060019003925050600460008381526020019081526020016000206040518060600160405290816000820160009054906101000a900473ffffffffffffffffffffffffffffffffffffffff1673ffffffffffffffffffffffffffffffffffffffff1673ffffffffffffffffffffffffffffffffffffffff1681526020016000820160149054906101000a900467ffffffffffffffff1667ffffffffffffffff1667ffffffffffffffff16815260200160008201601c9054906101000a900460ff1615151515815250509050600073ffffffffffffffffffffffffffffffffffffffff16816000015173ffffffffffffffffffffffffffffffffffffffff161461381057809250505061384a565b6136fb565b5b505b6040517fdf2d9b4200000000000000000000000000000000000000000000000000000000815260040160405180910390fd5b919050565b6000600860009054906101000a900473ffffffffffffffffffffffffffffffffffffffff16905081600860006101000a81548173ffffffffffffffffffffffffffffffffffffffff021916908373ffffffffffffffffffffffffffffffffffffffff1602179055508173ffffffffffffffffffffffffffffffffffffffff168173ffffffffffffffffffffffffffffffffffffffff167f8be0079c531659141344cd1fd0a4f28419497f9722a3daafe3b4186f6b6457e060405160405180910390a35050565b6000808273ffffffffffffffffffffffffffffffffffffffff163b119050919050565b60008373ffffffffffffffffffffffffffffffffffffffff1663150b7a0261395e613016565b8786866040518563ffffffff1660e01b815260040161398094939291906156f7565b602060405180830381600087803b15801561399a57600080fd5b505af19250505080156139cb57506040513d601f19601f820116820180604052508101906139c89190615758565b60015b613a45573d80600081146139fb576040519150601f19603f3d011682016040523d82523d6000602084013e613a00565b606091505b50600081511415613a3d576040517fd1a57ed600000000000000000000000000000000000000000000000000000000815260040160405180910390fd5b805181602001fd5b63150b7a0260e01b7bffffffffffffffffffffffffffffffffffffffffffffffffffffffff1916817bffffffffffffffffffffffffffffffffffffffffffffffffffffffff191614915050949350505050565b60606000821415613ae0576040518060400160405280600181526020017f30000000000000000000000000000000000000000000000000000000000000008152509050613bf4565b600082905060005b60008214613b12578080613afb90615136565b915050600a82613b0b91906150d1565b9150613ae8565b60008167ffffffffffffffff811115613b2e57613b2d614300565b5b6040519080825280601f01601f191660200182016040528015613b605781602001600182028036833780820191505090505b5090505b60008514613bed57600182613b799190615102565b9150600a85613b889190615785565b6030613b949190614cb5565b60f81b818381518110613baa57613ba96157b6565b5b60200101907effffffffffffffffffffffffffffffffffffffffffffffffffffffffffffff1916908160001a905350600a85613be691906150d1565b9450613b64565b8093505050505b919050565b50505050565b50505050565b60008082905060005b8451811015613c6f576000858281518110613c2c57613c2b6157b6565b5b60200260200101519050808311613c4e57613c478382613c8c565b9250613c5b565b613c588184613c8c565b92505b508080613c6790615136565b915050613c0e565b508091505092915050565b613c878383836001613ca3565b505050565b600082600052816020526040600020905092915050565b600080549050600073ffffffffffffffffffffffffffffffffffffffff168573ffffffffffffffffffffffffffffffffffffffff161415613d10576040517f2e07630000000000000000000000000000000000000000000000000000000000815260040160405180910390fd5b6000841415613d4b576040517fb562e8dd00000000000000000000000000000000000000000000000000000000815260040160405180910390fd5b613d586000868387613bf9565b83600560008773ffffffffffffffffffffffffffffffffffffffff1673ffffffffffffffffffffffffffffffffffffffff16815260200190815260200160002060000160008282829054906101000a900467ffffffffffffffff160192506101000a81548167ffffffffffffffff021916908367ffffffffffffffff16021790555083600560008773ffffffffffffffffffffffffffffffffffffffff1673ffffffffffffffffffffffffffffffffffffffff16815260200190815260200160002060000160088282829054906101000a900467ffffffffffffffff160192506101000a81548167ffffffffffffffff021916908367ffffffffffffffff160217905550846004600083815260200190815260200160002060000160006101000a81548173ffffffffffffffffffffffffffffffffffffffff021916908373ffffffffffffffffffffffffffffffffffffffff160217905550426004600083815260200190815260200160002060000160146101000a81548167ffffffffffffffff021916908367ffffffffffffffff160217905550600081905060008582019050838015613f225750613f218773ffffffffffffffffffffffffffffffffffffffff16613915565b5b15613fe8575b818773ffffffffffffffffffffffffffffffffffffffff16600073ffffffffffffffffffffffffffffffffffffffff167fddf252ad1be2c89b69c2b068fc378daa952ba7f163c4a11628f55a4df523b3ef60405160405180910390a4613f976000888480600101955088613938565b613fcd576040517fd1a57ed600000000000000000000000000000000000000000000000000000000815260040160405180910390fd5b80821415613f28578260005414613fe357600080fd5b614054565b5b818060010192508773ffffffffffffffffffffffffffffffffffffffff16600073ffffffffffffffffffffffffffffffffffffffff167fddf252ad1be2c89b69c2b068fc378daa952ba7f163c4a11628f55a4df523b3ef60405160405180910390a480821415613fe9575b81600081905550505061406a6000868387613bff565b5050505050565b82805461407d90614b30565b90600052602060002090601f01602090048101928261409f57600085556140e6565b82601f106140b857805160ff19168380011785556140e6565b828001600101855582156140e6579182015b828111156140e55782518255916020019190600101906140ca565b5b5090506140f3919061413a565b5090565b6040518060600160405280600073ffffffffffffffffffffffffffffffffffffffff168152602001600067ffffffffffffffff1681526020016000151581525090565b5b8082111561415357600081600090555060010161413b565b5090565b6000604051905090565b600080fd5b600080fd5b60007fffffffff0000000000000000000000000000000000000000000000000000000082169050919050565b6141a08161416b565b81146141ab57600080fd5b50565b6000813590506141bd81614197565b92915050565b6000602082840312156141d9576141d8614161565b5b60006141e7848285016141ae565b91505092915050565b60008115159050919050565b614205816141f0565b82525050565b600060208201905061422060008301846141fc565b92915050565b600073ffffffffffffffffffffffffffffffffffffffff82169050919050565b600061425182614226565b9050919050565b61426181614246565b811461426c57600080fd5b50565b60008135905061427e81614258565b92915050565b60006020828403121561429a57614299614161565b5b60006142a88482850161426f565b91505092915050565b6000819050919050565b6142c4816142b1565b82525050565b60006020820190506142df60008301846142bb565b92915050565b600080fd5b600080fd5b6000601f19601f8301169050919050565b7f4e487b7100000000000000000000000000000000000000000000000000000000600052604160045260246000fd5b614338826142ef565b810181811067ffffffffffffffff8211171561435757614356614300565b5b80604052505050565b600061436a614157565b9050614376828261432f565b919050565b600067ffffffffffffffff82111561439657614395614300565b5b61439f826142ef565b9050602081019050919050565b82818337600083830152505050565b60006143ce6143c98461437b565b614360565b9050828152602081018484840111156143ea576143e96142ea565b5b6143f58482856143ac565b509392505050565b600082601f830112614412576144116142e5565b5b81356144228482602086016143bb565b91505092915050565b60006020828403121561444157614440614161565b5b600082013567ffffffffffffffff81111561445f5761445e614166565b5b61446b848285016143fd565b91505092915050565b600081519050919050565b600082825260208201905092915050565b60005b838110156144ae578082015181840152602081019050614493565b838111156144bd576000848401525b50505050565b60006144ce82614474565b6144d8818561447f565b93506144e8818560208601614490565b6144f1816142ef565b840191505092915050565b6000602082019050818103600083015261451681846144c3565b905092915050565b614527816142b1565b811461453257600080fd5b50565b6000813590506145448161451e565b92915050565b6000602082840312156145605761455f614161565b5b600061456e84828501614535565b91505092915050565b61458081614246565b82525050565b600060208201905061459b6000830184614577565b92915050565b600080604083850312156145b8576145b7614161565b5b60006145c68582860161426f565b92505060206145d785828601614535565b9150509250929050565b6000806000606084860312156145fa576145f9614161565b5b60006146088682870161426f565b93505060206146198682870161426f565b925050604061462a86828701614535565b9150509250925092565b600067ffffffffffffffff82111561464f5761464e614300565b5b602082029050602081019050919050565b600080fd5b6000819050919050565b61467881614665565b811461468357600080fd5b50565b6000813590506146958161466f565b92915050565b60006146ae6146a984614634565b614360565b905080838252602082019050602084028301858111156146d1576146d0614660565b5b835b818110156146fa57806146e68882614686565b8452602084019350506020810190506146d3565b5050509392505050565b600082601f830112614719576147186142e5565b5b813561472984826020860161469b565b91505092915050565b6000806040838503121561474957614748614161565b5b600083013567ffffffffffffffff81111561476757614766614166565b5b61477385828601614704565b925050602061478485828601614535565b9150509250929050565b61479781614665565b82525050565b60006020820190506147b2600083018461478e565b92915050565b6000602082840312156147ce576147cd614161565b5b60006147dc84828501614686565b91505092915050565b600081519050919050565b600082825260208201905092915050565b6000819050602082019050919050565b61481a816142b1565b82525050565b600061482c8383614811565b60208301905092915050565b6000602082019050919050565b6000614850826147e5565b61485a81856147f0565b935061486583614801565b8060005b8381101561489657815161487d8882614820565b975061488883614838565b925050600181019050614869565b5085935050505092915050565b600060208201905081810360008301526148bd8184614845565b905092915050565b6148ce816141f0565b81146148d957600080fd5b50565b6000813590506148eb816148c5565b92915050565b6000806040838503121561490857614907614161565b5b60006149168582860161426f565b9250506020614927858286016148dc565b9150509250929050565b600067ffffffffffffffff82111561494c5761494b614300565b5b614955826142ef565b9050602081019050919050565b600061497561497084614931565b614360565b905082815260208101848484011115614991576149906142ea565b5b61499c8482856143ac565b509392505050565b600082601f8301126149b9576149b86142e5565b5b81356149c9848260208601614962565b91505092915050565b600080600080608085870312156149ec576149eb614161565b5b60006149fa8782880161426f565b9450506020614a0b8782880161426f565b9350506040614a1c87828801614535565b925050606085013567ffffffffffffffff811115614a3d57614a3c614166565b5b614a49878288016149a4565b91505092959194509250565b60008060408385031215614a6c57614a6b614161565b5b6000614a7a8582860161426f565b9250506020614a8b8582860161426f565b9150509250929050565b7f4f776e61626c653a2063616c6c6572206973206e6f7420746865206f776e6572600082015250565b6000614acb60208361447f565b9150614ad682614a95565b602082019050919050565b60006020820190508181036000830152614afa81614abe565b9050919050565b7f4e487b7100000000000000000000000000000000000000000000000000000000600052602260045260246000fd5b60006002820490506001821680614b4857607f821691505b60208210811415614b5c57614b5b614b01565b5b50919050565b7f54455354204d757368726f6f6d73203a3a2043616e6e6f742062652063616c6c60008201527f6564206279206120636f6e747261637400000000000000000000000000000000602082015250565b6000614bbe60308361447f565b9150614bc982614b62565b604082019050919050565b60006020820190508181036000830152614bed81614bb1565b9050919050565b7f54455354204d757368726f6f6d73203a3a204d696e74696e67206973206f6e2060008201527f5061757365000000000000000000000000000000000000000000000000000000602082015250565b6000614c5060258361447f565b9150614c5b82614bf4565b604082019050919050565b60006020820190508181036000830152614c7f81614c43565b9050919050565b7f4e487b7100000000000000000000000000000000000000000000000000000000600052601160045260246000fd5b6000614cc0826142b1565b9150614ccb836142b1565b9250827fffffffffffffffffffffffffffffffffffffffffffffffffffffffffffffffff03821115614d0057614cff614c86565b5b828201905092915050565b7f54455354204d757368726f6f6d73203a3a2043616e6e6f74206d696e7420626560008201527f796f6e64206d617820737570706c790000000000000000000000000000000000602082015250565b6000614d67602f8361447f565b9150614d7282614d0b565b604082019050919050565b60006020820190508181036000830152614d9681614d5a565b9050919050565b7f54455354204d757368726f6f6d733a3a2043616e6e6f74206d696e742062657960008201527f6f6e642077686974656c697374206d6178206d696e7421000000000000000000602082015250565b6000614df960378361447f565b9150614e0482614d9d565b604082019050919050565b60006020820190508181036000830152614e2881614dec565b9050919050565b6000614e3a826142b1565b9150614e45836142b1565b9250817fffffffffffffffffffffffffffffffffffffffffffffffffffffffffffffffff0483118215151615614e7e57614e7d614c86565b5b828202905092915050565b7f54455354204d757368726f6f6d73203a3a205061796d656e742069732062656c60008201527f6f77207468652070726963650000000000000000000000000000000000000000602082015250565b6000614ee5602c8361447f565b9150614ef082614e89565b604082019050919050565b60006020820190508181036000830152614f1481614ed8565b9050919050565b7f596f752063616e206e6f74206d696e74206d6f7265207468616e20746865206d60008201527f6178696d756d20616c6c6f7765642070657220757365722e0000000000000000602082015250565b6000614f7760388361447f565b9150614f8282614f1b565b604082019050919050565b60006020820190508181036000830152614fa681614f6a565b9050919050565b60008160601b9050919050565b6000614fc582614fad565b9050919050565b6000614fd782614fba565b9050919050565b614fef614fea82614246565b614fcc565b82525050565b60006150018284614fde565b60148201915081905092915050565b7f54455354204d757368726f6f6d73203a3a20596f7520617265206e6f7420776860008201527f6974656c69737465640000000000000000000000000000000000000000000000602082015250565b600061506c60298361447f565b915061507782615010565b604082019050919050565b6000602082019050818103600083015261509b8161505f565b9050919050565b7f4e487b7100000000000000000000000000000000000000000000000000000000600052601260045260246000fd5b60006150dc826142b1565b91506150e7836142b1565b9250826150f7576150f66150a2565b5b828204905092915050565b600061510d826142b1565b9150615118836142b1565b92508282101561512b5761512a614c86565b5b828203905092915050565b6000615141826142b1565b91507fffffffffffffffffffffffffffffffffffffffffffffffffffffffffffffffff82141561517457615173614c86565b5b600182019050919050565b7f54455354204d757368726f6f6d73203a3a204e6f74205965742041637469766560008201527f2e00000000000000000000000000000000000000000000000000000000000000602082015250565b60006151db60218361447f565b91506151e68261517f565b604082019050919050565b6000602082019050818103600083015261520a816151ce565b9050919050565b7f54455354204d757368726f6f6d73203a3a204265796f6e64204d61782053757060008201527f706c790000000000000000000000000000000000000000000000000000000000602082015250565b600061526d60238361447f565b915061527882615211565b604082019050919050565b6000602082019050818103600083015261529c81615260565b9050919050565b7f54455354204d757368726f6f6d73203a3a20416c7265616479206d696e74656460008201527f20332074696d6573210000000000000000000000000000000000000000000000602082015250565b60006152ff60298361447f565b915061530a826152a3565b604082019050919050565b6000602082019050818103600083015261532e816152f2565b9050919050565b7f54455354204d757368726f6f6d73203a3a2042656c6f77200000000000000000600082015250565b600061536b60188361447f565b915061537682615335565b602082019050919050565b6000602082019050818103600083015261539a8161535e565b9050919050565b7f54455354204d757368726f6f6d73203a3a205465616d20616c7265616479206d60008201527f696e746564000000000000000000000000000000000000000000000000000000602082015250565b60006153fd60258361447f565b9150615408826153a1565b604082019050919050565b6000602082019050818103600083015261542c816153f0565b9050919050565b7f4552433732314d657461646174613a2055524920717565727920666f72206e6f60008201527f6e6578697374656e7420746f6b656e0000000000000000000000000000000000602082015250565b600061548f602f8361447f565b915061549a82615433565b604082019050919050565b600060208201905081810360008301526154be81615482565b9050919050565b600081905092915050565b60008190508160005260206000209050919050565b600081546154f281614b30565b6154fc81866154c5565b9450600182166000811461551757600181146155285761555b565b60ff1983168652818601935061555b565b615531856154d0565b60005b8381101561555357815481890152600182019150602081019050615534565b838801955050505b50505092915050565b600061556f82614474565b61557981856154c5565b9350615589818560208601614490565b80840191505092915050565b7f2e6a736f6e000000000000000000000000000000000000000000000000000000600082015250565b60006155cb6005836154c5565b91506155d682615595565b600582019050919050565b60006155ed82856154e5565b91506155f98284615564565b9150615604826155be565b91508190509392505050565b7f4f776e61626c653a206e6577206f776e657220697320746865207a65726f206160008201527f6464726573730000000000000000000000000000000000000000000000000000602082015250565b600061566c60268361447f565b915061567782615610565b604082019050919050565b6000602082019050818103600083015261569b8161565f565b9050919050565b600081519050919050565b600082825260208201905092915050565b60006156c9826156a2565b6156d381856156ad565b93506156e3818560208601614490565b6156ec816142ef565b840191505092915050565b600060808201905061570c6000830187614577565b6157196020830186614577565b61572660408301856142bb565b818103606083015261573881846156be565b905095945050505050565b60008151905061575281614197565b92915050565b60006020828403121561576e5761576d614161565b5b600061577c84828501615743565b91505092915050565b6000615790826142b1565b915061579b836142b1565b9250826157ab576157aa6150a2565b5b828206905092915050565b7f4e487b7100000000000000000000000000000000000000000000000000000000600052603260045260246000fdfea26469706673582212200b8038c756a844e32890afa42284d83263af7920fd3c06cc5be8ac5f1d6717ca64736f6c63430008090033",
  "linkReferences": {},
  "deployedLinkReferences": {}
}