{
	"contract/TestMushrooms.sol": {
		"TestMushrooms": {
			"abi": [
				{
					"inputs": [],
					"stateMutability": "nonpayable",
					"type": "constructor"
				},
				{
					"inputs": [],
					"name": "ApprovalCallerNotOwnerNorApproved",
					"type": "error"
				},
				{
					"inputs": [],
					"name": "ApprovalQueryForNonexistentToken",
					"type": "error"
				},
				{
					"inputs": [],
					"name": "ApprovalToCurrentOwner",
					"type": "error"
				},
				{
					"inputs": [],
					"name": "ApproveToCaller",
					"type": "error"
				},
				{
					"inputs": [],
					"name": "BalanceQueryForZeroAddress",
					"type": "error"
				},
				{
					"inputs": [],
					"name": "MintToZeroAddress",
					"type": "error"
				},
				{
					"inputs": [],
					"name": "MintZeroQuantity",
					"type": "error"
				},
				{
					"inputs": [],
					"name": "OwnerQueryForNonexistentToken",
					"type": "error"
				},
				{
					"inputs": [],
					"name": "TransferCallerNotOwnerNorApproved",
					"type": "error"
				},
				{
					"inputs": [],
					"name": "TransferFromIncorrectOwner",
					"type": "error"
				},
				{
					"inputs": [],
					"name": "TransferToNonERC721ReceiverImplementer",
					"type": "error"
				},
				{
					"inputs": [],
					"name": "TransferToZeroAddress",
					"type": "error"
				},
				{
					"anonymous": false,
					"inputs": [
						{
							"indexed": true,
							"internalType": "address",
							"name": "owner",
							"type": "address"
						},
						{
							"indexed": true,
							"internalType": "address",
							"name": "approved",
							"type": "address"
						},
						{
							"indexed": true,
							"internalType": "uint256",
							"name": "tokenId",
							"type": "uint256"
						}
					],
					"name": "Approval",
					"type": "event"
				},
				{
					"anonymous": false,
					"inputs": [
						{
							"indexed": true,
							"internalType": "address",
							"name": "owner",
							"type": "address"
						},
						{
							"indexed": true,
							"internalType": "address",
							"name": "operator",
							"type": "address"
						},
						{
							"indexed": false,
							"internalType": "bool",
							"name": "approved",
							"type": "bool"
						}
					],
					"name": "ApprovalForAll",
					"type": "event"
				},
				{
					"anonymous": false,
					"inputs": [
						{
							"indexed": true,
							"internalType": "address",
							"name": "previousOwner",
							"type": "address"
						},
						{
							"indexed": true,
							"internalType": "address",
							"name": "newOwner",
							"type": "address"
						}
					],
					"name": "OwnershipTransferred",
					"type": "event"
				},
				{
					"anonymous": false,
					"inputs": [
						{
							"indexed": true,
							"internalType": "address",
							"name": "from",
							"type": "address"
						},
						{
							"indexed": true,
							"internalType": "address",
							"name": "to",
							"type": "address"
						},
						{
							"indexed": true,
							"internalType": "uint256",
							"name": "tokenId",
							"type": "uint256"
						}
					],
					"name": "Transfer",
					"type": "event"
				},
				{
					"inputs": [],
					"name": "MAX_PUBLIC_MINT",
					"outputs": [
						{
							"internalType": "uint256",
							"name": "",
							"type": "uint256"
						}
					],
					"stateMutability": "view",
					"type": "function"
				},
				{
					"inputs": [],
					"name": "MAX_SUPPLY",
					"outputs": [
						{
							"internalType": "uint256",
							"name": "",
							"type": "uint256"
						}
					],
					"stateMutability": "view",
					"type": "function"
				},
				{
					"inputs": [],
					"name": "MAX_WHITELIST_MINT",
					"outputs": [
						{
							"internalType": "uint256",
							"name": "",
							"type": "uint256"
						}
					],
					"stateMutability": "view",
					"type": "function"
				},
				{
					"inputs": [],
					"name": "PUBLIC_SALE_PRICE",
					"outputs": [
						{
							"internalType": "uint256",
							"name": "",
							"type": "uint256"
						}
					],
					"stateMutability": "view",
					"type": "function"
				},
				{
					"inputs": [],
					"name": "WHITELIST_SALE_PRICE",
					"outputs": [
						{
							"internalType": "uint256",
							"name": "",
							"type": "uint256"
						}
					],
					"stateMutability": "view",
					"type": "function"
				},
				{
					"inputs": [
						{
							"internalType": "address",
							"name": "to",
							"type": "address"
						},
						{
							"internalType": "uint256",
							"name": "tokenId",
							"type": "uint256"
						}
					],
					"name": "approve",
					"outputs": [],
					"stateMutability": "nonpayable",
					"type": "function"
				},
				{
					"inputs": [
						{
							"internalType": "address",
							"name": "owner",
							"type": "address"
						}
					],
					"name": "balanceOf",
					"outputs": [
						{
							"internalType": "uint256",
							"name": "",
							"type": "uint256"
						}
					],
					"stateMutability": "view",
					"type": "function"
				},
				{
					"inputs": [
						{
							"internalType": "uint256",
							"name": "tokenId",
							"type": "uint256"
						}
					],
					"name": "getApproved",
					"outputs": [
						{
							"internalType": "address",
							"name": "",
							"type": "address"
						}
					],
					"stateMutability": "view",
					"type": "function"
				},
				{
					"inputs": [],
					"name": "getMerkleRoot",
					"outputs": [
						{
							"internalType": "bytes32",
							"name": "",
							"type": "bytes32"
						}
					],
					"stateMutability": "view",
					"type": "function"
				},
				{
					"inputs": [
						{
							"internalType": "address",
							"name": "owner",
							"type": "address"
						},
						{
							"internalType": "address",
							"name": "operator",
							"type": "address"
						}
					],
					"name": "isApprovedForAll",
					"outputs": [
						{
							"internalType": "bool",
							"name": "",
							"type": "bool"
						}
					],
					"stateMutability": "view",
					"type": "function"
				},
				{
					"inputs": [],
					"name": "isRevealed",
					"outputs": [
						{
							"internalType": "bool",
							"name": "",
							"type": "bool"
						}
					],
					"stateMutability": "view",
					"type": "function"
				},
				{
					"inputs": [
						{
							"internalType": "uint256",
							"name": "_quantity",
							"type": "uint256"
						}
					],
					"name": "mint",
					"outputs": [],
					"stateMutability": "payable",
					"type": "function"
				},
				{
					"inputs": [],
					"name": "name",
					"outputs": [
						{
							"internalType": "string",
							"name": "",
							"type": "string"
						}
					],
					"stateMutability": "view",
					"type": "function"
				},
				{
					"inputs": [],
					"name": "owner",
					"outputs": [
						{
							"internalType": "address",
							"name": "",
							"type": "address"
						}
					],
					"stateMutability": "view",
					"type": "function"
				},
				{
					"inputs": [
						{
							"internalType": "uint256",
							"name": "tokenId",
							"type": "uint256"
						}
					],
					"name": "ownerOf",
					"outputs": [
						{
							"internalType": "address",
							"name": "",
							"type": "address"
						}
					],
					"stateMutability": "view",
					"type": "function"
				},
				{
					"inputs": [],
					"name": "pause",
					"outputs": [
						{
							"internalType": "bool",
							"name": "",
							"type": "bool"
						}
					],
					"stateMutability": "view",
					"type": "function"
				},
				{
					"inputs": [],
					"name": "placeholderTokenUri",
					"outputs": [
						{
							"internalType": "string",
							"name": "",
							"type": "string"
						}
					],
					"stateMutability": "view",
					"type": "function"
				},
				{
					"inputs": [],
					"name": "publicSale",
					"outputs": [
						{
							"internalType": "bool",
							"name": "",
							"type": "bool"
						}
					],
					"stateMutability": "view",
					"type": "function"
				},
				{
					"inputs": [],
					"name": "renounceOwnership",
					"outputs": [],
					"stateMutability": "nonpayable",
					"type": "function"
				},
				{
					"inputs": [
						{
							"internalType": "address",
							"name": "from",
							"type": "address"
						},
						{
							"internalType": "address",
							"name": "to",
							"type": "address"
						},
						{
							"internalType": "uint256",
							"name": "tokenId",
							"type": "uint256"
						}
					],
					"name": "safeTransferFrom",
					"outputs": [],
					"stateMutability": "nonpayable",
					"type": "function"
				},
				{
					"inputs": [
						{
							"internalType": "address",
							"name": "from",
							"type": "address"
						},
						{
							"internalType": "address",
							"name": "to",
							"type": "address"
						},
						{
							"internalType": "uint256",
							"name": "tokenId",
							"type": "uint256"
						},
						{
							"internalType": "bytes",
							"name": "_data",
							"type": "bytes"
						}
					],
					"name": "safeTransferFrom",
					"outputs": [],
					"stateMutability": "nonpayable",
					"type": "function"
				},
				{
					"inputs": [
						{
							"internalType": "address",
							"name": "operator",
							"type": "address"
						},
						{
							"internalType": "bool",
							"name": "approved",
							"type": "bool"
						}
					],
					"name": "setApprovalForAll",
					"outputs": [],
					"stateMutability": "nonpayable",
					"type": "function"
				},
				{
					"inputs": [
						{
							"internalType": "bytes32",
							"name": "_merkleRoot",
							"type": "bytes32"
						}
					],
					"name": "setMerkleRoot",
					"outputs": [],
					"stateMutability": "nonpayable",
					"type": "function"
				},
				{
					"inputs": [
						{
							"internalType": "string",
							"name": "_placeholderTokenUri",
							"type": "string"
						}
					],
					"name": "setPlaceHolderUri",
					"outputs": [],
					"stateMutability": "nonpayable",
					"type": "function"
				},
				{
					"inputs": [
						{
							"internalType": "string",
							"name": "_baseTokenUri",
							"type": "string"
						}
					],
					"name": "setTokenUri",
					"outputs": [],
					"stateMutability": "nonpayable",
					"type": "function"
				},
				{
					"inputs": [
						{
							"internalType": "bytes4",
							"name": "interfaceId",
							"type": "bytes4"
						}
					],
					"name": "supportsInterface",
					"outputs": [
						{
							"internalType": "bool",
							"name": "",
							"type": "bool"
						}
					],
					"stateMutability": "view",
					"type": "function"
				},
				{
					"inputs": [],
					"name": "symbol",
					"outputs": [
						{
							"internalType": "string",
							"name": "",
							"type": "string"
						}
					],
					"stateMutability": "view",
					"type": "function"
				},
				{
					"inputs": [],
					"name": "teamMint",
					"outputs": [],
					"stateMutability": "nonpayable",
					"type": "function"
				},
				{
					"inputs": [],
					"name": "teamMinted",
					"outputs": [
						{
							"internalType": "bool",
							"name": "",
							"type": "bool"
						}
					],
					"stateMutability": "view",
					"type": "function"
				},
				{
					"inputs": [],
					"name": "togglePause",
					"outputs": [],
					"stateMutability": "nonpayable",
					"type": "function"
				},
				{
					"inputs": [],
					"name": "togglePublicSale",
					"outputs": [],
					"stateMutability": "nonpayable",
					"type": "function"
				},
				{
					"inputs": [],
					"name": "toggleReveal",
					"outputs": [],
					"stateMutability": "nonpayable",
					"type": "function"
				},
				{
					"inputs": [],
					"name": "toggleWhiteListSale",
					"outputs": [],
					"stateMutability": "nonpayable",
					"type": "function"
				},
				{
					"inputs": [
						{
							"internalType": "uint256",
							"name": "tokenId",
							"type": "uint256"
						}
					],
					"name": "tokenURI",
					"outputs": [
						{
							"internalType": "string",
							"name": "",
							"type": "string"
						}
					],
					"stateMutability": "view",
					"type": "function"
				},
				{
					"inputs": [
						{
							"internalType": "address",
							"name": "",
							"type": "address"
						}
					],
					"name": "totalPublicMint",
					"outputs": [
						{
							"internalType": "uint256",
							"name": "",
							"type": "uint256"
						}
					],
					"stateMutability": "view",
					"type": "function"
				},
				{
					"inputs": [],
					"name": "totalSupply",
					"outputs": [
						{
							"internalType": "uint256",
							"name": "",
							"type": "uint256"
						}
					],
					"stateMutability": "view",
					"type": "function"
				},
				{
					"inputs": [
						{
							"internalType": "address",
							"name": "",
							"type": "address"
						}
					],
					"name": "totalWhitelistMint",
					"outputs": [
						{
							"internalType": "uint256",
							"name": "",
							"type": "uint256"
						}
					],
					"stateMutability": "view",
					"type": "function"
				},
				{
					"inputs": [
						{
							"internalType": "address",
							"name": "from",
							"type": "address"
						},
						{
							"internalType": "address",
							"name": "to",
							"type": "address"
						},
						{
							"internalType": "uint256",
							"name": "tokenId",
							"type": "uint256"
						}
					],
					"name": "transferFrom",
					"outputs": [],
					"stateMutability": "nonpayable",
					"type": "function"
				},
				{
					"inputs": [
						{
							"internalType": "address",
							"name": "newOwner",
							"type": "address"
						}
					],
					"name": "transferOwnership",
					"outputs": [],
					"stateMutability": "nonpayable",
					"type": "function"
				},
				{
					"inputs": [],
					"name": "walletOf",
					"outputs": [
						{
							"internalType": "uint256[]",
							"name": "",
							"type": "uint256[]"
						}
					],
					"stateMutability": "view",
					"type": "function"
				},
				{
					"inputs": [],
					"name": "whiteListSale",
					"outputs": [
						{
							"internalType": "bool",
							"name": "",
							"type": "bool"
						}
					],
					"stateMutability": "view",
					"type": "function"
				},
				{
					"inputs": [
						{
							"internalType": "bytes32[]",
							"name": "_merkleProof",
							"type": "bytes32[]"
						},
						{
							"internalType": "uint256",
							"name": "_quantity",
							"type": "uint256"
						}
					],
					"name": "whitelistMint",
					"outputs": [],
					"stateMutability": "payable",
					"type": "function"
				},
				{
					"inputs": [],
					"name": "withdraw",
					"outputs": [],
					"stateMutability": "nonpayable",
					"type": "function"
				}
			],
			"devdoc": {
				"kind": "dev",
				"methods": {
					"approve(address,uint256)": {
						"details": "See {IERC721-approve}."
					},
					"balanceOf(address)": {
						"details": "See {IERC721-balanceOf}."
					},
					"getApproved(uint256)": {
						"details": "See {IERC721-getApproved}."
					},
					"isApprovedForAll(address,address)": {
						"details": "See {IERC721-isApprovedForAll}."
					},
					"name()": {
						"details": "See {IERC721Metadata-name}."
					},
					"owner()": {
						"details": "Returns the address of the current owner."
					},
					"ownerOf(uint256)": {
						"details": "See {IERC721-ownerOf}."
					},
					"renounceOwnership()": {
						"details": "Leaves the contract without owner. It will not be possible to call `onlyOwner` functions anymore. Can only be called by the current owner. NOTE: Renouncing ownership will leave the contract without an owner, thereby removing any functionality that is only available to the owner."
					},
					"safeTransferFrom(address,address,uint256)": {
						"details": "See {IERC721-safeTransferFrom}."
					},
					"safeTransferFrom(address,address,uint256,bytes)": {
						"details": "See {IERC721-safeTransferFrom}."
					},
					"setApprovalForAll(address,bool)": {
						"details": "See {IERC721-setApprovalForAll}."
					},
					"supportsInterface(bytes4)": {
						"details": "See {IERC165-supportsInterface}."
					},
					"symbol()": {
						"details": "See {IERC721Metadata-symbol}."
					},
					"tokenURI(uint256)": {
						"details": "See {IERC721Metadata-tokenURI}."
					},
					"totalSupply()": {
						"details": "See {IERC721Enumerable-totalSupply}.Burned tokens are calculated here, use _totalMinted() if you want to count just minted tokens."
					},
					"transferFrom(address,address,uint256)": {
						"details": "See {IERC721-transferFrom}."
					},
					"transferOwnership(address)": {
						"details": "Transfers ownership of the contract to a new account (`newOwner`). Can only be called by the current owner."
					},
					"walletOf()": {
						"details": "walletOf() function shouldn't be called on-chain due to gas consumption"
					}
				},
				"version": 1
			},
			"evm": {
				"assembly": "    /* \"contract/TestMushrooms.sol\":227:5219  contract TestMushrooms is ERC721A, Ownable{... */\n  mstore(0x40, 0x80)\n    /* \"contract/TestMushrooms.sol\":1085:1139  constructor() ERC721A(\"TestMushrooms\", \"TM\"){... */\n  callvalue\n  dup1\n  iszero\n  tag_1\n  jumpi\n  0x00\n  dup1\n  revert\ntag_1:\n  pop\n    /* \"erc721a/contracts/ERC721A.sol\":3600:3754  constructor(string memory name_, string memory symbol_) {... */\n  mload(0x40)\n  dup1\n  0x40\n  add\n  0x40\n  mstore\n  dup1\n  0x0d\n  dup2\n  mstore\n  0x20\n  add\n  shl(0x98, 0x546573744d757368726f6f6d73)\n  dup2\n  mstore\n  pop\n  mload(0x40)\n  dup1\n  0x40\n  add\n  0x40\n  mstore\n  dup1\n  0x02\n  dup2\n  mstore\n  0x20\n  add\n  shl(0xf0, 0x544d)\n  dup2\n  mstore\n  pop\n    /* \"erc721a/contracts/ERC721A.sol\":3674:3679  name_ */\n  dup2\n    /* \"erc721a/contracts/ERC721A.sol\":3666:3671  _name */\n  0x02\n    /* \"erc721a/contracts/ERC721A.sol\":3666:3679  _name = name_ */\n  swap1\n  dup1\n  mload\n  swap1\n  0x20\n  add\n  swap1\n  tag_6\n  swap3\n  swap2\n  swap1\n  tag_7\n  jump\t// in\ntag_6:\n  pop\n    /* \"erc721a/contracts/ERC721A.sol\":3689:3706  _symbol = symbol_ */\n  dup1\n  mload\n  tag_8\n  swap1\n    /* \"erc721a/contracts/ERC721A.sol\":3689:3696  _symbol */\n  0x03\n  swap1\n    /* \"erc721a/contracts/ERC721A.sol\":3689:3706  _symbol = symbol_ */\n  0x20\n  dup5\n  add\n  swap1\n  tag_7\n  jump\t// in\ntag_8:\n  pop\n  pop\n    /* \"erc721a/contracts/ERC721A.sol\":3902:3909  uint256 */\n  0x00\n    /* \"erc721a/contracts/ERC721A.sol\":3716:3747  _currentIndex = _startTokenId() */\n  dup1\n  sstore\n  pop\n    /* \"@openzeppelin/contracts/access/Ownable.sol\":921:953  _transferOwnership(_msgSender()) */\n  tag_12\n    /* \"@openzeppelin/contracts/utils/Context.sol\":719:729  msg.sender */\n  caller\n    /* \"@openzeppelin/contracts/access/Ownable.sol\":921:939  _transferOwnership */\n  tag_15\n    /* \"@openzeppelin/contracts/access/Ownable.sol\":921:953  _transferOwnership(_msgSender()) */\n  jump\t// in\ntag_12:\n    /* \"contract/TestMushrooms.sol\":227:5219  contract TestMushrooms is ERC721A, Ownable{... */\n  jump(tag_32)\n    /* \"@openzeppelin/contracts/access/Ownable.sol\":2270:2457  function _transferOwnership(address newOwner) internal virtual {... */\ntag_15:\n    /* \"@openzeppelin/contracts/access/Ownable.sol\":2362:2368  _owner */\n  0x08\n  dup1\n  sload\n  sub(shl(0xa0, 0x01), 0x01)\n    /* \"@openzeppelin/contracts/access/Ownable.sol\":2378:2395  _owner = newOwner */\n  dup4\n  dup2\n  and\n  not(sub(shl(0xa0, 0x01), 0x01))\n  dup4\n  and\n  dup2\n  or\n  swap1\n  swap4\n  sstore\n    /* \"@openzeppelin/contracts/access/Ownable.sol\":2410:2450  OwnershipTransferred(oldOwner, newOwner) */\n  mload(0x40)\n    /* \"@openzeppelin/contracts/access/Ownable.sol\":2362:2368  _owner */\n  swap2\n  and\n  swap2\n    /* \"@openzeppelin/contracts/access/Ownable.sol\":2378:2395  _owner = newOwner */\n  swap1\n    /* \"@openzeppelin/contracts/access/Ownable.sol\":2362:2368  _owner */\n  dup3\n  swap1\n    /* \"@openzeppelin/contracts/access/Ownable.sol\":2410:2450  OwnershipTransferred(oldOwner, newOwner) */\n  0x8be0079c531659141344cd1fd0a4f28419497f9722a3daafe3b4186f6b6457e0\n  swap1\n    /* \"@openzeppelin/contracts/access/Ownable.sol\":2343:2359  address oldOwner */\n  0x00\n  swap1\n    /* \"@openzeppelin/contracts/access/Ownable.sol\":2410:2450  OwnershipTransferred(oldOwner, newOwner) */\n  log3\n    /* \"@openzeppelin/contracts/access/Ownable.sol\":2333:2457  {... */\n  pop\n    /* \"@openzeppelin/contracts/access/Ownable.sol\":2270:2457  function _transferOwnership(address newOwner) internal virtual {... */\n  pop\n  jump\t// out\n    /* \"contract/TestMushrooms.sol\":227:5219  contract TestMushrooms is ERC721A, Ownable{... */\ntag_7:\n  dup3\n  dup1\n  sload\n  tag_21\n  swap1\n  tag_22\n  jump\t// in\ntag_21:\n  swap1\n  0x00\n  mstore\n  keccak256(0x00, 0x20)\n  swap1\n  0x1f\n  add\n  0x20\n  swap1\n  div\n  dup2\n  add\n  swap3\n  dup3\n  tag_24\n  jumpi\n  0x00\n  dup6\n  sstore\n  jump(tag_27)\ntag_24:\n  dup3\n  0x1f\n  lt\n  tag_25\n  jumpi\n  dup1\n  mload\n  not(0xff)\n  and\n  dup4\n  dup1\n  add\n  or\n  dup6\n  sstore\n  jump(tag_27)\ntag_25:\n  dup3\n  dup1\n  add\n  0x01\n  add\n  dup6\n  sstore\n  dup3\n  iszero\n  tag_27\n  jumpi\n  swap2\n  dup3\n  add\ntag_26:\n  dup3\n  dup2\n  gt\n  iszero\n  tag_27\n  jumpi\n  dup3\n  mload\n  dup3\n  sstore\n  swap2\n  0x20\n  add\n  swap2\n  swap1\n  0x01\n  add\n  swap1\n  jump(tag_26)\ntag_27:\n  pop\n  tag_28\n  swap3\n  swap2\n  pop\n  tag_29\n  jump\t// in\ntag_28:\n  pop\n  swap1\n  jump\t// out\ntag_29:\ntag_30:\n  dup1\n  dup3\n  gt\n  iszero\n  tag_28\n  jumpi\n  0x00\n  dup2\n  sstore\n  0x01\n  add\n  jump(tag_30)\n    /* \"#utility.yul\":14:394   */\ntag_22:\n    /* \"#utility.yul\":93:94   */\n  0x01\n    /* \"#utility.yul\":89:101   */\n  dup2\n  dup2\n  shr\n  swap1\n    /* \"#utility.yul\":136:148   */\n  dup3\n  and\n  dup1\n    /* \"#utility.yul\":157:218   */\n  tag_34\n  jumpi\n    /* \"#utility.yul\":211:215   */\n  0x7f\n    /* \"#utility.yul\":203:209   */\n  dup3\n    /* \"#utility.yul\":199:216   */\n  and\n    /* \"#utility.yul\":189:216   */\n  swap2\n  pop\n    /* \"#utility.yul\":157:218   */\ntag_34:\n    /* \"#utility.yul\":264:266   */\n  0x20\n    /* \"#utility.yul\":256:262   */\n  dup3\n    /* \"#utility.yul\":253:267   */\n  lt\n    /* \"#utility.yul\":233:251   */\n  dup2\n    /* \"#utility.yul\":230:268   */\n  eq\n    /* \"#utility.yul\":227:388   */\n  iszero\n  tag_35\n  jumpi\n    /* \"#utility.yul\":310:320   */\n  0x4e487b71\n    /* \"#utility.yul\":305:308   */\n  0xe0\n    /* \"#utility.yul\":301:321   */\n  shl\n    /* \"#utility.yul\":298:299   */\n  0x00\n    /* \"#utility.yul\":291:322   */\n  mstore\n    /* \"#utility.yul\":345:349   */\n  0x22\n    /* \"#utility.yul\":342:343   */\n  0x04\n    /* \"#utility.yul\":335:350   */\n  mstore\n    /* \"#utility.yul\":373:377   */\n  0x24\n    /* \"#utility.yul\":370:371   */\n  0x00\n    /* \"#utility.yul\":363:378   */\n  revert\n    /* \"#utility.yul\":227:388   */\ntag_35:\n  pop\n    /* \"#utility.yul\":14:394   */\n  swap2\n  swap1\n  pop\n  jump\t// out\ntag_32:\n    /* \"contract/TestMushrooms.sol\":227:5219  contract TestMushrooms is ERC721A, Ownable{... */\n  dataSize(sub_0)\n  dup1\n  dataOffset(sub_0)\n  0x00\n  codecopy\n  0x00\n  return\nstop\n\nsub_0: assembly {\n        /* \"contract/TestMushrooms.sol\":227:5219  contract TestMushrooms is ERC721A, Ownable{... */\n      mstore(0x40, 0x80)\n      jumpi(tag_1, lt(calldatasize, 0x04))\n      shr(0xe0, calldataload(0x00))\n      dup1\n      0x70a08231\n      gt\n      tag_45\n      jumpi\n      dup1\n      0xb0962c53\n      gt\n      tag_46\n      jumpi\n      dup1\n      0xc4ae3168\n      gt\n      tag_47\n      jumpi\n      dup1\n      0xc4ae3168\n      eq\n      tag_39\n      jumpi\n      dup1\n      0xc87b56dd\n      eq\n      tag_40\n      jumpi\n      dup1\n      0xe222c7f9\n      eq\n      tag_41\n      jumpi\n      dup1\n      0xe8b5498d\n      eq\n      tag_42\n      jumpi\n      dup1\n      0xe985e9c5\n      eq\n      tag_43\n      jumpi\n      dup1\n      0xf2fde38b\n      eq\n      tag_44\n      jumpi\n      0x00\n      dup1\n      revert\n    tag_47:\n      dup1\n      0xb0962c53\n      eq\n      tag_34\n      jumpi\n      dup1\n      0xb88d4fde\n      eq\n      tag_35\n      jumpi\n      dup1\n      0xba7a86b8\n      eq\n      tag_36\n      jumpi\n      dup1\n      0xbc912e1a\n      eq\n      tag_37\n      jumpi\n      dup1\n      0xc08dfd3c\n      eq\n      tag_22\n      jumpi\n      0x00\n      dup1\n      revert\n    tag_46:\n      dup1\n      0x86a173ee\n      gt\n      tag_48\n      jumpi\n      dup1\n      0x86a173ee\n      eq\n      tag_28\n      jumpi\n      dup1\n      0x8bb64a8c\n      eq\n      tag_29\n      jumpi\n      dup1\n      0x8da5cb5b\n      eq\n      tag_30\n      jumpi\n      dup1\n      0x95d89b41\n      eq\n      tag_31\n      jumpi\n      dup1\n      0xa0712d68\n      eq\n      tag_32\n      jumpi\n      dup1\n      0xa22cb465\n      eq\n      tag_33\n      jumpi\n      0x00\n      dup1\n      revert\n    tag_48:\n      dup1\n      0x70a08231\n      eq\n      tag_23\n      jumpi\n      dup1\n      0x715018a6\n      eq\n      tag_24\n      jumpi\n      dup1\n      0x7cb64759\n      eq\n      tag_25\n      jumpi\n      dup1\n      0x83a974a2\n      eq\n      tag_26\n      jumpi\n      dup1\n      0x8456cb59\n      eq\n      tag_27\n      jumpi\n      0x00\n      dup1\n      revert\n    tag_45:\n      dup1\n      0x2904e6d9\n      gt\n      tag_49\n      jumpi\n      dup1\n      0x49590657\n      gt\n      tag_50\n      jumpi\n      dup1\n      0x49590657\n      eq\n      tag_17\n      jumpi\n      dup1\n      0x4cf5f7a4\n      eq\n      tag_18\n      jumpi\n      dup1\n      0x54214f69\n      eq\n      tag_19\n      jumpi\n      dup1\n      0x5b8ad429\n      eq\n      tag_20\n      jumpi\n      dup1\n      0x6352211e\n      eq\n      tag_21\n      jumpi\n      dup1\n      0x65f13097\n      eq\n      tag_22\n      jumpi\n      0x00\n      dup1\n      revert\n    tag_50:\n      dup1\n      0x2904e6d9\n      eq\n      tag_12\n      jumpi\n      dup1\n      0x32cb6b0c\n      eq\n      tag_13\n      jumpi\n      dup1\n      0x33bc1c5c\n      eq\n      tag_14\n      jumpi\n      dup1\n      0x3ccfd60b\n      eq\n      tag_15\n      jumpi\n      dup1\n      0x42842e0e\n      eq\n      tag_16\n      jumpi\n      0x00\n      dup1\n      revert\n    tag_49:\n      dup1\n      0x081812fc\n      gt\n      tag_51\n      jumpi\n      dup1\n      0x081812fc\n      eq\n      tag_7\n      jumpi\n      dup1\n      0x095ea7b3\n      eq\n      tag_8\n      jumpi\n      dup1\n      0x18160ddd\n      eq\n      tag_9\n      jumpi\n      dup1\n      0x1c16521c\n      eq\n      tag_10\n      jumpi\n      dup1\n      0x23b872dd\n      eq\n      tag_11\n      jumpi\n      0x00\n      dup1\n      revert\n    tag_51:\n      dup1\n      0x01ffc9a7\n      eq\n      tag_2\n      jumpi\n      dup1\n      0x0345e3cb\n      eq\n      tag_3\n      jumpi\n      dup1\n      0x0675b7c6\n      eq\n      tag_4\n      jumpi\n      dup1\n      0x06fdde03\n      eq\n      tag_5\n      jumpi\n      dup1\n      0x07e89ec0\n      eq\n      tag_6\n      jumpi\n    tag_1:\n      0x00\n      dup1\n      revert\n        /* \"erc721a/contracts/ERC721A.sol\":4843:5143  function supportsInterface(bytes4 interfaceId) public view virtual override(ERC165, IERC165) returns (bool) {... */\n    tag_2:\n      callvalue\n      dup1\n      iszero\n      tag_52\n      jumpi\n      0x00\n      dup1\n      revert\n    tag_52:\n      pop\n      tag_53\n      tag_54\n      calldatasize\n      0x04\n      tag_55\n      jump\t// in\n    tag_54:\n      tag_56\n      jump\t// in\n    tag_53:\n      mload(0x40)\n        /* \"#utility.yul\":565:579   */\n      swap1\n      iszero\n        /* \"#utility.yul\":558:580   */\n      iszero\n        /* \"#utility.yul\":540:581   */\n      dup2\n      mstore\n        /* \"#utility.yul\":528:530   */\n      0x20\n        /* \"#utility.yul\":513:531   */\n      add\n        /* \"erc721a/contracts/ERC721A.sol\":4843:5143  function supportsInterface(bytes4 interfaceId) public view virtual override(ERC165, IERC165) returns (bool) {... */\n    tag_57:\n      mload(0x40)\n      dup1\n      swap2\n      sub\n      swap1\n      return\n        /* \"contract/TestMushrooms.sol\":1023:1076  mapping(address => uint256) public totalWhitelistMint */\n    tag_3:\n      callvalue\n      dup1\n      iszero\n      tag_59\n      jumpi\n      0x00\n      dup1\n      revert\n    tag_59:\n      pop\n      tag_60\n      tag_61\n      calldatasize\n      0x04\n      tag_62\n      jump\t// in\n    tag_61:\n      mstore(0x20, 0x0e)\n      0x00\n      swap1\n      dup2\n      mstore\n      0x40\n      swap1\n      keccak256\n      sload\n      dup2\n      jump\n    tag_60:\n      mload(0x40)\n        /* \"#utility.yul\":1107:1132   */\n      swap1\n      dup2\n      mstore\n        /* \"#utility.yul\":1095:1097   */\n      0x20\n        /* \"#utility.yul\":1080:1098   */\n      add\n        /* \"contract/TestMushrooms.sol\":1023:1076  mapping(address => uint256) public totalWhitelistMint */\n      tag_57\n        /* \"#utility.yul\":961:1138   */\n      jump\n        /* \"contract/TestMushrooms.sol\":4050:4165  function setTokenUri(string memory _baseTokenUri) external onlyOwner{... */\n    tag_4:\n      callvalue\n      dup1\n      iszero\n      tag_66\n      jumpi\n      0x00\n      dup1\n      revert\n    tag_66:\n      pop\n      tag_67\n      tag_68\n      calldatasize\n      0x04\n      tag_69\n      jump\t// in\n    tag_68:\n      tag_70\n      jump\t// in\n    tag_67:\n      stop\n        /* \"erc721a/contracts/ERC721A.sol\":8139:8237  function name() public view virtual override returns (string memory) {... */\n    tag_5:\n      callvalue\n      dup1\n      iszero\n      tag_71\n      jumpi\n      0x00\n      dup1\n      revert\n    tag_71:\n      pop\n      tag_72\n      tag_73\n      jump\t// in\n    tag_72:\n      mload(0x40)\n      tag_57\n      swap2\n      swap1\n      tag_75\n      jump\t// in\n        /* \"contract/TestMushrooms.sol\":465:519  uint256 public constant PUBLIC_SALE_PRICE = .003 ether */\n    tag_6:\n      callvalue\n      dup1\n      iszero\n      tag_76\n      jumpi\n      0x00\n      dup1\n      revert\n    tag_76:\n      pop\n      tag_60\n        /* \"contract/TestMushrooms.sol\":509:519  .003 ether */\n      0x0aa87bee538000\n        /* \"contract/TestMushrooms.sol\":465:519  uint256 public constant PUBLIC_SALE_PRICE = .003 ether */\n      dup2\n      jump\n        /* \"erc721a/contracts/ERC721A.sol\":9595:9795  function getApproved(uint256 tokenId) public view override returns (address) {... */\n    tag_7:\n      callvalue\n      dup1\n      iszero\n      tag_80\n      jumpi\n      0x00\n      dup1\n      revert\n    tag_80:\n      pop\n      tag_81\n      tag_82\n      calldatasize\n      0x04\n      tag_83\n      jump\t// in\n    tag_82:\n      tag_84\n      jump\t// in\n    tag_81:\n      mload(0x40)\n      sub(shl(0xa0, 0x01), 0x01)\n        /* \"#utility.yul\":3545:3577   */\n      swap1\n      swap2\n      and\n        /* \"#utility.yul\":3527:3578   */\n      dup2\n      mstore\n        /* \"#utility.yul\":3515:3517   */\n      0x20\n        /* \"#utility.yul\":3500:3518   */\n      add\n        /* \"erc721a/contracts/ERC721A.sol\":9595:9795  function getApproved(uint256 tokenId) public view override returns (address) {... */\n      tag_57\n        /* \"#utility.yul\":3381:3584   */\n      jump\n        /* \"erc721a/contracts/ERC721A.sol\":9172:9534  function approve(address to, uint256 tokenId) public override {... */\n    tag_8:\n      callvalue\n      dup1\n      iszero\n      tag_87\n      jumpi\n      0x00\n      dup1\n      revert\n    tag_87:\n      pop\n      tag_67\n      tag_89\n      calldatasize\n      0x04\n      tag_90\n      jump\t// in\n    tag_89:\n      tag_91\n      jump\t// in\n        /* \"erc721a/contracts/ERC721A.sol\":4114:4411  function totalSupply() public view returns (uint256) {... */\n    tag_9:\n      callvalue\n      dup1\n      iszero\n      tag_92\n      jumpi\n      0x00\n      dup1\n      revert\n    tag_92:\n      pop\n        /* \"erc721a/contracts/ERC721A.sol\":4364:4376  _burnCounter */\n      sload(0x01)\n        /* \"erc721a/contracts/ERC721A.sol\":4158:4165  uint256 */\n      0x00\n        /* \"erc721a/contracts/ERC721A.sol\":4348:4361  _currentIndex */\n      sload\n        /* \"erc721a/contracts/ERC721A.sol\":4348:4376  _currentIndex - _burnCounter */\n      sub\n        /* \"erc721a/contracts/ERC721A.sol\":4114:4411  function totalSupply() public view returns (uint256) {... */\n      jump(tag_60)\n        /* \"contract/TestMushrooms.sol\":966:1016  mapping(address => uint256) public totalPublicMint */\n    tag_10:\n      callvalue\n      dup1\n      iszero\n      tag_96\n      jumpi\n      0x00\n      dup1\n      revert\n    tag_96:\n      pop\n      tag_60\n      tag_98\n      calldatasize\n      0x04\n      tag_62\n      jump\t// in\n    tag_98:\n      mstore(0x20, 0x0d)\n      0x00\n      swap1\n      dup2\n      mstore\n      0x40\n      swap1\n      keccak256\n      sload\n      dup2\n      jump\n        /* \"erc721a/contracts/ERC721A.sol\":10426:10590  function transferFrom(... */\n    tag_11:\n      callvalue\n      dup1\n      iszero\n      tag_101\n      jumpi\n      0x00\n      dup1\n      revert\n    tag_101:\n      pop\n      tag_67\n      tag_103\n      calldatasize\n      0x04\n      tag_104\n      jump\t// in\n    tag_103:\n      tag_105\n      jump\t// in\n        /* \"contract/TestMushrooms.sol\":1846:2711  function whitelistMint(bytes32[] memory _merkleProof, uint256 _quantity) external payable callerIsUser{... */\n    tag_12:\n      tag_67\n      tag_107\n      calldatasize\n      0x04\n      tag_108\n      jump\t// in\n    tag_107:\n      tag_109\n      jump\t// in\n        /* \"contract/TestMushrooms.sol\":310:351  uint256 public constant MAX_SUPPLY = 2222 */\n    tag_13:\n      callvalue\n      dup1\n      iszero\n      tag_110\n      jumpi\n      0x00\n      dup1\n      revert\n    tag_110:\n      pop\n      tag_60\n        /* \"contract/TestMushrooms.sol\":347:351  2222 */\n      0x08ae\n        /* \"contract/TestMushrooms.sol\":310:351  uint256 public constant MAX_SUPPLY = 2222 */\n      dup2\n      jump\n        /* \"contract/TestMushrooms.sol\":815:837  bool public publicSale */\n    tag_14:\n      callvalue\n      dup1\n      iszero\n      tag_114\n      jumpi\n      0x00\n      dup1\n      revert\n    tag_114:\n      pop\n      sload(0x0b)\n      tag_53\n      swap1\n      0x0100\n      swap1\n      div\n      0xff\n      and\n      dup2\n      jump\n        /* \"contract/TestMushrooms.sol\":4912:5216  function withdraw() external onlyOwner{... */\n    tag_15:\n      callvalue\n      dup1\n      iszero\n      tag_118\n      jumpi\n      0x00\n      dup1\n      revert\n    tag_118:\n      pop\n      tag_67\n      tag_120\n      jump\t// in\n        /* \"erc721a/contracts/ERC721A.sol\":10656:10835  function safeTransferFrom(... */\n    tag_16:\n      callvalue\n      dup1\n      iszero\n      tag_121\n      jumpi\n      0x00\n      dup1\n      revert\n    tag_121:\n      pop\n      tag_67\n      tag_123\n      calldatasize\n      0x04\n      tag_104\n      jump\t// in\n    tag_123:\n      tag_124\n      jump\t// in\n        /* \"contract/TestMushrooms.sol\":4434:4526  function getMerkleRoot() external view returns (bytes32){... */\n    tag_17:\n      callvalue\n      dup1\n      iszero\n      tag_125\n      jumpi\n      0x00\n      dup1\n      revert\n    tag_125:\n      pop\n        /* \"contract/TestMushrooms.sol\":4508:4518  merkleRoot */\n      sload(0x0c)\n        /* \"contract/TestMushrooms.sol\":4434:4526  function getMerkleRoot() external view returns (bytes32){... */\n      jump(tag_60)\n        /* \"contract/TestMushrooms.sol\":627:662  string public   placeholderTokenUri */\n    tag_18:\n      callvalue\n      dup1\n      iszero\n      tag_130\n      jumpi\n      0x00\n      dup1\n      revert\n    tag_130:\n      pop\n      tag_72\n      tag_132\n      jump\t// in\n        /* \"contract/TestMushrooms.sol\":786:808  bool public isRevealed */\n    tag_19:\n      callvalue\n      dup1\n      iszero\n      tag_134\n      jumpi\n      0x00\n      dup1\n      revert\n    tag_134:\n      pop\n      sload(0x0b)\n      tag_53\n      swap1\n      0xff\n      and\n      dup2\n      jump\n        /* \"contract/TestMushrooms.sol\":4819:4904  function toggleReveal() external onlyOwner{... */\n    tag_20:\n      callvalue\n      dup1\n      iszero\n      tag_138\n      jumpi\n      0x00\n      dup1\n      revert\n    tag_138:\n      pop\n      tag_67\n      tag_140\n      jump\t// in\n        /* \"erc721a/contracts/ERC721A.sol\":7955:8077  function ownerOf(uint256 tokenId) public view override returns (address) {... */\n    tag_21:\n      callvalue\n      dup1\n      iszero\n      tag_141\n      jumpi\n      0x00\n      dup1\n      revert\n    tag_141:\n      pop\n      tag_81\n      tag_143\n      calldatasize\n      0x04\n      tag_83\n      jump\t// in\n    tag_143:\n      tag_144\n      jump\t// in\n        /* \"contract/TestMushrooms.sol\":358:403  uint256 public constant MAX_PUBLIC_MINT = 100 */\n    tag_22:\n      callvalue\n      dup1\n      iszero\n      tag_146\n      jumpi\n      0x00\n      dup1\n      revert\n    tag_146:\n      pop\n      tag_60\n        /* \"contract/TestMushrooms.sol\":400:403  100 */\n      0x64\n        /* \"contract/TestMushrooms.sol\":358:403  uint256 public constant MAX_PUBLIC_MINT = 100 */\n      dup2\n      jump\n        /* \"erc721a/contracts/ERC721A.sol\":5202:5405  function balanceOf(address owner) public view override returns (uint256) {... */\n    tag_23:\n      callvalue\n      dup1\n      iszero\n      tag_150\n      jumpi\n      0x00\n      dup1\n      revert\n    tag_150:\n      pop\n      tag_60\n      tag_152\n      calldatasize\n      0x04\n      tag_62\n      jump\t// in\n    tag_152:\n      tag_153\n      jump\t// in\n        /* \"@openzeppelin/contracts/access/Ownable.sol\":1668:1769  function renounceOwnership() public virtual onlyOwner {... */\n    tag_24:\n      callvalue\n      dup1\n      iszero\n      tag_155\n      jumpi\n      0x00\n      dup1\n      revert\n    tag_155:\n      pop\n      tag_67\n      tag_157\n      jump\t// in\n        /* \"contract/TestMushrooms.sol\":4321:4426  function setMerkleRoot(bytes32 _merkleRoot) external onlyOwner{... */\n    tag_25:\n      callvalue\n      dup1\n      iszero\n      tag_158\n      jumpi\n      0x00\n      dup1\n      revert\n    tag_158:\n      pop\n      tag_67\n      tag_160\n      calldatasize\n      0x04\n      tag_83\n      jump\t// in\n    tag_160:\n      tag_162\n      jump\t// in\n        /* \"contract/TestMushrooms.sol\":3634:4042  function walletOf() external view returns(uint256[] memory){... */\n    tag_26:\n      callvalue\n      dup1\n      iszero\n      tag_163\n      jumpi\n      0x00\n      dup1\n      revert\n    tag_163:\n      pop\n      tag_164\n      tag_165\n      jump\t// in\n    tag_164:\n      mload(0x40)\n      tag_57\n      swap2\n      swap1\n      tag_167\n      jump\t// in\n        /* \"contract/TestMushrooms.sol\":876:893  bool public pause */\n    tag_27:\n      callvalue\n      dup1\n      iszero\n      tag_168\n      jumpi\n      0x00\n      dup1\n      revert\n    tag_168:\n      pop\n      sload(0x0b)\n      tag_53\n      swap1\n      0x01000000\n      swap1\n      div\n      0xff\n      and\n      dup2\n      jump\n        /* \"contract/TestMushrooms.sol\":844:869  bool public whiteListSale */\n    tag_28:\n      callvalue\n      dup1\n      iszero\n      tag_172\n      jumpi\n      0x00\n      dup1\n      revert\n    tag_172:\n      pop\n      sload(0x0b)\n      tag_53\n      swap1\n      0x010000\n      swap1\n      div\n      0xff\n      and\n      dup2\n      jump\n        /* \"contract/TestMushrooms.sol\":4616:4714  function toggleWhiteListSale() external onlyOwner{... */\n    tag_29:\n      callvalue\n      dup1\n      iszero\n      tag_176\n      jumpi\n      0x00\n      dup1\n      revert\n    tag_176:\n      pop\n      tag_67\n      tag_178\n      jump\t// in\n        /* \"@openzeppelin/contracts/access/Ownable.sol\":1036:1121  function owner() public view virtual returns (address) {... */\n    tag_30:\n      callvalue\n      dup1\n      iszero\n      tag_179\n      jumpi\n      0x00\n      dup1\n      revert\n    tag_179:\n      pop\n        /* \"@openzeppelin/contracts/access/Ownable.sol\":1108:1114  _owner */\n      and(sub(shl(0xa0, 0x01), 0x01), sload(0x08))\n        /* \"@openzeppelin/contracts/access/Ownable.sol\":1036:1121  function owner() public view virtual returns (address) {... */\n      jump(tag_81)\n        /* \"erc721a/contracts/ERC721A.sol\":8301:8403  function symbol() public view virtual override returns (string memory) {... */\n    tag_31:\n      callvalue\n      dup1\n      iszero\n      tag_183\n      jumpi\n      0x00\n      dup1\n      revert\n    tag_183:\n      pop\n      tag_72\n      tag_185\n      jump\t// in\n        /* \"contract/TestMushrooms.sol\":1293:1838  function mint(uint256 _quantity) external payable callerIsUser{... */\n    tag_32:\n      tag_67\n      tag_188\n      calldatasize\n      0x04\n      tag_83\n      jump\t// in\n    tag_188:\n      tag_189\n      jump\t// in\n        /* \"erc721a/contracts/ERC721A.sol\":9862:10136  function setApprovalForAll(address operator, bool approved) public override {... */\n    tag_33:\n      callvalue\n      dup1\n      iszero\n      tag_190\n      jumpi\n      0x00\n      dup1\n      revert\n    tag_190:\n      pop\n      tag_67\n      tag_192\n      calldatasize\n      0x04\n      tag_193\n      jump\t// in\n    tag_192:\n      tag_194\n      jump\t// in\n        /* \"contract/TestMushrooms.sol\":4171:4313  function setPlaceHolderUri(string memory _placeholderTokenUri) external onlyOwner{... */\n    tag_34:\n      callvalue\n      dup1\n      iszero\n      tag_195\n      jumpi\n      0x00\n      dup1\n      revert\n    tag_195:\n      pop\n      tag_67\n      tag_197\n      calldatasize\n      0x04\n      tag_69\n      jump\t// in\n    tag_197:\n      tag_198\n      jump\t// in\n        /* \"erc721a/contracts/ERC721A.sol\":10901:11260  function safeTransferFrom(... */\n    tag_35:\n      callvalue\n      dup1\n      iszero\n      tag_199\n      jumpi\n      0x00\n      dup1\n      revert\n    tag_199:\n      pop\n      tag_67\n      tag_201\n      calldatasize\n      0x04\n      tag_202\n      jump\t// in\n    tag_201:\n      tag_203\n      jump\t// in\n        /* \"contract/TestMushrooms.sol\":2719:2902  function teamMint() external onlyOwner{... */\n    tag_36:\n      callvalue\n      dup1\n      iszero\n      tag_204\n      jumpi\n      0x00\n      dup1\n      revert\n    tag_204:\n      pop\n      tag_67\n      tag_206\n      jump\t// in\n        /* \"contract/TestMushrooms.sol\":526:583  uint256 public constant WHITELIST_SALE_PRICE = .002 ether */\n    tag_37:\n      callvalue\n      dup1\n      iszero\n      tag_207\n      jumpi\n      0x00\n      dup1\n      revert\n    tag_207:\n      pop\n      tag_60\n        /* \"contract/TestMushrooms.sol\":573:583  .002 ether */\n      0x071afd498d0000\n        /* \"contract/TestMushrooms.sol\":526:583  uint256 public constant WHITELIST_SALE_PRICE = .002 ether */\n      dup2\n      jump\n        /* \"contract/TestMushrooms.sol\":4534:4608  function togglePause() external onlyOwner{... */\n    tag_39:\n      callvalue\n      dup1\n      iszero\n      tag_215\n      jumpi\n      0x00\n      dup1\n      revert\n    tag_215:\n      pop\n      tag_67\n      tag_217\n      jump\t// in\n        /* \"contract/TestMushrooms.sol\":3067:3540  function tokenURI(uint256 tokenId) public view virtual override returns (string memory) {... */\n    tag_40:\n      callvalue\n      dup1\n      iszero\n      tag_218\n      jumpi\n      0x00\n      dup1\n      revert\n    tag_218:\n      pop\n      tag_72\n      tag_220\n      calldatasize\n      0x04\n      tag_83\n      jump\t// in\n    tag_220:\n      tag_221\n      jump\t// in\n        /* \"contract/TestMushrooms.sol\":4722:4811  function togglePublicSale() external onlyOwner{... */\n    tag_41:\n      callvalue\n      dup1\n      iszero\n      tag_223\n      jumpi\n      0x00\n      dup1\n      revert\n    tag_223:\n      pop\n      tag_67\n      tag_225\n      jump\t// in\n        /* \"contract/TestMushrooms.sol\":900:922  bool public teamMinted */\n    tag_42:\n      callvalue\n      dup1\n      iszero\n      tag_226\n      jumpi\n      0x00\n      dup1\n      revert\n    tag_226:\n      pop\n      sload(0x0b)\n      tag_53\n      swap1\n      0x0100000000\n      swap1\n      div\n      0xff\n      and\n      dup2\n      jump\n        /* \"erc721a/contracts/ERC721A.sol\":10202:10364  function isApprovedForAll(address owner, address operator) public view virtual override returns (bool) {... */\n    tag_43:\n      callvalue\n      dup1\n      iszero\n      tag_230\n      jumpi\n      0x00\n      dup1\n      revert\n    tag_230:\n      pop\n      tag_53\n      tag_232\n      calldatasize\n      0x04\n      tag_233\n      jump\t// in\n    tag_232:\n      sub(shl(0xa0, 0x01), 0x01)\n        /* \"erc721a/contracts/ERC721A.sol\":10322:10347  _operatorApprovals[owner] */\n      swap2\n      dup3\n      and\n        /* \"erc721a/contracts/ERC721A.sol\":10299:10303  bool */\n      0x00\n        /* \"erc721a/contracts/ERC721A.sol\":10322:10347  _operatorApprovals[owner] */\n      swap1\n      dup2\n      mstore\n        /* \"erc721a/contracts/ERC721A.sol\":10322:10340  _operatorApprovals */\n      0x07\n        /* \"erc721a/contracts/ERC721A.sol\":10322:10347  _operatorApprovals[owner] */\n      0x20\n      swap1\n      dup2\n      mstore\n      0x40\n      dup1\n      dup4\n      keccak256\n        /* \"erc721a/contracts/ERC721A.sol\":10322:10357  _operatorApprovals[owner][operator] */\n      swap4\n      swap1\n      swap5\n      and\n      dup3\n      mstore\n      swap2\n      swap1\n      swap2\n      mstore\n      keccak256\n      sload\n      0xff\n      and\n      swap1\n        /* \"erc721a/contracts/ERC721A.sol\":10202:10364  function isApprovedForAll(address owner, address operator) public view virtual override returns (bool) {... */\n      jump\n        /* \"@openzeppelin/contracts/access/Ownable.sol\":1918:2116  function transferOwnership(address newOwner) public virtual onlyOwner {... */\n    tag_44:\n      callvalue\n      dup1\n      iszero\n      tag_236\n      jumpi\n      0x00\n      dup1\n      revert\n    tag_236:\n      pop\n      tag_67\n      tag_238\n      calldatasize\n      0x04\n      tag_62\n      jump\t// in\n    tag_238:\n      tag_239\n      jump\t// in\n        /* \"erc721a/contracts/ERC721A.sol\":4843:5143  function supportsInterface(bytes4 interfaceId) public view virtual override(ERC165, IERC165) returns (bool) {... */\n    tag_56:\n        /* \"erc721a/contracts/ERC721A.sol\":4945:4949  bool */\n      0x00\n      not(sub(shl(0xe0, 0x01), 0x01))\n        /* \"erc721a/contracts/ERC721A.sol\":4980:5020  interfaceId == type(IERC721).interfaceId */\n      dup3\n      and\n      shl(0xe0, 0x80ac58cd)\n      eq\n      dup1\n        /* \"erc721a/contracts/ERC721A.sol\":4980:5084  interfaceId == type(IERC721).interfaceId ||... */\n      tag_241\n      jumpi\n      pop\n      not(sub(shl(0xe0, 0x01), 0x01))\n        /* \"erc721a/contracts/ERC721A.sol\":5036:5084  interfaceId == type(IERC721Metadata).interfaceId */\n      dup3\n      and\n      shl(0xe0, 0x5b5e139f)\n      eq\n        /* \"erc721a/contracts/ERC721A.sol\":4980:5084  interfaceId == type(IERC721).interfaceId ||... */\n    tag_241:\n        /* \"erc721a/contracts/ERC721A.sol\":4980:5136  interfaceId == type(IERC721).interfaceId ||... */\n      dup1\n      tag_243\n      jumpi\n      pop\n      shl(0xe0, 0x01ffc9a7)\n      not(sub(shl(0xe0, 0x01), 0x01))\n        /* \"@openzeppelin/contracts/utils/introspection/ERC165.sol\":937:977  interfaceId == type(IERC165).interfaceId */\n      dup4\n      and\n      eq\n        /* \"erc721a/contracts/ERC721A.sol\":5100:5136  super.supportsInterface(interfaceId) */\n    tag_243:\n        /* \"erc721a/contracts/ERC721A.sol\":4961:5136  return... */\n      swap3\n        /* \"erc721a/contracts/ERC721A.sol\":4843:5143  function supportsInterface(bytes4 interfaceId) public view virtual override(ERC165, IERC165) returns (bool) {... */\n      swap2\n      pop\n      pop\n      jump\t// out\n        /* \"contract/TestMushrooms.sol\":4050:4165  function setTokenUri(string memory _baseTokenUri) external onlyOwner{... */\n    tag_70:\n        /* \"@openzeppelin/contracts/access/Ownable.sol\":1108:1114  _owner */\n      and(sub(shl(0xa0, 0x01), 0x01), sload(0x08))\n        /* \"@openzeppelin/contracts/utils/Context.sol\":719:729  msg.sender */\n      caller\n        /* \"@openzeppelin/contracts/access/Ownable.sol\":1248:1271  owner() == _msgSender() */\n      eq\n        /* \"@openzeppelin/contracts/access/Ownable.sol\":1240:1308  require(owner() == _msgSender(), \"Ownable: caller is not the owner\") */\n      tag_249\n      jumpi\n      mload(0x40)\n      shl(0xe5, 0x461bcd)\n      dup2\n      mstore\n      0x04\n      add\n      tag_250\n      swap1\n      tag_251\n      jump\t// in\n    tag_250:\n      mload(0x40)\n      dup1\n      swap2\n      sub\n      swap1\n      revert\n    tag_249:\n        /* \"contract/TestMushrooms.sol\":4129:4157  baseTokenUri = _baseTokenUri */\n      dup1\n      mload\n      tag_253\n      swap1\n        /* \"contract/TestMushrooms.sol\":4129:4141  baseTokenUri */\n      0x09\n      swap1\n        /* \"contract/TestMushrooms.sol\":4129:4157  baseTokenUri = _baseTokenUri */\n      0x20\n      dup5\n      add\n      swap1\n      tag_254\n      jump\t// in\n    tag_253:\n      pop\n        /* \"contract/TestMushrooms.sol\":4050:4165  function setTokenUri(string memory _baseTokenUri) external onlyOwner{... */\n      pop\n      jump\t// out\n        /* \"erc721a/contracts/ERC721A.sol\":8139:8237  function name() public view virtual override returns (string memory) {... */\n    tag_73:\n        /* \"erc721a/contracts/ERC721A.sol\":8193:8206  string memory */\n      0x60\n        /* \"erc721a/contracts/ERC721A.sol\":8225:8230  _name */\n      0x02\n        /* \"erc721a/contracts/ERC721A.sol\":8218:8230  return _name */\n      dup1\n      sload\n      tag_256\n      swap1\n      tag_257\n      jump\t// in\n    tag_256:\n      dup1\n      0x1f\n      add\n      0x20\n      dup1\n      swap2\n      div\n      mul\n      0x20\n      add\n      mload(0x40)\n      swap1\n      dup2\n      add\n      0x40\n      mstore\n      dup1\n      swap3\n      swap2\n      swap1\n      dup2\n      dup2\n      mstore\n      0x20\n      add\n      dup3\n      dup1\n      sload\n      tag_258\n      swap1\n      tag_257\n      jump\t// in\n    tag_258:\n      dup1\n      iszero\n      tag_259\n      jumpi\n      dup1\n      0x1f\n      lt\n      tag_260\n      jumpi\n      0x0100\n      dup1\n      dup4\n      sload\n      div\n      mul\n      dup4\n      mstore\n      swap2\n      0x20\n      add\n      swap2\n      jump(tag_259)\n    tag_260:\n      dup3\n      add\n      swap2\n      swap1\n      0x00\n      mstore\n      keccak256(0x00, 0x20)\n      swap1\n    tag_261:\n      dup2\n      sload\n      dup2\n      mstore\n      swap1\n      0x01\n      add\n      swap1\n      0x20\n      add\n      dup1\n      dup4\n      gt\n      tag_261\n      jumpi\n      dup3\n      swap1\n      sub\n      0x1f\n      and\n      dup3\n      add\n      swap2\n    tag_259:\n      pop\n      pop\n      pop\n      pop\n      pop\n      swap1\n      pop\n        /* \"erc721a/contracts/ERC721A.sol\":8139:8237  function name() public view virtual override returns (string memory) {... */\n      swap1\n      jump\t// out\n        /* \"erc721a/contracts/ERC721A.sol\":9595:9795  function getApproved(uint256 tokenId) public view override returns (address) {... */\n    tag_84:\n        /* \"erc721a/contracts/ERC721A.sol\":9663:9670  address */\n      0x00\n        /* \"erc721a/contracts/ERC721A.sol\":9687:9703  _exists(tokenId) */\n      tag_263\n        /* \"erc721a/contracts/ERC721A.sol\":9695:9702  tokenId */\n      dup3\n        /* \"erc721a/contracts/ERC721A.sol\":9687:9694  _exists */\n      tag_264\n        /* \"erc721a/contracts/ERC721A.sol\":9687:9703  _exists(tokenId) */\n      jump\t// in\n    tag_263:\n        /* \"erc721a/contracts/ERC721A.sol\":9682:9746  if (!_exists(tokenId)) revert ApprovalQueryForNonexistentToken() */\n      tag_265\n      jumpi\n        /* \"erc721a/contracts/ERC721A.sol\":9712:9746  ApprovalQueryForNonexistentToken() */\n      mload(0x40)\n      shl(0xe2, 0x33d1c039)\n      dup2\n      mstore\n      0x04\n      add\n      mload(0x40)\n      dup1\n      swap2\n      sub\n      swap1\n      revert\n        /* \"erc721a/contracts/ERC721A.sol\":9682:9746  if (!_exists(tokenId)) revert ApprovalQueryForNonexistentToken() */\n    tag_265:\n      pop\n        /* \"erc721a/contracts/ERC721A.sol\":9764:9788  _tokenApprovals[tokenId] */\n      0x00\n      swap1\n      dup2\n      mstore\n        /* \"erc721a/contracts/ERC721A.sol\":9764:9779  _tokenApprovals */\n      0x06\n        /* \"erc721a/contracts/ERC721A.sol\":9764:9788  _tokenApprovals[tokenId] */\n      0x20\n      mstore\n      0x40\n      swap1\n      keccak256\n      sload\n      sub(shl(0xa0, 0x01), 0x01)\n      and\n      swap1\n        /* \"erc721a/contracts/ERC721A.sol\":9595:9795  function getApproved(uint256 tokenId) public view override returns (address) {... */\n      jump\t// out\n        /* \"erc721a/contracts/ERC721A.sol\":9172:9534  function approve(address to, uint256 tokenId) public override {... */\n    tag_91:\n        /* \"erc721a/contracts/ERC721A.sol\":9244:9257  address owner */\n      0x00\n        /* \"erc721a/contracts/ERC721A.sol\":9260:9284  ERC721A.ownerOf(tokenId) */\n      tag_267\n        /* \"erc721a/contracts/ERC721A.sol\":9276:9283  tokenId */\n      dup3\n        /* \"erc721a/contracts/ERC721A.sol\":9260:9275  ERC721A.ownerOf */\n      tag_144\n        /* \"erc721a/contracts/ERC721A.sol\":9260:9284  ERC721A.ownerOf(tokenId) */\n      jump\t// in\n    tag_267:\n        /* \"erc721a/contracts/ERC721A.sol\":9244:9284  address owner = ERC721A.ownerOf(tokenId) */\n      swap1\n      pop\n        /* \"erc721a/contracts/ERC721A.sol\":9304:9309  owner */\n      dup1\n      sub(shl(0xa0, 0x01), 0x01)\n        /* \"erc721a/contracts/ERC721A.sol\":9298:9309  to == owner */\n      and\n        /* \"erc721a/contracts/ERC721A.sol\":9298:9300  to */\n      dup4\n      sub(shl(0xa0, 0x01), 0x01)\n        /* \"erc721a/contracts/ERC721A.sol\":9298:9309  to == owner */\n      and\n      eq\n        /* \"erc721a/contracts/ERC721A.sol\":9294:9342  if (to == owner) revert ApprovalToCurrentOwner() */\n      iszero\n      tag_268\n      jumpi\n        /* \"erc721a/contracts/ERC721A.sol\":9318:9342  ApprovalToCurrentOwner() */\n      mload(0x40)\n      shl(0xe2, 0x250fdee3)\n      dup2\n      mstore\n      0x04\n      add\n      mload(0x40)\n      dup1\n      swap2\n      sub\n      swap1\n      revert\n        /* \"erc721a/contracts/ERC721A.sol\":9294:9342  if (to == owner) revert ApprovalToCurrentOwner() */\n    tag_268:\n        /* \"@openzeppelin/contracts/utils/Context.sol\":719:729  msg.sender */\n      caller\n      sub(shl(0xa0, 0x01), 0x01)\n        /* \"erc721a/contracts/ERC721A.sol\":9357:9378  _msgSender() != owner */\n      dup3\n      and\n      eq\n      dup1\n      iszero\n      swap1\n        /* \"erc721a/contracts/ERC721A.sol\":9357:9420  _msgSender() != owner && !isApprovedForAll(owner, _msgSender()) */\n      tag_270\n      jumpi\n      pop\n        /* \"erc721a/contracts/ERC721A.sol\":9383:9420  isApprovedForAll(owner, _msgSender()) */\n      tag_271\n        /* \"erc721a/contracts/ERC721A.sol\":9400:9405  owner */\n      dup2\n        /* \"@openzeppelin/contracts/utils/Context.sol\":719:729  msg.sender */\n      caller\n        /* \"erc721a/contracts/ERC721A.sol\":10202:10364  function isApprovedForAll(address owner, address operator) public view virtual override returns (bool) {... */\n      tag_232\n      jump\t// in\n        /* \"erc721a/contracts/ERC721A.sol\":9383:9420  isApprovedForAll(owner, _msgSender()) */\n    tag_271:\n        /* \"erc721a/contracts/ERC721A.sol\":9382:9420  !isApprovedForAll(owner, _msgSender()) */\n      iszero\n        /* \"erc721a/contracts/ERC721A.sol\":9357:9420  _msgSender() != owner && !isApprovedForAll(owner, _msgSender()) */\n    tag_270:\n        /* \"erc721a/contracts/ERC721A.sol\":9353:9489  if (_msgSender() != owner && !isApprovedForAll(owner, _msgSender())) {... */\n      iszero\n      tag_273\n      jumpi\n        /* \"erc721a/contracts/ERC721A.sol\":9443:9478  ApprovalCallerNotOwnerNorApproved() */\n      mload(0x40)\n      shl(0xe1, 0x67d9dca1)\n      dup2\n      mstore\n      0x04\n      add\n      mload(0x40)\n      dup1\n      swap2\n      sub\n      swap1\n      revert\n        /* \"erc721a/contracts/ERC721A.sol\":9353:9489  if (_msgSender() != owner && !isApprovedForAll(owner, _msgSender())) {... */\n    tag_273:\n        /* \"erc721a/contracts/ERC721A.sol\":9499:9527  _approve(to, tokenId, owner) */\n      tag_274\n        /* \"erc721a/contracts/ERC721A.sol\":9508:9510  to */\n      dup4\n        /* \"erc721a/contracts/ERC721A.sol\":9512:9519  tokenId */\n      dup4\n        /* \"erc721a/contracts/ERC721A.sol\":9521:9526  owner */\n      dup4\n        /* \"erc721a/contracts/ERC721A.sol\":9499:9507  _approve */\n      tag_275\n        /* \"erc721a/contracts/ERC721A.sol\":9499:9527  _approve(to, tokenId, owner) */\n      jump\t// in\n    tag_274:\n        /* \"erc721a/contracts/ERC721A.sol\":9234:9534  {... */\n      pop\n        /* \"erc721a/contracts/ERC721A.sol\":9172:9534  function approve(address to, uint256 tokenId) public override {... */\n      pop\n      pop\n      jump\t// out\n        /* \"erc721a/contracts/ERC721A.sol\":10426:10590  function transferFrom(... */\n    tag_105:\n        /* \"erc721a/contracts/ERC721A.sol\":10555:10583  _transfer(from, to, tokenId) */\n      tag_274\n        /* \"erc721a/contracts/ERC721A.sol\":10565:10569  from */\n      dup4\n        /* \"erc721a/contracts/ERC721A.sol\":10571:10573  to */\n      dup4\n        /* \"erc721a/contracts/ERC721A.sol\":10575:10582  tokenId */\n      dup4\n        /* \"erc721a/contracts/ERC721A.sol\":10555:10564  _transfer */\n      tag_281\n        /* \"erc721a/contracts/ERC721A.sol\":10555:10583  _transfer(from, to, tokenId) */\n      jump\t// in\n        /* \"contract/TestMushrooms.sol\":1846:2711  function whitelistMint(bytes32[] memory _merkleProof, uint256 _quantity) external payable callerIsUser{... */\n    tag_109:\n        /* \"contract/TestMushrooms.sol\":1190:1199  tx.origin */\n      origin\n        /* \"contract/TestMushrooms.sol\":1203:1213  msg.sender */\n      caller\n        /* \"contract/TestMushrooms.sol\":1190:1213  tx.origin == msg.sender */\n      eq\n        /* \"contract/TestMushrooms.sol\":1182:1265  require(tx.origin == msg.sender, \"TestMushrooms :: Cannot be called by a contract\") */\n      tag_283\n      jumpi\n      mload(0x40)\n      shl(0xe5, 0x461bcd)\n      dup2\n      mstore\n      0x04\n      add\n      tag_250\n      swap1\n      tag_285\n      jump\t// in\n    tag_283:\n        /* \"contract/TestMushrooms.sol\":1967:1980  whiteListSale */\n      sload(0x0b)\n      0x010000\n      swap1\n      div\n      0xff\n      and\n        /* \"contract/TestMushrooms.sol\":1959:2021  require(whiteListSale, \"TestMushrooms :: Minting is on Pause\") */\n      tag_287\n      jumpi\n      mload(0x40)\n      shl(0xe5, 0x461bcd)\n      dup2\n      mstore\n        /* \"#utility.yul\":8859:8861   */\n      0x20\n        /* \"contract/TestMushrooms.sol\":1959:2021  require(whiteListSale, \"TestMushrooms :: Minting is on Pause\") */\n      0x04\n      dup3\n      add\n        /* \"#utility.yul\":8841:8862   */\n      mstore\n        /* \"#utility.yul\":8898:8900   */\n      0x24\n        /* \"#utility.yul\":8878:8896   */\n      dup1\n      dup3\n      add\n        /* \"#utility.yul\":8871:8901   */\n      mstore\n        /* \"#utility.yul\":8937:8971   */\n      0x546573744d757368726f6f6d73203a3a204d696e74696e67206973206f6e2050\n        /* \"#utility.yul\":8917:8935   */\n      0x44\n      dup3\n      add\n        /* \"#utility.yul\":8910:8972   */\n      mstore\n      shl(0xe0, 0x61757365)\n        /* \"#utility.yul\":8988:9006   */\n      0x64\n      dup3\n      add\n        /* \"#utility.yul\":8981:9015   */\n      mstore\n        /* \"#utility.yul\":9032:9051   */\n      0x84\n      add\n        /* \"contract/TestMushrooms.sol\":1959:2021  require(whiteListSale, \"TestMushrooms :: Minting is on Pause\") */\n      tag_250\n        /* \"#utility.yul\":8657:9057   */\n      jump\n        /* \"contract/TestMushrooms.sol\":1959:2021  require(whiteListSale, \"TestMushrooms :: Minting is on Pause\") */\n    tag_287:\n        /* \"contract/TestMushrooms.sol\":347:351  2222 */\n      0x08ae\n        /* \"contract/TestMushrooms.sol\":2057:2066  _quantity */\n      dup2\n        /* \"contract/TestMushrooms.sol\":2041:2054  totalSupply() */\n      tag_290\n        /* \"erc721a/contracts/ERC721A.sol\":4364:4376  _burnCounter */\n      sload(0x01)\n        /* \"erc721a/contracts/ERC721A.sol\":4158:4165  uint256 */\n      0x00\n        /* \"erc721a/contracts/ERC721A.sol\":4348:4361  _currentIndex */\n      sload\n        /* \"erc721a/contracts/ERC721A.sol\":4348:4376  _currentIndex - _burnCounter */\n      sub\n      swap1\n        /* \"erc721a/contracts/ERC721A.sol\":4114:4411  function totalSupply() public view returns (uint256) {... */\n      jump\n        /* \"contract/TestMushrooms.sol\":2041:2054  totalSupply() */\n    tag_290:\n        /* \"contract/TestMushrooms.sol\":2041:2066  totalSupply() + _quantity */\n      tag_291\n      swap2\n      swap1\n      tag_292\n      jump\t// in\n    tag_291:\n        /* \"contract/TestMushrooms.sol\":2040:2081  (totalSupply() + _quantity) <= MAX_SUPPLY */\n      gt\n      iszero\n        /* \"contract/TestMushrooms.sol\":2032:2132  require((totalSupply() + _quantity) <= MAX_SUPPLY, \"TestMushrooms :: Cannot mint beyond max supply\") */\n      tag_293\n      jumpi\n      mload(0x40)\n      shl(0xe5, 0x461bcd)\n      dup2\n      mstore\n        /* \"#utility.yul\":9529:9531   */\n      0x20\n        /* \"contract/TestMushrooms.sol\":2032:2132  require((totalSupply() + _quantity) <= MAX_SUPPLY, \"TestMushrooms :: Cannot mint beyond max supply\") */\n      0x04\n      dup3\n      add\n        /* \"#utility.yul\":9511:9532   */\n      mstore\n        /* \"#utility.yul\":9568:9570   */\n      0x2e\n        /* \"#utility.yul\":9548:9566   */\n      0x24\n      dup3\n      add\n        /* \"#utility.yul\":9541:9571   */\n      mstore\n        /* \"#utility.yul\":9607:9641   */\n      0x546573744d757368726f6f6d73203a3a2043616e6e6f74206d696e7420626579\n        /* \"#utility.yul\":9587:9605   */\n      0x44\n      dup3\n      add\n        /* \"#utility.yul\":9580:9642   */\n      mstore\n      shl(0x90, 0x6f6e64206d617820737570706c79)\n        /* \"#utility.yul\":9658:9676   */\n      0x64\n      dup3\n      add\n        /* \"#utility.yul\":9651:9695   */\n      mstore\n        /* \"#utility.yul\":9712:9731   */\n      0x84\n      add\n        /* \"contract/TestMushrooms.sol\":2032:2132  require((totalSupply() + _quantity) <= MAX_SUPPLY, \"TestMushrooms :: Cannot mint beyond max supply\") */\n      tag_250\n        /* \"#utility.yul\":9327:9737   */\n      jump\n        /* \"contract/TestMushrooms.sol\":2032:2132  require((totalSupply() + _quantity) <= MAX_SUPPLY, \"TestMushrooms :: Cannot mint beyond max supply\") */\n    tag_293:\n        /* \"contract/TestMushrooms.sol\":2171:2181  msg.sender */\n      caller\n        /* \"contract/TestMushrooms.sol\":2152:2182  totalWhitelistMint[msg.sender] */\n      0x00\n      swap1\n      dup2\n      mstore\n        /* \"contract/TestMushrooms.sol\":2152:2170  totalWhitelistMint */\n      0x0e\n        /* \"contract/TestMushrooms.sol\":2152:2182  totalWhitelistMint[msg.sender] */\n      0x20\n      mstore\n      0x40\n      swap1\n      keccak256\n      sload\n        /* \"contract/TestMushrooms.sol\":455:458  100 */\n      0x64\n      swap1\n        /* \"contract/TestMushrooms.sol\":2152:2194  totalWhitelistMint[msg.sender] + _quantity */\n      tag_296\n      swap1\n        /* \"contract/TestMushrooms.sol\":2185:2194  _quantity */\n      dup4\n      swap1\n        /* \"contract/TestMushrooms.sol\":2152:2194  totalWhitelistMint[msg.sender] + _quantity */\n      tag_292\n      jump\t// in\n    tag_296:\n        /* \"contract/TestMushrooms.sol\":2151:2218  (totalWhitelistMint[msg.sender] + _quantity)  <= MAX_WHITELIST_MINT */\n      gt\n      iszero\n        /* \"contract/TestMushrooms.sol\":2143:2277  require((totalWhitelistMint[msg.sender] + _quantity)  <= MAX_WHITELIST_MINT, \"TestMushrooms:: Cannot mint beyond whitelist max mint!\") */\n      tag_297\n      jumpi\n      mload(0x40)\n      shl(0xe5, 0x461bcd)\n      dup2\n      mstore\n        /* \"#utility.yul\":9944:9946   */\n      0x20\n        /* \"contract/TestMushrooms.sol\":2143:2277  require((totalWhitelistMint[msg.sender] + _quantity)  <= MAX_WHITELIST_MINT, \"TestMushrooms:: Cannot mint beyond whitelist max mint!\") */\n      0x04\n      dup3\n      add\n        /* \"#utility.yul\":9926:9947   */\n      mstore\n        /* \"#utility.yul\":9983:9985   */\n      0x36\n        /* \"#utility.yul\":9963:9981   */\n      0x24\n      dup3\n      add\n        /* \"#utility.yul\":9956:9986   */\n      mstore\n        /* \"#utility.yul\":10022:10056   */\n      0x546573744d757368726f6f6d733a3a2043616e6e6f74206d696e74206265796f\n        /* \"#utility.yul\":10002:10020   */\n      0x44\n      dup3\n      add\n        /* \"#utility.yul\":9995:10057   */\n      mstore\n      shl(0x50, 0x6e642077686974656c697374206d6178206d696e7421)\n        /* \"#utility.yul\":10073:10091   */\n      0x64\n      dup3\n      add\n        /* \"#utility.yul\":10066:10118   */\n      mstore\n        /* \"#utility.yul\":10135:10154   */\n      0x84\n      add\n        /* \"contract/TestMushrooms.sol\":2143:2277  require((totalWhitelistMint[msg.sender] + _quantity)  <= MAX_WHITELIST_MINT, \"TestMushrooms:: Cannot mint beyond whitelist max mint!\") */\n      tag_250\n        /* \"#utility.yul\":9742:10160   */\n      jump\n        /* \"contract/TestMushrooms.sol\":2143:2277  require((totalWhitelistMint[msg.sender] + _quantity)  <= MAX_WHITELIST_MINT, \"TestMushrooms:: Cannot mint beyond whitelist max mint!\") */\n    tag_297:\n        /* \"contract/TestMushrooms.sol\":2310:2342  WHITELIST_SALE_PRICE * _quantity */\n      tag_300\n        /* \"contract/TestMushrooms.sol\":2333:2342  _quantity */\n      dup2\n        /* \"contract/TestMushrooms.sol\":573:583  .002 ether */\n      0x071afd498d0000\n        /* \"contract/TestMushrooms.sol\":2310:2342  WHITELIST_SALE_PRICE * _quantity */\n      tag_301\n      jump\t// in\n    tag_300:\n        /* \"contract/TestMushrooms.sol\":2296:2305  msg.value */\n      callvalue\n        /* \"contract/TestMushrooms.sol\":2296:2343  msg.value >= (WHITELIST_SALE_PRICE * _quantity) */\n      lt\n      iszero\n        /* \"contract/TestMushrooms.sol\":2288:2391  require(msg.value >= (WHITELIST_SALE_PRICE * _quantity), \"TestMushrooms :: Payment is below the price\") */\n      tag_302\n      jumpi\n      mload(0x40)\n      shl(0xe5, 0x461bcd)\n      dup2\n      mstore\n        /* \"#utility.yul\":10540:10542   */\n      0x20\n        /* \"contract/TestMushrooms.sol\":2288:2391  require(msg.value >= (WHITELIST_SALE_PRICE * _quantity), \"TestMushrooms :: Payment is below the price\") */\n      0x04\n      dup3\n      add\n        /* \"#utility.yul\":10522:10543   */\n      mstore\n        /* \"#utility.yul\":10579:10581   */\n      0x2b\n        /* \"#utility.yul\":10559:10577   */\n      0x24\n      dup3\n      add\n        /* \"#utility.yul\":10552:10582   */\n      mstore\n        /* \"#utility.yul\":10618:10652   */\n      0x546573744d757368726f6f6d73203a3a205061796d656e742069732062656c6f\n        /* \"#utility.yul\":10598:10616   */\n      0x44\n      dup3\n      add\n        /* \"#utility.yul\":10591:10653   */\n      mstore\n      shl(0xa8, 0x7720746865207072696365)\n        /* \"#utility.yul\":10669:10687   */\n      0x64\n      dup3\n      add\n        /* \"#utility.yul\":10662:10703   */\n      mstore\n        /* \"#utility.yul\":10720:10739   */\n      0x84\n      add\n        /* \"contract/TestMushrooms.sol\":2288:2391  require(msg.value >= (WHITELIST_SALE_PRICE * _quantity), \"TestMushrooms :: Payment is below the price\") */\n      tag_250\n        /* \"#utility.yul\":10338:10745   */\n      jump\n        /* \"contract/TestMushrooms.sol\":2288:2391  require(msg.value >= (WHITELIST_SALE_PRICE * _quantity), \"TestMushrooms :: Payment is below the price\") */\n    tag_302:\n        /* \"contract/TestMushrooms.sol\":2457:2485  abi.encodePacked(msg.sender) */\n      mload(0x40)\n      not(0xffffffffffffffffffffffff)\n        /* \"contract/TestMushrooms.sol\":2474:2484  msg.sender */\n      caller\n        /* \"#utility.yul\":10899:10901   */\n      0x60\n        /* \"#utility.yul\":10895:10910   */\n      shl\n        /* \"#utility.yul\":10891:10944   */\n      and\n        /* \"contract/TestMushrooms.sol\":2457:2485  abi.encodePacked(msg.sender) */\n      0x20\n      dup3\n      add\n        /* \"#utility.yul\":10879:10945   */\n      mstore\n        /* \"contract/TestMushrooms.sol\":2430:2444  bytes32 sender */\n      0x00\n      swap1\n        /* \"#utility.yul\":10961:10973   */\n      0x34\n      add\n        /* \"contract/TestMushrooms.sol\":2457:2485  abi.encodePacked(msg.sender) */\n      mload(0x40)\n      0x20\n      dup2\n      dup4\n      sub\n      sub\n      dup2\n      mstore\n      swap1\n      0x40\n      mstore\n        /* \"contract/TestMushrooms.sol\":2447:2486  keccak256(abi.encodePacked(msg.sender)) */\n      dup1\n      mload\n      swap1\n      0x20\n      add\n      keccak256\n        /* \"contract/TestMushrooms.sol\":2430:2486  bytes32 sender = keccak256(abi.encodePacked(msg.sender)) */\n      swap1\n      pop\n        /* \"contract/TestMushrooms.sol\":2505:2557  MerkleProof.verify(_merkleProof, merkleRoot, sender) */\n      tag_307\n        /* \"contract/TestMushrooms.sol\":2524:2536  _merkleProof */\n      dup4\n        /* \"contract/TestMushrooms.sol\":2538:2548  merkleRoot */\n      sload(0x0c)\n        /* \"contract/TestMushrooms.sol\":2550:2556  sender */\n      dup4\n        /* \"contract/TestMushrooms.sol\":2505:2523  MerkleProof.verify */\n      tag_308\n        /* \"contract/TestMushrooms.sol\":2505:2557  MerkleProof.verify(_merkleProof, merkleRoot, sender) */\n      jump\t// in\n    tag_307:\n        /* \"contract/TestMushrooms.sol\":2497:2602  require(MerkleProof.verify(_merkleProof, merkleRoot, sender), \"TestMushrooms :: You are not whitelisted\") */\n      tag_309\n      jumpi\n      mload(0x40)\n      shl(0xe5, 0x461bcd)\n      dup2\n      mstore\n        /* \"#utility.yul\":11186:11188   */\n      0x20\n        /* \"contract/TestMushrooms.sol\":2497:2602  require(MerkleProof.verify(_merkleProof, merkleRoot, sender), \"TestMushrooms :: You are not whitelisted\") */\n      0x04\n      dup3\n      add\n        /* \"#utility.yul\":11168:11189   */\n      mstore\n        /* \"#utility.yul\":11225:11227   */\n      0x28\n        /* \"#utility.yul\":11205:11223   */\n      0x24\n      dup3\n      add\n        /* \"#utility.yul\":11198:11228   */\n      mstore\n        /* \"#utility.yul\":11264:11298   */\n      0x546573744d757368726f6f6d73203a3a20596f7520617265206e6f7420776869\n        /* \"#utility.yul\":11244:11262   */\n      0x44\n      dup3\n      add\n        /* \"#utility.yul\":11237:11299   */\n      mstore\n      shl(0xc2, 0x1d195b1a5cdd1959)\n        /* \"#utility.yul\":11315:11333   */\n      0x64\n      dup3\n      add\n        /* \"#utility.yul\":11308:11346   */\n      mstore\n        /* \"#utility.yul\":11363:11382   */\n      0x84\n      add\n        /* \"contract/TestMushrooms.sol\":2497:2602  require(MerkleProof.verify(_merkleProof, merkleRoot, sender), \"TestMushrooms :: You are not whitelisted\") */\n      tag_250\n        /* \"#utility.yul\":10984:11388   */\n      jump\n        /* \"contract/TestMushrooms.sol\":2497:2602  require(MerkleProof.verify(_merkleProof, merkleRoot, sender), \"TestMushrooms :: You are not whitelisted\") */\n    tag_309:\n        /* \"contract/TestMushrooms.sol\":2634:2644  msg.sender */\n      caller\n        /* \"contract/TestMushrooms.sol\":2615:2645  totalWhitelistMint[msg.sender] */\n      0x00\n      swap1\n      dup2\n      mstore\n        /* \"contract/TestMushrooms.sol\":2615:2633  totalWhitelistMint */\n      0x0e\n        /* \"contract/TestMushrooms.sol\":2615:2645  totalWhitelistMint[msg.sender] */\n      0x20\n      mstore\n      0x40\n      dup2\n      keccak256\n        /* \"contract/TestMushrooms.sol\":2615:2658  totalWhitelistMint[msg.sender] += _quantity */\n      dup1\n      sload\n        /* \"contract/TestMushrooms.sol\":2649:2658  _quantity */\n      dup5\n      swap3\n        /* \"contract/TestMushrooms.sol\":2615:2645  totalWhitelistMint[msg.sender] */\n      swap1\n        /* \"contract/TestMushrooms.sol\":2615:2658  totalWhitelistMint[msg.sender] += _quantity */\n      tag_312\n      swap1\n        /* \"contract/TestMushrooms.sol\":2649:2658  _quantity */\n      dup5\n      swap1\n        /* \"contract/TestMushrooms.sol\":2615:2658  totalWhitelistMint[msg.sender] += _quantity */\n      tag_292\n      jump\t// in\n    tag_312:\n      swap1\n      swap2\n      sstore\n      pop\n        /* \"contract/TestMushrooms.sol\":2669:2701  _safeMint(msg.sender, _quantity) */\n      tag_274\n      swap1\n      pop\n        /* \"contract/TestMushrooms.sol\":2679:2689  msg.sender */\n      caller\n        /* \"contract/TestMushrooms.sol\":2691:2700  _quantity */\n      dup4\n        /* \"contract/TestMushrooms.sol\":2669:2678  _safeMint */\n      tag_314\n        /* \"contract/TestMushrooms.sol\":2669:2701  _safeMint(msg.sender, _quantity) */\n      jump\t// in\n        /* \"contract/TestMushrooms.sol\":4912:5216  function withdraw() external onlyOwner{... */\n    tag_120:\n        /* \"@openzeppelin/contracts/access/Ownable.sol\":1108:1114  _owner */\n      and(sub(shl(0xa0, 0x01), 0x01), sload(0x08))\n        /* \"@openzeppelin/contracts/utils/Context.sol\":719:729  msg.sender */\n      caller\n        /* \"@openzeppelin/contracts/access/Ownable.sol\":1248:1271  owner() == _msgSender() */\n      eq\n        /* \"@openzeppelin/contracts/access/Ownable.sol\":1240:1308  require(owner() == _msgSender(), \"Ownable: caller is not the owner\") */\n      tag_318\n      jumpi\n      mload(0x40)\n      shl(0xe5, 0x461bcd)\n      dup2\n      mstore\n      0x04\n      add\n      tag_250\n      swap1\n      tag_251\n      jump\t// in\n    tag_318:\n        /* \"contract/TestMushrooms.sol\":4997:5022  uint256 withdrawAmount_35 */\n      0x00\n        /* \"contract/TestMushrooms.sol\":5051:5054  100 */\n      0x64\n        /* \"contract/TestMushrooms.sol\":5025:5050  address(this).balance * 3 */\n      tag_321\n        /* \"contract/TestMushrooms.sol\":5025:5046  address(this).balance */\n      selfbalance\n        /* \"contract/TestMushrooms.sol\":5049:5050  3 */\n      0x03\n        /* \"contract/TestMushrooms.sol\":5025:5050  address(this).balance * 3 */\n      tag_301\n      jump\t// in\n    tag_321:\n        /* \"contract/TestMushrooms.sol\":5025:5054  address(this).balance * 3/100 */\n      tag_322\n      swap2\n      swap1\n      tag_323\n      jump\t// in\n    tag_322:\n        /* \"contract/TestMushrooms.sol\":5065:5144  payable(0x88FFcDb2830eAD384D875A2DBa8de019b0D301d9).transfer(withdrawAmount_35) */\n      mload(0x40)\n        /* \"contract/TestMushrooms.sol\":4997:5054  uint256 withdrawAmount_35 = address(this).balance * 3/100 */\n      swap1\n      swap2\n      pop\n        /* \"contract/TestMushrooms.sol\":5073:5115  0x88FFcDb2830eAD384D875A2DBa8de019b0D301d9 */\n      0x88ffcdb2830ead384d875a2dba8de019b0d301d9\n      swap1\n        /* \"contract/TestMushrooms.sol\":5065:5144  payable(0x88FFcDb2830eAD384D875A2DBa8de019b0D301d9).transfer(withdrawAmount_35) */\n      dup3\n      iszero\n      0x08fc\n      mul\n      swap1\n        /* \"contract/TestMushrooms.sol\":4997:5054  uint256 withdrawAmount_35 = address(this).balance * 3/100 */\n      dup4\n      swap1\n        /* \"contract/TestMushrooms.sol\":5065:5144  payable(0x88FFcDb2830eAD384D875A2DBa8de019b0D301d9).transfer(withdrawAmount_35) */\n      0x00\n      dup2\n      dup2\n      dup2\n        /* \"contract/TestMushrooms.sol\":4997:5054  uint256 withdrawAmount_35 = address(this).balance * 3/100 */\n      dup6\n        /* \"contract/TestMushrooms.sol\":5073:5115  0x88FFcDb2830eAD384D875A2DBa8de019b0D301d9 */\n      dup9\n        /* \"contract/TestMushrooms.sol\":5065:5144  payable(0x88FFcDb2830eAD384D875A2DBa8de019b0D301d9).transfer(withdrawAmount_35) */\n      dup9\n      call\n      swap4\n      pop\n      pop\n      pop\n      pop\n      iszero\n      dup1\n      iszero\n      tag_325\n      jumpi\n      returndatasize\n      0x00\n      dup1\n      returndatacopy\n      revert(0x00, returndatasize)\n    tag_325:\n      pop\n        /* \"contract/TestMushrooms.sol\":5157:5208  payable(msg.sender).transfer(address(this).balance) */\n      mload(0x40)\n        /* \"contract/TestMushrooms.sol\":5165:5175  msg.sender */\n      caller\n      swap1\n        /* \"contract/TestMushrooms.sol\":5186:5207  address(this).balance */\n      selfbalance\n        /* \"contract/TestMushrooms.sol\":5157:5208  payable(msg.sender).transfer(address(this).balance) */\n      dup1\n      iszero\n      0x08fc\n      mul\n      swap2\n      0x00\n      dup2\n      dup2\n      dup2\n        /* \"contract/TestMushrooms.sol\":5186:5207  address(this).balance */\n      dup6\n        /* \"contract/TestMushrooms.sol\":5165:5175  msg.sender */\n      dup9\n        /* \"contract/TestMushrooms.sol\":5157:5208  payable(msg.sender).transfer(address(this).balance) */\n      dup9\n      call\n      swap4\n      pop\n      pop\n      pop\n      pop\n      iszero\n      dup1\n      iszero\n      tag_253\n      jumpi\n      returndatasize\n      0x00\n      dup1\n      returndatacopy\n      revert(0x00, returndatasize)\n        /* \"erc721a/contracts/ERC721A.sol\":10656:10835  function safeTransferFrom(... */\n    tag_124:\n        /* \"erc721a/contracts/ERC721A.sol\":10789:10828  safeTransferFrom(from, to, tokenId, '') */\n      tag_274\n        /* \"erc721a/contracts/ERC721A.sol\":10806:10810  from */\n      dup4\n        /* \"erc721a/contracts/ERC721A.sol\":10812:10814  to */\n      dup4\n        /* \"erc721a/contracts/ERC721A.sol\":10816:10823  tokenId */\n      dup4\n        /* \"erc721a/contracts/ERC721A.sol\":10789:10828  safeTransferFrom(from, to, tokenId, '') */\n      mload(0x40)\n      dup1\n      0x20\n      add\n      0x40\n      mstore\n      dup1\n      0x00\n      dup2\n      mstore\n      pop\n        /* \"erc721a/contracts/ERC721A.sol\":10789:10805  safeTransferFrom */\n      tag_203\n        /* \"erc721a/contracts/ERC721A.sol\":10789:10828  safeTransferFrom(from, to, tokenId, '') */\n      jump\t// in\n        /* \"contract/TestMushrooms.sol\":627:662  string public   placeholderTokenUri */\n    tag_132:\n      0x0a\n      dup1\n      sload\n      tag_331\n      swap1\n      tag_257\n      jump\t// in\n    tag_331:\n      dup1\n      0x1f\n      add\n      0x20\n      dup1\n      swap2\n      div\n      mul\n      0x20\n      add\n      mload(0x40)\n      swap1\n      dup2\n      add\n      0x40\n      mstore\n      dup1\n      swap3\n      swap2\n      swap1\n      dup2\n      dup2\n      mstore\n      0x20\n      add\n      dup3\n      dup1\n      sload\n      tag_332\n      swap1\n      tag_257\n      jump\t// in\n    tag_332:\n      dup1\n      iszero\n      tag_333\n      jumpi\n      dup1\n      0x1f\n      lt\n      tag_334\n      jumpi\n      0x0100\n      dup1\n      dup4\n      sload\n      div\n      mul\n      dup4\n      mstore\n      swap2\n      0x20\n      add\n      swap2\n      jump(tag_333)\n    tag_334:\n      dup3\n      add\n      swap2\n      swap1\n      0x00\n      mstore\n      keccak256(0x00, 0x20)\n      swap1\n    tag_335:\n      dup2\n      sload\n      dup2\n      mstore\n      swap1\n      0x01\n      add\n      swap1\n      0x20\n      add\n      dup1\n      dup4\n      gt\n      tag_335\n      jumpi\n      dup3\n      swap1\n      sub\n      0x1f\n      and\n      dup3\n      add\n      swap2\n    tag_333:\n      pop\n      pop\n      pop\n      pop\n      pop\n      dup2\n      jump\t// out\n        /* \"contract/TestMushrooms.sol\":4819:4904  function toggleReveal() external onlyOwner{... */\n    tag_140:\n        /* \"@openzeppelin/contracts/access/Ownable.sol\":1108:1114  _owner */\n      and(sub(shl(0xa0, 0x01), 0x01), sload(0x08))\n        /* \"@openzeppelin/contracts/utils/Context.sol\":719:729  msg.sender */\n      caller\n        /* \"@openzeppelin/contracts/access/Ownable.sol\":1248:1271  owner() == _msgSender() */\n      eq\n        /* \"@openzeppelin/contracts/access/Ownable.sol\":1240:1308  require(owner() == _msgSender(), \"Ownable: caller is not the owner\") */\n      tag_339\n      jumpi\n      mload(0x40)\n      shl(0xe5, 0x461bcd)\n      dup2\n      mstore\n      0x04\n      add\n      tag_250\n      swap1\n      tag_251\n      jump\t// in\n    tag_339:\n        /* \"contract/TestMushrooms.sol\":4886:4896  isRevealed */\n      0x0b\n      dup1\n      sload\n      not(0xff)\n        /* \"contract/TestMushrooms.sol\":4872:4896  isRevealed = !isRevealed */\n      dup2\n      and\n        /* \"contract/TestMushrooms.sol\":4886:4896  isRevealed */\n      0xff\n      swap1\n      swap2\n      and\n        /* \"contract/TestMushrooms.sol\":4885:4896  !isRevealed */\n      iszero\n        /* \"contract/TestMushrooms.sol\":4872:4896  isRevealed = !isRevealed */\n      or\n      swap1\n      sstore\n        /* \"contract/TestMushrooms.sol\":4819:4904  function toggleReveal() external onlyOwner{... */\n      jump\t// out\n        /* \"erc721a/contracts/ERC721A.sol\":7955:8077  function ownerOf(uint256 tokenId) public view override returns (address) {... */\n    tag_144:\n        /* \"erc721a/contracts/ERC721A.sol\":8019:8026  address */\n      0x00\n        /* \"erc721a/contracts/ERC721A.sol\":8045:8065  ownershipOf(tokenId) */\n      tag_343\n        /* \"erc721a/contracts/ERC721A.sol\":8057:8064  tokenId */\n      dup3\n        /* \"erc721a/contracts/ERC721A.sol\":8045:8056  ownershipOf */\n      tag_344\n        /* \"erc721a/contracts/ERC721A.sol\":8045:8065  ownershipOf(tokenId) */\n      jump\t// in\n    tag_343:\n        /* \"erc721a/contracts/ERC721A.sol\":8045:8070  ownershipOf(tokenId).addr */\n      mload\n      swap3\n        /* \"erc721a/contracts/ERC721A.sol\":7955:8077  function ownerOf(uint256 tokenId) public view override returns (address) {... */\n      swap2\n      pop\n      pop\n      jump\t// out\n        /* \"erc721a/contracts/ERC721A.sol\":5202:5405  function balanceOf(address owner) public view override returns (uint256) {... */\n    tag_153:\n        /* \"erc721a/contracts/ERC721A.sol\":5266:5273  uint256 */\n      0x00\n      sub(shl(0xa0, 0x01), 0x01)\n        /* \"erc721a/contracts/ERC721A.sol\":5289:5308  owner == address(0) */\n      dup3\n      and\n        /* \"erc721a/contracts/ERC721A.sol\":5285:5345  if (owner == address(0)) revert BalanceQueryForZeroAddress() */\n      tag_346\n      jumpi\n        /* \"erc721a/contracts/ERC721A.sol\":5317:5345  BalanceQueryForZeroAddress() */\n      mload(0x40)\n      shl(0xe2, 0x23d3ad81)\n      dup2\n      mstore\n      0x04\n      add\n      mload(0x40)\n      dup1\n      swap2\n      sub\n      swap1\n      revert\n        /* \"erc721a/contracts/ERC721A.sol\":5285:5345  if (owner == address(0)) revert BalanceQueryForZeroAddress() */\n    tag_346:\n      pop\n      sub(shl(0xa0, 0x01), 0x01)\n        /* \"erc721a/contracts/ERC721A.sol\":5370:5389  _addressData[owner] */\n      and\n      0x00\n      swap1\n      dup2\n      mstore\n        /* \"erc721a/contracts/ERC721A.sol\":5370:5382  _addressData */\n      0x05\n        /* \"erc721a/contracts/ERC721A.sol\":5370:5389  _addressData[owner] */\n      0x20\n      mstore\n      0x40\n      swap1\n      keccak256\n        /* \"erc721a/contracts/ERC721A.sol\":5370:5397  _addressData[owner].balance */\n      sload\n      sub(shl(0x40, 0x01), 0x01)\n      and\n      swap1\n        /* \"erc721a/contracts/ERC721A.sol\":5202:5405  function balanceOf(address owner) public view override returns (uint256) {... */\n      jump\t// out\n        /* \"@openzeppelin/contracts/access/Ownable.sol\":1668:1769  function renounceOwnership() public virtual onlyOwner {... */\n    tag_157:\n        /* \"@openzeppelin/contracts/access/Ownable.sol\":1108:1114  _owner */\n      and(sub(shl(0xa0, 0x01), 0x01), sload(0x08))\n        /* \"@openzeppelin/contracts/utils/Context.sol\":719:729  msg.sender */\n      caller\n        /* \"@openzeppelin/contracts/access/Ownable.sol\":1248:1271  owner() == _msgSender() */\n      eq\n        /* \"@openzeppelin/contracts/access/Ownable.sol\":1240:1308  require(owner() == _msgSender(), \"Ownable: caller is not the owner\") */\n      tag_350\n      jumpi\n      mload(0x40)\n      shl(0xe5, 0x461bcd)\n      dup2\n      mstore\n      0x04\n      add\n      tag_250\n      swap1\n      tag_251\n      jump\t// in\n    tag_350:\n        /* \"@openzeppelin/contracts/access/Ownable.sol\":1732:1762  _transferOwnership(address(0)) */\n      tag_353\n        /* \"@openzeppelin/contracts/access/Ownable.sol\":1759:1760  0 */\n      0x00\n        /* \"@openzeppelin/contracts/access/Ownable.sol\":1732:1750  _transferOwnership */\n      tag_354\n        /* \"@openzeppelin/contracts/access/Ownable.sol\":1732:1762  _transferOwnership(address(0)) */\n      jump\t// in\n    tag_353:\n        /* \"@openzeppelin/contracts/access/Ownable.sol\":1668:1769  function renounceOwnership() public virtual onlyOwner {... */\n      jump\t// out\n        /* \"contract/TestMushrooms.sol\":4321:4426  function setMerkleRoot(bytes32 _merkleRoot) external onlyOwner{... */\n    tag_162:\n        /* \"@openzeppelin/contracts/access/Ownable.sol\":1108:1114  _owner */\n      and(sub(shl(0xa0, 0x01), 0x01), sload(0x08))\n        /* \"@openzeppelin/contracts/utils/Context.sol\":719:729  msg.sender */\n      caller\n        /* \"@openzeppelin/contracts/access/Ownable.sol\":1248:1271  owner() == _msgSender() */\n      eq\n        /* \"@openzeppelin/contracts/access/Ownable.sol\":1240:1308  require(owner() == _msgSender(), \"Ownable: caller is not the owner\") */\n      tag_358\n      jumpi\n      mload(0x40)\n      shl(0xe5, 0x461bcd)\n      dup2\n      mstore\n      0x04\n      add\n      tag_250\n      swap1\n      tag_251\n      jump\t// in\n    tag_358:\n        /* \"contract/TestMushrooms.sol\":4394:4404  merkleRoot */\n      0x0c\n        /* \"contract/TestMushrooms.sol\":4394:4418  merkleRoot = _merkleRoot */\n      sstore\n        /* \"contract/TestMushrooms.sol\":4321:4426  function setMerkleRoot(bytes32 _merkleRoot) external onlyOwner{... */\n      jump\t// out\n        /* \"contract/TestMushrooms.sol\":3634:4042  function walletOf() external view returns(uint256[] memory){... */\n    tag_165:\n        /* \"contract/TestMushrooms.sol\":3676:3692  uint256[] memory */\n      0x60\n        /* \"contract/TestMushrooms.sol\":3721:3731  msg.sender */\n      caller\n        /* \"contract/TestMushrooms.sol\":3704:3718  address _owner */\n      0x00\n        /* \"contract/TestMushrooms.sol\":3769:3786  balanceOf(_owner) */\n      tag_362\n        /* \"contract/TestMushrooms.sol\":3721:3731  msg.sender */\n      dup3\n        /* \"contract/TestMushrooms.sol\":3769:3778  balanceOf */\n      tag_153\n        /* \"contract/TestMushrooms.sol\":3769:3786  balanceOf(_owner) */\n      jump\t// in\n    tag_362:\n        /* \"contract/TestMushrooms.sol\":3742:3786  uint256 numberOfOwnedNFT = balanceOf(_owner) */\n      swap1\n      pop\n        /* \"contract/TestMushrooms.sol\":3797:3822  uint256[] memory ownerIds */\n      0x00\n        /* \"contract/TestMushrooms.sol\":3839:3855  numberOfOwnedNFT */\n      dup2\n      sub(shl(0x40, 0x01), 0x01)\n        /* \"contract/TestMushrooms.sol\":3825:3856  new uint256[](numberOfOwnedNFT) */\n      dup2\n      gt\n      iszero\n      tag_364\n      jumpi\n      tag_364\n      tag_365\n      jump\t// in\n    tag_364:\n      mload(0x40)\n      swap1\n      dup1\n      dup3\n      mstore\n      dup1\n      0x20\n      mul\n      0x20\n      add\n      dup3\n      add\n      0x40\n      mstore\n      dup1\n      iszero\n      tag_366\n      jumpi\n      dup2\n      0x20\n      add\n      0x20\n      dup3\n      mul\n      dup1\n      calldatasize\n      dup4\n      calldatacopy\n      add\n      swap1\n      pop\n    tag_366:\n      pop\n        /* \"contract/TestMushrooms.sol\":3797:3856  uint256[] memory ownerIds = new uint256[](numberOfOwnedNFT) */\n      swap1\n      pop\n        /* \"contract/TestMushrooms.sol\":3873:3886  uint256 index */\n      0x00\n        /* \"contract/TestMushrooms.sol\":3869:4007  for(uint256 index = 0; index < numberOfOwnedNFT; index++){... */\n    tag_367:\n        /* \"contract/TestMushrooms.sol\":3900:3916  numberOfOwnedNFT */\n      dup3\n        /* \"contract/TestMushrooms.sol\":3892:3897  index */\n      dup2\n        /* \"contract/TestMushrooms.sol\":3892:3916  index < numberOfOwnedNFT */\n      lt\n        /* \"contract/TestMushrooms.sol\":3869:4007  for(uint256 index = 0; index < numberOfOwnedNFT; index++){... */\n      iszero\n      tag_368\n      jumpi\n        /* \"contract/TestMushrooms.sol\":3918:3925  index++ */\n      dup1\n      tag_370\n      dup2\n      tag_371\n      jump\t// in\n    tag_370:\n      swap2\n      pop\n      pop\n        /* \"contract/TestMushrooms.sol\":3869:4007  for(uint256 index = 0; index < numberOfOwnedNFT; index++){... */\n      jump(tag_367)\n    tag_368:\n      pop\n        /* \"contract/TestMushrooms.sol\":4026:4034  ownerIds */\n      swap4\n        /* \"contract/TestMushrooms.sol\":3634:4042  function walletOf() external view returns(uint256[] memory){... */\n      swap3\n      pop\n      pop\n      pop\n      jump\t// out\n        /* \"contract/TestMushrooms.sol\":4616:4714  function toggleWhiteListSale() external onlyOwner{... */\n    tag_178:\n        /* \"@openzeppelin/contracts/access/Ownable.sol\":1108:1114  _owner */\n      and(sub(shl(0xa0, 0x01), 0x01), sload(0x08))\n        /* \"@openzeppelin/contracts/utils/Context.sol\":719:729  msg.sender */\n      caller\n        /* \"@openzeppelin/contracts/access/Ownable.sol\":1248:1271  owner() == _msgSender() */\n      eq\n        /* \"@openzeppelin/contracts/access/Ownable.sol\":1240:1308  require(owner() == _msgSender(), \"Ownable: caller is not the owner\") */\n      tag_375\n      jumpi\n      mload(0x40)\n      shl(0xe5, 0x461bcd)\n      dup2\n      mstore\n      0x04\n      add\n      tag_250\n      swap1\n      tag_251\n      jump\t// in\n    tag_375:\n        /* \"contract/TestMushrooms.sol\":4693:4706  whiteListSale */\n      0x0b\n      dup1\n      sload\n      not(0xff0000)\n        /* \"contract/TestMushrooms.sol\":4676:4706  whiteListSale = !whiteListSale */\n      dup2\n      and\n        /* \"contract/TestMushrooms.sol\":4693:4706  whiteListSale */\n      0x010000\n      swap2\n      dup3\n      swap1\n      div\n      0xff\n      and\n        /* \"contract/TestMushrooms.sol\":4692:4706  !whiteListSale */\n      iszero\n        /* \"contract/TestMushrooms.sol\":4676:4706  whiteListSale = !whiteListSale */\n      swap1\n      swap2\n      mul\n      or\n      swap1\n      sstore\n        /* \"contract/TestMushrooms.sol\":4616:4714  function toggleWhiteListSale() external onlyOwner{... */\n      jump\t// out\n        /* \"erc721a/contracts/ERC721A.sol\":8301:8403  function symbol() public view virtual override returns (string memory) {... */\n    tag_185:\n        /* \"erc721a/contracts/ERC721A.sol\":8357:8370  string memory */\n      0x60\n        /* \"erc721a/contracts/ERC721A.sol\":8389:8396  _symbol */\n      0x03\n        /* \"erc721a/contracts/ERC721A.sol\":8382:8396  return _symbol */\n      dup1\n      sload\n      tag_256\n      swap1\n      tag_257\n      jump\t// in\n        /* \"contract/TestMushrooms.sol\":1293:1838  function mint(uint256 _quantity) external payable callerIsUser{... */\n    tag_189:\n        /* \"contract/TestMushrooms.sol\":1190:1199  tx.origin */\n      origin\n        /* \"contract/TestMushrooms.sol\":1203:1213  msg.sender */\n      caller\n        /* \"contract/TestMushrooms.sol\":1190:1213  tx.origin == msg.sender */\n      eq\n        /* \"contract/TestMushrooms.sol\":1182:1265  require(tx.origin == msg.sender, \"TestMushrooms :: Cannot be called by a contract\") */\n      tag_386\n      jumpi\n      mload(0x40)\n      shl(0xe5, 0x461bcd)\n      dup2\n      mstore\n      0x04\n      add\n      tag_250\n      swap1\n      tag_285\n      jump\t// in\n    tag_386:\n        /* \"contract/TestMushrooms.sol\":1374:1384  publicSale */\n      sload(0x0b)\n      0x0100\n      swap1\n      div\n      0xff\n      and\n        /* \"contract/TestMushrooms.sol\":1366:1421  require(publicSale, \"TestMushrooms :: Not Yet Active.\") */\n      tag_389\n      jumpi\n      mload(0x40)\n      shl(0xe5, 0x461bcd)\n      dup2\n      mstore\n        /* \"#utility.yul\":11992:11994   */\n      0x20\n        /* \"contract/TestMushrooms.sol\":1366:1421  require(publicSale, \"TestMushrooms :: Not Yet Active.\") */\n      0x04\n      dup3\n      add\n        /* \"#utility.yul\":11974:11995   */\n      dup2\n      swap1\n      mstore\n        /* \"#utility.yul\":12011:12029   */\n      0x24\n      dup3\n      add\n        /* \"#utility.yul\":12004:12034   */\n      mstore\n        /* \"#utility.yul\":12070:12104   */\n      0x546573744d757368726f6f6d73203a3a204e6f7420596574204163746976652e\n        /* \"#utility.yul\":12050:12068   */\n      0x44\n      dup3\n      add\n        /* \"#utility.yul\":12043:12105   */\n      mstore\n        /* \"#utility.yul\":12122:12140   */\n      0x64\n      add\n        /* \"contract/TestMushrooms.sol\":1366:1421  require(publicSale, \"TestMushrooms :: Not Yet Active.\") */\n      tag_250\n        /* \"#utility.yul\":11790:12146   */\n      jump\n        /* \"contract/TestMushrooms.sol\":1366:1421  require(publicSale, \"TestMushrooms :: Not Yet Active.\") */\n    tag_389:\n        /* \"contract/TestMushrooms.sol\":347:351  2222 */\n      0x08ae\n        /* \"contract/TestMushrooms.sol\":1457:1466  _quantity */\n      dup2\n        /* \"contract/TestMushrooms.sol\":1441:1454  totalSupply() */\n      tag_392\n        /* \"erc721a/contracts/ERC721A.sol\":4364:4376  _burnCounter */\n      sload(0x01)\n        /* \"erc721a/contracts/ERC721A.sol\":4158:4165  uint256 */\n      0x00\n        /* \"erc721a/contracts/ERC721A.sol\":4348:4361  _currentIndex */\n      sload\n        /* \"erc721a/contracts/ERC721A.sol\":4348:4376  _currentIndex - _burnCounter */\n      sub\n      swap1\n        /* \"erc721a/contracts/ERC721A.sol\":4114:4411  function totalSupply() public view returns (uint256) {... */\n      jump\n        /* \"contract/TestMushrooms.sol\":1441:1454  totalSupply() */\n    tag_392:\n        /* \"contract/TestMushrooms.sol\":1441:1466  totalSupply() + _quantity */\n      tag_393\n      swap2\n      swap1\n      tag_292\n      jump\t// in\n    tag_393:\n        /* \"contract/TestMushrooms.sol\":1440:1481  (totalSupply() + _quantity) <= MAX_SUPPLY */\n      gt\n      iszero\n        /* \"contract/TestMushrooms.sol\":1432:1520  require((totalSupply() + _quantity) <= MAX_SUPPLY, \"TestMushrooms :: Beyond Max Supply\") */\n      tag_394\n      jumpi\n      mload(0x40)\n      shl(0xe5, 0x461bcd)\n      dup2\n      mstore\n        /* \"#utility.yul\":12353:12355   */\n      0x20\n        /* \"contract/TestMushrooms.sol\":1432:1520  require((totalSupply() + _quantity) <= MAX_SUPPLY, \"TestMushrooms :: Beyond Max Supply\") */\n      0x04\n      dup3\n      add\n        /* \"#utility.yul\":12335:12356   */\n      mstore\n        /* \"#utility.yul\":12392:12394   */\n      0x22\n        /* \"#utility.yul\":12372:12390   */\n      0x24\n      dup3\n      add\n        /* \"#utility.yul\":12365:12395   */\n      mstore\n        /* \"#utility.yul\":12431:12465   */\n      0x546573744d757368726f6f6d73203a3a204265796f6e64204d61782053757070\n        /* \"#utility.yul\":12411:12429   */\n      0x44\n      dup3\n      add\n        /* \"#utility.yul\":12404:12466   */\n      mstore\n      shl(0xf0, 0x6c79)\n        /* \"#utility.yul\":12482:12500   */\n      0x64\n      dup3\n      add\n        /* \"#utility.yul\":12475:12507   */\n      mstore\n        /* \"#utility.yul\":12524:12543   */\n      0x84\n      add\n        /* \"contract/TestMushrooms.sol\":1432:1520  require((totalSupply() + _quantity) <= MAX_SUPPLY, \"TestMushrooms :: Beyond Max Supply\") */\n      tag_250\n        /* \"#utility.yul\":12151:12549   */\n      jump\n        /* \"contract/TestMushrooms.sol\":1432:1520  require((totalSupply() + _quantity) <= MAX_SUPPLY, \"TestMushrooms :: Beyond Max Supply\") */\n    tag_394:\n        /* \"contract/TestMushrooms.sol\":1556:1566  msg.sender */\n      caller\n        /* \"contract/TestMushrooms.sol\":1540:1567  totalPublicMint[msg.sender] */\n      0x00\n      swap1\n      dup2\n      mstore\n        /* \"contract/TestMushrooms.sol\":1540:1555  totalPublicMint */\n      0x0d\n        /* \"contract/TestMushrooms.sol\":1540:1567  totalPublicMint[msg.sender] */\n      0x20\n      mstore\n      0x40\n      swap1\n      keccak256\n      sload\n        /* \"contract/TestMushrooms.sol\":400:403  100 */\n      0x64\n      swap1\n        /* \"contract/TestMushrooms.sol\":1540:1578  totalPublicMint[msg.sender] +_quantity */\n      tag_397\n      swap1\n        /* \"contract/TestMushrooms.sol\":1569:1578  _quantity */\n      dup4\n      swap1\n        /* \"contract/TestMushrooms.sol\":1540:1578  totalPublicMint[msg.sender] +_quantity */\n      tag_292\n      jump\t// in\n    tag_397:\n        /* \"contract/TestMushrooms.sol\":1539:1598  (totalPublicMint[msg.sender] +_quantity) <= MAX_PUBLIC_MINT */\n      gt\n      iszero\n        /* \"contract/TestMushrooms.sol\":1531:1643  require((totalPublicMint[msg.sender] +_quantity) <= MAX_PUBLIC_MINT, \"TestMushrooms :: Already minted 3 times!\") */\n      tag_398\n      jumpi\n      mload(0x40)\n      shl(0xe5, 0x461bcd)\n      dup2\n      mstore\n        /* \"#utility.yul\":12756:12758   */\n      0x20\n        /* \"contract/TestMushrooms.sol\":1531:1643  require((totalPublicMint[msg.sender] +_quantity) <= MAX_PUBLIC_MINT, \"TestMushrooms :: Already minted 3 times!\") */\n      0x04\n      dup3\n      add\n        /* \"#utility.yul\":12738:12759   */\n      mstore\n        /* \"#utility.yul\":12795:12797   */\n      0x28\n        /* \"#utility.yul\":12775:12793   */\n      0x24\n      dup3\n      add\n        /* \"#utility.yul\":12768:12798   */\n      mstore\n        /* \"#utility.yul\":12834:12868   */\n      0x546573744d757368726f6f6d73203a3a20416c7265616479206d696e74656420\n        /* \"#utility.yul\":12814:12832   */\n      0x44\n      dup3\n      add\n        /* \"#utility.yul\":12807:12869   */\n      mstore\n      shl(0xc0, 0x332074696d657321)\n        /* \"#utility.yul\":12885:12903   */\n      0x64\n      dup3\n      add\n        /* \"#utility.yul\":12878:12916   */\n      mstore\n        /* \"#utility.yul\":12933:12952   */\n      0x84\n      add\n        /* \"contract/TestMushrooms.sol\":1531:1643  require((totalPublicMint[msg.sender] +_quantity) <= MAX_PUBLIC_MINT, \"TestMushrooms :: Already minted 3 times!\") */\n      tag_250\n        /* \"#utility.yul\":12554:12958   */\n      jump\n        /* \"contract/TestMushrooms.sol\":1531:1643  require((totalPublicMint[msg.sender] +_quantity) <= MAX_PUBLIC_MINT, \"TestMushrooms :: Already minted 3 times!\") */\n    tag_398:\n        /* \"contract/TestMushrooms.sol\":1676:1705  PUBLIC_SALE_PRICE * _quantity */\n      tag_401\n        /* \"contract/TestMushrooms.sol\":1696:1705  _quantity */\n      dup2\n        /* \"contract/TestMushrooms.sol\":509:519  .003 ether */\n      0x0aa87bee538000\n        /* \"contract/TestMushrooms.sol\":1676:1705  PUBLIC_SALE_PRICE * _quantity */\n      tag_301\n      jump\t// in\n    tag_401:\n        /* \"contract/TestMushrooms.sol\":1662:1671  msg.value */\n      callvalue\n        /* \"contract/TestMushrooms.sol\":1662:1706  msg.value >= (PUBLIC_SALE_PRICE * _quantity) */\n      lt\n      iszero\n        /* \"contract/TestMushrooms.sol\":1654:1734  require(msg.value >= (PUBLIC_SALE_PRICE * _quantity), \"TestMushrooms :: Below \") */\n      tag_402\n      jumpi\n      mload(0x40)\n      shl(0xe5, 0x461bcd)\n      dup2\n      mstore\n        /* \"#utility.yul\":13165:13167   */\n      0x20\n        /* \"contract/TestMushrooms.sol\":1654:1734  require(msg.value >= (PUBLIC_SALE_PRICE * _quantity), \"TestMushrooms :: Below \") */\n      0x04\n      dup3\n      add\n        /* \"#utility.yul\":13147:13168   */\n      mstore\n        /* \"#utility.yul\":13204:13206   */\n      0x17\n        /* \"#utility.yul\":13184:13202   */\n      0x24\n      dup3\n      add\n        /* \"#utility.yul\":13177:13207   */\n      mstore\n        /* \"#utility.yul\":13243:13268   */\n      0x546573744d757368726f6f6d73203a3a2042656c6f7720000000000000000000\n        /* \"#utility.yul\":13223:13241   */\n      0x44\n      dup3\n      add\n        /* \"#utility.yul\":13216:13269   */\n      mstore\n        /* \"#utility.yul\":13286:13304   */\n      0x64\n      add\n        /* \"contract/TestMushrooms.sol\":1654:1734  require(msg.value >= (PUBLIC_SALE_PRICE * _quantity), \"TestMushrooms :: Below \") */\n      tag_250\n        /* \"#utility.yul\":12963:13310   */\n      jump\n        /* \"contract/TestMushrooms.sol\":1654:1734  require(msg.value >= (PUBLIC_SALE_PRICE * _quantity), \"TestMushrooms :: Below \") */\n    tag_402:\n        /* \"contract/TestMushrooms.sol\":1763:1773  msg.sender */\n      caller\n        /* \"contract/TestMushrooms.sol\":1747:1774  totalPublicMint[msg.sender] */\n      0x00\n      swap1\n      dup2\n      mstore\n        /* \"contract/TestMushrooms.sol\":1747:1762  totalPublicMint */\n      0x0d\n        /* \"contract/TestMushrooms.sol\":1747:1774  totalPublicMint[msg.sender] */\n      0x20\n      mstore\n      0x40\n      dup2\n      keccak256\n        /* \"contract/TestMushrooms.sol\":1747:1787  totalPublicMint[msg.sender] += _quantity */\n      dup1\n      sload\n        /* \"contract/TestMushrooms.sol\":1778:1787  _quantity */\n      dup4\n      swap3\n        /* \"contract/TestMushrooms.sol\":1747:1774  totalPublicMint[msg.sender] */\n      swap1\n        /* \"contract/TestMushrooms.sol\":1747:1787  totalPublicMint[msg.sender] += _quantity */\n      tag_405\n      swap1\n        /* \"contract/TestMushrooms.sol\":1778:1787  _quantity */\n      dup5\n      swap1\n        /* \"contract/TestMushrooms.sol\":1747:1787  totalPublicMint[msg.sender] += _quantity */\n      tag_292\n      jump\t// in\n    tag_405:\n      swap1\n      swap2\n      sstore\n      pop\n        /* \"contract/TestMushrooms.sol\":1798:1830  _safeMint(msg.sender, _quantity) */\n      tag_406\n      swap1\n      pop\n        /* \"contract/TestMushrooms.sol\":1808:1818  msg.sender */\n      caller\n        /* \"contract/TestMushrooms.sol\":1820:1829  _quantity */\n      dup3\n        /* \"contract/TestMushrooms.sol\":1798:1807  _safeMint */\n      tag_314\n        /* \"contract/TestMushrooms.sol\":1798:1830  _safeMint(msg.sender, _quantity) */\n      jump\t// in\n    tag_406:\n        /* \"contract/TestMushrooms.sol\":1293:1838  function mint(uint256 _quantity) external payable callerIsUser{... */\n      pop\n      jump\t// out\n        /* \"erc721a/contracts/ERC721A.sol\":9862:10136  function setApprovalForAll(address operator, bool approved) public override {... */\n    tag_194:\n      sub(shl(0xa0, 0x01), 0x01)\n        /* \"erc721a/contracts/ERC721A.sol\":9952:9976  operator == _msgSender() */\n      dup3\n      and\n        /* \"@openzeppelin/contracts/utils/Context.sol\":719:729  msg.sender */\n      caller\n        /* \"erc721a/contracts/ERC721A.sol\":9952:9976  operator == _msgSender() */\n      eq\n        /* \"erc721a/contracts/ERC721A.sol\":9948:10002  if (operator == _msgSender()) revert ApproveToCaller() */\n      iszero\n      tag_409\n      jumpi\n        /* \"erc721a/contracts/ERC721A.sol\":9985:10002  ApproveToCaller() */\n      mload(0x40)\n      shl(0xe0, 0xb06307db)\n      dup2\n      mstore\n      0x04\n      add\n      mload(0x40)\n      dup1\n      swap2\n      sub\n      swap1\n      revert\n        /* \"erc721a/contracts/ERC721A.sol\":9948:10002  if (operator == _msgSender()) revert ApproveToCaller() */\n    tag_409:\n        /* \"@openzeppelin/contracts/utils/Context.sol\":719:729  msg.sender */\n      caller\n        /* \"erc721a/contracts/ERC721A.sol\":10013:10045  _operatorApprovals[_msgSender()] */\n      0x00\n      dup2\n      dup2\n      mstore\n        /* \"erc721a/contracts/ERC721A.sol\":10013:10031  _operatorApprovals */\n      0x07\n        /* \"erc721a/contracts/ERC721A.sol\":10013:10045  _operatorApprovals[_msgSender()] */\n      0x20\n      swap1\n      dup2\n      mstore\n      0x40\n      dup1\n      dup4\n      keccak256\n      sub(shl(0xa0, 0x01), 0x01)\n        /* \"erc721a/contracts/ERC721A.sol\":10013:10055  _operatorApprovals[_msgSender()][operator] */\n      dup8\n      and\n      dup1\n      dup6\n      mstore\n      swap1\n      dup4\n      mstore\n      swap3\n      dup2\n      swap1\n      keccak256\n        /* \"erc721a/contracts/ERC721A.sol\":10013:10066  _operatorApprovals[_msgSender()][operator] = approved */\n      dup1\n      sload\n      not(0xff)\n      and\n      dup7\n      iszero\n      iszero\n      swap1\n      dup2\n      or\n      swap1\n      swap2\n      sstore\n        /* \"erc721a/contracts/ERC721A.sol\":10081:10129  ApprovalForAll(_msgSender(), operator, approved) */\n      swap1\n      mload\n        /* \"#utility.yul\":540:581   */\n      swap1\n      dup2\n      mstore\n        /* \"erc721a/contracts/ERC721A.sol\":10013:10055  _operatorApprovals[_msgSender()][operator] */\n      swap2\n      swap3\n        /* \"@openzeppelin/contracts/utils/Context.sol\":719:729  msg.sender */\n      swap2\n        /* \"erc721a/contracts/ERC721A.sol\":10081:10129  ApprovalForAll(_msgSender(), operator, approved) */\n      0x17307eab39ab6107e8899845ad3d59bd9653f200f220920489ca2b5937696c31\n      swap2\n        /* \"#utility.yul\":513:531   */\n      add\n        /* \"erc721a/contracts/ERC721A.sol\":10081:10129  ApprovalForAll(_msgSender(), operator, approved) */\n      mload(0x40)\n      dup1\n      swap2\n      sub\n      swap1\n      log3\n        /* \"erc721a/contracts/ERC721A.sol\":9862:10136  function setApprovalForAll(address operator, bool approved) public override {... */\n      pop\n      pop\n      jump\t// out\n        /* \"contract/TestMushrooms.sol\":4171:4313  function setPlaceHolderUri(string memory _placeholderTokenUri) external onlyOwner{... */\n    tag_198:\n        /* \"@openzeppelin/contracts/access/Ownable.sol\":1108:1114  _owner */\n      and(sub(shl(0xa0, 0x01), 0x01), sload(0x08))\n        /* \"@openzeppelin/contracts/utils/Context.sol\":719:729  msg.sender */\n      caller\n        /* \"@openzeppelin/contracts/access/Ownable.sol\":1248:1271  owner() == _msgSender() */\n      eq\n        /* \"@openzeppelin/contracts/access/Ownable.sol\":1240:1308  require(owner() == _msgSender(), \"Ownable: caller is not the owner\") */\n      tag_416\n      jumpi\n      mload(0x40)\n      shl(0xe5, 0x461bcd)\n      dup2\n      mstore\n      0x04\n      add\n      tag_250\n      swap1\n      tag_251\n      jump\t// in\n    tag_416:\n        /* \"contract/TestMushrooms.sol\":4263:4305  placeholderTokenUri = _placeholderTokenUri */\n      dup1\n      mload\n      tag_253\n      swap1\n        /* \"contract/TestMushrooms.sol\":4263:4282  placeholderTokenUri */\n      0x0a\n      swap1\n        /* \"contract/TestMushrooms.sol\":4263:4305  placeholderTokenUri = _placeholderTokenUri */\n      0x20\n      dup5\n      add\n      swap1\n      tag_254\n      jump\t// in\n        /* \"erc721a/contracts/ERC721A.sol\":10901:11260  function safeTransferFrom(... */\n    tag_203:\n        /* \"erc721a/contracts/ERC721A.sol\":11062:11090  _transfer(from, to, tokenId) */\n      tag_421\n        /* \"erc721a/contracts/ERC721A.sol\":11072:11076  from */\n      dup5\n        /* \"erc721a/contracts/ERC721A.sol\":11078:11080  to */\n      dup5\n        /* \"erc721a/contracts/ERC721A.sol\":11082:11089  tokenId */\n      dup5\n        /* \"erc721a/contracts/ERC721A.sol\":11062:11071  _transfer */\n      tag_281\n        /* \"erc721a/contracts/ERC721A.sol\":11062:11090  _transfer(from, to, tokenId) */\n      jump\t// in\n    tag_421:\n      sub(shl(0xa0, 0x01), 0x01)\n        /* \"erc721a/contracts/ERC721A.sol\":11104:11117  to.isContract */\n      dup4\n      and\n        /* \"@openzeppelin/contracts/utils/Address.sol\":1465:1484  account.code.length */\n      extcodesize\n        /* \"@openzeppelin/contracts/utils/Address.sol\":1465:1488  account.code.length > 0 */\n      iszero\n      iszero\n        /* \"erc721a/contracts/ERC721A.sol\":11104:11180  to.isContract() && !_checkContractOnERC721Received(from, to, tokenId, _data) */\n      dup1\n      iszero\n      tag_424\n      jumpi\n      pop\n        /* \"erc721a/contracts/ERC721A.sol\":11124:11180  _checkContractOnERC721Received(from, to, tokenId, _data) */\n      tag_425\n        /* \"erc721a/contracts/ERC721A.sol\":11155:11159  from */\n      dup5\n        /* \"erc721a/contracts/ERC721A.sol\":11161:11163  to */\n      dup5\n        /* \"erc721a/contracts/ERC721A.sol\":11165:11172  tokenId */\n      dup5\n        /* \"erc721a/contracts/ERC721A.sol\":11174:11179  _data */\n      dup5\n        /* \"erc721a/contracts/ERC721A.sol\":11124:11154  _checkContractOnERC721Received */\n      tag_426\n        /* \"erc721a/contracts/ERC721A.sol\":11124:11180  _checkContractOnERC721Received(from, to, tokenId, _data) */\n      jump\t// in\n    tag_425:\n        /* \"erc721a/contracts/ERC721A.sol\":11123:11180  !_checkContractOnERC721Received(from, to, tokenId, _data) */\n      iszero\n        /* \"erc721a/contracts/ERC721A.sol\":11104:11180  to.isContract() && !_checkContractOnERC721Received(from, to, tokenId, _data) */\n    tag_424:\n        /* \"erc721a/contracts/ERC721A.sol\":11100:11254  if (to.isContract() && !_checkContractOnERC721Received(from, to, tokenId, _data)) {... */\n      iszero\n      tag_427\n      jumpi\n        /* \"erc721a/contracts/ERC721A.sol\":11203:11243  TransferToNonERC721ReceiverImplementer() */\n      mload(0x40)\n      shl(0xe1, 0x68d2bf6b)\n      dup2\n      mstore\n      0x04\n      add\n      mload(0x40)\n      dup1\n      swap2\n      sub\n      swap1\n      revert\n        /* \"erc721a/contracts/ERC721A.sol\":11100:11254  if (to.isContract() && !_checkContractOnERC721Received(from, to, tokenId, _data)) {... */\n    tag_427:\n        /* \"erc721a/contracts/ERC721A.sol\":10901:11260  function safeTransferFrom(... */\n      pop\n      pop\n      pop\n      pop\n      jump\t// out\n        /* \"contract/TestMushrooms.sol\":2719:2902  function teamMint() external onlyOwner{... */\n    tag_206:\n        /* \"@openzeppelin/contracts/access/Ownable.sol\":1108:1114  _owner */\n      and(sub(shl(0xa0, 0x01), 0x01), sload(0x08))\n        /* \"@openzeppelin/contracts/utils/Context.sol\":719:729  msg.sender */\n      caller\n        /* \"@openzeppelin/contracts/access/Ownable.sol\":1248:1271  owner() == _msgSender() */\n      eq\n        /* \"@openzeppelin/contracts/access/Ownable.sol\":1240:1308  require(owner() == _msgSender(), \"Ownable: caller is not the owner\") */\n      tag_431\n      jumpi\n      mload(0x40)\n      shl(0xe5, 0x461bcd)\n      dup2\n      mstore\n      0x04\n      add\n      tag_250\n      swap1\n      tag_251\n      jump\t// in\n    tag_431:\n        /* \"contract/TestMushrooms.sol\":2777:2787  teamMinted */\n      sload(0x0b)\n      0x0100000000\n      swap1\n      div\n      0xff\n      and\n        /* \"contract/TestMushrooms.sol\":2776:2787  !teamMinted */\n      iszero\n        /* \"contract/TestMushrooms.sol\":2768:2828  require(!teamMinted, \"TestMushrooms :: Team already minted\") */\n      tag_434\n      jumpi\n      mload(0x40)\n      shl(0xe5, 0x461bcd)\n      dup2\n      mstore\n        /* \"#utility.yul\":13517:13519   */\n      0x20\n        /* \"contract/TestMushrooms.sol\":2768:2828  require(!teamMinted, \"TestMushrooms :: Team already minted\") */\n      0x04\n      dup3\n      add\n        /* \"#utility.yul\":13499:13520   */\n      mstore\n        /* \"#utility.yul\":13556:13558   */\n      0x24\n        /* \"#utility.yul\":13536:13554   */\n      dup1\n      dup3\n      add\n        /* \"#utility.yul\":13529:13559   */\n      mstore\n        /* \"#utility.yul\":13595:13629   */\n      0x546573744d757368726f6f6d73203a3a205465616d20616c7265616479206d69\n        /* \"#utility.yul\":13575:13593   */\n      0x44\n      dup3\n      add\n        /* \"#utility.yul\":13568:13630   */\n      mstore\n      shl(0xe2, 0x1b9d1959)\n        /* \"#utility.yul\":13646:13664   */\n      0x64\n      dup3\n      add\n        /* \"#utility.yul\":13639:13673   */\n      mstore\n        /* \"#utility.yul\":13690:13709   */\n      0x84\n      add\n        /* \"contract/TestMushrooms.sol\":2768:2828  require(!teamMinted, \"TestMushrooms :: Team already minted\") */\n      tag_250\n        /* \"#utility.yul\":13315:13715   */\n      jump\n        /* \"contract/TestMushrooms.sol\":2768:2828  require(!teamMinted, \"TestMushrooms :: Team already minted\") */\n    tag_434:\n        /* \"contract/TestMushrooms.sol\":2839:2849  teamMinted */\n      0x0b\n        /* \"contract/TestMushrooms.sol\":2839:2856  teamMinted = true */\n      dup1\n      sload\n      not(0xff00000000)\n      and\n      0x0100000000\n      or\n      swap1\n      sstore\n        /* \"contract/TestMushrooms.sol\":2867:2894  _safeMint(msg.sender, 2000) */\n      tag_353\n        /* \"contract/TestMushrooms.sol\":2877:2887  msg.sender */\n      caller\n        /* \"contract/TestMushrooms.sol\":2889:2893  2000 */\n      0x07d0\n        /* \"contract/TestMushrooms.sol\":2867:2876  _safeMint */\n      tag_314\n        /* \"contract/TestMushrooms.sol\":2867:2894  _safeMint(msg.sender, 2000) */\n      jump\t// in\n        /* \"contract/TestMushrooms.sol\":4534:4608  function togglePause() external onlyOwner{... */\n    tag_217:\n        /* \"@openzeppelin/contracts/access/Ownable.sol\":1108:1114  _owner */\n      and(sub(shl(0xa0, 0x01), 0x01), sload(0x08))\n        /* \"@openzeppelin/contracts/utils/Context.sol\":719:729  msg.sender */\n      caller\n        /* \"@openzeppelin/contracts/access/Ownable.sol\":1248:1271  owner() == _msgSender() */\n      eq\n        /* \"@openzeppelin/contracts/access/Ownable.sol\":1240:1308  require(owner() == _msgSender(), \"Ownable: caller is not the owner\") */\n      tag_441\n      jumpi\n      mload(0x40)\n      shl(0xe5, 0x461bcd)\n      dup2\n      mstore\n      0x04\n      add\n      tag_250\n      swap1\n      tag_251\n      jump\t// in\n    tag_441:\n        /* \"contract/TestMushrooms.sol\":4595:4600  pause */\n      0x0b\n      dup1\n      sload\n      not(0xff000000)\n        /* \"contract/TestMushrooms.sol\":4586:4600  pause = !pause */\n      dup2\n      and\n        /* \"contract/TestMushrooms.sol\":4595:4600  pause */\n      0x01000000\n      swap2\n      dup3\n      swap1\n      div\n      0xff\n      and\n        /* \"contract/TestMushrooms.sol\":4594:4600  !pause */\n      iszero\n        /* \"contract/TestMushrooms.sol\":4586:4600  pause = !pause */\n      swap1\n      swap2\n      mul\n      or\n      swap1\n      sstore\n        /* \"contract/TestMushrooms.sol\":4534:4608  function togglePause() external onlyOwner{... */\n      jump\t// out\n        /* \"contract/TestMushrooms.sol\":3067:3540  function tokenURI(uint256 tokenId) public view virtual override returns (string memory) {... */\n    tag_221:\n        /* \"contract/TestMushrooms.sol\":3140:3153  string memory */\n      0x60\n        /* \"contract/TestMushrooms.sol\":3174:3190  _exists(tokenId) */\n      tag_445\n        /* \"contract/TestMushrooms.sol\":3182:3189  tokenId */\n      dup3\n        /* \"contract/TestMushrooms.sol\":3174:3181  _exists */\n      tag_264\n        /* \"contract/TestMushrooms.sol\":3174:3190  _exists(tokenId) */\n      jump\t// in\n    tag_445:\n        /* \"contract/TestMushrooms.sol\":3166:3242  require(_exists(tokenId), \"ERC721Metadata: URI query for nonexistent token\") */\n      tag_446\n      jumpi\n      mload(0x40)\n      shl(0xe5, 0x461bcd)\n      dup2\n      mstore\n        /* \"#utility.yul\":13922:13924   */\n      0x20\n        /* \"contract/TestMushrooms.sol\":3166:3242  require(_exists(tokenId), \"ERC721Metadata: URI query for nonexistent token\") */\n      0x04\n      dup3\n      add\n        /* \"#utility.yul\":13904:13925   */\n      mstore\n        /* \"#utility.yul\":13961:13963   */\n      0x2f\n        /* \"#utility.yul\":13941:13959   */\n      0x24\n      dup3\n      add\n        /* \"#utility.yul\":13934:13964   */\n      mstore\n        /* \"#utility.yul\":14000:14034   */\n      0x4552433732314d657461646174613a2055524920717565727920666f72206e6f\n        /* \"#utility.yul\":13980:13998   */\n      0x44\n      dup3\n      add\n        /* \"#utility.yul\":13973:14035   */\n      mstore\n      shl(0x89, 0x3732bc34b9ba32b73a103a37b5b2b7)\n        /* \"#utility.yul\":14051:14069   */\n      0x64\n      dup3\n      add\n        /* \"#utility.yul\":14044:14089   */\n      mstore\n        /* \"#utility.yul\":14106:14125   */\n      0x84\n      add\n        /* \"contract/TestMushrooms.sol\":3166:3242  require(_exists(tokenId), \"ERC721Metadata: URI query for nonexistent token\") */\n      tag_250\n        /* \"#utility.yul\":13720:14131   */\n      jump\n        /* \"contract/TestMushrooms.sol\":3166:3242  require(_exists(tokenId), \"ERC721Metadata: URI query for nonexistent token\") */\n    tag_446:\n        /* \"contract/TestMushrooms.sol\":3255:3269  uint256 trueId */\n      0x00\n        /* \"contract/TestMushrooms.sol\":3272:3283  tokenId + 1 */\n      tag_449\n        /* \"contract/TestMushrooms.sol\":3272:3279  tokenId */\n      dup4\n        /* \"contract/TestMushrooms.sol\":3282:3283  1 */\n      0x01\n        /* \"contract/TestMushrooms.sol\":3272:3283  tokenId + 1 */\n      tag_292\n      jump\t// in\n    tag_449:\n        /* \"contract/TestMushrooms.sol\":3300:3310  isRevealed */\n      sload(0x0b)\n        /* \"contract/TestMushrooms.sol\":3255:3283  uint256 trueId = tokenId + 1 */\n      swap1\n      swap2\n      pop\n        /* \"contract/TestMushrooms.sol\":3300:3310  isRevealed */\n      0xff\n      and\n        /* \"contract/TestMushrooms.sol\":3296:3364  if(!isRevealed){... */\n      tag_450\n      jumpi\n        /* \"contract/TestMushrooms.sol\":3333:3352  placeholderTokenUri */\n      0x0a\n        /* \"contract/TestMushrooms.sol\":3326:3352  return placeholderTokenUri */\n      dup1\n      sload\n      tag_451\n      swap1\n      tag_257\n      jump\t// in\n    tag_451:\n      dup1\n      0x1f\n      add\n      0x20\n      dup1\n      swap2\n      div\n      mul\n      0x20\n      add\n      mload(0x40)\n      swap1\n      dup2\n      add\n      0x40\n      mstore\n      dup1\n      swap3\n      swap2\n      swap1\n      dup2\n      dup2\n      mstore\n      0x20\n      add\n      dup3\n      dup1\n      sload\n      tag_452\n      swap1\n      tag_257\n      jump\t// in\n    tag_452:\n      dup1\n      iszero\n      tag_453\n      jumpi\n      dup1\n      0x1f\n      lt\n      tag_454\n      jumpi\n      0x0100\n      dup1\n      dup4\n      sload\n      div\n      mul\n      dup4\n      mstore\n      swap2\n      0x20\n      add\n      swap2\n      jump(tag_453)\n    tag_454:\n      dup3\n      add\n      swap2\n      swap1\n      0x00\n      mstore\n      keccak256(0x00, 0x20)\n      swap1\n    tag_455:\n      dup2\n      sload\n      dup2\n      mstore\n      swap1\n      0x01\n      add\n      swap1\n      0x20\n      add\n      dup1\n      dup4\n      gt\n      tag_455\n      jumpi\n      dup3\n      swap1\n      sub\n      0x1f\n      and\n      dup3\n      add\n      swap2\n    tag_453:\n      pop\n      pop\n      pop\n      pop\n      pop\n      swap2\n      pop\n      pop\n        /* \"contract/TestMushrooms.sol\":3067:3540  function tokenURI(uint256 tokenId) public view virtual override returns (string memory) {... */\n      swap2\n      swap1\n      pop\n      jump\t// out\n        /* \"contract/TestMushrooms.sol\":3296:3364  if(!isRevealed){... */\n    tag_450:\n        /* \"contract/TestMushrooms.sol\":3457:3458  0 */\n      0x00\n        /* \"contract/TestMushrooms.sol\":3434:3446  baseTokenUri */\n      0x09\n        /* \"contract/TestMushrooms.sol\":3428:3454  bytes(baseTokenUri).length */\n      dup1\n      sload\n      tag_456\n      swap1\n      tag_257\n      jump\t// in\n    tag_456:\n      swap1\n      pop\n        /* \"contract/TestMushrooms.sol\":3428:3458  bytes(baseTokenUri).length > 0 */\n      gt\n        /* \"contract/TestMushrooms.sol\":3428:3532  bytes(baseTokenUri).length > 0 ? string(abi.encodePacked(baseTokenUri, trueId.toString(), \".json\")) : \"\" */\n      tag_457\n      jumpi\n      mload(0x40)\n      dup1\n      0x20\n      add\n      0x40\n      mstore\n      dup1\n      0x00\n      dup2\n      mstore\n      pop\n      jump(tag_458)\n    tag_457:\n        /* \"contract/TestMushrooms.sol\":3485:3497  baseTokenUri */\n      0x09\n        /* \"contract/TestMushrooms.sol\":3499:3516  trueId.toString() */\n      tag_459\n        /* \"contract/TestMushrooms.sol\":3499:3505  trueId */\n      dup3\n        /* \"contract/TestMushrooms.sol\":3499:3514  trueId.toString */\n      tag_460\n        /* \"contract/TestMushrooms.sol\":3499:3516  trueId.toString() */\n      jump\t// in\n    tag_459:\n        /* \"contract/TestMushrooms.sol\":3468:3526  abi.encodePacked(baseTokenUri, trueId.toString(), \".json\") */\n      add(0x20, mload(0x40))\n      tag_461\n      swap3\n      swap2\n      swap1\n      tag_462\n      jump\t// in\n    tag_461:\n      mload(0x40)\n      0x20\n      dup2\n      dup4\n      sub\n      sub\n      dup2\n      mstore\n      swap1\n      0x40\n      mstore\n        /* \"contract/TestMushrooms.sol\":3428:3532  bytes(baseTokenUri).length > 0 ? string(abi.encodePacked(baseTokenUri, trueId.toString(), \".json\")) : \"\" */\n    tag_458:\n        /* \"contract/TestMushrooms.sol\":3421:3532  return bytes(baseTokenUri).length > 0 ? string(abi.encodePacked(baseTokenUri, trueId.toString(), \".json\")) : \"\" */\n      swap4\n        /* \"contract/TestMushrooms.sol\":3067:3540  function tokenURI(uint256 tokenId) public view virtual override returns (string memory) {... */\n      swap3\n      pop\n      pop\n      pop\n      jump\t// out\n        /* \"contract/TestMushrooms.sol\":4722:4811  function togglePublicSale() external onlyOwner{... */\n    tag_225:\n        /* \"@openzeppelin/contracts/access/Ownable.sol\":1108:1114  _owner */\n      and(sub(shl(0xa0, 0x01), 0x01), sload(0x08))\n        /* \"@openzeppelin/contracts/utils/Context.sol\":719:729  msg.sender */\n      caller\n        /* \"@openzeppelin/contracts/access/Ownable.sol\":1248:1271  owner() == _msgSender() */\n      eq\n        /* \"@openzeppelin/contracts/access/Ownable.sol\":1240:1308  require(owner() == _msgSender(), \"Ownable: caller is not the owner\") */\n      tag_466\n      jumpi\n      mload(0x40)\n      shl(0xe5, 0x461bcd)\n      dup2\n      mstore\n      0x04\n      add\n      tag_250\n      swap1\n      tag_251\n      jump\t// in\n    tag_466:\n        /* \"contract/TestMushrooms.sol\":4793:4803  publicSale */\n      0x0b\n      dup1\n      sload\n      not(0xff00)\n        /* \"contract/TestMushrooms.sol\":4779:4803  publicSale = !publicSale */\n      dup2\n      and\n        /* \"contract/TestMushrooms.sol\":4793:4803  publicSale */\n      0x0100\n      swap2\n      dup3\n      swap1\n      div\n      0xff\n      and\n        /* \"contract/TestMushrooms.sol\":4792:4803  !publicSale */\n      iszero\n        /* \"contract/TestMushrooms.sol\":4779:4803  publicSale = !publicSale */\n      swap1\n      swap2\n      mul\n      or\n      swap1\n      sstore\n        /* \"contract/TestMushrooms.sol\":4722:4811  function togglePublicSale() external onlyOwner{... */\n      jump\t// out\n        /* \"@openzeppelin/contracts/access/Ownable.sol\":1918:2116  function transferOwnership(address newOwner) public virtual onlyOwner {... */\n    tag_239:\n        /* \"@openzeppelin/contracts/access/Ownable.sol\":1108:1114  _owner */\n      and(sub(shl(0xa0, 0x01), 0x01), sload(0x08))\n        /* \"@openzeppelin/contracts/utils/Context.sol\":719:729  msg.sender */\n      caller\n        /* \"@openzeppelin/contracts/access/Ownable.sol\":1248:1271  owner() == _msgSender() */\n      eq\n        /* \"@openzeppelin/contracts/access/Ownable.sol\":1240:1308  require(owner() == _msgSender(), \"Ownable: caller is not the owner\") */\n      tag_473\n      jumpi\n      mload(0x40)\n      shl(0xe5, 0x461bcd)\n      dup2\n      mstore\n      0x04\n      add\n      tag_250\n      swap1\n      tag_251\n      jump\t// in\n    tag_473:\n      sub(shl(0xa0, 0x01), 0x01)\n        /* \"@openzeppelin/contracts/access/Ownable.sol\":2006:2028  newOwner != address(0) */\n      dup2\n      and\n        /* \"@openzeppelin/contracts/access/Ownable.sol\":1998:2071  require(newOwner != address(0), \"Ownable: new owner is the zero address\") */\n      tag_476\n      jumpi\n      mload(0x40)\n      shl(0xe5, 0x461bcd)\n      dup2\n      mstore\n        /* \"#utility.yul\":16078:16080   */\n      0x20\n        /* \"@openzeppelin/contracts/access/Ownable.sol\":1998:2071  require(newOwner != address(0), \"Ownable: new owner is the zero address\") */\n      0x04\n      dup3\n      add\n        /* \"#utility.yul\":16060:16081   */\n      mstore\n        /* \"#utility.yul\":16117:16119   */\n      0x26\n        /* \"#utility.yul\":16097:16115   */\n      0x24\n      dup3\n      add\n        /* \"#utility.yul\":16090:16120   */\n      mstore\n        /* \"#utility.yul\":16156:16190   */\n      0x4f776e61626c653a206e6577206f776e657220697320746865207a65726f2061\n        /* \"#utility.yul\":16136:16154   */\n      0x44\n      dup3\n      add\n        /* \"#utility.yul\":16129:16191   */\n      mstore\n      shl(0xd0, 0x646472657373)\n        /* \"#utility.yul\":16207:16225   */\n      0x64\n      dup3\n      add\n        /* \"#utility.yul\":16200:16236   */\n      mstore\n        /* \"#utility.yul\":16253:16272   */\n      0x84\n      add\n        /* \"@openzeppelin/contracts/access/Ownable.sol\":1998:2071  require(newOwner != address(0), \"Ownable: new owner is the zero address\") */\n      tag_250\n        /* \"#utility.yul\":15876:16278   */\n      jump\n        /* \"@openzeppelin/contracts/access/Ownable.sol\":1998:2071  require(newOwner != address(0), \"Ownable: new owner is the zero address\") */\n    tag_476:\n        /* \"@openzeppelin/contracts/access/Ownable.sol\":2081:2109  _transferOwnership(newOwner) */\n      tag_406\n        /* \"@openzeppelin/contracts/access/Ownable.sol\":2100:2108  newOwner */\n      dup2\n        /* \"@openzeppelin/contracts/access/Ownable.sol\":2081:2099  _transferOwnership */\n      tag_354\n        /* \"@openzeppelin/contracts/access/Ownable.sol\":2081:2109  _transferOwnership(newOwner) */\n      jump\t// in\n        /* \"erc721a/contracts/ERC721A.sol\":11506:11690  function _exists(uint256 tokenId) internal view returns (bool) {... */\n    tag_264:\n        /* \"erc721a/contracts/ERC721A.sol\":11563:11567  bool */\n      0x00\n        /* \"erc721a/contracts/ERC721A.sol\":11626:11639  _currentIndex */\n      dup1\n      sload\n        /* \"erc721a/contracts/ERC721A.sol\":11616:11623  tokenId */\n      dup3\n        /* \"erc721a/contracts/ERC721A.sol\":11616:11639  tokenId < _currentIndex */\n      lt\n        /* \"erc721a/contracts/ERC721A.sol\":11586:11683  _startTokenId() <= tokenId && tokenId < _currentIndex &&... */\n      dup1\n      iszero\n      tag_243\n      jumpi\n      pop\n      pop\n        /* \"erc721a/contracts/ERC721A.sol\":11656:11676  _ownerships[tokenId] */\n      0x00\n      swap1\n      dup2\n      mstore\n        /* \"erc721a/contracts/ERC721A.sol\":11656:11667  _ownerships */\n      0x04\n        /* \"erc721a/contracts/ERC721A.sol\":11656:11676  _ownerships[tokenId] */\n      0x20\n      mstore\n      0x40\n      swap1\n      keccak256\n        /* \"erc721a/contracts/ERC721A.sol\":11656:11683  _ownerships[tokenId].burned */\n      sload\n      shl(0xe0, 0x01)\n      swap1\n      div\n      0xff\n      and\n        /* \"erc721a/contracts/ERC721A.sol\":11655:11683  !_ownerships[tokenId].burned */\n      iszero\n      swap1\n        /* \"erc721a/contracts/ERC721A.sol\":11506:11690  function _exists(uint256 tokenId) internal view returns (bool) {... */\n      jump\t// out\n        /* \"erc721a/contracts/ERC721A.sol\":18922:19111  function _approve(... */\n    tag_275:\n        /* \"erc721a/contracts/ERC721A.sol\":19032:19056  _tokenApprovals[tokenId] */\n      0x00\n      dup3\n      dup2\n      mstore\n        /* \"erc721a/contracts/ERC721A.sol\":19032:19047  _tokenApprovals */\n      0x06\n        /* \"erc721a/contracts/ERC721A.sol\":19032:19056  _tokenApprovals[tokenId] */\n      0x20\n      mstore\n      0x40\n      dup1\n      dup3\n      keccak256\n        /* \"erc721a/contracts/ERC721A.sol\":19032:19061  _tokenApprovals[tokenId] = to */\n      dup1\n      sload\n      not(sub(shl(0xa0, 0x01), 0x01))\n      and\n      sub(shl(0xa0, 0x01), 0x01)\n      dup8\n      dup2\n      and\n      swap2\n      dup3\n      or\n      swap1\n      swap3\n      sstore\n        /* \"erc721a/contracts/ERC721A.sol\":19076:19104  Approval(owner, to, tokenId) */\n      swap2\n      mload\n        /* \"erc721a/contracts/ERC721A.sol\":19032:19056  _tokenApprovals[tokenId] */\n      dup6\n      swap4\n        /* \"erc721a/contracts/ERC721A.sol\":19076:19104  Approval(owner, to, tokenId) */\n      swap2\n      dup6\n      and\n      swap2\n      0x8c5be1e5ebec7d5bd14f71427d1e84f3dd0314c0f7b2291e5b200ac8c7c3b925\n      swap2\n      log4\n        /* \"erc721a/contracts/ERC721A.sol\":18922:19111  function _approve(... */\n      pop\n      pop\n      pop\n      jump\t// out\n        /* \"erc721a/contracts/ERC721A.sol\":14528:16595  function _transfer(... */\n    tag_281:\n        /* \"erc721a/contracts/ERC721A.sol\":14638:14673  TokenOwnership memory prevOwnership */\n      0x00\n        /* \"erc721a/contracts/ERC721A.sol\":14676:14696  ownershipOf(tokenId) */\n      tag_489\n        /* \"erc721a/contracts/ERC721A.sol\":14688:14695  tokenId */\n      dup3\n        /* \"erc721a/contracts/ERC721A.sol\":14676:14687  ownershipOf */\n      tag_344\n        /* \"erc721a/contracts/ERC721A.sol\":14676:14696  ownershipOf(tokenId) */\n      jump\t// in\n    tag_489:\n        /* \"erc721a/contracts/ERC721A.sol\":14749:14767  prevOwnership.addr */\n      dup1\n      mload\n        /* \"erc721a/contracts/ERC721A.sol\":14638:14696  TokenOwnership memory prevOwnership = ownershipOf(tokenId) */\n      swap1\n      swap2\n      pop\n        /* \"erc721a/contracts/ERC721A.sol\":14707:14729  bool isApprovedOrOwner */\n      0x00\n      swap1\n      sub(shl(0xa0, 0x01), 0x01)\n        /* \"erc721a/contracts/ERC721A.sol\":14733:14767  _msgSender() == prevOwnership.addr */\n      and\n        /* \"@openzeppelin/contracts/utils/Context.sol\":719:729  msg.sender */\n      caller\n      sub(shl(0xa0, 0x01), 0x01)\n        /* \"erc721a/contracts/ERC721A.sol\":14733:14767  _msgSender() == prevOwnership.addr */\n      and\n      eq\n        /* \"erc721a/contracts/ERC721A.sol\":14733:14833  _msgSender() == prevOwnership.addr ||... */\n      dup1\n      tag_492\n      jumpi\n      pop\n        /* \"erc721a/contracts/ERC721A.sol\":14800:14818  prevOwnership.addr */\n      dup2\n      mload\n        /* \"erc721a/contracts/ERC721A.sol\":14783:14833  isApprovedForAll(prevOwnership.addr, _msgSender()) */\n      tag_492\n      swap1\n        /* \"@openzeppelin/contracts/utils/Context.sol\":719:729  msg.sender */\n      caller\n        /* \"erc721a/contracts/ERC721A.sol\":10202:10364  function isApprovedForAll(address owner, address operator) public view virtual override returns (bool) {... */\n      tag_232\n      jump\t// in\n        /* \"erc721a/contracts/ERC721A.sol\":14783:14833  isApprovedForAll(prevOwnership.addr, _msgSender()) */\n    tag_492:\n        /* \"erc721a/contracts/ERC721A.sol\":14733:14885  _msgSender() == prevOwnership.addr ||... */\n      dup1\n      tag_494\n      jumpi\n      pop\n        /* \"@openzeppelin/contracts/utils/Context.sol\":719:729  msg.sender */\n      caller\n        /* \"erc721a/contracts/ERC721A.sol\":14849:14869  getApproved(tokenId) */\n      tag_496\n        /* \"erc721a/contracts/ERC721A.sol\":14861:14868  tokenId */\n      dup5\n        /* \"erc721a/contracts/ERC721A.sol\":14849:14860  getApproved */\n      tag_84\n        /* \"erc721a/contracts/ERC721A.sol\":14849:14869  getApproved(tokenId) */\n      jump\t// in\n    tag_496:\n      sub(shl(0xa0, 0x01), 0x01)\n        /* \"erc721a/contracts/ERC721A.sol\":14849:14885  getApproved(tokenId) == _msgSender() */\n      and\n      eq\n        /* \"erc721a/contracts/ERC721A.sol\":14733:14885  _msgSender() == prevOwnership.addr ||... */\n    tag_494:\n        /* \"erc721a/contracts/ERC721A.sol\":14707:14886  bool isApprovedOrOwner = (_msgSender() == prevOwnership.addr ||... */\n      swap1\n      pop\n        /* \"erc721a/contracts/ERC721A.sol\":14902:14919  isApprovedOrOwner */\n      dup1\n        /* \"erc721a/contracts/ERC721A.sol\":14897:14963  if (!isApprovedOrOwner) revert TransferCallerNotOwnerNorApproved() */\n      tag_497\n      jumpi\n        /* \"erc721a/contracts/ERC721A.sol\":14928:14963  TransferCallerNotOwnerNorApproved() */\n      mload(0x40)\n      shl(0xe1, 0x2ce44b5f)\n      dup2\n      mstore\n      0x04\n      add\n      mload(0x40)\n      dup1\n      swap2\n      sub\n      swap1\n      revert\n        /* \"erc721a/contracts/ERC721A.sol\":14897:14963  if (!isApprovedOrOwner) revert TransferCallerNotOwnerNorApproved() */\n    tag_497:\n        /* \"erc721a/contracts/ERC721A.sol\":14999:15003  from */\n      dup5\n      sub(shl(0xa0, 0x01), 0x01)\n        /* \"erc721a/contracts/ERC721A.sol\":14977:15003  prevOwnership.addr != from */\n      and\n        /* \"erc721a/contracts/ERC721A.sol\":14977:14990  prevOwnership */\n      dup3\n        /* \"erc721a/contracts/ERC721A.sol\":14977:14995  prevOwnership.addr */\n      0x00\n      add\n      mload\n      sub(shl(0xa0, 0x01), 0x01)\n        /* \"erc721a/contracts/ERC721A.sol\":14977:15003  prevOwnership.addr != from */\n      and\n      eq\n        /* \"erc721a/contracts/ERC721A.sol\":14973:15040  if (prevOwnership.addr != from) revert TransferFromIncorrectOwner() */\n      tag_498\n      jumpi\n        /* \"erc721a/contracts/ERC721A.sol\":15012:15040  TransferFromIncorrectOwner() */\n      mload(0x40)\n      shl(0xe8, 0xa11481)\n      dup2\n      mstore\n      0x04\n      add\n      mload(0x40)\n      dup1\n      swap2\n      sub\n      swap1\n      revert\n        /* \"erc721a/contracts/ERC721A.sol\":14973:15040  if (prevOwnership.addr != from) revert TransferFromIncorrectOwner() */\n    tag_498:\n      sub(shl(0xa0, 0x01), 0x01)\n        /* \"erc721a/contracts/ERC721A.sol\":15054:15070  to == address(0) */\n      dup5\n      and\n        /* \"erc721a/contracts/ERC721A.sol\":15050:15102  if (to == address(0)) revert TransferToZeroAddress() */\n      tag_499\n      jumpi\n        /* \"erc721a/contracts/ERC721A.sol\":15079:15102  TransferToZeroAddress() */\n      mload(0x40)\n      shl(0xe2, 0x3a954ecd)\n      dup2\n      mstore\n      0x04\n      add\n      mload(0x40)\n      dup1\n      swap2\n      sub\n      swap1\n      revert\n        /* \"erc721a/contracts/ERC721A.sol\":15050:15102  if (to == address(0)) revert TransferToZeroAddress() */\n    tag_499:\n        /* \"erc721a/contracts/ERC721A.sol\":15218:15267  _approve(address(0), tokenId, prevOwnership.addr) */\n      tag_502\n        /* \"erc721a/contracts/ERC721A.sol\":15235:15236  0 */\n      0x00\n        /* \"erc721a/contracts/ERC721A.sol\":15239:15246  tokenId */\n      dup5\n        /* \"erc721a/contracts/ERC721A.sol\":15248:15261  prevOwnership */\n      dup5\n        /* \"erc721a/contracts/ERC721A.sol\":15248:15266  prevOwnership.addr */\n      0x00\n      add\n      mload\n        /* \"erc721a/contracts/ERC721A.sol\":15218:15226  _approve */\n      tag_275\n        /* \"erc721a/contracts/ERC721A.sol\":15218:15267  _approve(address(0), tokenId, prevOwnership.addr) */\n      jump\t// in\n    tag_502:\n      sub(shl(0xa0, 0x01), 0x01)\n        /* \"erc721a/contracts/ERC721A.sol\":15557:15575  _addressData[from] */\n      dup6\n      dup2\n      and\n      0x00\n      swap1\n      dup2\n      mstore\n        /* \"erc721a/contracts/ERC721A.sol\":15557:15569  _addressData */\n      0x05\n        /* \"erc721a/contracts/ERC721A.sol\":15557:15575  _addressData[from] */\n      0x20\n      swap1\n      dup2\n      mstore\n      0x40\n      dup1\n      dup4\n      keccak256\n        /* \"erc721a/contracts/ERC721A.sol\":15557:15588  _addressData[from].balance -= 1 */\n      dup1\n      sload\n      not(0xffffffffffffffff)\n      dup1\n      dup3\n      and\n      sub(shl(0x40, 0x01), 0x01)\n      swap3\n      dup4\n      and\n      not(0x00)\n      add\n      dup4\n      and\n      or\n      swap1\n      swap3\n      sstore\n        /* \"erc721a/contracts/ERC721A.sol\":15602:15618  _addressData[to] */\n      dup10\n      dup7\n      and\n      dup1\n      dup7\n      mstore\n      dup4\n      dup7\n      keccak256\n        /* \"erc721a/contracts/ERC721A.sol\":15602:15631  _addressData[to].balance += 1 */\n      dup1\n      sload\n      swap4\n      dup5\n      and\n      swap4\n      dup4\n      and\n      0x01\n      swap1\n      dup2\n      add\n      dup5\n      and\n      swap5\n      swap1\n      swap5\n      or\n      swap1\n      sstore\n        /* \"erc721a/contracts/ERC721A.sol\":15646:15666  _ownerships[tokenId] */\n      dup10\n      dup7\n      mstore\n        /* \"erc721a/contracts/ERC721A.sol\":15646:15657  _ownerships */\n      0x04\n        /* \"erc721a/contracts/ERC721A.sol\":15646:15666  _ownerships[tokenId] */\n      swap1\n      swap5\n      mstore\n      dup3\n      dup6\n      keccak256\n        /* \"erc721a/contracts/ERC721A.sol\":15646:15676  _ownerships[tokenId].addr = to */\n      dup1\n      sload\n      not(sub(shl(0xe0, 0x01), 0x01))\n        /* \"erc721a/contracts/ERC721A.sol\":15690:15751  _ownerships[tokenId].startTimestamp = uint64(block.timestamp) */\n      and\n      swap1\n      swap5\n      or\n      shl(0xa0, 0x01)\n        /* \"erc721a/contracts/ERC721A.sol\":15735:15750  block.timestamp */\n      timestamp\n        /* \"erc721a/contracts/ERC721A.sol\":15690:15751  _ownerships[tokenId].startTimestamp = uint64(block.timestamp) */\n      swap1\n      swap3\n      and\n      swap2\n      swap1\n      swap2\n      mul\n      or\n      swap1\n      swap3\n      sstore\n        /* \"erc721a/contracts/ERC721A.sol\":16021:16032  tokenId + 1 */\n      swap1\n      dup7\n      add\n        /* \"erc721a/contracts/ERC721A.sol\":16050:16074  _ownerships[nextTokenId] */\n      dup1\n      dup4\n      mstore\n      swap2\n      keccak256\n        /* \"erc721a/contracts/ERC721A.sol\":16050:16079  _ownerships[nextTokenId].addr */\n      sload\n        /* \"erc721a/contracts/ERC721A.sol\":16021:16032  tokenId + 1 */\n      swap1\n      swap2\n        /* \"erc721a/contracts/ERC721A.sol\":16050:16079  _ownerships[nextTokenId].addr */\n      and\n        /* \"erc721a/contracts/ERC721A.sol\":16046:16484  if (_ownerships[nextTokenId].addr == address(0)) {... */\n      tag_504\n      jumpi\n        /* \"erc721a/contracts/ERC721A.sol\":16272:16285  _currentIndex */\n      sload(0x00)\n        /* \"erc721a/contracts/ERC721A.sol\":16258:16269  nextTokenId */\n      dup2\n        /* \"erc721a/contracts/ERC721A.sol\":16258:16285  nextTokenId < _currentIndex */\n      lt\n        /* \"erc721a/contracts/ERC721A.sol\":16254:16470  if (nextTokenId < _currentIndex) {... */\n      iszero\n      tag_504\n      jumpi\n        /* \"erc721a/contracts/ERC721A.sol\":16341:16359  prevOwnership.addr */\n      dup3\n      mload\n      0x00\n        /* \"erc721a/contracts/ERC721A.sol\":16309:16333  _ownerships[nextTokenId] */\n      dup3\n      dup2\n      mstore\n        /* \"erc721a/contracts/ERC721A.sol\":16309:16320  _ownerships */\n      0x04\n        /* \"erc721a/contracts/ERC721A.sol\":16309:16333  _ownerships[nextTokenId] */\n      0x20\n      swap1\n      dup2\n      mstore\n      0x40\n      swap1\n      swap2\n      keccak256\n        /* \"erc721a/contracts/ERC721A.sol\":16309:16359  _ownerships[nextTokenId].addr = prevOwnership.addr */\n      dup1\n      sload\n        /* \"erc721a/contracts/ERC721A.sol\":16423:16451  prevOwnership.startTimestamp */\n      swap2\n      dup7\n      add\n      mload\n      sub(shl(0x40, 0x01), 0x01)\n        /* \"erc721a/contracts/ERC721A.sol\":16381:16451  _ownerships[nextTokenId].startTimestamp = prevOwnership.startTimestamp */\n      and\n      shl(0xa0, 0x01)\n      mul\n      not(sub(shl(0xe0, 0x01), 0x01))\n      swap1\n      swap3\n      and\n      sub(shl(0xa0, 0x01), 0x01)\n        /* \"erc721a/contracts/ERC721A.sol\":16309:16359  _ownerships[nextTokenId].addr = prevOwnership.addr */\n      swap1\n      swap4\n      and\n        /* \"erc721a/contracts/ERC721A.sol\":16381:16451  _ownerships[nextTokenId].startTimestamp = prevOwnership.startTimestamp */\n      swap3\n      swap1\n      swap3\n      or\n      or\n      swap1\n      sstore\n        /* \"erc721a/contracts/ERC721A.sol\":16254:16470  if (nextTokenId < _currentIndex) {... */\n    tag_504:\n        /* \"erc721a/contracts/ERC721A.sol\":15533:16494  unchecked {... */\n      pop\n        /* \"erc721a/contracts/ERC721A.sol\":16528:16535  tokenId */\n      dup3\n        /* \"erc721a/contracts/ERC721A.sol\":16524:16526  to */\n      dup5\n      sub(shl(0xa0, 0x01), 0x01)\n        /* \"erc721a/contracts/ERC721A.sol\":16509:16536  Transfer(from, to, tokenId) */\n      and\n        /* \"erc721a/contracts/ERC721A.sol\":16518:16522  from */\n      dup7\n      sub(shl(0xa0, 0x01), 0x01)\n        /* \"erc721a/contracts/ERC721A.sol\":16509:16536  Transfer(from, to, tokenId) */\n      and\n      0xddf252ad1be2c89b69c2b068fc378daa952ba7f163c4a11628f55a4df523b3ef\n      mload(0x40)\n      mload(0x40)\n      dup1\n      swap2\n      sub\n      swap1\n      log4\n        /* \"erc721a/contracts/ERC721A.sol\":16546:16588  _afterTokenTransfers(from, to, tokenId, 1) */\n    tag_505:\n        /* \"erc721a/contracts/ERC721A.sol\":14628:16595  {... */\n      pop\n      pop\n        /* \"erc721a/contracts/ERC721A.sol\":14528:16595  function _transfer(... */\n      pop\n      pop\n      pop\n      jump\t// out\n        /* \"@openzeppelin/contracts/utils/cryptography/MerkleProof.sol\":862:1046  function verify(... */\n    tag_308:\n        /* \"@openzeppelin/contracts/utils/cryptography/MerkleProof.sol\":983:987  bool */\n      0x00\n        /* \"@openzeppelin/contracts/utils/cryptography/MerkleProof.sol\":1035:1039  root */\n      dup3\n        /* \"@openzeppelin/contracts/utils/cryptography/MerkleProof.sol\":1006:1031  processProof(proof, leaf) */\n      tag_508\n        /* \"@openzeppelin/contracts/utils/cryptography/MerkleProof.sol\":1019:1024  proof */\n      dup6\n        /* \"@openzeppelin/contracts/utils/cryptography/MerkleProof.sol\":1026:1030  leaf */\n      dup5\n        /* \"@openzeppelin/contracts/utils/cryptography/MerkleProof.sol\":1006:1018  processProof */\n      tag_509\n        /* \"@openzeppelin/contracts/utils/cryptography/MerkleProof.sol\":1006:1031  processProof(proof, leaf) */\n      jump\t// in\n    tag_508:\n        /* \"@openzeppelin/contracts/utils/cryptography/MerkleProof.sol\":1006:1039  processProof(proof, leaf) == root */\n      eq\n      swap5\n        /* \"@openzeppelin/contracts/utils/cryptography/MerkleProof.sol\":862:1046  function verify(... */\n      swap4\n      pop\n      pop\n      pop\n      pop\n      jump\t// out\n        /* \"erc721a/contracts/ERC721A.sol\":11696:11798  function _safeMint(address to, uint256 quantity) internal {... */\n    tag_314:\n        /* \"erc721a/contracts/ERC721A.sol\":11764:11791  _safeMint(to, quantity, '') */\n      tag_253\n        /* \"erc721a/contracts/ERC721A.sol\":11774:11776  to */\n      dup3\n        /* \"erc721a/contracts/ERC721A.sol\":11778:11786  quantity */\n      dup3\n        /* \"erc721a/contracts/ERC721A.sol\":11764:11791  _safeMint(to, quantity, '') */\n      mload(0x40)\n      dup1\n      0x20\n      add\n      0x40\n      mstore\n      dup1\n      0x00\n      dup2\n      mstore\n      pop\n        /* \"erc721a/contracts/ERC721A.sol\":11764:11773  _safeMint */\n      tag_512\n        /* \"erc721a/contracts/ERC721A.sol\":11764:11791  _safeMint(to, quantity, '') */\n      jump\t// in\n        /* \"erc721a/contracts/ERC721A.sol\":6815:7898  function ownershipOf(uint256 tokenId) internal view returns (TokenOwnership memory) {... */\n    tag_344:\n      0x40\n      dup1\n      mload\n      0x60\n      dup2\n      add\n      dup3\n      mstore\n      0x00\n      dup1\n      dup3\n      mstore\n      0x20\n      dup3\n      add\n      dup2\n      swap1\n      mstore\n      swap2\n      dup2\n      add\n      swap2\n      swap1\n      swap2\n      mstore\n        /* \"erc721a/contracts/ERC721A.sol\":6924:6931  tokenId */\n      dup2\n        /* \"erc721a/contracts/ERC721A.sol\":7004:7017  _currentIndex */\n      sload(0x00)\n        /* \"erc721a/contracts/ERC721A.sol\":6997:7001  curr */\n      dup2\n        /* \"erc721a/contracts/ERC721A.sol\":6997:7017  curr < _currentIndex */\n      lt\n        /* \"erc721a/contracts/ERC721A.sol\":6966:7834  if (_startTokenId() <= curr && curr < _currentIndex) {... */\n      iszero\n      tag_518\n      jumpi\n        /* \"erc721a/contracts/ERC721A.sol\":7037:7068  TokenOwnership memory ownership */\n      0x00\n        /* \"erc721a/contracts/ERC721A.sol\":7071:7088  _ownerships[curr] */\n      dup2\n      dup2\n      mstore\n        /* \"erc721a/contracts/ERC721A.sol\":7071:7082  _ownerships */\n      0x04\n        /* \"erc721a/contracts/ERC721A.sol\":7071:7088  _ownerships[curr] */\n      0x20\n      swap1\n      dup2\n      mstore\n      0x40\n      swap2\n      dup3\n      swap1\n      keccak256\n        /* \"erc721a/contracts/ERC721A.sol\":7037:7088  TokenOwnership memory ownership = _ownerships[curr] */\n      dup3\n      mload\n      0x60\n      dup2\n      add\n      dup5\n      mstore\n      swap1\n      sload\n      sub(shl(0xa0, 0x01), 0x01)\n      dup2\n      and\n      dup3\n      mstore\n      shl(0xa0, 0x01)\n      dup2\n      div\n      sub(shl(0x40, 0x01), 0x01)\n      and\n      swap3\n      dup3\n      add\n      swap3\n      swap1\n      swap3\n      mstore\n      shl(0xe0, 0x01)\n      swap1\n      swap2\n      div\n      0xff\n      and\n      iszero\n      iszero\n      swap2\n      dup2\n      add\n      dup3\n      swap1\n      mstore\n      swap1\n        /* \"erc721a/contracts/ERC721A.sol\":7106:7820  if (!ownership.burned) {... */\n      tag_522\n      jumpi\n        /* \"erc721a/contracts/ERC721A.sol\":7155:7169  ownership.addr */\n      dup1\n      mload\n      sub(shl(0xa0, 0x01), 0x01)\n        /* \"erc721a/contracts/ERC721A.sol\":7155:7183  ownership.addr != address(0) */\n      and\n      iszero\n        /* \"erc721a/contracts/ERC721A.sol\":7151:7250  if (ownership.addr != address(0)) {... */\n      tag_520\n      jumpi\n        /* \"erc721a/contracts/ERC721A.sol\":7218:7227  ownership */\n      swap4\n        /* \"erc721a/contracts/ERC721A.sol\":6815:7898  function ownershipOf(uint256 tokenId) internal view returns (TokenOwnership memory) {... */\n      swap3\n      pop\n      pop\n      pop\n      jump\t// out\n        /* \"erc721a/contracts/ERC721A.sol\":7151:7250  if (ownership.addr != address(0)) {... */\n    tag_520:\n      pop\n      not(0x00)\n        /* \"erc721a/contracts/ERC721A.sol\":7586:7592  curr-- */\n      add\n        /* \"erc721a/contracts/ERC721A.sol\":7630:7647  _ownerships[curr] */\n      0x00\n      dup2\n      dup2\n      mstore\n        /* \"erc721a/contracts/ERC721A.sol\":7630:7641  _ownerships */\n      0x04\n        /* \"erc721a/contracts/ERC721A.sol\":7630:7647  _ownerships[curr] */\n      0x20\n      swap1\n      dup2\n      mstore\n      0x40\n      swap2\n      dup3\n      swap1\n      keccak256\n        /* \"erc721a/contracts/ERC721A.sol\":7618:7647  ownership = _ownerships[curr] */\n      dup3\n      mload\n      0x60\n      dup2\n      add\n      dup5\n      mstore\n      swap1\n      sload\n      sub(shl(0xa0, 0x01), 0x01)\n      dup2\n      and\n      dup1\n      dup4\n      mstore\n      shl(0xa0, 0x01)\n      dup3\n      div\n      sub(shl(0x40, 0x01), 0x01)\n      and\n      swap4\n      dup4\n      add\n      swap4\n      swap1\n      swap4\n      mstore\n      shl(0xe0, 0x01)\n      swap1\n      div\n      0xff\n      and\n      iszero\n      iszero\n      swap3\n      dup2\n      add\n      swap3\n      swap1\n      swap3\n      mstore\n        /* \"erc721a/contracts/ERC721A.sol\":7677:7705  ownership.addr != address(0) */\n      iszero\n        /* \"erc721a/contracts/ERC721A.sol\":7673:7780  if (ownership.addr != address(0)) {... */\n      tag_523\n      jumpi\n        /* \"erc721a/contracts/ERC721A.sol\":7744:7753  ownership */\n      swap4\n        /* \"erc721a/contracts/ERC721A.sol\":6815:7898  function ownershipOf(uint256 tokenId) internal view returns (TokenOwnership memory) {... */\n      swap3\n      pop\n      pop\n      pop\n      jump\t// out\n        /* \"erc721a/contracts/ERC721A.sol\":7673:7780  if (ownership.addr != address(0)) {... */\n    tag_523:\n        /* \"erc721a/contracts/ERC721A.sol\":7547:7802  while (true) {... */\n      jump(tag_520)\n    tag_522:\n        /* \"erc721a/contracts/ERC721A.sol\":7019:7834  {... */\n      pop\n        /* \"erc721a/contracts/ERC721A.sol\":6966:7834  if (_startTokenId() <= curr && curr < _currentIndex) {... */\n    tag_518:\n        /* \"erc721a/contracts/ERC721A.sol\":7860:7891  OwnerQueryForNonexistentToken() */\n      mload(0x40)\n      shl(0xe1, 0x6f96cda1)\n      dup2\n      mstore\n      0x04\n      add\n      mload(0x40)\n      dup1\n      swap2\n      sub\n      swap1\n      revert\n        /* \"@openzeppelin/contracts/access/Ownable.sol\":2270:2457  function _transferOwnership(address newOwner) internal virtual {... */\n    tag_354:\n        /* \"@openzeppelin/contracts/access/Ownable.sol\":2362:2368  _owner */\n      0x08\n      dup1\n      sload\n      sub(shl(0xa0, 0x01), 0x01)\n        /* \"@openzeppelin/contracts/access/Ownable.sol\":2378:2395  _owner = newOwner */\n      dup4\n      dup2\n      and\n      not(sub(shl(0xa0, 0x01), 0x01))\n      dup4\n      and\n      dup2\n      or\n      swap1\n      swap4\n      sstore\n        /* \"@openzeppelin/contracts/access/Ownable.sol\":2410:2450  OwnershipTransferred(oldOwner, newOwner) */\n      mload(0x40)\n        /* \"@openzeppelin/contracts/access/Ownable.sol\":2362:2368  _owner */\n      swap2\n      and\n      swap2\n        /* \"@openzeppelin/contracts/access/Ownable.sol\":2378:2395  _owner = newOwner */\n      swap1\n        /* \"@openzeppelin/contracts/access/Ownable.sol\":2362:2368  _owner */\n      dup3\n      swap1\n        /* \"@openzeppelin/contracts/access/Ownable.sol\":2410:2450  OwnershipTransferred(oldOwner, newOwner) */\n      0x8be0079c531659141344cd1fd0a4f28419497f9722a3daafe3b4186f6b6457e0\n      swap1\n        /* \"@openzeppelin/contracts/access/Ownable.sol\":2343:2359  address oldOwner */\n      0x00\n      swap1\n        /* \"@openzeppelin/contracts/access/Ownable.sol\":2410:2450  OwnershipTransferred(oldOwner, newOwner) */\n      log3\n        /* \"@openzeppelin/contracts/access/Ownable.sol\":2333:2457  {... */\n      pop\n        /* \"@openzeppelin/contracts/access/Ownable.sol\":2270:2457  function _transferOwnership(address newOwner) internal virtual {... */\n      pop\n      jump\t// out\n        /* \"erc721a/contracts/ERC721A.sol\":19592:20242  function _checkContractOnERC721Received(... */\n    tag_426:\n        /* \"erc721a/contracts/ERC721A.sol\":19770:19842  IERC721Receiver(to).onERC721Received(_msgSender(), from, tokenId, _data) */\n      mload(0x40)\n      shl(0xe1, 0x0a85bd01)\n      dup2\n      mstore\n        /* \"erc721a/contracts/ERC721A.sol\":19750:19754  bool */\n      0x00\n      swap1\n      sub(shl(0xa0, 0x01), 0x01)\n        /* \"erc721a/contracts/ERC721A.sol\":19770:19806  IERC721Receiver(to).onERC721Received */\n      dup6\n      and\n      swap1\n      0x150b7a02\n      swap1\n        /* \"erc721a/contracts/ERC721A.sol\":19770:19842  IERC721Receiver(to).onERC721Received(_msgSender(), from, tokenId, _data) */\n      tag_528\n      swap1\n        /* \"@openzeppelin/contracts/utils/Context.sol\":719:729  msg.sender */\n      caller\n      swap1\n        /* \"erc721a/contracts/ERC721A.sol\":19821:19825  from */\n      dup10\n      swap1\n        /* \"erc721a/contracts/ERC721A.sol\":19827:19834  tokenId */\n      dup9\n      swap1\n        /* \"erc721a/contracts/ERC721A.sol\":19836:19841  _data */\n      dup9\n      swap1\n        /* \"erc721a/contracts/ERC721A.sol\":19770:19842  IERC721Receiver(to).onERC721Received(_msgSender(), from, tokenId, _data) */\n      0x04\n      add\n      tag_529\n      jump\t// in\n    tag_528:\n      0x20\n      mload(0x40)\n      dup1\n      dup4\n      sub\n      dup2\n      0x00\n      dup8\n      dup1\n      extcodesize\n      iszero\n      dup1\n      iszero\n      tag_530\n      jumpi\n      0x00\n      dup1\n      revert\n    tag_530:\n      pop\n      gas\n      call\n      swap3\n      pop\n      pop\n      pop\n      dup1\n      iszero\n      tag_531\n      jumpi\n      pop\n      0x40\n      dup1\n      mload\n      0x1f\n      returndatasize\n      swap1\n      dup2\n      add\n      not(0x1f)\n      and\n      dup3\n      add\n      swap1\n      swap3\n      mstore\n      tag_532\n      swap2\n      dup2\n      add\n      swap1\n      tag_533\n      jump\t// in\n    tag_532:\n      0x01\n    tag_531:\n        /* \"erc721a/contracts/ERC721A.sol\":19766:20236  try IERC721Receiver(to).onERC721Received(_msgSender(), from, tokenId, _data) returns (bytes4 retval) {... */\n      tag_534\n      jumpi\n      returndatasize\n      dup1\n      dup1\n      iszero\n      tag_539\n      jumpi\n      mload(0x40)\n      swap2\n      pop\n      and(add(returndatasize, 0x3f), not(0x1f))\n      dup3\n      add\n      0x40\n      mstore\n      returndatasize\n      dup3\n      mstore\n      returndatasize\n      0x00\n      0x20\n      dup5\n      add\n      returndatacopy\n      jump(tag_538)\n    tag_539:\n      0x60\n      swap2\n      pop\n    tag_538:\n      pop\n        /* \"erc721a/contracts/ERC721A.sol\":20001:20014  reason.length */\n      dup1\n      mload\n        /* \"erc721a/contracts/ERC721A.sol\":19997:20226  if (reason.length == 0) {... */\n      tag_540\n      jumpi\n        /* \"erc721a/contracts/ERC721A.sol\":20046:20086  TransferToNonERC721ReceiverImplementer() */\n      mload(0x40)\n      shl(0xe1, 0x68d2bf6b)\n      dup2\n      mstore\n      0x04\n      add\n      mload(0x40)\n      dup1\n      swap2\n      sub\n      swap1\n      revert\n        /* \"erc721a/contracts/ERC721A.sol\":19997:20226  if (reason.length == 0) {... */\n    tag_540:\n        /* \"erc721a/contracts/ERC721A.sol\":20186:20192  reason */\n      dup1\n        /* \"erc721a/contracts/ERC721A.sol\":20180:20193  mload(reason) */\n      mload\n        /* \"erc721a/contracts/ERC721A.sol\":20171:20177  reason */\n      dup2\n        /* \"erc721a/contracts/ERC721A.sol\":20167:20169  32 */\n      0x20\n        /* \"erc721a/contracts/ERC721A.sol\":20163:20178  add(32, reason) */\n      add\n        /* \"erc721a/contracts/ERC721A.sol\":20156:20194  revert(add(32, reason), mload(reason)) */\n      revert\n        /* \"erc721a/contracts/ERC721A.sol\":19766:20236  try IERC721Receiver(to).onERC721Received(_msgSender(), from, tokenId, _data) returns (bytes4 retval) {... */\n    tag_534:\n      not(sub(shl(0xe0, 0x01), 0x01))\n        /* \"erc721a/contracts/ERC721A.sol\":19888:19943  retval == IERC721Receiver(to).onERC721Received.selector */\n      and\n      shl(0xe1, 0x0a85bd01)\n      eq\n      swap1\n      pop\n        /* \"erc721a/contracts/ERC721A.sol\":19766:20236  try IERC721Receiver(to).onERC721Received(_msgSender(), from, tokenId, _data) returns (bytes4 retval) {... */\n    tag_542:\n        /* \"erc721a/contracts/ERC721A.sol\":19592:20242  function _checkContractOnERC721Received(... */\n      swap5\n      swap4\n      pop\n      pop\n      pop\n      pop\n      jump\t// out\n        /* \"@openzeppelin/contracts/utils/Strings.sol\":328:1031  function toString(uint256 value) internal pure returns (string memory) {... */\n    tag_460:\n        /* \"@openzeppelin/contracts/utils/Strings.sol\":384:397  string memory */\n      0x60\n        /* \"@openzeppelin/contracts/utils/Strings.sol\":601:611  value == 0 */\n      dup2\n        /* \"@openzeppelin/contracts/utils/Strings.sol\":597:648  if (value == 0) {... */\n      tag_544\n      jumpi\n      pop\n      pop\n        /* \"@openzeppelin/contracts/utils/Strings.sol\":627:637  return \"0\" */\n      0x40\n      dup1\n      mload\n      dup1\n      dup3\n      add\n      swap1\n      swap2\n      mstore\n      0x01\n      dup2\n      mstore\n      shl(0xfc, 0x03)\n      0x20\n      dup3\n      add\n      mstore\n      swap1\n        /* \"@openzeppelin/contracts/utils/Strings.sol\":328:1031  function toString(uint256 value) internal pure returns (string memory) {... */\n      jump\t// out\n        /* \"@openzeppelin/contracts/utils/Strings.sol\":597:648  if (value == 0) {... */\n    tag_544:\n        /* \"@openzeppelin/contracts/utils/Strings.sol\":672:677  value */\n      dup2\n        /* \"@openzeppelin/contracts/utils/Strings.sol\":657:669  uint256 temp */\n      0x00\n        /* \"@openzeppelin/contracts/utils/Strings.sol\":711:786  while (temp != 0) {... */\n    tag_545:\n        /* \"@openzeppelin/contracts/utils/Strings.sol\":718:727  temp != 0 */\n      dup2\n      iszero\n        /* \"@openzeppelin/contracts/utils/Strings.sol\":711:786  while (temp != 0) {... */\n      tag_546\n      jumpi\n        /* \"@openzeppelin/contracts/utils/Strings.sol\":743:751  digits++ */\n      dup1\n      tag_547\n      dup2\n      tag_371\n      jump\t// in\n    tag_547:\n      swap2\n      pop\n        /* \"@openzeppelin/contracts/utils/Strings.sol\":765:775  temp /= 10 */\n      tag_548\n      swap1\n      pop\n        /* \"@openzeppelin/contracts/utils/Strings.sol\":773:775  10 */\n      0x0a\n        /* \"@openzeppelin/contracts/utils/Strings.sol\":765:775  temp /= 10 */\n      dup4\n      tag_323\n      jump\t// in\n    tag_548:\n      swap2\n      pop\n        /* \"@openzeppelin/contracts/utils/Strings.sol\":711:786  while (temp != 0) {... */\n      jump(tag_545)\n    tag_546:\n        /* \"@openzeppelin/contracts/utils/Strings.sol\":795:814  bytes memory buffer */\n      0x00\n        /* \"@openzeppelin/contracts/utils/Strings.sol\":827:833  digits */\n      dup2\n      sub(shl(0x40, 0x01), 0x01)\n        /* \"@openzeppelin/contracts/utils/Strings.sol\":817:834  new bytes(digits) */\n      dup2\n      gt\n      iszero\n      tag_550\n      jumpi\n      tag_550\n      tag_365\n      jump\t// in\n    tag_550:\n      mload(0x40)\n      swap1\n      dup1\n      dup3\n      mstore\n      dup1\n      0x1f\n      add\n      not(0x1f)\n      and\n      0x20\n      add\n      dup3\n      add\n      0x40\n      mstore\n      dup1\n      iszero\n      tag_551\n      jumpi\n      0x20\n      dup3\n      add\n      dup2\n      dup1\n      calldatasize\n      dup4\n      calldatacopy\n      add\n      swap1\n      pop\n    tag_551:\n      pop\n        /* \"@openzeppelin/contracts/utils/Strings.sol\":795:834  bytes memory buffer = new bytes(digits) */\n      swap1\n      pop\n        /* \"@openzeppelin/contracts/utils/Strings.sol\":844:994  while (value != 0) {... */\n    tag_552:\n        /* \"@openzeppelin/contracts/utils/Strings.sol\":851:861  value != 0 */\n      dup5\n      iszero\n        /* \"@openzeppelin/contracts/utils/Strings.sol\":844:994  while (value != 0) {... */\n      tag_542\n      jumpi\n        /* \"@openzeppelin/contracts/utils/Strings.sol\":877:888  digits -= 1 */\n      tag_554\n        /* \"@openzeppelin/contracts/utils/Strings.sol\":887:888  1 */\n      0x01\n        /* \"@openzeppelin/contracts/utils/Strings.sol\":877:888  digits -= 1 */\n      dup4\n      tag_555\n      jump\t// in\n    tag_554:\n      swap2\n      pop\n        /* \"@openzeppelin/contracts/utils/Strings.sol\":945:955  value % 10 */\n      tag_556\n        /* \"@openzeppelin/contracts/utils/Strings.sol\":953:955  10 */\n      0x0a\n        /* \"@openzeppelin/contracts/utils/Strings.sol\":945:950  value */\n      dup7\n        /* \"@openzeppelin/contracts/utils/Strings.sol\":945:955  value % 10 */\n      tag_557\n      jump\t// in\n    tag_556:\n        /* \"@openzeppelin/contracts/utils/Strings.sol\":932:956  48 + uint256(value % 10) */\n      tag_558\n      swap1\n        /* \"@openzeppelin/contracts/utils/Strings.sol\":932:934  48 */\n      0x30\n        /* \"@openzeppelin/contracts/utils/Strings.sol\":932:956  48 + uint256(value % 10) */\n      tag_292\n      jump\t// in\n    tag_558:\n        /* \"@openzeppelin/contracts/utils/Strings.sol\":919:958  bytes1(uint8(48 + uint256(value % 10))) */\n      0xf8\n      shl\n        /* \"@openzeppelin/contracts/utils/Strings.sol\":902:908  buffer */\n      dup2\n        /* \"@openzeppelin/contracts/utils/Strings.sol\":909:915  digits */\n      dup4\n        /* \"@openzeppelin/contracts/utils/Strings.sol\":902:916  buffer[digits] */\n      dup2\n      mload\n      dup2\n      lt\n      tag_560\n      jumpi\n      tag_560\n      tag_561\n      jump\t// in\n    tag_560:\n      0x20\n      add\n      add\n        /* \"@openzeppelin/contracts/utils/Strings.sol\":902:958  buffer[digits] = bytes1(uint8(48 + uint256(value % 10))) */\n      swap1\n      not(sub(shl(0xf8, 0x01), 0x01))\n      and\n      swap1\n      dup2\n      0x00\n      byte\n      swap1\n      mstore8\n      pop\n        /* \"@openzeppelin/contracts/utils/Strings.sol\":972:983  value /= 10 */\n      tag_562\n        /* \"@openzeppelin/contracts/utils/Strings.sol\":981:983  10 */\n      0x0a\n        /* \"@openzeppelin/contracts/utils/Strings.sol\":972:983  value /= 10 */\n      dup7\n      tag_323\n      jump\t// in\n    tag_562:\n      swap5\n      pop\n        /* \"@openzeppelin/contracts/utils/Strings.sol\":844:994  while (value != 0) {... */\n      jump(tag_552)\n        /* \"@openzeppelin/contracts/utils/cryptography/MerkleProof.sol\":1398:2060  function processProof(bytes32[] memory proof, bytes32 leaf) internal pure returns (bytes32) {... */\n    tag_509:\n        /* \"@openzeppelin/contracts/utils/cryptography/MerkleProof.sol\":1481:1488  bytes32 */\n      0x00\n        /* \"@openzeppelin/contracts/utils/cryptography/MerkleProof.sol\":1523:1527  leaf */\n      dup2\n        /* \"@openzeppelin/contracts/utils/cryptography/MerkleProof.sol\":1481:1488  bytes32 */\n      dup2\n        /* \"@openzeppelin/contracts/utils/cryptography/MerkleProof.sol\":1537:2025  for (uint256 i = 0; i < proof.length; i++) {... */\n    tag_566:\n        /* \"@openzeppelin/contracts/utils/cryptography/MerkleProof.sol\":1561:1566  proof */\n      dup5\n        /* \"@openzeppelin/contracts/utils/cryptography/MerkleProof.sol\":1561:1573  proof.length */\n      mload\n        /* \"@openzeppelin/contracts/utils/cryptography/MerkleProof.sol\":1557:1558  i */\n      dup2\n        /* \"@openzeppelin/contracts/utils/cryptography/MerkleProof.sol\":1557:1573  i < proof.length */\n      lt\n        /* \"@openzeppelin/contracts/utils/cryptography/MerkleProof.sol\":1537:2025  for (uint256 i = 0; i < proof.length; i++) {... */\n      iszero\n      tag_368\n      jumpi\n        /* \"@openzeppelin/contracts/utils/cryptography/MerkleProof.sol\":1594:1614  bytes32 proofElement */\n      0x00\n        /* \"@openzeppelin/contracts/utils/cryptography/MerkleProof.sol\":1617:1622  proof */\n      dup6\n        /* \"@openzeppelin/contracts/utils/cryptography/MerkleProof.sol\":1623:1624  i */\n      dup3\n        /* \"@openzeppelin/contracts/utils/cryptography/MerkleProof.sol\":1617:1625  proof[i] */\n      dup2\n      mload\n      dup2\n      lt\n      tag_570\n      jumpi\n      tag_570\n      tag_561\n      jump\t// in\n    tag_570:\n      0x20\n      mul\n      0x20\n      add\n      add\n      mload\n        /* \"@openzeppelin/contracts/utils/cryptography/MerkleProof.sol\":1594:1625  bytes32 proofElement = proof[i] */\n      swap1\n      pop\n        /* \"@openzeppelin/contracts/utils/cryptography/MerkleProof.sol\":1659:1671  proofElement */\n      dup1\n        /* \"@openzeppelin/contracts/utils/cryptography/MerkleProof.sol\":1643:1655  computedHash */\n      dup4\n        /* \"@openzeppelin/contracts/utils/cryptography/MerkleProof.sol\":1643:1671  computedHash <= proofElement */\n      gt\n        /* \"@openzeppelin/contracts/utils/cryptography/MerkleProof.sol\":1639:2015  if (computedHash <= proofElement) {... */\n      tag_571\n      jumpi\n        /* \"@openzeppelin/contracts/utils/cryptography/MerkleProof.sol\":2134:2147  bytes32 value */\n      0x00\n        /* \"@openzeppelin/contracts/utils/cryptography/MerkleProof.sol\":2182:2197  mstore(0x00, a) */\n      dup4\n      dup2\n      mstore\n        /* \"@openzeppelin/contracts/utils/cryptography/MerkleProof.sol\":2217:2221  0x20 */\n      0x20\n        /* \"@openzeppelin/contracts/utils/cryptography/MerkleProof.sol\":2210:2225  mstore(0x20, b) */\n      dup3\n      swap1\n      mstore\n        /* \"@openzeppelin/contracts/utils/cryptography/MerkleProof.sol\":2263:2267  0x40 */\n      0x40\n        /* \"@openzeppelin/contracts/utils/cryptography/MerkleProof.sol\":2247:2268  keccak256(0x00, 0x40) */\n      swap1\n      keccak256\n        /* \"@openzeppelin/contracts/utils/cryptography/MerkleProof.sol\":1769:1826  computedHash = _efficientHash(computedHash, proofElement) */\n      swap3\n      pop\n        /* \"@openzeppelin/contracts/utils/cryptography/MerkleProof.sol\":1639:2015  if (computedHash <= proofElement) {... */\n      jump(tag_574)\n    tag_571:\n        /* \"@openzeppelin/contracts/utils/cryptography/MerkleProof.sol\":2134:2147  bytes32 value */\n      0x00\n        /* \"@openzeppelin/contracts/utils/cryptography/MerkleProof.sol\":2182:2197  mstore(0x00, a) */\n      dup2\n      dup2\n      mstore\n        /* \"@openzeppelin/contracts/utils/cryptography/MerkleProof.sol\":2217:2221  0x20 */\n      0x20\n        /* \"@openzeppelin/contracts/utils/cryptography/MerkleProof.sol\":2210:2225  mstore(0x20, b) */\n      dup5\n      swap1\n      mstore\n        /* \"@openzeppelin/contracts/utils/cryptography/MerkleProof.sol\":2263:2267  0x40 */\n      0x40\n        /* \"@openzeppelin/contracts/utils/cryptography/MerkleProof.sol\":2247:2268  keccak256(0x00, 0x40) */\n      swap1\n      keccak256\n        /* \"@openzeppelin/contracts/utils/cryptography/MerkleProof.sol\":1943:2000  computedHash = _efficientHash(proofElement, computedHash) */\n      swap3\n      pop\n        /* \"@openzeppelin/contracts/utils/cryptography/MerkleProof.sol\":1639:2015  if (computedHash <= proofElement) {... */\n    tag_574:\n      pop\n        /* \"@openzeppelin/contracts/utils/cryptography/MerkleProof.sol\":1575:1578  i++ */\n      dup1\n      tag_576\n      dup2\n      tag_371\n      jump\t// in\n    tag_576:\n      swap2\n      pop\n      pop\n        /* \"@openzeppelin/contracts/utils/cryptography/MerkleProof.sol\":1537:2025  for (uint256 i = 0; i < proof.length; i++) {... */\n      jump(tag_566)\n        /* \"erc721a/contracts/ERC721A.sol\":12149:12306  function _safeMint(... */\n    tag_512:\n        /* \"erc721a/contracts/ERC721A.sol\":12267:12299  _mint(to, quantity, _data, true) */\n      tag_274\n        /* \"erc721a/contracts/ERC721A.sol\":12273:12275  to */\n      dup4\n        /* \"erc721a/contracts/ERC721A.sol\":12277:12285  quantity */\n      dup4\n        /* \"erc721a/contracts/ERC721A.sol\":12287:12292  _data */\n      dup4\n        /* \"erc721a/contracts/ERC721A.sol\":12294:12298  true */\n      0x01\n        /* \"erc721a/contracts/ERC721A.sol\":12686:12706  uint256 startTokenId */\n      0x00\n        /* \"erc721a/contracts/ERC721A.sol\":12709:12722  _currentIndex */\n      sload\n      sub(shl(0xa0, 0x01), 0x01)\n        /* \"erc721a/contracts/ERC721A.sol\":12736:12752  to == address(0) */\n      dup6\n      and\n        /* \"erc721a/contracts/ERC721A.sol\":12732:12780  if (to == address(0)) revert MintToZeroAddress() */\n      tag_582\n      jumpi\n        /* \"erc721a/contracts/ERC721A.sol\":12761:12780  MintToZeroAddress() */\n      mload(0x40)\n      shl(0xe8, 0x2e0763)\n      dup2\n      mstore\n      0x04\n      add\n      mload(0x40)\n      dup1\n      swap2\n      sub\n      swap1\n      revert\n        /* \"erc721a/contracts/ERC721A.sol\":12732:12780  if (to == address(0)) revert MintToZeroAddress() */\n    tag_582:\n        /* \"erc721a/contracts/ERC721A.sol\":12794:12807  quantity == 0 */\n      dup4\n        /* \"erc721a/contracts/ERC721A.sol\":12790:12834  if (quantity == 0) revert MintZeroQuantity() */\n      tag_583\n      jumpi\n        /* \"erc721a/contracts/ERC721A.sol\":12816:12834  MintZeroQuantity() */\n      mload(0x40)\n      shl(0xe0, 0xb562e8dd)\n      dup2\n      mstore\n      0x04\n      add\n      mload(0x40)\n      dup1\n      swap2\n      sub\n      swap1\n      revert\n        /* \"erc721a/contracts/ERC721A.sol\":12790:12834  if (quantity == 0) revert MintZeroQuantity() */\n    tag_583:\n      sub(shl(0xa0, 0x01), 0x01)\n        /* \"erc721a/contracts/ERC721A.sol\":13177:13193  _addressData[to] */\n      dup6\n      and\n      0x00\n      dup2\n      dup2\n      mstore\n        /* \"erc721a/contracts/ERC721A.sol\":13177:13189  _addressData */\n      0x05\n        /* \"erc721a/contracts/ERC721A.sol\":13177:13193  _addressData[to] */\n      0x20\n      swap1\n      dup2\n      mstore\n      0x40\n      dup1\n      dup4\n      keccak256\n        /* \"erc721a/contracts/ERC721A.sol\":13177:13221  _addressData[to].balance += uint64(quantity) */\n      dup1\n      sload\n      not(0xffffffffffffffffffffffffffffffff)\n        /* \"erc721a/contracts/ERC721A.sol\":13235:13284  _addressData[to].numberMinted += uint64(quantity) */\n      dup2\n      and\n      sub(shl(0x40, 0x01), 0x01)\n        /* \"erc721a/contracts/ERC721A.sol\":13177:13221  _addressData[to].balance += uint64(quantity) */\n      dup1\n      dup4\n      and\n      dup13\n      add\n      dup2\n      and\n        /* \"erc721a/contracts/ERC721A.sol\":13235:13284  _addressData[to].numberMinted += uint64(quantity) */\n      swap2\n      dup3\n      or\n      0x010000000000000000\n      not(0xffffffffffffffff)\n        /* \"erc721a/contracts/ERC721A.sol\":13177:13221  _addressData[to].balance += uint64(quantity) */\n      swap1\n      swap5\n      and\n      swap1\n      swap3\n      or\n        /* \"erc721a/contracts/ERC721A.sol\":13235:13284  _addressData[to].numberMinted += uint64(quantity) */\n      dup4\n      swap1\n      div\n      dup2\n      and\n      dup13\n      add\n      dup2\n      and\n      swap1\n      swap3\n      mul\n      or\n      swap1\n      swap2\n      sstore\n        /* \"erc721a/contracts/ERC721A.sol\":13299:13324  _ownerships[startTokenId] */\n      dup6\n      dup5\n      mstore\n        /* \"erc721a/contracts/ERC721A.sol\":13299:13310  _ownerships */\n      0x04\n        /* \"erc721a/contracts/ERC721A.sol\":13299:13324  _ownerships[startTokenId] */\n      swap1\n      swap3\n      mstore\n      swap1\n      swap2\n      keccak256\n        /* \"erc721a/contracts/ERC721A.sol\":13299:13334  _ownerships[startTokenId].addr = to */\n      dup1\n      sload\n      not(sub(shl(0xe0, 0x01), 0x01))\n        /* \"erc721a/contracts/ERC721A.sol\":13348:13414  _ownerships[startTokenId].startTimestamp = uint64(block.timestamp) */\n      and\n      swap1\n      swap3\n      or\n      shl(0xa0, 0x01)\n        /* \"erc721a/contracts/ERC721A.sol\":13398:13413  block.timestamp */\n      timestamp\n        /* \"erc721a/contracts/ERC721A.sol\":13348:13414  _ownerships[startTokenId].startTimestamp = uint64(block.timestamp) */\n      swap1\n      swap3\n      and\n      swap2\n      swap1\n      swap2\n      mul\n      or\n      swap1\n      sstore\n        /* \"erc721a/contracts/ERC721A.sol\":13299:13324  _ownerships[startTokenId] */\n      dup1\n        /* \"erc721a/contracts/ERC721A.sol\":13492:13515  updatedIndex + quantity */\n      dup1\n      dup6\n      add\n        /* \"erc721a/contracts/ERC721A.sol\":13534:13538  safe */\n      dup4\n        /* \"erc721a/contracts/ERC721A.sol\":13534:13557  safe && to.isContract() */\n      dup1\n      iszero\n      tag_586\n      jumpi\n      pop\n      sub(shl(0xa0, 0x01), 0x01)\n        /* \"erc721a/contracts/ERC721A.sol\":13542:13555  to.isContract */\n      dup8\n      and\n        /* \"@openzeppelin/contracts/utils/Address.sol\":1465:1484  account.code.length */\n      extcodesize\n        /* \"@openzeppelin/contracts/utils/Address.sol\":1465:1488  account.code.length > 0 */\n      iszero\n      iszero\n        /* \"erc721a/contracts/ERC721A.sol\":13542:13557  to.isContract() */\n    tag_586:\n        /* \"erc721a/contracts/ERC721A.sol\":13530:14158  if (safe && to.isContract()) {... */\n      iszero\n      tag_587\n      jumpi\n        /* \"erc721a/contracts/ERC721A.sol\":13577:13886  do {... */\n    tag_588:\n        /* \"erc721a/contracts/ERC721A.sol\":13607:13645  Transfer(address(0), to, updatedIndex) */\n      mload(0x40)\n        /* \"erc721a/contracts/ERC721A.sol\":13632:13644  updatedIndex */\n      dup3\n      swap1\n      sub(shl(0xa0, 0x01), 0x01)\n        /* \"erc721a/contracts/ERC721A.sol\":13607:13645  Transfer(address(0), to, updatedIndex) */\n      dup10\n      and\n      swap1\n        /* \"erc721a/contracts/ERC721A.sol\":13624:13625  0 */\n      0x00\n      swap1\n        /* \"erc721a/contracts/ERC721A.sol\":13607:13645  Transfer(address(0), to, updatedIndex) */\n      0xddf252ad1be2c89b69c2b068fc378daa952ba7f163c4a11628f55a4df523b3ef\n      swap1\n        /* \"erc721a/contracts/ERC721A.sol\":13624:13625  0 */\n      dup3\n      swap1\n        /* \"erc721a/contracts/ERC721A.sol\":13607:13645  Transfer(address(0), to, updatedIndex) */\n      log4\n        /* \"erc721a/contracts/ERC721A.sol\":13672:13741  _checkContractOnERC721Received(address(0), to, updatedIndex++, _data) */\n      tag_591\n        /* \"erc721a/contracts/ERC721A.sol\":13711:13712  0 */\n      0x00\n        /* \"erc721a/contracts/ERC721A.sol\":13715:13717  to */\n      dup9\n        /* \"erc721a/contracts/ERC721A.sol\":13719:13733  updatedIndex++ */\n      dup5\n      dup1\n      0x01\n      add\n      swap6\n      pop\n        /* \"erc721a/contracts/ERC721A.sol\":13735:13740  _data */\n      dup9\n        /* \"erc721a/contracts/ERC721A.sol\":13672:13702  _checkContractOnERC721Received */\n      tag_426\n        /* \"erc721a/contracts/ERC721A.sol\":13672:13741  _checkContractOnERC721Received(address(0), to, updatedIndex++, _data) */\n      jump\t// in\n    tag_591:\n        /* \"erc721a/contracts/ERC721A.sol\":13667:13839  if (!_checkContractOnERC721Received(address(0), to, updatedIndex++, _data)) {... */\n      tag_592\n      jumpi\n        /* \"erc721a/contracts/ERC721A.sol\":13776:13816  TransferToNonERC721ReceiverImplementer() */\n      mload(0x40)\n      shl(0xe1, 0x68d2bf6b)\n      dup2\n      mstore\n      0x04\n      add\n      mload(0x40)\n      dup1\n      swap2\n      sub\n      swap1\n      revert\n        /* \"erc721a/contracts/ERC721A.sol\":13667:13839  if (!_checkContractOnERC721Received(address(0), to, updatedIndex++, _data)) {... */\n    tag_592:\n        /* \"erc721a/contracts/ERC721A.sol\":13881:13884  end */\n      dup1\n        /* \"erc721a/contracts/ERC721A.sol\":13865:13877  updatedIndex */\n      dup3\n        /* \"erc721a/contracts/ERC721A.sol\":13865:13884  updatedIndex != end */\n      eq\n      iszero\n        /* \"erc721a/contracts/ERC721A.sol\":13577:13886  do {... */\n      tag_588\n      jumpi\n        /* \"erc721a/contracts/ERC721A.sol\":13965:13977  startTokenId */\n      dup3\n        /* \"erc721a/contracts/ERC721A.sol\":13948:13961  _currentIndex */\n      sload(0x00)\n        /* \"erc721a/contracts/ERC721A.sol\":13948:13977  _currentIndex != startTokenId */\n      eq\n        /* \"erc721a/contracts/ERC721A.sol\":13944:13987  if (_currentIndex != startTokenId) revert() */\n      tag_593\n      jumpi\n        /* \"erc721a/contracts/ERC721A.sol\":13979:13987  revert() */\n      0x00\n      dup1\n      revert\n        /* \"erc721a/contracts/ERC721A.sol\":13944:13987  if (_currentIndex != startTokenId) revert() */\n    tag_593:\n        /* \"erc721a/contracts/ERC721A.sol\":13530:14158  if (safe && to.isContract()) {... */\n      jump(tag_594)\n    tag_587:\n        /* \"erc721a/contracts/ERC721A.sol\":14026:14144  do {... */\n    tag_595:\n        /* \"erc721a/contracts/ERC721A.sol\":14056:14096  Transfer(address(0), to, updatedIndex++) */\n      mload(0x40)\n        /* \"erc721a/contracts/ERC721A.sol\":14081:14095  updatedIndex++ */\n      0x01\n      dup4\n      add\n      swap3\n      swap1\n      sub(shl(0xa0, 0x01), 0x01)\n        /* \"erc721a/contracts/ERC721A.sol\":14056:14096  Transfer(address(0), to, updatedIndex++) */\n      dup10\n      and\n      swap1\n        /* \"erc721a/contracts/ERC721A.sol\":14073:14074  0 */\n      0x00\n      swap1\n        /* \"erc721a/contracts/ERC721A.sol\":14056:14096  Transfer(address(0), to, updatedIndex++) */\n      0xddf252ad1be2c89b69c2b068fc378daa952ba7f163c4a11628f55a4df523b3ef\n      swap1\n        /* \"erc721a/contracts/ERC721A.sol\":14073:14074  0 */\n      dup3\n      swap1\n        /* \"erc721a/contracts/ERC721A.sol\":14056:14096  Transfer(address(0), to, updatedIndex++) */\n      log4\n        /* \"erc721a/contracts/ERC721A.sol\":14139:14142  end */\n      dup1\n        /* \"erc721a/contracts/ERC721A.sol\":14123:14135  updatedIndex */\n      dup3\n        /* \"erc721a/contracts/ERC721A.sol\":14123:14142  updatedIndex != end */\n      eq\n      iszero\n        /* \"erc721a/contracts/ERC721A.sol\":14026:14144  do {... */\n      tag_595\n      jumpi\n        /* \"erc721a/contracts/ERC721A.sol\":13530:14158  if (safe && to.isContract()) {... */\n    tag_594:\n      pop\n        /* \"erc721a/contracts/ERC721A.sol\":14171:14184  _currentIndex */\n      0x00\n        /* \"erc721a/contracts/ERC721A.sol\":14171:14199  _currentIndex = updatedIndex */\n      sstore\n        /* \"erc721a/contracts/ERC721A.sol\":14219:14279  _afterTokenTransfers(address(0), to, startTokenId, quantity) */\n      tag_505\n        /* \"erc721a/contracts/ERC721A.sol\":10901:11260  function safeTransferFrom(... */\n      jump\n    tag_254:\n      dup3\n      dup1\n      sload\n      tag_599\n      swap1\n      tag_257\n      jump\t// in\n    tag_599:\n      swap1\n      0x00\n      mstore\n      keccak256(0x00, 0x20)\n      swap1\n      0x1f\n      add\n      0x20\n      swap1\n      div\n      dup2\n      add\n      swap3\n      dup3\n      tag_601\n      jumpi\n      0x00\n      dup6\n      sstore\n      jump(tag_604)\n    tag_601:\n      dup3\n      0x1f\n      lt\n      tag_602\n      jumpi\n      dup1\n      mload\n      not(0xff)\n      and\n      dup4\n      dup1\n      add\n      or\n      dup6\n      sstore\n      jump(tag_604)\n    tag_602:\n      dup3\n      dup1\n      add\n      0x01\n      add\n      dup6\n      sstore\n      dup3\n      iszero\n      tag_604\n      jumpi\n      swap2\n      dup3\n      add\n    tag_603:\n      dup3\n      dup2\n      gt\n      iszero\n      tag_604\n      jumpi\n      dup3\n      mload\n      dup3\n      sstore\n      swap2\n      0x20\n      add\n      swap2\n      swap1\n      0x01\n      add\n      swap1\n      jump(tag_603)\n    tag_604:\n      pop\n      tag_605\n      swap3\n      swap2\n      pop\n      tag_606\n      jump\t// in\n    tag_605:\n      pop\n      swap1\n      jump\t// out\n    tag_606:\n    tag_607:\n      dup1\n      dup3\n      gt\n      iszero\n      tag_605\n      jumpi\n      0x00\n      dup2\n      sstore\n      0x01\n      add\n      jump(tag_607)\n        /* \"#utility.yul\":14:145   */\n    tag_609:\n      not(sub(shl(0xe0, 0x01), 0x01))\n        /* \"#utility.yul\":88:120   */\n      dup2\n      and\n        /* \"#utility.yul\":78:121   */\n      dup2\n      eq\n        /* \"#utility.yul\":68:139   */\n      tag_406\n      jumpi\n        /* \"#utility.yul\":135:136   */\n      0x00\n        /* \"#utility.yul\":132:133   */\n      dup1\n        /* \"#utility.yul\":125:137   */\n      revert\n        /* \"#utility.yul\":150:395   */\n    tag_55:\n        /* \"#utility.yul\":208:214   */\n      0x00\n        /* \"#utility.yul\":261:263   */\n      0x20\n        /* \"#utility.yul\":249:258   */\n      dup3\n        /* \"#utility.yul\":240:247   */\n      dup5\n        /* \"#utility.yul\":236:259   */\n      sub\n        /* \"#utility.yul\":232:264   */\n      slt\n        /* \"#utility.yul\":229:281   */\n      iszero\n      tag_624\n      jumpi\n        /* \"#utility.yul\":277:278   */\n      0x00\n        /* \"#utility.yul\":274:275   */\n      dup1\n        /* \"#utility.yul\":267:279   */\n      revert\n        /* \"#utility.yul\":229:281   */\n    tag_624:\n        /* \"#utility.yul\":316:325   */\n      dup2\n        /* \"#utility.yul\":303:326   */\n      calldataload\n        /* \"#utility.yul\":335:365   */\n      tag_458\n        /* \"#utility.yul\":359:364   */\n      dup2\n        /* \"#utility.yul\":335:365   */\n      tag_609\n      jump\t// in\n        /* \"#utility.yul\":592:765   */\n    tag_610:\n        /* \"#utility.yul\":660:680   */\n      dup1\n      calldataload\n      sub(shl(0xa0, 0x01), 0x01)\n        /* \"#utility.yul\":709:740   */\n      dup2\n      and\n        /* \"#utility.yul\":699:741   */\n      dup2\n      eq\n        /* \"#utility.yul\":689:759   */\n      tag_628\n      jumpi\n        /* \"#utility.yul\":755:756   */\n      0x00\n        /* \"#utility.yul\":752:753   */\n      dup1\n        /* \"#utility.yul\":745:757   */\n      revert\n        /* \"#utility.yul\":689:759   */\n    tag_628:\n        /* \"#utility.yul\":592:765   */\n      swap2\n      swap1\n      pop\n      jump\t// out\n        /* \"#utility.yul\":770:956   */\n    tag_62:\n        /* \"#utility.yul\":829:835   */\n      0x00\n        /* \"#utility.yul\":882:884   */\n      0x20\n        /* \"#utility.yul\":870:879   */\n      dup3\n        /* \"#utility.yul\":861:868   */\n      dup5\n        /* \"#utility.yul\":857:880   */\n      sub\n        /* \"#utility.yul\":853:885   */\n      slt\n        /* \"#utility.yul\":850:902   */\n      iszero\n      tag_630\n      jumpi\n        /* \"#utility.yul\":898:899   */\n      0x00\n        /* \"#utility.yul\":895:896   */\n      dup1\n        /* \"#utility.yul\":888:900   */\n      revert\n        /* \"#utility.yul\":850:902   */\n    tag_630:\n        /* \"#utility.yul\":921:950   */\n      tag_458\n        /* \"#utility.yul\":940:949   */\n      dup3\n        /* \"#utility.yul\":921:950   */\n      tag_610\n      jump\t// in\n        /* \"#utility.yul\":1143:1270   */\n    tag_365:\n        /* \"#utility.yul\":1204:1214   */\n      0x4e487b71\n        /* \"#utility.yul\":1199:1202   */\n      0xe0\n        /* \"#utility.yul\":1195:1215   */\n      shl\n        /* \"#utility.yul\":1192:1193   */\n      0x00\n        /* \"#utility.yul\":1185:1216   */\n      mstore\n        /* \"#utility.yul\":1235:1239   */\n      0x41\n        /* \"#utility.yul\":1232:1233   */\n      0x04\n        /* \"#utility.yul\":1225:1240   */\n      mstore\n        /* \"#utility.yul\":1259:1263   */\n      0x24\n        /* \"#utility.yul\":1256:1257   */\n      0x00\n        /* \"#utility.yul\":1249:1264   */\n      revert\n        /* \"#utility.yul\":1275:1550   */\n    tag_611:\n        /* \"#utility.yul\":1346:1348   */\n      0x40\n        /* \"#utility.yul\":1340:1349   */\n      mload\n        /* \"#utility.yul\":1411:1413   */\n      0x1f\n        /* \"#utility.yul\":1392:1405   */\n      dup3\n      add\n      not(0x1f)\n        /* \"#utility.yul\":1388:1415   */\n      and\n        /* \"#utility.yul\":1376:1416   */\n      dup2\n      add\n      sub(shl(0x40, 0x01), 0x01)\n        /* \"#utility.yul\":1431:1465   */\n      dup2\n      gt\n        /* \"#utility.yul\":1467:1489   */\n      dup3\n      dup3\n      lt\n        /* \"#utility.yul\":1428:1490   */\n      or\n        /* \"#utility.yul\":1425:1513   */\n      iszero\n      tag_636\n      jumpi\n        /* \"#utility.yul\":1493:1511   */\n      tag_636\n      tag_365\n      jump\t// in\n    tag_636:\n        /* \"#utility.yul\":1529:1531   */\n      0x40\n        /* \"#utility.yul\":1522:1544   */\n      mstore\n        /* \"#utility.yul\":1275:1550   */\n      swap2\n      swap1\n      pop\n      jump\t// out\n        /* \"#utility.yul\":1555:1962   */\n    tag_612:\n        /* \"#utility.yul\":1620:1625   */\n      0x00\n      sub(shl(0x40, 0x01), 0x01)\n        /* \"#utility.yul\":1646:1652   */\n      dup4\n        /* \"#utility.yul\":1643:1673   */\n      gt\n        /* \"#utility.yul\":1640:1696   */\n      iszero\n      tag_639\n      jumpi\n        /* \"#utility.yul\":1676:1694   */\n      tag_639\n      tag_365\n      jump\t// in\n    tag_639:\n        /* \"#utility.yul\":1714:1771   */\n      tag_640\n        /* \"#utility.yul\":1759:1761   */\n      0x1f\n        /* \"#utility.yul\":1738:1753   */\n      dup5\n      add\n      not(0x1f)\n        /* \"#utility.yul\":1734:1763   */\n      and\n        /* \"#utility.yul\":1765:1769   */\n      0x20\n        /* \"#utility.yul\":1730:1770   */\n      add\n        /* \"#utility.yul\":1714:1771   */\n      tag_611\n      jump\t// in\n    tag_640:\n        /* \"#utility.yul\":1705:1771   */\n      swap1\n      pop\n        /* \"#utility.yul\":1794:1800   */\n      dup3\n        /* \"#utility.yul\":1787:1792   */\n      dup2\n        /* \"#utility.yul\":1780:1801   */\n      mstore\n        /* \"#utility.yul\":1834:1837   */\n      dup4\n        /* \"#utility.yul\":1825:1831   */\n      dup4\n        /* \"#utility.yul\":1820:1823   */\n      dup4\n        /* \"#utility.yul\":1816:1832   */\n      add\n        /* \"#utility.yul\":1813:1838   */\n      gt\n        /* \"#utility.yul\":1810:1855   */\n      iszero\n      tag_641\n      jumpi\n        /* \"#utility.yul\":1851:1852   */\n      0x00\n        /* \"#utility.yul\":1848:1849   */\n      dup1\n        /* \"#utility.yul\":1841:1853   */\n      revert\n        /* \"#utility.yul\":1810:1855   */\n    tag_641:\n        /* \"#utility.yul\":1900:1906   */\n      dup3\n        /* \"#utility.yul\":1895:1898   */\n      dup3\n        /* \"#utility.yul\":1888:1892   */\n      0x20\n        /* \"#utility.yul\":1881:1886   */\n      dup4\n        /* \"#utility.yul\":1877:1893   */\n      add\n        /* \"#utility.yul\":1864:1907   */\n      calldatacopy\n        /* \"#utility.yul\":1954:1955   */\n      0x00\n        /* \"#utility.yul\":1947:1951   */\n      0x20\n        /* \"#utility.yul\":1938:1944   */\n      dup5\n        /* \"#utility.yul\":1931:1936   */\n      dup4\n        /* \"#utility.yul\":1927:1945   */\n      add\n        /* \"#utility.yul\":1923:1952   */\n      add\n        /* \"#utility.yul\":1916:1956   */\n      mstore\n        /* \"#utility.yul\":1555:1962   */\n      swap4\n      swap3\n      pop\n      pop\n      pop\n      jump\t// out\n        /* \"#utility.yul\":1967:2418   */\n    tag_69:\n        /* \"#utility.yul\":2036:2042   */\n      0x00\n        /* \"#utility.yul\":2089:2091   */\n      0x20\n        /* \"#utility.yul\":2077:2086   */\n      dup3\n        /* \"#utility.yul\":2068:2075   */\n      dup5\n        /* \"#utility.yul\":2064:2087   */\n      sub\n        /* \"#utility.yul\":2060:2092   */\n      slt\n        /* \"#utility.yul\":2057:2109   */\n      iszero\n      tag_643\n      jumpi\n        /* \"#utility.yul\":2105:2106   */\n      0x00\n        /* \"#utility.yul\":2102:2103   */\n      dup1\n        /* \"#utility.yul\":2095:2107   */\n      revert\n        /* \"#utility.yul\":2057:2109   */\n    tag_643:\n        /* \"#utility.yul\":2145:2154   */\n      dup2\n        /* \"#utility.yul\":2132:2155   */\n      calldataload\n      sub(shl(0x40, 0x01), 0x01)\n        /* \"#utility.yul\":2170:2176   */\n      dup2\n        /* \"#utility.yul\":2167:2197   */\n      gt\n        /* \"#utility.yul\":2164:2214   */\n      iszero\n      tag_644\n      jumpi\n        /* \"#utility.yul\":2210:2211   */\n      0x00\n        /* \"#utility.yul\":2207:2208   */\n      dup1\n        /* \"#utility.yul\":2200:2212   */\n      revert\n        /* \"#utility.yul\":2164:2214   */\n    tag_644:\n        /* \"#utility.yul\":2233:2255   */\n      dup3\n      add\n        /* \"#utility.yul\":2286:2290   */\n      0x1f\n        /* \"#utility.yul\":2278:2291   */\n      dup2\n      add\n        /* \"#utility.yul\":2274:2301   */\n      dup5\n      sgt\n        /* \"#utility.yul\":2264:2319   */\n      tag_645\n      jumpi\n        /* \"#utility.yul\":2315:2316   */\n      0x00\n        /* \"#utility.yul\":2312:2313   */\n      dup1\n        /* \"#utility.yul\":2305:2317   */\n      revert\n        /* \"#utility.yul\":2264:2319   */\n    tag_645:\n        /* \"#utility.yul\":2338:2412   */\n      tag_542\n        /* \"#utility.yul\":2404:2411   */\n      dup5\n        /* \"#utility.yul\":2399:2401   */\n      dup3\n        /* \"#utility.yul\":2386:2402   */\n      calldataload\n        /* \"#utility.yul\":2381:2383   */\n      0x20\n        /* \"#utility.yul\":2377:2379   */\n      dup5\n        /* \"#utility.yul\":2373:2384   */\n      add\n        /* \"#utility.yul\":2338:2412   */\n      tag_612\n      jump\t// in\n        /* \"#utility.yul\":2423:2681   */\n    tag_613:\n        /* \"#utility.yul\":2495:2496   */\n      0x00\n        /* \"#utility.yul\":2505:2618   */\n    tag_648:\n        /* \"#utility.yul\":2519:2525   */\n      dup4\n        /* \"#utility.yul\":2516:2517   */\n      dup2\n        /* \"#utility.yul\":2513:2526   */\n      lt\n        /* \"#utility.yul\":2505:2618   */\n      iszero\n      tag_650\n      jumpi\n        /* \"#utility.yul\":2595:2606   */\n      dup2\n      dup2\n      add\n        /* \"#utility.yul\":2589:2607   */\n      mload\n        /* \"#utility.yul\":2576:2587   */\n      dup4\n      dup3\n      add\n        /* \"#utility.yul\":2569:2608   */\n      mstore\n        /* \"#utility.yul\":2541:2543   */\n      0x20\n        /* \"#utility.yul\":2534:2544   */\n      add\n        /* \"#utility.yul\":2505:2618   */\n      jump(tag_648)\n    tag_650:\n        /* \"#utility.yul\":2636:2642   */\n      dup4\n        /* \"#utility.yul\":2633:2634   */\n      dup2\n        /* \"#utility.yul\":2630:2643   */\n      gt\n        /* \"#utility.yul\":2627:2675   */\n      iszero\n      tag_427\n      jumpi\n      pop\n      pop\n        /* \"#utility.yul\":2671:2672   */\n      0x00\n        /* \"#utility.yul\":2653:2669   */\n      swap2\n      add\n        /* \"#utility.yul\":2646:2673   */\n      mstore\n        /* \"#utility.yul\":2423:2681   */\n      jump\t// out\n        /* \"#utility.yul\":2686:2955   */\n    tag_614:\n        /* \"#utility.yul\":2739:2742   */\n      0x00\n        /* \"#utility.yul\":2777:2782   */\n      dup2\n        /* \"#utility.yul\":2771:2783   */\n      mload\n        /* \"#utility.yul\":2804:2810   */\n      dup1\n        /* \"#utility.yul\":2799:2802   */\n      dup5\n        /* \"#utility.yul\":2792:2811   */\n      mstore\n        /* \"#utility.yul\":2820:2883   */\n      tag_653\n        /* \"#utility.yul\":2876:2882   */\n      dup2\n        /* \"#utility.yul\":2869:2873   */\n      0x20\n        /* \"#utility.yul\":2864:2867   */\n      dup7\n        /* \"#utility.yul\":2860:2874   */\n      add\n        /* \"#utility.yul\":2853:2857   */\n      0x20\n        /* \"#utility.yul\":2846:2851   */\n      dup7\n        /* \"#utility.yul\":2842:2858   */\n      add\n        /* \"#utility.yul\":2820:2883   */\n      tag_613\n      jump\t// in\n    tag_653:\n        /* \"#utility.yul\":2937:2939   */\n      0x1f\n        /* \"#utility.yul\":2916:2931   */\n      add\n      not(0x1f)\n        /* \"#utility.yul\":2912:2941   */\n      and\n        /* \"#utility.yul\":2903:2942   */\n      swap3\n      swap1\n      swap3\n      add\n        /* \"#utility.yul\":2944:2948   */\n      0x20\n        /* \"#utility.yul\":2899:2949   */\n      add\n      swap3\n        /* \"#utility.yul\":2686:2955   */\n      swap2\n      pop\n      pop\n      jump\t// out\n        /* \"#utility.yul\":2960:3191   */\n    tag_75:\n        /* \"#utility.yul\":3109:3111   */\n      0x20\n        /* \"#utility.yul\":3098:3107   */\n      dup2\n        /* \"#utility.yul\":3091:3112   */\n      mstore\n        /* \"#utility.yul\":3072:3076   */\n      0x00\n        /* \"#utility.yul\":3129:3185   */\n      tag_458\n        /* \"#utility.yul\":3181:3183   */\n      0x20\n        /* \"#utility.yul\":3170:3179   */\n      dup4\n        /* \"#utility.yul\":3166:3184   */\n      add\n        /* \"#utility.yul\":3158:3164   */\n      dup5\n        /* \"#utility.yul\":3129:3185   */\n      tag_614\n      jump\t// in\n        /* \"#utility.yul\":3196:3376   */\n    tag_83:\n        /* \"#utility.yul\":3255:3261   */\n      0x00\n        /* \"#utility.yul\":3308:3310   */\n      0x20\n        /* \"#utility.yul\":3296:3305   */\n      dup3\n        /* \"#utility.yul\":3287:3294   */\n      dup5\n        /* \"#utility.yul\":3283:3306   */\n      sub\n        /* \"#utility.yul\":3279:3311   */\n      slt\n        /* \"#utility.yul\":3276:3328   */\n      iszero\n      tag_657\n      jumpi\n        /* \"#utility.yul\":3324:3325   */\n      0x00\n        /* \"#utility.yul\":3321:3322   */\n      dup1\n        /* \"#utility.yul\":3314:3326   */\n      revert\n        /* \"#utility.yul\":3276:3328   */\n    tag_657:\n      pop\n        /* \"#utility.yul\":3347:3370   */\n      calldataload\n      swap2\n        /* \"#utility.yul\":3196:3376   */\n      swap1\n      pop\n      jump\t// out\n        /* \"#utility.yul\":3589:3843   */\n    tag_90:\n        /* \"#utility.yul\":3657:3663   */\n      0x00\n        /* \"#utility.yul\":3665:3671   */\n      dup1\n        /* \"#utility.yul\":3718:3720   */\n      0x40\n        /* \"#utility.yul\":3706:3715   */\n      dup4\n        /* \"#utility.yul\":3697:3704   */\n      dup6\n        /* \"#utility.yul\":3693:3716   */\n      sub\n        /* \"#utility.yul\":3689:3721   */\n      slt\n        /* \"#utility.yul\":3686:3738   */\n      iszero\n      tag_660\n      jumpi\n        /* \"#utility.yul\":3734:3735   */\n      0x00\n        /* \"#utility.yul\":3731:3732   */\n      dup1\n        /* \"#utility.yul\":3724:3736   */\n      revert\n        /* \"#utility.yul\":3686:3738   */\n    tag_660:\n        /* \"#utility.yul\":3757:3786   */\n      tag_661\n        /* \"#utility.yul\":3776:3785   */\n      dup4\n        /* \"#utility.yul\":3757:3786   */\n      tag_610\n      jump\t// in\n    tag_661:\n        /* \"#utility.yul\":3747:3786   */\n      swap5\n        /* \"#utility.yul\":3833:3835   */\n      0x20\n        /* \"#utility.yul\":3818:3836   */\n      swap4\n      swap1\n      swap4\n      add\n        /* \"#utility.yul\":3805:3837   */\n      calldataload\n      swap4\n      pop\n      pop\n      pop\n        /* \"#utility.yul\":3589:3843   */\n      jump\t// out\n        /* \"#utility.yul\":3848:4176   */\n    tag_104:\n        /* \"#utility.yul\":3925:3931   */\n      0x00\n        /* \"#utility.yul\":3933:3939   */\n      dup1\n        /* \"#utility.yul\":3941:3947   */\n      0x00\n        /* \"#utility.yul\":3994:3996   */\n      0x60\n        /* \"#utility.yul\":3982:3991   */\n      dup5\n        /* \"#utility.yul\":3973:3980   */\n      dup7\n        /* \"#utility.yul\":3969:3992   */\n      sub\n        /* \"#utility.yul\":3965:3997   */\n      slt\n        /* \"#utility.yul\":3962:4014   */\n      iszero\n      tag_663\n      jumpi\n        /* \"#utility.yul\":4010:4011   */\n      0x00\n        /* \"#utility.yul\":4007:4008   */\n      dup1\n        /* \"#utility.yul\":4000:4012   */\n      revert\n        /* \"#utility.yul\":3962:4014   */\n    tag_663:\n        /* \"#utility.yul\":4033:4062   */\n      tag_664\n        /* \"#utility.yul\":4052:4061   */\n      dup5\n        /* \"#utility.yul\":4033:4062   */\n      tag_610\n      jump\t// in\n    tag_664:\n        /* \"#utility.yul\":4023:4062   */\n      swap3\n      pop\n        /* \"#utility.yul\":4081:4119   */\n      tag_665\n        /* \"#utility.yul\":4115:4117   */\n      0x20\n        /* \"#utility.yul\":4104:4113   */\n      dup6\n        /* \"#utility.yul\":4100:4118   */\n      add\n        /* \"#utility.yul\":4081:4119   */\n      tag_610\n      jump\t// in\n    tag_665:\n        /* \"#utility.yul\":4071:4119   */\n      swap2\n      pop\n        /* \"#utility.yul\":4166:4168   */\n      0x40\n        /* \"#utility.yul\":4155:4164   */\n      dup5\n        /* \"#utility.yul\":4151:4169   */\n      add\n        /* \"#utility.yul\":4138:4170   */\n      calldataload\n        /* \"#utility.yul\":4128:4170   */\n      swap1\n      pop\n        /* \"#utility.yul\":3848:4176   */\n      swap3\n      pop\n      swap3\n      pop\n      swap3\n      jump\t// out\n        /* \"#utility.yul\":4181:5197   */\n    tag_108:\n        /* \"#utility.yul\":4274:4280   */\n      0x00\n        /* \"#utility.yul\":4282:4288   */\n      dup1\n        /* \"#utility.yul\":4335:4337   */\n      0x40\n        /* \"#utility.yul\":4323:4332   */\n      dup4\n        /* \"#utility.yul\":4314:4321   */\n      dup6\n        /* \"#utility.yul\":4310:4333   */\n      sub\n        /* \"#utility.yul\":4306:4338   */\n      slt\n        /* \"#utility.yul\":4303:4355   */\n      iszero\n      tag_667\n      jumpi\n        /* \"#utility.yul\":4351:4352   */\n      0x00\n        /* \"#utility.yul\":4348:4349   */\n      dup1\n        /* \"#utility.yul\":4341:4353   */\n      revert\n        /* \"#utility.yul\":4303:4355   */\n    tag_667:\n        /* \"#utility.yul\":4391:4400   */\n      dup3\n        /* \"#utility.yul\":4378:4401   */\n      calldataload\n      sub(shl(0x40, 0x01), 0x01)\n        /* \"#utility.yul\":4461:4463   */\n      dup1\n        /* \"#utility.yul\":4453:4459   */\n      dup3\n        /* \"#utility.yul\":4450:4464   */\n      gt\n        /* \"#utility.yul\":4447:4481   */\n      iszero\n      tag_668\n      jumpi\n        /* \"#utility.yul\":4477:4478   */\n      0x00\n        /* \"#utility.yul\":4474:4475   */\n      dup1\n        /* \"#utility.yul\":4467:4479   */\n      revert\n        /* \"#utility.yul\":4447:4481   */\n    tag_668:\n        /* \"#utility.yul\":4515:4521   */\n      dup2\n        /* \"#utility.yul\":4504:4513   */\n      dup6\n        /* \"#utility.yul\":4500:4522   */\n      add\n        /* \"#utility.yul\":4490:4522   */\n      swap2\n      pop\n        /* \"#utility.yul\":4560:4567   */\n      dup6\n        /* \"#utility.yul\":4553:4557   */\n      0x1f\n        /* \"#utility.yul\":4549:4551   */\n      dup4\n        /* \"#utility.yul\":4545:4558   */\n      add\n        /* \"#utility.yul\":4541:4568   */\n      slt\n        /* \"#utility.yul\":4531:4586   */\n      tag_669\n      jumpi\n        /* \"#utility.yul\":4582:4583   */\n      0x00\n        /* \"#utility.yul\":4579:4580   */\n      dup1\n        /* \"#utility.yul\":4572:4584   */\n      revert\n        /* \"#utility.yul\":4531:4586   */\n    tag_669:\n        /* \"#utility.yul\":4618:4620   */\n      dup2\n        /* \"#utility.yul\":4605:4621   */\n      calldataload\n        /* \"#utility.yul\":4640:4644   */\n      0x20\n        /* \"#utility.yul\":4663:4665   */\n      dup3\n        /* \"#utility.yul\":4659:4661   */\n      dup3\n        /* \"#utility.yul\":4656:4666   */\n      gt\n        /* \"#utility.yul\":4653:4689   */\n      iszero\n      tag_671\n      jumpi\n        /* \"#utility.yul\":4669:4687   */\n      tag_671\n      tag_365\n      jump\t// in\n    tag_671:\n        /* \"#utility.yul\":4715:4717   */\n      dup2\n        /* \"#utility.yul\":4712:4713   */\n      0x05\n        /* \"#utility.yul\":4708:4718   */\n      shl\n        /* \"#utility.yul\":4698:4718   */\n      swap3\n      pop\n        /* \"#utility.yul\":4738:4766   */\n      tag_672\n        /* \"#utility.yul\":4762:4764   */\n      dup2\n        /* \"#utility.yul\":4758:4760   */\n      dup5\n        /* \"#utility.yul\":4754:4765   */\n      add\n        /* \"#utility.yul\":4738:4766   */\n      tag_611\n      jump\t// in\n    tag_672:\n        /* \"#utility.yul\":4800:4815   */\n      dup3\n      dup2\n      mstore\n        /* \"#utility.yul\":4870:4881   */\n      swap3\n      dup5\n      add\n        /* \"#utility.yul\":4866:4886   */\n      dup2\n      add\n      swap3\n        /* \"#utility.yul\":4831:4843   */\n      dup2\n      dup2\n      add\n      swap1\n        /* \"#utility.yul\":4898:4917   */\n      dup10\n      dup6\n      gt\n        /* \"#utility.yul\":4895:4934   */\n      iszero\n      tag_673\n      jumpi\n        /* \"#utility.yul\":4930:4931   */\n      0x00\n        /* \"#utility.yul\":4927:4928   */\n      dup1\n        /* \"#utility.yul\":4920:4932   */\n      revert\n        /* \"#utility.yul\":4895:4934   */\n    tag_673:\n        /* \"#utility.yul\":4954:4965   */\n      swap5\n      dup3\n      add\n      swap5\n        /* \"#utility.yul\":4974:5116   */\n    tag_674:\n        /* \"#utility.yul\":4990:4996   */\n      dup5\n        /* \"#utility.yul\":4985:4988   */\n      dup7\n        /* \"#utility.yul\":4982:4997   */\n      lt\n        /* \"#utility.yul\":4974:5116   */\n      iszero\n      tag_676\n      jumpi\n        /* \"#utility.yul\":5056:5073   */\n      dup6\n      calldataload\n        /* \"#utility.yul\":5044:5074   */\n      dup3\n      mstore\n        /* \"#utility.yul\":5007:5019   */\n      swap5\n      dup3\n      add\n      swap5\n        /* \"#utility.yul\":5094:5106   */\n      swap1\n      dup3\n      add\n      swap1\n        /* \"#utility.yul\":4974:5116   */\n      jump(tag_674)\n    tag_676:\n        /* \"#utility.yul\":5135:5140   */\n      swap10\n        /* \"#utility.yul\":5172:5190   */\n      swap8\n      swap1\n      swap2\n      add\n        /* \"#utility.yul\":5159:5191   */\n      calldataload\n      swap8\n      pop\n      pop\n      pop\n      pop\n      pop\n      pop\n      pop\n        /* \"#utility.yul\":4181:5197   */\n      jump\t// out\n        /* \"#utility.yul\":5569:6201   */\n    tag_167:\n        /* \"#utility.yul\":5740:5742   */\n      0x20\n        /* \"#utility.yul\":5792:5813   */\n      dup1\n      dup3\n      mstore\n        /* \"#utility.yul\":5862:5875   */\n      dup3\n      mload\n        /* \"#utility.yul\":5765:5783   */\n      dup3\n      dup3\n      add\n        /* \"#utility.yul\":5884:5906   */\n      dup2\n      swap1\n      mstore\n        /* \"#utility.yul\":5711:5715   */\n      0x00\n      swap2\n        /* \"#utility.yul\":5740:5742   */\n      swap1\n        /* \"#utility.yul\":5963:5978   */\n      dup5\n      dup3\n      add\n      swap1\n        /* \"#utility.yul\":5937:5939   */\n      0x40\n        /* \"#utility.yul\":5922:5940   */\n      dup6\n      add\n      swap1\n        /* \"#utility.yul\":5711:5715   */\n      dup5\n        /* \"#utility.yul\":6006:6175   */\n    tag_681:\n        /* \"#utility.yul\":6020:6026   */\n      dup2\n        /* \"#utility.yul\":6017:6018   */\n      dup2\n        /* \"#utility.yul\":6014:6027   */\n      lt\n        /* \"#utility.yul\":6006:6175   */\n      iszero\n      tag_683\n      jumpi\n        /* \"#utility.yul\":6081:6094   */\n      dup4\n      mload\n        /* \"#utility.yul\":6069:6095   */\n      dup4\n      mstore\n        /* \"#utility.yul\":6150:6165   */\n      swap3\n      dup5\n      add\n      swap3\n        /* \"#utility.yul\":6115:6127   */\n      swap2\n      dup5\n      add\n      swap2\n        /* \"#utility.yul\":6042:6043   */\n      0x01\n        /* \"#utility.yul\":6035:6044   */\n      add\n        /* \"#utility.yul\":6006:6175   */\n      jump(tag_681)\n    tag_683:\n      pop\n        /* \"#utility.yul\":6192:6195   */\n      swap1\n      swap7\n        /* \"#utility.yul\":5569:6201   */\n      swap6\n      pop\n      pop\n      pop\n      pop\n      pop\n      pop\n      jump\t// out\n        /* \"#utility.yul\":6206:6553   */\n    tag_193:\n        /* \"#utility.yul\":6271:6277   */\n      0x00\n        /* \"#utility.yul\":6279:6285   */\n      dup1\n        /* \"#utility.yul\":6332:6334   */\n      0x40\n        /* \"#utility.yul\":6320:6329   */\n      dup4\n        /* \"#utility.yul\":6311:6318   */\n      dup6\n        /* \"#utility.yul\":6307:6330   */\n      sub\n        /* \"#utility.yul\":6303:6335   */\n      slt\n        /* \"#utility.yul\":6300:6352   */\n      iszero\n      tag_685\n      jumpi\n        /* \"#utility.yul\":6348:6349   */\n      0x00\n        /* \"#utility.yul\":6345:6346   */\n      dup1\n        /* \"#utility.yul\":6338:6350   */\n      revert\n        /* \"#utility.yul\":6300:6352   */\n    tag_685:\n        /* \"#utility.yul\":6371:6400   */\n      tag_686\n        /* \"#utility.yul\":6390:6399   */\n      dup4\n        /* \"#utility.yul\":6371:6400   */\n      tag_610\n      jump\t// in\n    tag_686:\n        /* \"#utility.yul\":6361:6400   */\n      swap2\n      pop\n        /* \"#utility.yul\":6450:6452   */\n      0x20\n        /* \"#utility.yul\":6439:6448   */\n      dup4\n        /* \"#utility.yul\":6435:6453   */\n      add\n        /* \"#utility.yul\":6422:6454   */\n      calldataload\n        /* \"#utility.yul\":6497:6502   */\n      dup1\n        /* \"#utility.yul\":6490:6503   */\n      iszero\n        /* \"#utility.yul\":6483:6504   */\n      iszero\n        /* \"#utility.yul\":6476:6481   */\n      dup2\n        /* \"#utility.yul\":6473:6505   */\n      eq\n        /* \"#utility.yul\":6463:6523   */\n      tag_687\n      jumpi\n        /* \"#utility.yul\":6519:6520   */\n      0x00\n        /* \"#utility.yul\":6516:6517   */\n      dup1\n        /* \"#utility.yul\":6509:6521   */\n      revert\n        /* \"#utility.yul\":6463:6523   */\n    tag_687:\n        /* \"#utility.yul\":6542:6547   */\n      dup1\n        /* \"#utility.yul\":6532:6547   */\n      swap2\n      pop\n      pop\n        /* \"#utility.yul\":6206:6553   */\n      swap3\n      pop\n      swap3\n      swap1\n      pop\n      jump\t// out\n        /* \"#utility.yul\":6558:7225   */\n    tag_202:\n        /* \"#utility.yul\":6653:6659   */\n      0x00\n        /* \"#utility.yul\":6661:6667   */\n      dup1\n        /* \"#utility.yul\":6669:6675   */\n      0x00\n        /* \"#utility.yul\":6677:6683   */\n      dup1\n        /* \"#utility.yul\":6730:6733   */\n      0x80\n        /* \"#utility.yul\":6718:6727   */\n      dup6\n        /* \"#utility.yul\":6709:6716   */\n      dup8\n        /* \"#utility.yul\":6705:6728   */\n      sub\n        /* \"#utility.yul\":6701:6734   */\n      slt\n        /* \"#utility.yul\":6698:6751   */\n      iszero\n      tag_689\n      jumpi\n        /* \"#utility.yul\":6747:6748   */\n      0x00\n        /* \"#utility.yul\":6744:6745   */\n      dup1\n        /* \"#utility.yul\":6737:6749   */\n      revert\n        /* \"#utility.yul\":6698:6751   */\n    tag_689:\n        /* \"#utility.yul\":6770:6799   */\n      tag_690\n        /* \"#utility.yul\":6789:6798   */\n      dup6\n        /* \"#utility.yul\":6770:6799   */\n      tag_610\n      jump\t// in\n    tag_690:\n        /* \"#utility.yul\":6760:6799   */\n      swap4\n      pop\n        /* \"#utility.yul\":6818:6856   */\n      tag_691\n        /* \"#utility.yul\":6852:6854   */\n      0x20\n        /* \"#utility.yul\":6841:6850   */\n      dup7\n        /* \"#utility.yul\":6837:6855   */\n      add\n        /* \"#utility.yul\":6818:6856   */\n      tag_610\n      jump\t// in\n    tag_691:\n        /* \"#utility.yul\":6808:6856   */\n      swap3\n      pop\n        /* \"#utility.yul\":6903:6905   */\n      0x40\n        /* \"#utility.yul\":6892:6901   */\n      dup6\n        /* \"#utility.yul\":6888:6906   */\n      add\n        /* \"#utility.yul\":6875:6907   */\n      calldataload\n        /* \"#utility.yul\":6865:6907   */\n      swap2\n      pop\n        /* \"#utility.yul\":6958:6960   */\n      0x60\n        /* \"#utility.yul\":6947:6956   */\n      dup6\n        /* \"#utility.yul\":6943:6961   */\n      add\n        /* \"#utility.yul\":6930:6962   */\n      calldataload\n      sub(shl(0x40, 0x01), 0x01)\n        /* \"#utility.yul\":6977:6983   */\n      dup2\n        /* \"#utility.yul\":6974:7004   */\n      gt\n        /* \"#utility.yul\":6971:7021   */\n      iszero\n      tag_692\n      jumpi\n        /* \"#utility.yul\":7017:7018   */\n      0x00\n        /* \"#utility.yul\":7014:7015   */\n      dup1\n        /* \"#utility.yul\":7007:7019   */\n      revert\n        /* \"#utility.yul\":6971:7021   */\n    tag_692:\n        /* \"#utility.yul\":7040:7062   */\n      dup6\n      add\n        /* \"#utility.yul\":7093:7097   */\n      0x1f\n        /* \"#utility.yul\":7085:7098   */\n      dup2\n      add\n        /* \"#utility.yul\":7081:7108   */\n      dup8\n      sgt\n        /* \"#utility.yul\":7071:7126   */\n      tag_693\n      jumpi\n        /* \"#utility.yul\":7122:7123   */\n      0x00\n        /* \"#utility.yul\":7119:7120   */\n      dup1\n        /* \"#utility.yul\":7112:7124   */\n      revert\n        /* \"#utility.yul\":7071:7126   */\n    tag_693:\n        /* \"#utility.yul\":7145:7219   */\n      tag_694\n        /* \"#utility.yul\":7211:7218   */\n      dup8\n        /* \"#utility.yul\":7206:7208   */\n      dup3\n        /* \"#utility.yul\":7193:7209   */\n      calldataload\n        /* \"#utility.yul\":7188:7190   */\n      0x20\n        /* \"#utility.yul\":7184:7186   */\n      dup5\n        /* \"#utility.yul\":7180:7191   */\n      add\n        /* \"#utility.yul\":7145:7219   */\n      tag_612\n      jump\t// in\n    tag_694:\n        /* \"#utility.yul\":7135:7219   */\n      swap2\n      pop\n      pop\n        /* \"#utility.yul\":6558:7225   */\n      swap3\n      swap6\n      swap2\n      swap5\n      pop\n      swap3\n      pop\n      jump\t// out\n        /* \"#utility.yul\":7230:7490   */\n    tag_233:\n        /* \"#utility.yul\":7298:7304   */\n      0x00\n        /* \"#utility.yul\":7306:7312   */\n      dup1\n        /* \"#utility.yul\":7359:7361   */\n      0x40\n        /* \"#utility.yul\":7347:7356   */\n      dup4\n        /* \"#utility.yul\":7338:7345   */\n      dup6\n        /* \"#utility.yul\":7334:7357   */\n      sub\n        /* \"#utility.yul\":7330:7362   */\n      slt\n        /* \"#utility.yul\":7327:7379   */\n      iszero\n      tag_696\n      jumpi\n        /* \"#utility.yul\":7375:7376   */\n      0x00\n        /* \"#utility.yul\":7372:7373   */\n      dup1\n        /* \"#utility.yul\":7365:7377   */\n      revert\n        /* \"#utility.yul\":7327:7379   */\n    tag_696:\n        /* \"#utility.yul\":7398:7427   */\n      tag_697\n        /* \"#utility.yul\":7417:7426   */\n      dup4\n        /* \"#utility.yul\":7398:7427   */\n      tag_610\n      jump\t// in\n    tag_697:\n        /* \"#utility.yul\":7388:7427   */\n      swap2\n      pop\n        /* \"#utility.yul\":7446:7484   */\n      tag_698\n        /* \"#utility.yul\":7480:7482   */\n      0x20\n        /* \"#utility.yul\":7469:7478   */\n      dup5\n        /* \"#utility.yul\":7465:7483   */\n      add\n        /* \"#utility.yul\":7446:7484   */\n      tag_610\n      jump\t// in\n    tag_698:\n        /* \"#utility.yul\":7436:7484   */\n      swap1\n      pop\n        /* \"#utility.yul\":7230:7490   */\n      swap3\n      pop\n      swap3\n      swap1\n      pop\n      jump\t// out\n        /* \"#utility.yul\":7495:7851   */\n    tag_251:\n        /* \"#utility.yul\":7697:7699   */\n      0x20\n        /* \"#utility.yul\":7679:7700   */\n      dup1\n      dup3\n      mstore\n        /* \"#utility.yul\":7716:7734   */\n      dup2\n      dup2\n      add\n        /* \"#utility.yul\":7709:7739   */\n      mstore\n        /* \"#utility.yul\":7775:7809   */\n      0x4f776e61626c653a2063616c6c6572206973206e6f7420746865206f776e6572\n        /* \"#utility.yul\":7770:7772   */\n      0x40\n        /* \"#utility.yul\":7755:7773   */\n      dup3\n      add\n        /* \"#utility.yul\":7748:7810   */\n      mstore\n        /* \"#utility.yul\":7842:7844   */\n      0x60\n        /* \"#utility.yul\":7827:7845   */\n      add\n      swap1\n        /* \"#utility.yul\":7495:7851   */\n      jump\t// out\n        /* \"#utility.yul\":7856:8236   */\n    tag_257:\n        /* \"#utility.yul\":7935:7936   */\n      0x01\n        /* \"#utility.yul\":7931:7943   */\n      dup2\n      dup2\n      shr\n      swap1\n        /* \"#utility.yul\":7978:7990   */\n      dup3\n      and\n      dup1\n        /* \"#utility.yul\":7999:8060   */\n      tag_701\n      jumpi\n        /* \"#utility.yul\":8053:8057   */\n      0x7f\n        /* \"#utility.yul\":8045:8051   */\n      dup3\n        /* \"#utility.yul\":8041:8058   */\n      and\n        /* \"#utility.yul\":8031:8058   */\n      swap2\n      pop\n        /* \"#utility.yul\":7999:8060   */\n    tag_701:\n        /* \"#utility.yul\":8106:8108   */\n      0x20\n        /* \"#utility.yul\":8098:8104   */\n      dup3\n        /* \"#utility.yul\":8095:8109   */\n      lt\n        /* \"#utility.yul\":8075:8093   */\n      dup2\n        /* \"#utility.yul\":8072:8110   */\n      eq\n        /* \"#utility.yul\":8069:8230   */\n      iszero\n      tag_702\n      jumpi\n        /* \"#utility.yul\":8152:8162   */\n      0x4e487b71\n        /* \"#utility.yul\":8147:8150   */\n      0xe0\n        /* \"#utility.yul\":8143:8163   */\n      shl\n        /* \"#utility.yul\":8140:8141   */\n      0x00\n        /* \"#utility.yul\":8133:8164   */\n      mstore\n        /* \"#utility.yul\":8187:8191   */\n      0x22\n        /* \"#utility.yul\":8184:8185   */\n      0x04\n        /* \"#utility.yul\":8177:8192   */\n      mstore\n        /* \"#utility.yul\":8215:8219   */\n      0x24\n        /* \"#utility.yul\":8212:8213   */\n      0x00\n        /* \"#utility.yul\":8205:8220   */\n      revert\n        /* \"#utility.yul\":8069:8230   */\n    tag_702:\n      pop\n        /* \"#utility.yul\":7856:8236   */\n      swap2\n      swap1\n      pop\n      jump\t// out\n        /* \"#utility.yul\":8241:8652   */\n    tag_285:\n        /* \"#utility.yul\":8443:8445   */\n      0x20\n        /* \"#utility.yul\":8425:8446   */\n      dup1\n      dup3\n      mstore\n        /* \"#utility.yul\":8482:8484   */\n      0x2f\n        /* \"#utility.yul\":8462:8480   */\n      swap1\n      dup3\n      add\n        /* \"#utility.yul\":8455:8485   */\n      mstore\n        /* \"#utility.yul\":8521:8555   */\n      0x546573744d757368726f6f6d73203a3a2043616e6e6f742062652063616c6c65\n        /* \"#utility.yul\":8516:8518   */\n      0x40\n        /* \"#utility.yul\":8501:8519   */\n      dup3\n      add\n        /* \"#utility.yul\":8494:8556   */\n      mstore\n      shl(0x8a, 0x1908189e48184818dbdb9d1c9858dd)\n        /* \"#utility.yul\":8587:8589   */\n      0x60\n        /* \"#utility.yul\":8572:8590   */\n      dup3\n      add\n        /* \"#utility.yul\":8565:8610   */\n      mstore\n        /* \"#utility.yul\":8642:8645   */\n      0x80\n        /* \"#utility.yul\":8627:8646   */\n      add\n      swap1\n        /* \"#utility.yul\":8241:8652   */\n      jump\t// out\n        /* \"#utility.yul\":9062:9189   */\n    tag_615:\n        /* \"#utility.yul\":9123:9133   */\n      0x4e487b71\n        /* \"#utility.yul\":9118:9121   */\n      0xe0\n        /* \"#utility.yul\":9114:9134   */\n      shl\n        /* \"#utility.yul\":9111:9112   */\n      0x00\n        /* \"#utility.yul\":9104:9135   */\n      mstore\n        /* \"#utility.yul\":9154:9158   */\n      0x11\n        /* \"#utility.yul\":9151:9152   */\n      0x04\n        /* \"#utility.yul\":9144:9159   */\n      mstore\n        /* \"#utility.yul\":9178:9182   */\n      0x24\n        /* \"#utility.yul\":9175:9176   */\n      0x00\n        /* \"#utility.yul\":9168:9183   */\n      revert\n        /* \"#utility.yul\":9194:9322   */\n    tag_292:\n        /* \"#utility.yul\":9234:9237   */\n      0x00\n        /* \"#utility.yul\":9265:9266   */\n      dup3\n        /* \"#utility.yul\":9261:9267   */\n      not\n        /* \"#utility.yul\":9258:9259   */\n      dup3\n        /* \"#utility.yul\":9255:9268   */\n      gt\n        /* \"#utility.yul\":9252:9291   */\n      iszero\n      tag_708\n      jumpi\n        /* \"#utility.yul\":9271:9289   */\n      tag_708\n      tag_615\n      jump\t// in\n    tag_708:\n      pop\n        /* \"#utility.yul\":9307:9316   */\n      add\n      swap1\n        /* \"#utility.yul\":9194:9322   */\n      jump\t// out\n        /* \"#utility.yul\":10165:10333   */\n    tag_301:\n        /* \"#utility.yul\":10205:10212   */\n      0x00\n        /* \"#utility.yul\":10271:10272   */\n      dup2\n        /* \"#utility.yul\":10267:10268   */\n      0x00\n        /* \"#utility.yul\":10263:10269   */\n      not\n        /* \"#utility.yul\":10259:10273   */\n      div\n        /* \"#utility.yul\":10256:10257   */\n      dup4\n        /* \"#utility.yul\":10253:10274   */\n      gt\n        /* \"#utility.yul\":10248:10249   */\n      dup3\n        /* \"#utility.yul\":10241:10250   */\n      iszero\n        /* \"#utility.yul\":10234:10251   */\n      iszero\n        /* \"#utility.yul\":10230:10275   */\n      and\n        /* \"#utility.yul\":10227:10298   */\n      iszero\n      tag_713\n      jumpi\n        /* \"#utility.yul\":10278:10296   */\n      tag_713\n      tag_615\n      jump\t// in\n    tag_713:\n      pop\n        /* \"#utility.yul\":10318:10327   */\n      mul\n      swap1\n        /* \"#utility.yul\":10165:10333   */\n      jump\t// out\n        /* \"#utility.yul\":11393:11520   */\n    tag_616:\n        /* \"#utility.yul\":11454:11464   */\n      0x4e487b71\n        /* \"#utility.yul\":11449:11452   */\n      0xe0\n        /* \"#utility.yul\":11445:11465   */\n      shl\n        /* \"#utility.yul\":11442:11443   */\n      0x00\n        /* \"#utility.yul\":11435:11466   */\n      mstore\n        /* \"#utility.yul\":11485:11489   */\n      0x12\n        /* \"#utility.yul\":11482:11483   */\n      0x04\n        /* \"#utility.yul\":11475:11490   */\n      mstore\n        /* \"#utility.yul\":11509:11513   */\n      0x24\n        /* \"#utility.yul\":11506:11507   */\n      0x00\n        /* \"#utility.yul\":11499:11514   */\n      revert\n        /* \"#utility.yul\":11525:11645   */\n    tag_323:\n        /* \"#utility.yul\":11565:11566   */\n      0x00\n        /* \"#utility.yul\":11591:11592   */\n      dup3\n        /* \"#utility.yul\":11581:11616   */\n      tag_720\n      jumpi\n        /* \"#utility.yul\":11596:11614   */\n      tag_720\n      tag_616\n      jump\t// in\n    tag_720:\n      pop\n        /* \"#utility.yul\":11630:11639   */\n      div\n      swap1\n        /* \"#utility.yul\":11525:11645   */\n      jump\t// out\n        /* \"#utility.yul\":11650:11785   */\n    tag_371:\n        /* \"#utility.yul\":11689:11692   */\n      0x00\n      not(0x00)\n        /* \"#utility.yul\":11710:11727   */\n      dup3\n      eq\n        /* \"#utility.yul\":11707:11750   */\n      iszero\n      tag_723\n      jumpi\n        /* \"#utility.yul\":11730:11748   */\n      tag_723\n      tag_615\n      jump\t// in\n    tag_723:\n      pop\n        /* \"#utility.yul\":11777:11778   */\n      0x01\n        /* \"#utility.yul\":11766:11779   */\n      add\n      swap1\n        /* \"#utility.yul\":11650:11785   */\n      jump\t// out\n        /* \"#utility.yul\":14262:14447   */\n    tag_618:\n        /* \"#utility.yul\":14304:14307   */\n      0x00\n        /* \"#utility.yul\":14342:14347   */\n      dup2\n        /* \"#utility.yul\":14336:14348   */\n      mload\n        /* \"#utility.yul\":14357:14409   */\n      tag_732\n        /* \"#utility.yul\":14402:14408   */\n      dup2\n        /* \"#utility.yul\":14397:14400   */\n      dup6\n        /* \"#utility.yul\":14390:14394   */\n      0x20\n        /* \"#utility.yul\":14383:14388   */\n      dup7\n        /* \"#utility.yul\":14379:14395   */\n      add\n        /* \"#utility.yul\":14357:14409   */\n      tag_613\n      jump\t// in\n    tag_732:\n        /* \"#utility.yul\":14425:14441   */\n      swap3\n      swap1\n      swap3\n      add\n      swap3\n        /* \"#utility.yul\":14262:14447   */\n      swap2\n      pop\n      pop\n      jump\t// out\n        /* \"#utility.yul\":14570:15871   */\n    tag_462:\n        /* \"#utility.yul\":14847:14850   */\n      0x00\n        /* \"#utility.yul\":14876:14877   */\n      dup1\n        /* \"#utility.yul\":14909:14915   */\n      dup5\n        /* \"#utility.yul\":14903:14916   */\n      sload\n        /* \"#utility.yul\":14939:14942   */\n      dup2\n        /* \"#utility.yul\":14961:14962   */\n      0x01\n        /* \"#utility.yul\":14989:14998   */\n      dup3\n        /* \"#utility.yul\":14985:14987   */\n      dup2\n        /* \"#utility.yul\":14981:14999   */\n      shr\n        /* \"#utility.yul\":14971:14999   */\n      swap2\n      pop\n        /* \"#utility.yul\":15049:15051   */\n      dup1\n        /* \"#utility.yul\":15038:15047   */\n      dup4\n        /* \"#utility.yul\":15034:15052   */\n      and\n        /* \"#utility.yul\":15071:15089   */\n      dup1\n        /* \"#utility.yul\":15061:15122   */\n      tag_735\n      jumpi\n        /* \"#utility.yul\":15115:15119   */\n      0x7f\n        /* \"#utility.yul\":15107:15113   */\n      dup4\n        /* \"#utility.yul\":15103:15120   */\n      and\n        /* \"#utility.yul\":15093:15120   */\n      swap3\n      pop\n        /* \"#utility.yul\":15061:15122   */\n    tag_735:\n        /* \"#utility.yul\":15141:15143   */\n      0x20\n        /* \"#utility.yul\":15189:15191   */\n      dup1\n        /* \"#utility.yul\":15181:15187   */\n      dup5\n        /* \"#utility.yul\":15178:15192   */\n      lt\n        /* \"#utility.yul\":15158:15176   */\n      dup3\n        /* \"#utility.yul\":15155:15193   */\n      eq\n        /* \"#utility.yul\":15152:15317   */\n      iszero\n      tag_736\n      jumpi\n      shl(0xe0, 0x4e487b71)\n        /* \"#utility.yul\":15216:15249   */\n      dup7\n      mstore\n        /* \"#utility.yul\":15272:15276   */\n      0x22\n        /* \"#utility.yul\":15269:15270   */\n      0x04\n        /* \"#utility.yul\":15262:15277   */\n      mstore\n        /* \"#utility.yul\":15302:15306   */\n      0x24\n        /* \"#utility.yul\":15223:15226   */\n      dup7\n        /* \"#utility.yul\":15290:15307   */\n      revert\n        /* \"#utility.yul\":15152:15317   */\n    tag_736:\n        /* \"#utility.yul\":15333:15351   */\n      dup2\n        /* \"#utility.yul\":15360:15464   */\n      dup1\n      iszero\n      tag_738\n      jumpi\n        /* \"#utility.yul\":15478:15479   */\n      0x01\n        /* \"#utility.yul\":15473:15793   */\n      dup2\n      eq\n      tag_739\n      jumpi\n        /* \"#utility.yul\":15326:15793   */\n      jump(tag_737)\n        /* \"#utility.yul\":15360:15464   */\n    tag_738:\n      not(0xff)\n        /* \"#utility.yul\":15393:15417   */\n      dup7\n      and\n        /* \"#utility.yul\":15381:15418   */\n      dup10\n      mstore\n        /* \"#utility.yul\":15438:15454   */\n      dup5\n      dup10\n      add\n      swap7\n      pop\n        /* \"#utility.yul\":15360:15464   */\n      jump(tag_737)\n        /* \"#utility.yul\":15473:15793   */\n    tag_739:\n        /* \"#utility.yul\":14209:14210   */\n      0x00\n        /* \"#utility.yul\":14202:14216   */\n      dup12\n      dup2\n      mstore\n        /* \"#utility.yul\":14246:14250   */\n      0x20\n        /* \"#utility.yul\":14233:14251   */\n      swap1\n      keccak256\n        /* \"#utility.yul\":15568:15569   */\n      0x00\n        /* \"#utility.yul\":15582:15747   */\n    tag_741:\n        /* \"#utility.yul\":15596:15602   */\n      dup7\n        /* \"#utility.yul\":15593:15594   */\n      dup2\n        /* \"#utility.yul\":15590:15603   */\n      lt\n        /* \"#utility.yul\":15582:15747   */\n      iszero\n      tag_743\n      jumpi\n        /* \"#utility.yul\":15674:15688   */\n      dup2\n      sload\n        /* \"#utility.yul\":15661:15672   */\n      dup12\n      dup3\n      add\n        /* \"#utility.yul\":15654:15689   */\n      mstore\n        /* \"#utility.yul\":15717:15733   */\n      swap1\n      dup6\n      add\n      swap1\n        /* \"#utility.yul\":15611:15621   */\n      dup4\n      add\n        /* \"#utility.yul\":15582:15747   */\n      jump(tag_741)\n    tag_743:\n        /* \"#utility.yul\":15586:15589   */\n      pop\n      pop\n        /* \"#utility.yul\":15776:15782   */\n      dup5\n        /* \"#utility.yul\":15771:15774   */\n      dup10\n        /* \"#utility.yul\":15767:15783   */\n      add\n        /* \"#utility.yul\":15760:15783   */\n      swap7\n      pop\n        /* \"#utility.yul\":15326:15793   */\n    tag_737:\n      pop\n      pop\n      pop\n      pop\n      pop\n      pop\n        /* \"#utility.yul\":15809:15865   */\n      tag_744\n        /* \"#utility.yul\":15834:15864   */\n      tag_745\n        /* \"#utility.yul\":15860:15863   */\n      dup3\n        /* \"#utility.yul\":15852:15858   */\n      dup7\n        /* \"#utility.yul\":15834:15864   */\n      tag_618\n      jump\t// in\n    tag_745:\n      shl(0xd9, 0x173539b7b7)\n        /* \"#utility.yul\":14512:14532   */\n      dup2\n      mstore\n        /* \"#utility.yul\":14557:14558   */\n      0x05\n        /* \"#utility.yul\":14548:14559   */\n      add\n      swap1\n        /* \"#utility.yul\":14452:14565   */\n      jump\n        /* \"#utility.yul\":15809:15865   */\n    tag_744:\n        /* \"#utility.yul\":15802:15865   */\n      swap6\n        /* \"#utility.yul\":14570:15871   */\n      swap5\n      pop\n      pop\n      pop\n      pop\n      pop\n      jump\t// out\n        /* \"#utility.yul\":16283:16783   */\n    tag_529:\n      sub(shl(0xa0, 0x01), 0x01)\n        /* \"#utility.yul\":16552:16567   */\n      dup6\n      dup2\n      and\n        /* \"#utility.yul\":16534:16568   */\n      dup3\n      mstore\n        /* \"#utility.yul\":16604:16619   */\n      dup5\n      and\n        /* \"#utility.yul\":16599:16601   */\n      0x20\n        /* \"#utility.yul\":16584:16602   */\n      dup3\n      add\n        /* \"#utility.yul\":16577:16620   */\n      mstore\n        /* \"#utility.yul\":16651:16653   */\n      0x40\n        /* \"#utility.yul\":16636:16654   */\n      dup2\n      add\n        /* \"#utility.yul\":16629:16663   */\n      dup4\n      swap1\n      mstore\n        /* \"#utility.yul\":16699:16702   */\n      0x80\n        /* \"#utility.yul\":16694:16696   */\n      0x60\n        /* \"#utility.yul\":16679:16697   */\n      dup3\n      add\n        /* \"#utility.yul\":16672:16703   */\n      dup2\n      swap1\n      mstore\n        /* \"#utility.yul\":16477:16481   */\n      0x00\n      swap1\n        /* \"#utility.yul\":16720:16777   */\n      tag_748\n      swap1\n        /* \"#utility.yul\":16757:16776   */\n      dup4\n      add\n        /* \"#utility.yul\":16749:16755   */\n      dup5\n        /* \"#utility.yul\":16720:16777   */\n      tag_614\n      jump\t// in\n    tag_748:\n        /* \"#utility.yul\":16712:16777   */\n      swap7\n        /* \"#utility.yul\":16283:16783   */\n      swap6\n      pop\n      pop\n      pop\n      pop\n      pop\n      pop\n      jump\t// out\n        /* \"#utility.yul\":16788:17037   */\n    tag_533:\n        /* \"#utility.yul\":16857:16863   */\n      0x00\n        /* \"#utility.yul\":16910:16912   */\n      0x20\n        /* \"#utility.yul\":16898:16907   */\n      dup3\n        /* \"#utility.yul\":16889:16896   */\n      dup5\n        /* \"#utility.yul\":16885:16908   */\n      sub\n        /* \"#utility.yul\":16881:16913   */\n      slt\n        /* \"#utility.yul\":16878:16930   */\n      iszero\n      tag_750\n      jumpi\n        /* \"#utility.yul\":16926:16927   */\n      0x00\n        /* \"#utility.yul\":16923:16924   */\n      dup1\n        /* \"#utility.yul\":16916:16928   */\n      revert\n        /* \"#utility.yul\":16878:16930   */\n    tag_750:\n        /* \"#utility.yul\":16958:16967   */\n      dup2\n        /* \"#utility.yul\":16952:16968   */\n      mload\n        /* \"#utility.yul\":16977:17007   */\n      tag_458\n        /* \"#utility.yul\":17001:17006   */\n      dup2\n        /* \"#utility.yul\":16977:17007   */\n      tag_609\n      jump\t// in\n        /* \"#utility.yul\":17042:17167   */\n    tag_555:\n        /* \"#utility.yul\":17082:17086   */\n      0x00\n        /* \"#utility.yul\":17110:17111   */\n      dup3\n        /* \"#utility.yul\":17107:17108   */\n      dup3\n        /* \"#utility.yul\":17104:17112   */\n      lt\n        /* \"#utility.yul\":17101:17135   */\n      iszero\n      tag_754\n      jumpi\n        /* \"#utility.yul\":17115:17133   */\n      tag_754\n      tag_615\n      jump\t// in\n    tag_754:\n      pop\n        /* \"#utility.yul\":17152:17161   */\n      sub\n      swap1\n        /* \"#utility.yul\":17042:17167   */\n      jump\t// out\n        /* \"#utility.yul\":17172:17284   */\n    tag_557:\n        /* \"#utility.yul\":17204:17205   */\n      0x00\n        /* \"#utility.yul\":17230:17231   */\n      dup3\n        /* \"#utility.yul\":17220:17255   */\n      tag_757\n      jumpi\n        /* \"#utility.yul\":17235:17253   */\n      tag_757\n      tag_616\n      jump\t// in\n    tag_757:\n      pop\n        /* \"#utility.yul\":17269:17278   */\n      mod\n      swap1\n        /* \"#utility.yul\":17172:17284   */\n      jump\t// out\n        /* \"#utility.yul\":17289:17416   */\n    tag_561:\n        /* \"#utility.yul\":17350:17360   */\n      0x4e487b71\n        /* \"#utility.yul\":17345:17348   */\n      0xe0\n        /* \"#utility.yul\":17341:17361   */\n      shl\n        /* \"#utility.yul\":17338:17339   */\n      0x00\n        /* \"#utility.yul\":17331:17362   */\n      mstore\n        /* \"#utility.yul\":17381:17385   */\n      0x32\n        /* \"#utility.yul\":17378:17379   */\n      0x04\n        /* \"#utility.yul\":17371:17386   */\n      mstore\n        /* \"#utility.yul\":17405:17409   */\n      0x24\n        /* \"#utility.yul\":17402:17403   */\n      0x00\n        /* \"#utility.yul\":17395:17410   */\n      revert\n\n    auxdata: 0xa2646970667358221220472e02c4c29aa00d5014e2de5430250bf715455a3062b8fc4f047f21b2dd8b0564736f6c63430008090033\n}\n",
				"bytecode": {
					"linkReferences": {},
					"object": "60806040523480156200001157600080fd5b506040518060400160405280600d81526020016c546573744d757368726f6f6d7360981b81525060405180604001604052806002815260200161544d60f01b81525081600290805190602001906200006b929190620000eb565b50805162000081906003906020840190620000eb565b50506000805550620000933362000099565b620001ce565b600880546001600160a01b038381166001600160a01b0319831681179093556040519116919082907f8be0079c531659141344cd1fd0a4f28419497f9722a3daafe3b4186f6b6457e090600090a35050565b828054620000f99062000191565b90600052602060002090601f0160209004810192826200011d576000855562000168565b82601f106200013857805160ff191683800117855562000168565b8280016001018555821562000168579182015b82811115620001685782518255916020019190600101906200014b565b50620001769291506200017a565b5090565b5b808211156200017657600081556001016200017b565b600181811c90821680620001a657607f821691505b60208210811415620001c857634e487b7160e01b600052602260045260246000fd5b50919050565b61260a80620001de6000396000f3fe60806040526004361061025c5760003560e01c806370a0823111610144578063b0962c53116100b6578063c4ae31681161007a578063c4ae31681461069c578063c87b56dd146106b1578063e222c7f9146106d1578063e8b5498d146106e6578063e985e9c514610708578063f2fde38b1461075157600080fd5b8063b0962c531461062c578063b88d4fde1461064c578063ba7a86b81461066c578063bc912e1a14610681578063c08dfd3c146104e457600080fd5b806386a173ee1161010857806386a173ee146105915780638bb64a8c146105b15780638da5cb5b146105c657806395d89b41146105e4578063a0712d68146105f9578063a22cb4651461060c57600080fd5b806370a08231146104f9578063715018a6146105195780637cb647591461052e57806383a974a21461054e5780638456cb591461057057600080fd5b80632904e6d9116101dd57806349590657116101a1578063495906571461046b5780634cf5f7a41461048057806354214f69146104955780635b8ad429146104af5780636352211e146104c457806365f13097146104e457600080fd5b80632904e6d9146103ee57806332cb6b0c1461040157806333bc1c5c146104175780633ccfd60b1461043657806342842e0e1461044b57600080fd5b8063081812fc11610224578063081812fc14610330578063095ea7b31461036857806318160ddd146103885780631c16521c146103a157806323b872dd146103ce57600080fd5b806301ffc9a7146102615780630345e3cb146102965780630675b7c6146102d157806306fdde03146102f357806307e89ec014610315575b600080fd5b34801561026d57600080fd5b5061028161027c366004611f15565b610771565b60405190151581526020015b60405180910390f35b3480156102a257600080fd5b506102c36102b1366004611f4e565b600e6020526000908152604090205481565b60405190815260200161028d565b3480156102dd57600080fd5b506102f16102ec366004612006565b6107c3565b005b3480156102ff57600080fd5b5061030861080d565b60405161028d91906120a6565b34801561032157600080fd5b506102c3660aa87bee53800081565b34801561033c57600080fd5b5061035061034b3660046120b9565b61089f565b6040516001600160a01b03909116815260200161028d565b34801561037457600080fd5b506102f16103833660046120d2565b6108e3565b34801561039457600080fd5b50600154600054036102c3565b3480156103ad57600080fd5b506102c36103bc366004611f4e565b600d6020526000908152604090205481565b3480156103da57600080fd5b506102f16103e93660046120fc565b610971565b6102f16103fc366004612138565b61097c565b34801561040d57600080fd5b506102c36108ae81565b34801561042357600080fd5b50600b5461028190610100900460ff1681565b34801561044257600080fd5b506102f1610c50565b34801561045757600080fd5b506102f16104663660046120fc565b610d04565b34801561047757600080fd5b50600c546102c3565b34801561048c57600080fd5b50610308610d1f565b3480156104a157600080fd5b50600b546102819060ff1681565b3480156104bb57600080fd5b506102f1610dad565b3480156104d057600080fd5b506103506104df3660046120b9565b610deb565b3480156104f057600080fd5b506102c3606481565b34801561050557600080fd5b506102c3610514366004611f4e565b610dfd565b34801561052557600080fd5b506102f1610e4b565b34801561053a57600080fd5b506102f16105493660046120b9565b610e81565b34801561055a57600080fd5b50610563610eb0565b60405161028d91906121e3565b34801561057c57600080fd5b50600b54610281906301000000900460ff1681565b34801561059d57600080fd5b50600b546102819062010000900460ff1681565b3480156105bd57600080fd5b506102f1610f2b565b3480156105d257600080fd5b506008546001600160a01b0316610350565b3480156105f057600080fd5b50610308610f74565b6102f16106073660046120b9565b610f83565b34801561061857600080fd5b506102f1610627366004612227565b61117c565b34801561063857600080fd5b506102f1610647366004612006565b611212565b34801561065857600080fd5b506102f1610667366004612263565b61124f565b34801561067857600080fd5b506102f16112a0565b34801561068d57600080fd5b506102c366071afd498d000081565b3480156106a857600080fd5b506102f1611352565b3480156106bd57600080fd5b506103086106cc3660046120b9565b61139d565b3480156106dd57600080fd5b506102f1611517565b3480156106f257600080fd5b50600b5461028190640100000000900460ff1681565b34801561071457600080fd5b506102816107233660046122de565b6001600160a01b03918216600090815260076020908152604080832093909416825291909152205460ff1690565b34801561075d57600080fd5b506102f161076c366004611f4e565b61155e565b60006001600160e01b031982166380ac58cd60e01b14806107a257506001600160e01b03198216635b5e139f60e01b145b806107bd57506301ffc9a760e01b6001600160e01b03198316145b92915050565b6008546001600160a01b031633146107f65760405162461bcd60e51b81526004016107ed90612311565b60405180910390fd5b8051610809906009906020840190611e66565b5050565b60606002805461081c90612346565b80601f016020809104026020016040519081016040528092919081815260200182805461084890612346565b80156108955780601f1061086a57610100808354040283529160200191610895565b820191906000526020600020905b81548152906001019060200180831161087857829003601f168201915b5050505050905090565b60006108aa826115f6565b6108c7576040516333d1c03960e21b815260040160405180910390fd5b506000908152600660205260409020546001600160a01b031690565b60006108ee82610deb565b9050806001600160a01b0316836001600160a01b031614156109235760405163250fdee360e21b815260040160405180910390fd5b336001600160a01b0382161480159061094357506109418133610723565b155b15610961576040516367d9dca160e11b815260040160405180910390fd5b61096c838383611621565b505050565b61096c83838361167d565b32331461099b5760405162461bcd60e51b81526004016107ed90612381565b600b5462010000900460ff166109ff5760405162461bcd60e51b8152602060048201526024808201527f546573744d757368726f6f6d73203a3a204d696e74696e67206973206f6e20506044820152636175736560e01b60648201526084016107ed565b6108ae81610a106001546000540390565b610a1a91906123e6565b1115610a7f5760405162461bcd60e51b815260206004820152602e60248201527f546573744d757368726f6f6d73203a3a2043616e6e6f74206d696e742062657960448201526d6f6e64206d617820737570706c7960901b60648201526084016107ed565b336000908152600e6020526040902054606490610a9d9083906123e6565b1115610b0a5760405162461bcd60e51b815260206004820152603660248201527f546573744d757368726f6f6d733a3a2043616e6e6f74206d696e74206265796f6044820152756e642077686974656c697374206d6178206d696e742160501b60648201526084016107ed565b610b1b8166071afd498d00006123fe565b341015610b7e5760405162461bcd60e51b815260206004820152602b60248201527f546573744d757368726f6f6d73203a3a205061796d656e742069732062656c6f60448201526a772074686520707269636560a81b60648201526084016107ed565b6040516bffffffffffffffffffffffff193360601b166020820152600090603401604051602081830303815290604052805190602001209050610bc483600c5483611891565b610c215760405162461bcd60e51b815260206004820152602860248201527f546573744d757368726f6f6d73203a3a20596f7520617265206e6f74207768696044820152671d195b1a5cdd195960c21b60648201526084016107ed565b336000908152600e602052604081208054849290610c409084906123e6565b9091555061096c905033836118a7565b6008546001600160a01b03163314610c7a5760405162461bcd60e51b81526004016107ed90612311565b60006064610c894760036123fe565b610c939190612433565b6040519091507388ffcdb2830ead384d875a2dba8de019b0d301d99082156108fc029083906000818181858888f19350505050158015610cd7573d6000803e3d6000fd5b5060405133904780156108fc02916000818181858888f19350505050158015610809573d6000803e3d6000fd5b61096c8383836040518060200160405280600081525061124f565b600a8054610d2c90612346565b80601f0160208091040260200160405190810160405280929190818152602001828054610d5890612346565b8015610da55780601f10610d7a57610100808354040283529160200191610da5565b820191906000526020600020905b815481529060010190602001808311610d8857829003601f168201915b505050505081565b6008546001600160a01b03163314610dd75760405162461bcd60e51b81526004016107ed90612311565b600b805460ff19811660ff90911615179055565b6000610df6826118c1565b5192915050565b60006001600160a01b038216610e26576040516323d3ad8160e21b815260040160405180910390fd5b506001600160a01b03166000908152600560205260409020546001600160401b031690565b6008546001600160a01b03163314610e755760405162461bcd60e51b81526004016107ed90612311565b610e7f60006119db565b565b6008546001600160a01b03163314610eab5760405162461bcd60e51b81526004016107ed90612311565b600c55565b6060336000610ebe82610dfd565b90506000816001600160401b03811115610eda57610eda611f69565b604051908082528060200260200182016040528015610f03578160200160208202803683370190505b50905060005b82811015610f235780610f1b81612447565b915050610f09565b509392505050565b6008546001600160a01b03163314610f555760405162461bcd60e51b81526004016107ed90612311565b600b805462ff0000198116620100009182900460ff1615909102179055565b60606003805461081c90612346565b323314610fa25760405162461bcd60e51b81526004016107ed90612381565b600b54610100900460ff16610ff95760405162461bcd60e51b815260206004820181905260248201527f546573744d757368726f6f6d73203a3a204e6f7420596574204163746976652e60448201526064016107ed565b6108ae8161100a6001546000540390565b61101491906123e6565b111561106d5760405162461bcd60e51b815260206004820152602260248201527f546573744d757368726f6f6d73203a3a204265796f6e64204d617820537570706044820152616c7960f01b60648201526084016107ed565b336000908152600d602052604090205460649061108b9083906123e6565b11156110ea5760405162461bcd60e51b815260206004820152602860248201527f546573744d757368726f6f6d73203a3a20416c7265616479206d696e74656420604482015267332074696d65732160c01b60648201526084016107ed565b6110fb81660aa87bee5380006123fe565b34101561114a5760405162461bcd60e51b815260206004820152601760248201527f546573744d757368726f6f6d73203a3a2042656c6f772000000000000000000060448201526064016107ed565b336000908152600d6020526040812080548392906111699084906123e6565b90915550611179905033826118a7565b50565b6001600160a01b0382163314156111a65760405163b06307db60e01b815260040160405180910390fd5b3360008181526007602090815260408083206001600160a01b03871680855290835292819020805460ff191686151590811790915590519081529192917f17307eab39ab6107e8899845ad3d59bd9653f200f220920489ca2b5937696c31910160405180910390a35050565b6008546001600160a01b0316331461123c5760405162461bcd60e51b81526004016107ed90612311565b805161080990600a906020840190611e66565b61125a84848461167d565b6001600160a01b0383163b1515801561127c575061127a84848484611a2d565b155b1561129a576040516368d2bf6b60e11b815260040160405180910390fd5b50505050565b6008546001600160a01b031633146112ca5760405162461bcd60e51b81526004016107ed90612311565b600b54640100000000900460ff16156113315760405162461bcd60e51b8152602060048201526024808201527f546573744d757368726f6f6d73203a3a205465616d20616c7265616479206d696044820152631b9d195960e21b60648201526084016107ed565b600b805464ff000000001916640100000000179055610e7f336107d06118a7565b6008546001600160a01b0316331461137c5760405162461bcd60e51b81526004016107ed90612311565b600b805463ff00000019811663010000009182900460ff1615909102179055565b60606113a8826115f6565b61140c5760405162461bcd60e51b815260206004820152602f60248201527f4552433732314d657461646174613a2055524920717565727920666f72206e6f60448201526e3732bc34b9ba32b73a103a37b5b2b760891b60648201526084016107ed565b60006114198360016123e6565b600b5490915060ff166114b957600a805461143390612346565b80601f016020809104026020016040519081016040528092919081815260200182805461145f90612346565b80156114ac5780601f10611481576101008083540402835291602001916114ac565b820191906000526020600020905b81548152906001019060200180831161148f57829003601f168201915b5050505050915050919050565b6000600980546114c890612346565b9050116114e45760405180602001604052806000815250611510565b60096114ef82611b25565b60405160200161150092919061247e565b6040516020818303038152906040525b9392505050565b6008546001600160a01b031633146115415760405162461bcd60e51b81526004016107ed90612311565b600b805461ff001981166101009182900460ff1615909102179055565b6008546001600160a01b031633146115885760405162461bcd60e51b81526004016107ed90612311565b6001600160a01b0381166115ed5760405162461bcd60e51b815260206004820152602660248201527f4f776e61626c653a206e6577206f776e657220697320746865207a65726f206160448201526564647265737360d01b60648201526084016107ed565b611179816119db565b60008054821080156107bd575050600090815260046020526040902054600160e01b900460ff161590565b60008281526006602052604080822080546001600160a01b0319166001600160a01b0387811691821790925591518593918516917f8c5be1e5ebec7d5bd14f71427d1e84f3dd0314c0f7b2291e5b200ac8c7c3b92591a4505050565b6000611688826118c1565b80519091506000906001600160a01b0316336001600160a01b031614806116b6575081516116b69033610723565b806116d15750336116c68461089f565b6001600160a01b0316145b9050806116f157604051632ce44b5f60e11b815260040160405180910390fd5b846001600160a01b031682600001516001600160a01b0316146117265760405162a1148160e81b815260040160405180910390fd5b6001600160a01b03841661174d57604051633a954ecd60e21b815260040160405180910390fd5b61175d6000848460000151611621565b6001600160a01b038581166000908152600560209081526040808320805467ffffffffffffffff198082166001600160401b0392831660001901831617909255898616808652838620805493841693831660019081018416949094179055898652600490945282852080546001600160e01b031916909417600160a01b4290921691909102179092559086018083529120549091166118475760005481101561184757825160008281526004602090815260409091208054918601516001600160401b0316600160a01b026001600160e01b03199092166001600160a01b03909316929092171790555b5082846001600160a01b0316866001600160a01b03167fddf252ad1be2c89b69c2b068fc378daa952ba7f163c4a11628f55a4df523b3ef60405160405180910390a45b5050505050565b60008261189e8584611c22565b14949350505050565b610809828260405180602001604052806000815250611c8e565b6040805160608101825260008082526020820181905291810191909152816000548110156119c257600081815260046020908152604091829020825160608101845290546001600160a01b0381168252600160a01b81046001600160401b031692820192909252600160e01b90910460ff161515918101829052906119c05780516001600160a01b031615611957579392505050565b5060001901600081815260046020908152604091829020825160608101845290546001600160a01b038116808352600160a01b82046001600160401b031693830193909352600160e01b900460ff16151592810192909252156119bb579392505050565b611957565b505b604051636f96cda160e11b815260040160405180910390fd5b600880546001600160a01b038381166001600160a01b0319831681179093556040519116919082907f8be0079c531659141344cd1fd0a4f28419497f9722a3daafe3b4186f6b6457e090600090a35050565b604051630a85bd0160e11b81526000906001600160a01b0385169063150b7a0290611a62903390899088908890600401612539565b602060405180830381600087803b158015611a7c57600080fd5b505af1925050508015611aac575060408051601f3d908101601f19168201909252611aa991810190612576565b60015b611b07573d808015611ada576040519150601f19603f3d011682016040523d82523d6000602084013e611adf565b606091505b508051611aff576040516368d2bf6b60e11b815260040160405180910390fd5b805181602001fd5b6001600160e01b031916630a85bd0160e11b1490505b949350505050565b606081611b495750506040805180820190915260018152600360fc1b602082015290565b8160005b8115611b735780611b5d81612447565b9150611b6c9050600a83612433565b9150611b4d565b6000816001600160401b03811115611b8d57611b8d611f69565b6040519080825280601f01601f191660200182016040528015611bb7576020820181803683370190505b5090505b8415611b1d57611bcc600183612593565b9150611bd9600a866125aa565b611be49060306123e6565b60f81b818381518110611bf957611bf96125be565b60200101906001600160f81b031916908160001a905350611c1b600a86612433565b9450611bbb565b600081815b8451811015610f23576000858281518110611c4457611c446125be565b60200260200101519050808311611c6a5760008381526020829052604090209250611c7b565b600081815260208490526040902092505b5080611c8681612447565b915050611c27565b61096c83838360016000546001600160a01b038516611cbf57604051622e076360e81b815260040160405180910390fd5b83611cdd5760405163b562e8dd60e01b815260040160405180910390fd5b6001600160a01b038516600081815260056020908152604080832080546fffffffffffffffffffffffffffffffff1981166001600160401b038083168c0181169182176801000000000000000067ffffffffffffffff1990941690921783900481168c01811690920217909155858452600490925290912080546001600160e01b031916909217600160a01b429092169190910217905580808501838015611d8e57506001600160a01b0387163b15155b15611e17575b60405182906001600160a01b038916906000907fddf252ad1be2c89b69c2b068fc378daa952ba7f163c4a11628f55a4df523b3ef908290a4611ddf6000888480600101955088611a2d565b611dfc576040516368d2bf6b60e11b815260040160405180910390fd5b80821415611d94578260005414611e1257600080fd5b611e5d565b5b6040516001830192906001600160a01b038916906000907fddf252ad1be2c89b69c2b068fc378daa952ba7f163c4a11628f55a4df523b3ef908290a480821415611e18575b5060005561188a565b828054611e7290612346565b90600052602060002090601f016020900481019282611e945760008555611eda565b82601f10611ead57805160ff1916838001178555611eda565b82800160010185558215611eda579182015b82811115611eda578251825591602001919060010190611ebf565b50611ee6929150611eea565b5090565b5b80821115611ee65760008155600101611eeb565b6001600160e01b03198116811461117957600080fd5b600060208284031215611f2757600080fd5b813561151081611eff565b80356001600160a01b0381168114611f4957600080fd5b919050565b600060208284031215611f6057600080fd5b61151082611f32565b634e487b7160e01b600052604160045260246000fd5b604051601f8201601f191681016001600160401b0381118282101715611fa757611fa7611f69565b604052919050565b60006001600160401b03831115611fc857611fc8611f69565b611fdb601f8401601f1916602001611f7f565b9050828152838383011115611fef57600080fd5b828260208301376000602084830101529392505050565b60006020828403121561201857600080fd5b81356001600160401b0381111561202e57600080fd5b8201601f8101841361203f57600080fd5b611b1d84823560208401611faf565b60005b83811015612069578181015183820152602001612051565b8381111561129a5750506000910152565b6000815180845261209281602086016020860161204e565b601f01601f19169290920160200192915050565b602081526000611510602083018461207a565b6000602082840312156120cb57600080fd5b5035919050565b600080604083850312156120e557600080fd5b6120ee83611f32565b946020939093013593505050565b60008060006060848603121561211157600080fd5b61211a84611f32565b925061212860208501611f32565b9150604084013590509250925092565b6000806040838503121561214b57600080fd5b82356001600160401b038082111561216257600080fd5b818501915085601f83011261217657600080fd5b813560208282111561218a5761218a611f69565b8160051b925061219b818401611f7f565b82815292840181019281810190898511156121b557600080fd5b948201945b848610156121d3578535825294820194908201906121ba565b9997909101359750505050505050565b6020808252825182820181905260009190848201906040850190845b8181101561221b578351835292840192918401916001016121ff565b50909695505050505050565b6000806040838503121561223a57600080fd5b61224383611f32565b91506020830135801515811461225857600080fd5b809150509250929050565b6000806000806080858703121561227957600080fd5b61228285611f32565b935061229060208601611f32565b92506040850135915060608501356001600160401b038111156122b257600080fd5b8501601f810187136122c357600080fd5b6122d287823560208401611faf565b91505092959194509250565b600080604083850312156122f157600080fd5b6122fa83611f32565b915061230860208401611f32565b90509250929050565b6020808252818101527f4f776e61626c653a2063616c6c6572206973206e6f7420746865206f776e6572604082015260600190565b600181811c9082168061235a57607f821691505b6020821081141561237b57634e487b7160e01b600052602260045260246000fd5b50919050565b6020808252602f908201527f546573744d757368726f6f6d73203a3a2043616e6e6f742062652063616c6c6560408201526e1908189e48184818dbdb9d1c9858dd608a1b606082015260800190565b634e487b7160e01b600052601160045260246000fd5b600082198211156123f9576123f96123d0565b500190565b6000816000190483118215151615612418576124186123d0565b500290565b634e487b7160e01b600052601260045260246000fd5b6000826124425761244261241d565b500490565b600060001982141561245b5761245b6123d0565b5060010190565b6000815161247481856020860161204e565b9290920192915050565b600080845481600182811c91508083168061249a57607f831692505b60208084108214156124ba57634e487b7160e01b86526022600452602486fd5b8180156124ce57600181146124df5761250c565b60ff1986168952848901965061250c565b60008b81526020902060005b868110156125045781548b8201529085019083016124eb565b505084890196505b50505050505061253061251f8286612462565b64173539b7b760d91b815260050190565b95945050505050565b6001600160a01b038581168252841660208201526040810183905260806060820181905260009061256c9083018461207a565b9695505050505050565b60006020828403121561258857600080fd5b815161151081611eff565b6000828210156125a5576125a56123d0565b500390565b6000826125b9576125b961241d565b500690565b634e487b7160e01b600052603260045260246000fdfea2646970667358221220472e02c4c29aa00d5014e2de5430250bf715455a3062b8fc4f047f21b2dd8b0564736f6c63430008090033",
					"opcodes": "PUSH1 0x80 PUSH1 0x40 MSTORE CALLVALUE DUP1 ISZERO PUSH3 0x11 JUMPI PUSH1 0x0 DUP1 REVERT JUMPDEST POP PUSH1 0x40 MLOAD DUP1 PUSH1 0x40 ADD PUSH1 0x40 MSTORE DUP1 PUSH1 0xD DUP2 MSTORE PUSH1 0x20 ADD PUSH13 0x546573744D757368726F6F6D73 PUSH1 0x98 SHL DUP2 MSTORE POP PUSH1 0x40 MLOAD DUP1 PUSH1 0x40 ADD PUSH1 0x40 MSTORE DUP1 PUSH1 0x2 DUP2 MSTORE PUSH1 0x20 ADD PUSH2 0x544D PUSH1 0xF0 SHL DUP2 MSTORE POP DUP2 PUSH1 0x2 SWAP1 DUP1 MLOAD SWAP1 PUSH1 0x20 ADD SWAP1 PUSH3 0x6B SWAP3 SWAP2 SWAP1 PUSH3 0xEB JUMP JUMPDEST POP DUP1 MLOAD PUSH3 0x81 SWAP1 PUSH1 0x3 SWAP1 PUSH1 0x20 DUP5 ADD SWAP1 PUSH3 0xEB JUMP JUMPDEST POP POP PUSH1 0x0 DUP1 SSTORE POP PUSH3 0x93 CALLER PUSH3 0x99 JUMP JUMPDEST PUSH3 0x1CE JUMP JUMPDEST PUSH1 0x8 DUP1 SLOAD PUSH1 0x1 PUSH1 0x1 PUSH1 0xA0 SHL SUB DUP4 DUP2 AND PUSH1 0x1 PUSH1 0x1 PUSH1 0xA0 SHL SUB NOT DUP4 AND DUP2 OR SWAP1 SWAP4 SSTORE PUSH1 0x40 MLOAD SWAP2 AND SWAP2 SWAP1 DUP3 SWAP1 PUSH32 0x8BE0079C531659141344CD1FD0A4F28419497F9722A3DAAFE3B4186F6B6457E0 SWAP1 PUSH1 0x0 SWAP1 LOG3 POP POP JUMP JUMPDEST DUP3 DUP1 SLOAD PUSH3 0xF9 SWAP1 PUSH3 0x191 JUMP JUMPDEST SWAP1 PUSH1 0x0 MSTORE PUSH1 0x20 PUSH1 0x0 KECCAK256 SWAP1 PUSH1 0x1F ADD PUSH1 0x20 SWAP1 DIV DUP2 ADD SWAP3 DUP3 PUSH3 0x11D JUMPI PUSH1 0x0 DUP6 SSTORE PUSH3 0x168 JUMP JUMPDEST DUP3 PUSH1 0x1F LT PUSH3 0x138 JUMPI DUP1 MLOAD PUSH1 0xFF NOT AND DUP4 DUP1 ADD OR DUP6 SSTORE PUSH3 0x168 JUMP JUMPDEST DUP3 DUP1 ADD PUSH1 0x1 ADD DUP6 SSTORE DUP3 ISZERO PUSH3 0x168 JUMPI SWAP2 DUP3 ADD JUMPDEST DUP3 DUP2 GT ISZERO PUSH3 0x168 JUMPI DUP3 MLOAD DUP3 SSTORE SWAP2 PUSH1 0x20 ADD SWAP2 SWAP1 PUSH1 0x1 ADD SWAP1 PUSH3 0x14B JUMP JUMPDEST POP PUSH3 0x176 SWAP3 SWAP2 POP PUSH3 0x17A JUMP JUMPDEST POP SWAP1 JUMP JUMPDEST JUMPDEST DUP1 DUP3 GT ISZERO PUSH3 0x176 JUMPI PUSH1 0x0 DUP2 SSTORE PUSH1 0x1 ADD PUSH3 0x17B JUMP JUMPDEST PUSH1 0x1 DUP2 DUP2 SHR SWAP1 DUP3 AND DUP1 PUSH3 0x1A6 JUMPI PUSH1 0x7F DUP3 AND SWAP2 POP JUMPDEST PUSH1 0x20 DUP3 LT DUP2 EQ ISZERO PUSH3 0x1C8 JUMPI PUSH4 0x4E487B71 PUSH1 0xE0 SHL PUSH1 0x0 MSTORE PUSH1 0x22 PUSH1 0x4 MSTORE PUSH1 0x24 PUSH1 0x0 REVERT JUMPDEST POP SWAP2 SWAP1 POP JUMP JUMPDEST PUSH2 0x260A DUP1 PUSH3 0x1DE PUSH1 0x0 CODECOPY PUSH1 0x0 RETURN INVALID PUSH1 0x80 PUSH1 0x40 MSTORE PUSH1 0x4 CALLDATASIZE LT PUSH2 0x25C JUMPI PUSH1 0x0 CALLDATALOAD PUSH1 0xE0 SHR DUP1 PUSH4 0x70A08231 GT PUSH2 0x144 JUMPI DUP1 PUSH4 0xB0962C53 GT PUSH2 0xB6 JUMPI DUP1 PUSH4 0xC4AE3168 GT PUSH2 0x7A JUMPI DUP1 PUSH4 0xC4AE3168 EQ PUSH2 0x69C JUMPI DUP1 PUSH4 0xC87B56DD EQ PUSH2 0x6B1 JUMPI DUP1 PUSH4 0xE222C7F9 EQ PUSH2 0x6D1 JUMPI DUP1 PUSH4 0xE8B5498D EQ PUSH2 0x6E6 JUMPI DUP1 PUSH4 0xE985E9C5 EQ PUSH2 0x708 JUMPI DUP1 PUSH4 0xF2FDE38B EQ PUSH2 0x751 JUMPI PUSH1 0x0 DUP1 REVERT JUMPDEST DUP1 PUSH4 0xB0962C53 EQ PUSH2 0x62C JUMPI DUP1 PUSH4 0xB88D4FDE EQ PUSH2 0x64C JUMPI DUP1 PUSH4 0xBA7A86B8 EQ PUSH2 0x66C JUMPI DUP1 PUSH4 0xBC912E1A EQ PUSH2 0x681 JUMPI DUP1 PUSH4 0xC08DFD3C EQ PUSH2 0x4E4 JUMPI PUSH1 0x0 DUP1 REVERT JUMPDEST DUP1 PUSH4 0x86A173EE GT PUSH2 0x108 JUMPI DUP1 PUSH4 0x86A173EE EQ PUSH2 0x591 JUMPI DUP1 PUSH4 0x8BB64A8C EQ PUSH2 0x5B1 JUMPI DUP1 PUSH4 0x8DA5CB5B EQ PUSH2 0x5C6 JUMPI DUP1 PUSH4 0x95D89B41 EQ PUSH2 0x5E4 JUMPI DUP1 PUSH4 0xA0712D68 EQ PUSH2 0x5F9 JUMPI DUP1 PUSH4 0xA22CB465 EQ PUSH2 0x60C JUMPI PUSH1 0x0 DUP1 REVERT JUMPDEST DUP1 PUSH4 0x70A08231 EQ PUSH2 0x4F9 JUMPI DUP1 PUSH4 0x715018A6 EQ PUSH2 0x519 JUMPI DUP1 PUSH4 0x7CB64759 EQ PUSH2 0x52E JUMPI DUP1 PUSH4 0x83A974A2 EQ PUSH2 0x54E JUMPI DUP1 PUSH4 0x8456CB59 EQ PUSH2 0x570 JUMPI PUSH1 0x0 DUP1 REVERT JUMPDEST DUP1 PUSH4 0x2904E6D9 GT PUSH2 0x1DD JUMPI DUP1 PUSH4 0x49590657 GT PUSH2 0x1A1 JUMPI DUP1 PUSH4 0x49590657 EQ PUSH2 0x46B JUMPI DUP1 PUSH4 0x4CF5F7A4 EQ PUSH2 0x480 JUMPI DUP1 PUSH4 0x54214F69 EQ PUSH2 0x495 JUMPI DUP1 PUSH4 0x5B8AD429 EQ PUSH2 0x4AF JUMPI DUP1 PUSH4 0x6352211E EQ PUSH2 0x4C4 JUMPI DUP1 PUSH4 0x65F13097 EQ PUSH2 0x4E4 JUMPI PUSH1 0x0 DUP1 REVERT JUMPDEST DUP1 PUSH4 0x2904E6D9 EQ PUSH2 0x3EE JUMPI DUP1 PUSH4 0x32CB6B0C EQ PUSH2 0x401 JUMPI DUP1 PUSH4 0x33BC1C5C EQ PUSH2 0x417 JUMPI DUP1 PUSH4 0x3CCFD60B EQ PUSH2 0x436 JUMPI DUP1 PUSH4 0x42842E0E EQ PUSH2 0x44B JUMPI PUSH1 0x0 DUP1 REVERT JUMPDEST DUP1 PUSH4 0x81812FC GT PUSH2 0x224 JUMPI DUP1 PUSH4 0x81812FC EQ PUSH2 0x330 JUMPI DUP1 PUSH4 0x95EA7B3 EQ PUSH2 0x368 JUMPI DUP1 PUSH4 0x18160DDD EQ PUSH2 0x388 JUMPI DUP1 PUSH4 0x1C16521C EQ PUSH2 0x3A1 JUMPI DUP1 PUSH4 0x23B872DD EQ PUSH2 0x3CE JUMPI PUSH1 0x0 DUP1 REVERT JUMPDEST DUP1 PUSH4 0x1FFC9A7 EQ PUSH2 0x261 JUMPI DUP1 PUSH4 0x345E3CB EQ PUSH2 0x296 JUMPI DUP1 PUSH4 0x675B7C6 EQ PUSH2 0x2D1 JUMPI DUP1 PUSH4 0x6FDDE03 EQ PUSH2 0x2F3 JUMPI DUP1 PUSH4 0x7E89EC0 EQ PUSH2 0x315 JUMPI JUMPDEST PUSH1 0x0 DUP1 REVERT JUMPDEST CALLVALUE DUP1 ISZERO PUSH2 0x26D JUMPI PUSH1 0x0 DUP1 REVERT JUMPDEST POP PUSH2 0x281 PUSH2 0x27C CALLDATASIZE PUSH1 0x4 PUSH2 0x1F15 JUMP JUMPDEST PUSH2 0x771 JUMP JUMPDEST PUSH1 0x40 MLOAD SWAP1 ISZERO ISZERO DUP2 MSTORE PUSH1 0x20 ADD JUMPDEST PUSH1 0x40 MLOAD DUP1 SWAP2 SUB SWAP1 RETURN JUMPDEST CALLVALUE DUP1 ISZERO PUSH2 0x2A2 JUMPI PUSH1 0x0 DUP1 REVERT JUMPDEST POP PUSH2 0x2C3 PUSH2 0x2B1 CALLDATASIZE PUSH1 0x4 PUSH2 0x1F4E JUMP JUMPDEST PUSH1 0xE PUSH1 0x20 MSTORE PUSH1 0x0 SWAP1 DUP2 MSTORE PUSH1 0x40 SWAP1 KECCAK256 SLOAD DUP2 JUMP JUMPDEST PUSH1 0x40 MLOAD SWAP1 DUP2 MSTORE PUSH1 0x20 ADD PUSH2 0x28D JUMP JUMPDEST CALLVALUE DUP1 ISZERO PUSH2 0x2DD JUMPI PUSH1 0x0 DUP1 REVERT JUMPDEST POP PUSH2 0x2F1 PUSH2 0x2EC CALLDATASIZE PUSH1 0x4 PUSH2 0x2006 JUMP JUMPDEST PUSH2 0x7C3 JUMP JUMPDEST STOP JUMPDEST CALLVALUE DUP1 ISZERO PUSH2 0x2FF JUMPI PUSH1 0x0 DUP1 REVERT JUMPDEST POP PUSH2 0x308 PUSH2 0x80D JUMP JUMPDEST PUSH1 0x40 MLOAD PUSH2 0x28D SWAP2 SWAP1 PUSH2 0x20A6 JUMP JUMPDEST CALLVALUE DUP1 ISZERO PUSH2 0x321 JUMPI PUSH1 0x0 DUP1 REVERT JUMPDEST POP PUSH2 0x2C3 PUSH7 0xAA87BEE538000 DUP2 JUMP JUMPDEST CALLVALUE DUP1 ISZERO PUSH2 0x33C JUMPI PUSH1 0x0 DUP1 REVERT JUMPDEST POP PUSH2 0x350 PUSH2 0x34B CALLDATASIZE PUSH1 0x4 PUSH2 0x20B9 JUMP JUMPDEST PUSH2 0x89F JUMP JUMPDEST PUSH1 0x40 MLOAD PUSH1 0x1 PUSH1 0x1 PUSH1 0xA0 SHL SUB SWAP1 SWAP2 AND DUP2 MSTORE PUSH1 0x20 ADD PUSH2 0x28D JUMP JUMPDEST CALLVALUE DUP1 ISZERO PUSH2 0x374 JUMPI PUSH1 0x0 DUP1 REVERT JUMPDEST POP PUSH2 0x2F1 PUSH2 0x383 CALLDATASIZE PUSH1 0x4 PUSH2 0x20D2 JUMP JUMPDEST PUSH2 0x8E3 JUMP JUMPDEST CALLVALUE DUP1 ISZERO PUSH2 0x394 JUMPI PUSH1 0x0 DUP1 REVERT JUMPDEST POP PUSH1 0x1 SLOAD PUSH1 0x0 SLOAD SUB PUSH2 0x2C3 JUMP JUMPDEST CALLVALUE DUP1 ISZERO PUSH2 0x3AD JUMPI PUSH1 0x0 DUP1 REVERT JUMPDEST POP PUSH2 0x2C3 PUSH2 0x3BC CALLDATASIZE PUSH1 0x4 PUSH2 0x1F4E JUMP JUMPDEST PUSH1 0xD PUSH1 0x20 MSTORE PUSH1 0x0 SWAP1 DUP2 MSTORE PUSH1 0x40 SWAP1 KECCAK256 SLOAD DUP2 JUMP JUMPDEST CALLVALUE DUP1 ISZERO PUSH2 0x3DA JUMPI PUSH1 0x0 DUP1 REVERT JUMPDEST POP PUSH2 0x2F1 PUSH2 0x3E9 CALLDATASIZE PUSH1 0x4 PUSH2 0x20FC JUMP JUMPDEST PUSH2 0x971 JUMP JUMPDEST PUSH2 0x2F1 PUSH2 0x3FC CALLDATASIZE PUSH1 0x4 PUSH2 0x2138 JUMP JUMPDEST PUSH2 0x97C JUMP JUMPDEST CALLVALUE DUP1 ISZERO PUSH2 0x40D JUMPI PUSH1 0x0 DUP1 REVERT JUMPDEST POP PUSH2 0x2C3 PUSH2 0x8AE DUP2 JUMP JUMPDEST CALLVALUE DUP1 ISZERO PUSH2 0x423 JUMPI PUSH1 0x0 DUP1 REVERT JUMPDEST POP PUSH1 0xB SLOAD PUSH2 0x281 SWAP1 PUSH2 0x100 SWAP1 DIV PUSH1 0xFF AND DUP2 JUMP JUMPDEST CALLVALUE DUP1 ISZERO PUSH2 0x442 JUMPI PUSH1 0x0 DUP1 REVERT JUMPDEST POP PUSH2 0x2F1 PUSH2 0xC50 JUMP JUMPDEST CALLVALUE DUP1 ISZERO PUSH2 0x457 JUMPI PUSH1 0x0 DUP1 REVERT JUMPDEST POP PUSH2 0x2F1 PUSH2 0x466 CALLDATASIZE PUSH1 0x4 PUSH2 0x20FC JUMP JUMPDEST PUSH2 0xD04 JUMP JUMPDEST CALLVALUE DUP1 ISZERO PUSH2 0x477 JUMPI PUSH1 0x0 DUP1 REVERT JUMPDEST POP PUSH1 0xC SLOAD PUSH2 0x2C3 JUMP JUMPDEST CALLVALUE DUP1 ISZERO PUSH2 0x48C JUMPI PUSH1 0x0 DUP1 REVERT JUMPDEST POP PUSH2 0x308 PUSH2 0xD1F JUMP JUMPDEST CALLVALUE DUP1 ISZERO PUSH2 0x4A1 JUMPI PUSH1 0x0 DUP1 REVERT JUMPDEST POP PUSH1 0xB SLOAD PUSH2 0x281 SWAP1 PUSH1 0xFF AND DUP2 JUMP JUMPDEST CALLVALUE DUP1 ISZERO PUSH2 0x4BB JUMPI PUSH1 0x0 DUP1 REVERT JUMPDEST POP PUSH2 0x2F1 PUSH2 0xDAD JUMP JUMPDEST CALLVALUE DUP1 ISZERO PUSH2 0x4D0 JUMPI PUSH1 0x0 DUP1 REVERT JUMPDEST POP PUSH2 0x350 PUSH2 0x4DF CALLDATASIZE PUSH1 0x4 PUSH2 0x20B9 JUMP JUMPDEST PUSH2 0xDEB JUMP JUMPDEST CALLVALUE DUP1 ISZERO PUSH2 0x4F0 JUMPI PUSH1 0x0 DUP1 REVERT JUMPDEST POP PUSH2 0x2C3 PUSH1 0x64 DUP2 JUMP JUMPDEST CALLVALUE DUP1 ISZERO PUSH2 0x505 JUMPI PUSH1 0x0 DUP1 REVERT JUMPDEST POP PUSH2 0x2C3 PUSH2 0x514 CALLDATASIZE PUSH1 0x4 PUSH2 0x1F4E JUMP JUMPDEST PUSH2 0xDFD JUMP JUMPDEST CALLVALUE DUP1 ISZERO PUSH2 0x525 JUMPI PUSH1 0x0 DUP1 REVERT JUMPDEST POP PUSH2 0x2F1 PUSH2 0xE4B JUMP JUMPDEST CALLVALUE DUP1 ISZERO PUSH2 0x53A JUMPI PUSH1 0x0 DUP1 REVERT JUMPDEST POP PUSH2 0x2F1 PUSH2 0x549 CALLDATASIZE PUSH1 0x4 PUSH2 0x20B9 JUMP JUMPDEST PUSH2 0xE81 JUMP JUMPDEST CALLVALUE DUP1 ISZERO PUSH2 0x55A JUMPI PUSH1 0x0 DUP1 REVERT JUMPDEST POP PUSH2 0x563 PUSH2 0xEB0 JUMP JUMPDEST PUSH1 0x40 MLOAD PUSH2 0x28D SWAP2 SWAP1 PUSH2 0x21E3 JUMP JUMPDEST CALLVALUE DUP1 ISZERO PUSH2 0x57C JUMPI PUSH1 0x0 DUP1 REVERT JUMPDEST POP PUSH1 0xB SLOAD PUSH2 0x281 SWAP1 PUSH4 0x1000000 SWAP1 DIV PUSH1 0xFF AND DUP2 JUMP JUMPDEST CALLVALUE DUP1 ISZERO PUSH2 0x59D JUMPI PUSH1 0x0 DUP1 REVERT JUMPDEST POP PUSH1 0xB SLOAD PUSH2 0x281 SWAP1 PUSH3 0x10000 SWAP1 DIV PUSH1 0xFF AND DUP2 JUMP JUMPDEST CALLVALUE DUP1 ISZERO PUSH2 0x5BD JUMPI PUSH1 0x0 DUP1 REVERT JUMPDEST POP PUSH2 0x2F1 PUSH2 0xF2B JUMP JUMPDEST CALLVALUE DUP1 ISZERO PUSH2 0x5D2 JUMPI PUSH1 0x0 DUP1 REVERT JUMPDEST POP PUSH1 0x8 SLOAD PUSH1 0x1 PUSH1 0x1 PUSH1 0xA0 SHL SUB AND PUSH2 0x350 JUMP JUMPDEST CALLVALUE DUP1 ISZERO PUSH2 0x5F0 JUMPI PUSH1 0x0 DUP1 REVERT JUMPDEST POP PUSH2 0x308 PUSH2 0xF74 JUMP JUMPDEST PUSH2 0x2F1 PUSH2 0x607 CALLDATASIZE PUSH1 0x4 PUSH2 0x20B9 JUMP JUMPDEST PUSH2 0xF83 JUMP JUMPDEST CALLVALUE DUP1 ISZERO PUSH2 0x618 JUMPI PUSH1 0x0 DUP1 REVERT JUMPDEST POP PUSH2 0x2F1 PUSH2 0x627 CALLDATASIZE PUSH1 0x4 PUSH2 0x2227 JUMP JUMPDEST PUSH2 0x117C JUMP JUMPDEST CALLVALUE DUP1 ISZERO PUSH2 0x638 JUMPI PUSH1 0x0 DUP1 REVERT JUMPDEST POP PUSH2 0x2F1 PUSH2 0x647 CALLDATASIZE PUSH1 0x4 PUSH2 0x2006 JUMP JUMPDEST PUSH2 0x1212 JUMP JUMPDEST CALLVALUE DUP1 ISZERO PUSH2 0x658 JUMPI PUSH1 0x0 DUP1 REVERT JUMPDEST POP PUSH2 0x2F1 PUSH2 0x667 CALLDATASIZE PUSH1 0x4 PUSH2 0x2263 JUMP JUMPDEST PUSH2 0x124F JUMP JUMPDEST CALLVALUE DUP1 ISZERO PUSH2 0x678 JUMPI PUSH1 0x0 DUP1 REVERT JUMPDEST POP PUSH2 0x2F1 PUSH2 0x12A0 JUMP JUMPDEST CALLVALUE DUP1 ISZERO PUSH2 0x68D JUMPI PUSH1 0x0 DUP1 REVERT JUMPDEST POP PUSH2 0x2C3 PUSH7 0x71AFD498D0000 DUP2 JUMP JUMPDEST CALLVALUE DUP1 ISZERO PUSH2 0x6A8 JUMPI PUSH1 0x0 DUP1 REVERT JUMPDEST POP PUSH2 0x2F1 PUSH2 0x1352 JUMP JUMPDEST CALLVALUE DUP1 ISZERO PUSH2 0x6BD JUMPI PUSH1 0x0 DUP1 REVERT JUMPDEST POP PUSH2 0x308 PUSH2 0x6CC CALLDATASIZE PUSH1 0x4 PUSH2 0x20B9 JUMP JUMPDEST PUSH2 0x139D JUMP JUMPDEST CALLVALUE DUP1 ISZERO PUSH2 0x6DD JUMPI PUSH1 0x0 DUP1 REVERT JUMPDEST POP PUSH2 0x2F1 PUSH2 0x1517 JUMP JUMPDEST CALLVALUE DUP1 ISZERO PUSH2 0x6F2 JUMPI PUSH1 0x0 DUP1 REVERT JUMPDEST POP PUSH1 0xB SLOAD PUSH2 0x281 SWAP1 PUSH5 0x100000000 SWAP1 DIV PUSH1 0xFF AND DUP2 JUMP JUMPDEST CALLVALUE DUP1 ISZERO PUSH2 0x714 JUMPI PUSH1 0x0 DUP1 REVERT JUMPDEST POP PUSH2 0x281 PUSH2 0x723 CALLDATASIZE PUSH1 0x4 PUSH2 0x22DE JUMP JUMPDEST PUSH1 0x1 PUSH1 0x1 PUSH1 0xA0 SHL SUB SWAP2 DUP3 AND PUSH1 0x0 SWAP1 DUP2 MSTORE PUSH1 0x7 PUSH1 0x20 SWAP1 DUP2 MSTORE PUSH1 0x40 DUP1 DUP4 KECCAK256 SWAP4 SWAP1 SWAP5 AND DUP3 MSTORE SWAP2 SWAP1 SWAP2 MSTORE KECCAK256 SLOAD PUSH1 0xFF AND SWAP1 JUMP JUMPDEST CALLVALUE DUP1 ISZERO PUSH2 0x75D JUMPI PUSH1 0x0 DUP1 REVERT JUMPDEST POP PUSH2 0x2F1 PUSH2 0x76C CALLDATASIZE PUSH1 0x4 PUSH2 0x1F4E JUMP JUMPDEST PUSH2 0x155E JUMP JUMPDEST PUSH1 0x0 PUSH1 0x1 PUSH1 0x1 PUSH1 0xE0 SHL SUB NOT DUP3 AND PUSH4 0x80AC58CD PUSH1 0xE0 SHL EQ DUP1 PUSH2 0x7A2 JUMPI POP PUSH1 0x1 PUSH1 0x1 PUSH1 0xE0 SHL SUB NOT DUP3 AND PUSH4 0x5B5E139F PUSH1 0xE0 SHL EQ JUMPDEST DUP1 PUSH2 0x7BD JUMPI POP PUSH4 0x1FFC9A7 PUSH1 0xE0 SHL PUSH1 0x1 PUSH1 0x1 PUSH1 0xE0 SHL SUB NOT DUP4 AND EQ JUMPDEST SWAP3 SWAP2 POP POP JUMP JUMPDEST PUSH1 0x8 SLOAD PUSH1 0x1 PUSH1 0x1 PUSH1 0xA0 SHL SUB AND CALLER EQ PUSH2 0x7F6 JUMPI PUSH1 0x40 MLOAD PUSH3 0x461BCD PUSH1 0xE5 SHL DUP2 MSTORE PUSH1 0x4 ADD PUSH2 0x7ED SWAP1 PUSH2 0x2311 JUMP JUMPDEST PUSH1 0x40 MLOAD DUP1 SWAP2 SUB SWAP1 REVERT JUMPDEST DUP1 MLOAD PUSH2 0x809 SWAP1 PUSH1 0x9 SWAP1 PUSH1 0x20 DUP5 ADD SWAP1 PUSH2 0x1E66 JUMP JUMPDEST POP POP JUMP JUMPDEST PUSH1 0x60 PUSH1 0x2 DUP1 SLOAD PUSH2 0x81C SWAP1 PUSH2 0x2346 JUMP JUMPDEST DUP1 PUSH1 0x1F ADD PUSH1 0x20 DUP1 SWAP2 DIV MUL PUSH1 0x20 ADD PUSH1 0x40 MLOAD SWAP1 DUP2 ADD PUSH1 0x40 MSTORE DUP1 SWAP3 SWAP2 SWAP1 DUP2 DUP2 MSTORE PUSH1 0x20 ADD DUP3 DUP1 SLOAD PUSH2 0x848 SWAP1 PUSH2 0x2346 JUMP JUMPDEST DUP1 ISZERO PUSH2 0x895 JUMPI DUP1 PUSH1 0x1F LT PUSH2 0x86A JUMPI PUSH2 0x100 DUP1 DUP4 SLOAD DIV MUL DUP4 MSTORE SWAP2 PUSH1 0x20 ADD SWAP2 PUSH2 0x895 JUMP JUMPDEST DUP3 ADD SWAP2 SWAP1 PUSH1 0x0 MSTORE PUSH1 0x20 PUSH1 0x0 KECCAK256 SWAP1 JUMPDEST DUP2 SLOAD DUP2 MSTORE SWAP1 PUSH1 0x1 ADD SWAP1 PUSH1 0x20 ADD DUP1 DUP4 GT PUSH2 0x878 JUMPI DUP3 SWAP1 SUB PUSH1 0x1F AND DUP3 ADD SWAP2 JUMPDEST POP POP POP POP POP SWAP1 POP SWAP1 JUMP JUMPDEST PUSH1 0x0 PUSH2 0x8AA DUP3 PUSH2 0x15F6 JUMP JUMPDEST PUSH2 0x8C7 JUMPI PUSH1 0x40 MLOAD PUSH4 0x33D1C039 PUSH1 0xE2 SHL DUP2 MSTORE PUSH1 0x4 ADD PUSH1 0x40 MLOAD DUP1 SWAP2 SUB SWAP1 REVERT JUMPDEST POP PUSH1 0x0 SWAP1 DUP2 MSTORE PUSH1 0x6 PUSH1 0x20 MSTORE PUSH1 0x40 SWAP1 KECCAK256 SLOAD PUSH1 0x1 PUSH1 0x1 PUSH1 0xA0 SHL SUB AND SWAP1 JUMP JUMPDEST PUSH1 0x0 PUSH2 0x8EE DUP3 PUSH2 0xDEB JUMP JUMPDEST SWAP1 POP DUP1 PUSH1 0x1 PUSH1 0x1 PUSH1 0xA0 SHL SUB AND DUP4 PUSH1 0x1 PUSH1 0x1 PUSH1 0xA0 SHL SUB AND EQ ISZERO PUSH2 0x923 JUMPI PUSH1 0x40 MLOAD PUSH4 0x250FDEE3 PUSH1 0xE2 SHL DUP2 MSTORE PUSH1 0x4 ADD PUSH1 0x40 MLOAD DUP1 SWAP2 SUB SWAP1 REVERT JUMPDEST CALLER PUSH1 0x1 PUSH1 0x1 PUSH1 0xA0 SHL SUB DUP3 AND EQ DUP1 ISZERO SWAP1 PUSH2 0x943 JUMPI POP PUSH2 0x941 DUP2 CALLER PUSH2 0x723 JUMP JUMPDEST ISZERO JUMPDEST ISZERO PUSH2 0x961 JUMPI PUSH1 0x40 MLOAD PUSH4 0x67D9DCA1 PUSH1 0xE1 SHL DUP2 MSTORE PUSH1 0x4 ADD PUSH1 0x40 MLOAD DUP1 SWAP2 SUB SWAP1 REVERT JUMPDEST PUSH2 0x96C DUP4 DUP4 DUP4 PUSH2 0x1621 JUMP JUMPDEST POP POP POP JUMP JUMPDEST PUSH2 0x96C DUP4 DUP4 DUP4 PUSH2 0x167D JUMP JUMPDEST ORIGIN CALLER EQ PUSH2 0x99B JUMPI PUSH1 0x40 MLOAD PUSH3 0x461BCD PUSH1 0xE5 SHL DUP2 MSTORE PUSH1 0x4 ADD PUSH2 0x7ED SWAP1 PUSH2 0x2381 JUMP JUMPDEST PUSH1 0xB SLOAD PUSH3 0x10000 SWAP1 DIV PUSH1 0xFF AND PUSH2 0x9FF JUMPI PUSH1 0x40 MLOAD PUSH3 0x461BCD PUSH1 0xE5 SHL DUP2 MSTORE PUSH1 0x20 PUSH1 0x4 DUP3 ADD MSTORE PUSH1 0x24 DUP1 DUP3 ADD MSTORE PUSH32 0x546573744D757368726F6F6D73203A3A204D696E74696E67206973206F6E2050 PUSH1 0x44 DUP3 ADD MSTORE PUSH4 0x61757365 PUSH1 0xE0 SHL PUSH1 0x64 DUP3 ADD MSTORE PUSH1 0x84 ADD PUSH2 0x7ED JUMP JUMPDEST PUSH2 0x8AE DUP2 PUSH2 0xA10 PUSH1 0x1 SLOAD PUSH1 0x0 SLOAD SUB SWAP1 JUMP JUMPDEST PUSH2 0xA1A SWAP2 SWAP1 PUSH2 0x23E6 JUMP JUMPDEST GT ISZERO PUSH2 0xA7F JUMPI PUSH1 0x40 MLOAD PUSH3 0x461BCD PUSH1 0xE5 SHL DUP2 MSTORE PUSH1 0x20 PUSH1 0x4 DUP3 ADD MSTORE PUSH1 0x2E PUSH1 0x24 DUP3 ADD MSTORE PUSH32 0x546573744D757368726F6F6D73203A3A2043616E6E6F74206D696E7420626579 PUSH1 0x44 DUP3 ADD MSTORE PUSH14 0x6F6E64206D617820737570706C79 PUSH1 0x90 SHL PUSH1 0x64 DUP3 ADD MSTORE PUSH1 0x84 ADD PUSH2 0x7ED JUMP JUMPDEST CALLER PUSH1 0x0 SWAP1 DUP2 MSTORE PUSH1 0xE PUSH1 0x20 MSTORE PUSH1 0x40 SWAP1 KECCAK256 SLOAD PUSH1 0x64 SWAP1 PUSH2 0xA9D SWAP1 DUP4 SWAP1 PUSH2 0x23E6 JUMP JUMPDEST GT ISZERO PUSH2 0xB0A JUMPI PUSH1 0x40 MLOAD PUSH3 0x461BCD PUSH1 0xE5 SHL DUP2 MSTORE PUSH1 0x20 PUSH1 0x4 DUP3 ADD MSTORE PUSH1 0x36 PUSH1 0x24 DUP3 ADD MSTORE PUSH32 0x546573744D757368726F6F6D733A3A2043616E6E6F74206D696E74206265796F PUSH1 0x44 DUP3 ADD MSTORE PUSH22 0x6E642077686974656C697374206D6178206D696E7421 PUSH1 0x50 SHL PUSH1 0x64 DUP3 ADD MSTORE PUSH1 0x84 ADD PUSH2 0x7ED JUMP JUMPDEST PUSH2 0xB1B DUP2 PUSH7 0x71AFD498D0000 PUSH2 0x23FE JUMP JUMPDEST CALLVALUE LT ISZERO PUSH2 0xB7E JUMPI PUSH1 0x40 MLOAD PUSH3 0x461BCD PUSH1 0xE5 SHL DUP2 MSTORE PUSH1 0x20 PUSH1 0x4 DUP3 ADD MSTORE PUSH1 0x2B PUSH1 0x24 DUP3 ADD MSTORE PUSH32 0x546573744D757368726F6F6D73203A3A205061796D656E742069732062656C6F PUSH1 0x44 DUP3 ADD MSTORE PUSH11 0x7720746865207072696365 PUSH1 0xA8 SHL PUSH1 0x64 DUP3 ADD MSTORE PUSH1 0x84 ADD PUSH2 0x7ED JUMP JUMPDEST PUSH1 0x40 MLOAD PUSH12 0xFFFFFFFFFFFFFFFFFFFFFFFF NOT CALLER PUSH1 0x60 SHL AND PUSH1 0x20 DUP3 ADD MSTORE PUSH1 0x0 SWAP1 PUSH1 0x34 ADD PUSH1 0x40 MLOAD PUSH1 0x20 DUP2 DUP4 SUB SUB DUP2 MSTORE SWAP1 PUSH1 0x40 MSTORE DUP1 MLOAD SWAP1 PUSH1 0x20 ADD KECCAK256 SWAP1 POP PUSH2 0xBC4 DUP4 PUSH1 0xC SLOAD DUP4 PUSH2 0x1891 JUMP JUMPDEST PUSH2 0xC21 JUMPI PUSH1 0x40 MLOAD PUSH3 0x461BCD PUSH1 0xE5 SHL DUP2 MSTORE PUSH1 0x20 PUSH1 0x4 DUP3 ADD MSTORE PUSH1 0x28 PUSH1 0x24 DUP3 ADD MSTORE PUSH32 0x546573744D757368726F6F6D73203A3A20596F7520617265206E6F7420776869 PUSH1 0x44 DUP3 ADD MSTORE PUSH8 0x1D195B1A5CDD1959 PUSH1 0xC2 SHL PUSH1 0x64 DUP3 ADD MSTORE PUSH1 0x84 ADD PUSH2 0x7ED JUMP JUMPDEST CALLER PUSH1 0x0 SWAP1 DUP2 MSTORE PUSH1 0xE PUSH1 0x20 MSTORE PUSH1 0x40 DUP2 KECCAK256 DUP1 SLOAD DUP5 SWAP3 SWAP1 PUSH2 0xC40 SWAP1 DUP5 SWAP1 PUSH2 0x23E6 JUMP JUMPDEST SWAP1 SWAP2 SSTORE POP PUSH2 0x96C SWAP1 POP CALLER DUP4 PUSH2 0x18A7 JUMP JUMPDEST PUSH1 0x8 SLOAD PUSH1 0x1 PUSH1 0x1 PUSH1 0xA0 SHL SUB AND CALLER EQ PUSH2 0xC7A JUMPI PUSH1 0x40 MLOAD PUSH3 0x461BCD PUSH1 0xE5 SHL DUP2 MSTORE PUSH1 0x4 ADD PUSH2 0x7ED SWAP1 PUSH2 0x2311 JUMP JUMPDEST PUSH1 0x0 PUSH1 0x64 PUSH2 0xC89 SELFBALANCE PUSH1 0x3 PUSH2 0x23FE JUMP JUMPDEST PUSH2 0xC93 SWAP2 SWAP1 PUSH2 0x2433 JUMP JUMPDEST PUSH1 0x40 MLOAD SWAP1 SWAP2 POP PUSH20 0x88FFCDB2830EAD384D875A2DBA8DE019B0D301D9 SWAP1 DUP3 ISZERO PUSH2 0x8FC MUL SWAP1 DUP4 SWAP1 PUSH1 0x0 DUP2 DUP2 DUP2 DUP6 DUP9 DUP9 CALL SWAP4 POP POP POP POP ISZERO DUP1 ISZERO PUSH2 0xCD7 JUMPI RETURNDATASIZE PUSH1 0x0 DUP1 RETURNDATACOPY RETURNDATASIZE PUSH1 0x0 REVERT JUMPDEST POP PUSH1 0x40 MLOAD CALLER SWAP1 SELFBALANCE DUP1 ISZERO PUSH2 0x8FC MUL SWAP2 PUSH1 0x0 DUP2 DUP2 DUP2 DUP6 DUP9 DUP9 CALL SWAP4 POP POP POP POP ISZERO DUP1 ISZERO PUSH2 0x809 JUMPI RETURNDATASIZE PUSH1 0x0 DUP1 RETURNDATACOPY RETURNDATASIZE PUSH1 0x0 REVERT JUMPDEST PUSH2 0x96C DUP4 DUP4 DUP4 PUSH1 0x40 MLOAD DUP1 PUSH1 0x20 ADD PUSH1 0x40 MSTORE DUP1 PUSH1 0x0 DUP2 MSTORE POP PUSH2 0x124F JUMP JUMPDEST PUSH1 0xA DUP1 SLOAD PUSH2 0xD2C SWAP1 PUSH2 0x2346 JUMP JUMPDEST DUP1 PUSH1 0x1F ADD PUSH1 0x20 DUP1 SWAP2 DIV MUL PUSH1 0x20 ADD PUSH1 0x40 MLOAD SWAP1 DUP2 ADD PUSH1 0x40 MSTORE DUP1 SWAP3 SWAP2 SWAP1 DUP2 DUP2 MSTORE PUSH1 0x20 ADD DUP3 DUP1 SLOAD PUSH2 0xD58 SWAP1 PUSH2 0x2346 JUMP JUMPDEST DUP1 ISZERO PUSH2 0xDA5 JUMPI DUP1 PUSH1 0x1F LT PUSH2 0xD7A JUMPI PUSH2 0x100 DUP1 DUP4 SLOAD DIV MUL DUP4 MSTORE SWAP2 PUSH1 0x20 ADD SWAP2 PUSH2 0xDA5 JUMP JUMPDEST DUP3 ADD SWAP2 SWAP1 PUSH1 0x0 MSTORE PUSH1 0x20 PUSH1 0x0 KECCAK256 SWAP1 JUMPDEST DUP2 SLOAD DUP2 MSTORE SWAP1 PUSH1 0x1 ADD SWAP1 PUSH1 0x20 ADD DUP1 DUP4 GT PUSH2 0xD88 JUMPI DUP3 SWAP1 SUB PUSH1 0x1F AND DUP3 ADD SWAP2 JUMPDEST POP POP POP POP POP DUP2 JUMP JUMPDEST PUSH1 0x8 SLOAD PUSH1 0x1 PUSH1 0x1 PUSH1 0xA0 SHL SUB AND CALLER EQ PUSH2 0xDD7 JUMPI PUSH1 0x40 MLOAD PUSH3 0x461BCD PUSH1 0xE5 SHL DUP2 MSTORE PUSH1 0x4 ADD PUSH2 0x7ED SWAP1 PUSH2 0x2311 JUMP JUMPDEST PUSH1 0xB DUP1 SLOAD PUSH1 0xFF NOT DUP2 AND PUSH1 0xFF SWAP1 SWAP2 AND ISZERO OR SWAP1 SSTORE JUMP JUMPDEST PUSH1 0x0 PUSH2 0xDF6 DUP3 PUSH2 0x18C1 JUMP JUMPDEST MLOAD SWAP3 SWAP2 POP POP JUMP JUMPDEST PUSH1 0x0 PUSH1 0x1 PUSH1 0x1 PUSH1 0xA0 SHL SUB DUP3 AND PUSH2 0xE26 JUMPI PUSH1 0x40 MLOAD PUSH4 0x23D3AD81 PUSH1 0xE2 SHL DUP2 MSTORE PUSH1 0x4 ADD PUSH1 0x40 MLOAD DUP1 SWAP2 SUB SWAP1 REVERT JUMPDEST POP PUSH1 0x1 PUSH1 0x1 PUSH1 0xA0 SHL SUB AND PUSH1 0x0 SWAP1 DUP2 MSTORE PUSH1 0x5 PUSH1 0x20 MSTORE PUSH1 0x40 SWAP1 KECCAK256 SLOAD PUSH1 0x1 PUSH1 0x1 PUSH1 0x40 SHL SUB AND SWAP1 JUMP JUMPDEST PUSH1 0x8 SLOAD PUSH1 0x1 PUSH1 0x1 PUSH1 0xA0 SHL SUB AND CALLER EQ PUSH2 0xE75 JUMPI PUSH1 0x40 MLOAD PUSH3 0x461BCD PUSH1 0xE5 SHL DUP2 MSTORE PUSH1 0x4 ADD PUSH2 0x7ED SWAP1 PUSH2 0x2311 JUMP JUMPDEST PUSH2 0xE7F PUSH1 0x0 PUSH2 0x19DB JUMP JUMPDEST JUMP JUMPDEST PUSH1 0x8 SLOAD PUSH1 0x1 PUSH1 0x1 PUSH1 0xA0 SHL SUB AND CALLER EQ PUSH2 0xEAB JUMPI PUSH1 0x40 MLOAD PUSH3 0x461BCD PUSH1 0xE5 SHL DUP2 MSTORE PUSH1 0x4 ADD PUSH2 0x7ED SWAP1 PUSH2 0x2311 JUMP JUMPDEST PUSH1 0xC SSTORE JUMP JUMPDEST PUSH1 0x60 CALLER PUSH1 0x0 PUSH2 0xEBE DUP3 PUSH2 0xDFD JUMP JUMPDEST SWAP1 POP PUSH1 0x0 DUP2 PUSH1 0x1 PUSH1 0x1 PUSH1 0x40 SHL SUB DUP2 GT ISZERO PUSH2 0xEDA JUMPI PUSH2 0xEDA PUSH2 0x1F69 JUMP JUMPDEST PUSH1 0x40 MLOAD SWAP1 DUP1 DUP3 MSTORE DUP1 PUSH1 0x20 MUL PUSH1 0x20 ADD DUP3 ADD PUSH1 0x40 MSTORE DUP1 ISZERO PUSH2 0xF03 JUMPI DUP2 PUSH1 0x20 ADD PUSH1 0x20 DUP3 MUL DUP1 CALLDATASIZE DUP4 CALLDATACOPY ADD SWAP1 POP JUMPDEST POP SWAP1 POP PUSH1 0x0 JUMPDEST DUP3 DUP2 LT ISZERO PUSH2 0xF23 JUMPI DUP1 PUSH2 0xF1B DUP2 PUSH2 0x2447 JUMP JUMPDEST SWAP2 POP POP PUSH2 0xF09 JUMP JUMPDEST POP SWAP4 SWAP3 POP POP POP JUMP JUMPDEST PUSH1 0x8 SLOAD PUSH1 0x1 PUSH1 0x1 PUSH1 0xA0 SHL SUB AND CALLER EQ PUSH2 0xF55 JUMPI PUSH1 0x40 MLOAD PUSH3 0x461BCD PUSH1 0xE5 SHL DUP2 MSTORE PUSH1 0x4 ADD PUSH2 0x7ED SWAP1 PUSH2 0x2311 JUMP JUMPDEST PUSH1 0xB DUP1 SLOAD PUSH3 0xFF0000 NOT DUP2 AND PUSH3 0x10000 SWAP2 DUP3 SWAP1 DIV PUSH1 0xFF AND ISZERO SWAP1 SWAP2 MUL OR SWAP1 SSTORE JUMP JUMPDEST PUSH1 0x60 PUSH1 0x3 DUP1 SLOAD PUSH2 0x81C SWAP1 PUSH2 0x2346 JUMP JUMPDEST ORIGIN CALLER EQ PUSH2 0xFA2 JUMPI PUSH1 0x40 MLOAD PUSH3 0x461BCD PUSH1 0xE5 SHL DUP2 MSTORE PUSH1 0x4 ADD PUSH2 0x7ED SWAP1 PUSH2 0x2381 JUMP JUMPDEST PUSH1 0xB SLOAD PUSH2 0x100 SWAP1 DIV PUSH1 0xFF AND PUSH2 0xFF9 JUMPI PUSH1 0x40 MLOAD PUSH3 0x461BCD PUSH1 0xE5 SHL DUP2 MSTORE PUSH1 0x20 PUSH1 0x4 DUP3 ADD DUP2 SWAP1 MSTORE PUSH1 0x24 DUP3 ADD MSTORE PUSH32 0x546573744D757368726F6F6D73203A3A204E6F7420596574204163746976652E PUSH1 0x44 DUP3 ADD MSTORE PUSH1 0x64 ADD PUSH2 0x7ED JUMP JUMPDEST PUSH2 0x8AE DUP2 PUSH2 0x100A PUSH1 0x1 SLOAD PUSH1 0x0 SLOAD SUB SWAP1 JUMP JUMPDEST PUSH2 0x1014 SWAP2 SWAP1 PUSH2 0x23E6 JUMP JUMPDEST GT ISZERO PUSH2 0x106D JUMPI PUSH1 0x40 MLOAD PUSH3 0x461BCD PUSH1 0xE5 SHL DUP2 MSTORE PUSH1 0x20 PUSH1 0x4 DUP3 ADD MSTORE PUSH1 0x22 PUSH1 0x24 DUP3 ADD MSTORE PUSH32 0x546573744D757368726F6F6D73203A3A204265796F6E64204D61782053757070 PUSH1 0x44 DUP3 ADD MSTORE PUSH2 0x6C79 PUSH1 0xF0 SHL PUSH1 0x64 DUP3 ADD MSTORE PUSH1 0x84 ADD PUSH2 0x7ED JUMP JUMPDEST CALLER PUSH1 0x0 SWAP1 DUP2 MSTORE PUSH1 0xD PUSH1 0x20 MSTORE PUSH1 0x40 SWAP1 KECCAK256 SLOAD PUSH1 0x64 SWAP1 PUSH2 0x108B SWAP1 DUP4 SWAP1 PUSH2 0x23E6 JUMP JUMPDEST GT ISZERO PUSH2 0x10EA JUMPI PUSH1 0x40 MLOAD PUSH3 0x461BCD PUSH1 0xE5 SHL DUP2 MSTORE PUSH1 0x20 PUSH1 0x4 DUP3 ADD MSTORE PUSH1 0x28 PUSH1 0x24 DUP3 ADD MSTORE PUSH32 0x546573744D757368726F6F6D73203A3A20416C7265616479206D696E74656420 PUSH1 0x44 DUP3 ADD MSTORE PUSH8 0x332074696D657321 PUSH1 0xC0 SHL PUSH1 0x64 DUP3 ADD MSTORE PUSH1 0x84 ADD PUSH2 0x7ED JUMP JUMPDEST PUSH2 0x10FB DUP2 PUSH7 0xAA87BEE538000 PUSH2 0x23FE JUMP JUMPDEST CALLVALUE LT ISZERO PUSH2 0x114A JUMPI PUSH1 0x40 MLOAD PUSH3 0x461BCD PUSH1 0xE5 SHL DUP2 MSTORE PUSH1 0x20 PUSH1 0x4 DUP3 ADD MSTORE PUSH1 0x17 PUSH1 0x24 DUP3 ADD MSTORE PUSH32 0x546573744D757368726F6F6D73203A3A2042656C6F7720000000000000000000 PUSH1 0x44 DUP3 ADD MSTORE PUSH1 0x64 ADD PUSH2 0x7ED JUMP JUMPDEST CALLER PUSH1 0x0 SWAP1 DUP2 MSTORE PUSH1 0xD PUSH1 0x20 MSTORE PUSH1 0x40 DUP2 KECCAK256 DUP1 SLOAD DUP4 SWAP3 SWAP1 PUSH2 0x1169 SWAP1 DUP5 SWAP1 PUSH2 0x23E6 JUMP JUMPDEST SWAP1 SWAP2 SSTORE POP PUSH2 0x1179 SWAP1 POP CALLER DUP3 PUSH2 0x18A7 JUMP JUMPDEST POP JUMP JUMPDEST PUSH1 0x1 PUSH1 0x1 PUSH1 0xA0 SHL SUB DUP3 AND CALLER EQ ISZERO PUSH2 0x11A6 JUMPI PUSH1 0x40 MLOAD PUSH4 0xB06307DB PUSH1 0xE0 SHL DUP2 MSTORE PUSH1 0x4 ADD PUSH1 0x40 MLOAD DUP1 SWAP2 SUB SWAP1 REVERT JUMPDEST CALLER PUSH1 0x0 DUP2 DUP2 MSTORE PUSH1 0x7 PUSH1 0x20 SWAP1 DUP2 MSTORE PUSH1 0x40 DUP1 DUP4 KECCAK256 PUSH1 0x1 PUSH1 0x1 PUSH1 0xA0 SHL SUB DUP8 AND DUP1 DUP6 MSTORE SWAP1 DUP4 MSTORE SWAP3 DUP2 SWAP1 KECCAK256 DUP1 SLOAD PUSH1 0xFF NOT AND DUP7 ISZERO ISZERO SWAP1 DUP2 OR SWAP1 SWAP2 SSTORE SWAP1 MLOAD SWAP1 DUP2 MSTORE SWAP2 SWAP3 SWAP2 PUSH32 0x17307EAB39AB6107E8899845AD3D59BD9653F200F220920489CA2B5937696C31 SWAP2 ADD PUSH1 0x40 MLOAD DUP1 SWAP2 SUB SWAP1 LOG3 POP POP JUMP JUMPDEST PUSH1 0x8 SLOAD PUSH1 0x1 PUSH1 0x1 PUSH1 0xA0 SHL SUB AND CALLER EQ PUSH2 0x123C JUMPI PUSH1 0x40 MLOAD PUSH3 0x461BCD PUSH1 0xE5 SHL DUP2 MSTORE PUSH1 0x4 ADD PUSH2 0x7ED SWAP1 PUSH2 0x2311 JUMP JUMPDEST DUP1 MLOAD PUSH2 0x809 SWAP1 PUSH1 0xA SWAP1 PUSH1 0x20 DUP5 ADD SWAP1 PUSH2 0x1E66 JUMP JUMPDEST PUSH2 0x125A DUP5 DUP5 DUP5 PUSH2 0x167D JUMP JUMPDEST PUSH1 0x1 PUSH1 0x1 PUSH1 0xA0 SHL SUB DUP4 AND EXTCODESIZE ISZERO ISZERO DUP1 ISZERO PUSH2 0x127C JUMPI POP PUSH2 0x127A DUP5 DUP5 DUP5 DUP5 PUSH2 0x1A2D JUMP JUMPDEST ISZERO JUMPDEST ISZERO PUSH2 0x129A JUMPI PUSH1 0x40 MLOAD PUSH4 0x68D2BF6B PUSH1 0xE1 SHL DUP2 MSTORE PUSH1 0x4 ADD PUSH1 0x40 MLOAD DUP1 SWAP2 SUB SWAP1 REVERT JUMPDEST POP POP POP POP JUMP JUMPDEST PUSH1 0x8 SLOAD PUSH1 0x1 PUSH1 0x1 PUSH1 0xA0 SHL SUB AND CALLER EQ PUSH2 0x12CA JUMPI PUSH1 0x40 MLOAD PUSH3 0x461BCD PUSH1 0xE5 SHL DUP2 MSTORE PUSH1 0x4 ADD PUSH2 0x7ED SWAP1 PUSH2 0x2311 JUMP JUMPDEST PUSH1 0xB SLOAD PUSH5 0x100000000 SWAP1 DIV PUSH1 0xFF AND ISZERO PUSH2 0x1331 JUMPI PUSH1 0x40 MLOAD PUSH3 0x461BCD PUSH1 0xE5 SHL DUP2 MSTORE PUSH1 0x20 PUSH1 0x4 DUP3 ADD MSTORE PUSH1 0x24 DUP1 DUP3 ADD MSTORE PUSH32 0x546573744D757368726F6F6D73203A3A205465616D20616C7265616479206D69 PUSH1 0x44 DUP3 ADD MSTORE PUSH4 0x1B9D1959 PUSH1 0xE2 SHL PUSH1 0x64 DUP3 ADD MSTORE PUSH1 0x84 ADD PUSH2 0x7ED JUMP JUMPDEST PUSH1 0xB DUP1 SLOAD PUSH5 0xFF00000000 NOT AND PUSH5 0x100000000 OR SWAP1 SSTORE PUSH2 0xE7F CALLER PUSH2 0x7D0 PUSH2 0x18A7 JUMP JUMPDEST PUSH1 0x8 SLOAD PUSH1 0x1 PUSH1 0x1 PUSH1 0xA0 SHL SUB AND CALLER EQ PUSH2 0x137C JUMPI PUSH1 0x40 MLOAD PUSH3 0x461BCD PUSH1 0xE5 SHL DUP2 MSTORE PUSH1 0x4 ADD PUSH2 0x7ED SWAP1 PUSH2 0x2311 JUMP JUMPDEST PUSH1 0xB DUP1 SLOAD PUSH4 0xFF000000 NOT DUP2 AND PUSH4 0x1000000 SWAP2 DUP3 SWAP1 DIV PUSH1 0xFF AND ISZERO SWAP1 SWAP2 MUL OR SWAP1 SSTORE JUMP JUMPDEST PUSH1 0x60 PUSH2 0x13A8 DUP3 PUSH2 0x15F6 JUMP JUMPDEST PUSH2 0x140C JUMPI PUSH1 0x40 MLOAD PUSH3 0x461BCD PUSH1 0xE5 SHL DUP2 MSTORE PUSH1 0x20 PUSH1 0x4 DUP3 ADD MSTORE PUSH1 0x2F PUSH1 0x24 DUP3 ADD MSTORE PUSH32 0x4552433732314D657461646174613A2055524920717565727920666F72206E6F PUSH1 0x44 DUP3 ADD MSTORE PUSH15 0x3732BC34B9BA32B73A103A37B5B2B7 PUSH1 0x89 SHL PUSH1 0x64 DUP3 ADD MSTORE PUSH1 0x84 ADD PUSH2 0x7ED JUMP JUMPDEST PUSH1 0x0 PUSH2 0x1419 DUP4 PUSH1 0x1 PUSH2 0x23E6 JUMP JUMPDEST PUSH1 0xB SLOAD SWAP1 SWAP2 POP PUSH1 0xFF AND PUSH2 0x14B9 JUMPI PUSH1 0xA DUP1 SLOAD PUSH2 0x1433 SWAP1 PUSH2 0x2346 JUMP JUMPDEST DUP1 PUSH1 0x1F ADD PUSH1 0x20 DUP1 SWAP2 DIV MUL PUSH1 0x20 ADD PUSH1 0x40 MLOAD SWAP1 DUP2 ADD PUSH1 0x40 MSTORE DUP1 SWAP3 SWAP2 SWAP1 DUP2 DUP2 MSTORE PUSH1 0x20 ADD DUP3 DUP1 SLOAD PUSH2 0x145F SWAP1 PUSH2 0x2346 JUMP JUMPDEST DUP1 ISZERO PUSH2 0x14AC JUMPI DUP1 PUSH1 0x1F LT PUSH2 0x1481 JUMPI PUSH2 0x100 DUP1 DUP4 SLOAD DIV MUL DUP4 MSTORE SWAP2 PUSH1 0x20 ADD SWAP2 PUSH2 0x14AC JUMP JUMPDEST DUP3 ADD SWAP2 SWAP1 PUSH1 0x0 MSTORE PUSH1 0x20 PUSH1 0x0 KECCAK256 SWAP1 JUMPDEST DUP2 SLOAD DUP2 MSTORE SWAP1 PUSH1 0x1 ADD SWAP1 PUSH1 0x20 ADD DUP1 DUP4 GT PUSH2 0x148F JUMPI DUP3 SWAP1 SUB PUSH1 0x1F AND DUP3 ADD SWAP2 JUMPDEST POP POP POP POP POP SWAP2 POP POP SWAP2 SWAP1 POP JUMP JUMPDEST PUSH1 0x0 PUSH1 0x9 DUP1 SLOAD PUSH2 0x14C8 SWAP1 PUSH2 0x2346 JUMP JUMPDEST SWAP1 POP GT PUSH2 0x14E4 JUMPI PUSH1 0x40 MLOAD DUP1 PUSH1 0x20 ADD PUSH1 0x40 MSTORE DUP1 PUSH1 0x0 DUP2 MSTORE POP PUSH2 0x1510 JUMP JUMPDEST PUSH1 0x9 PUSH2 0x14EF DUP3 PUSH2 0x1B25 JUMP JUMPDEST PUSH1 0x40 MLOAD PUSH1 0x20 ADD PUSH2 0x1500 SWAP3 SWAP2 SWAP1 PUSH2 0x247E JUMP JUMPDEST PUSH1 0x40 MLOAD PUSH1 0x20 DUP2 DUP4 SUB SUB DUP2 MSTORE SWAP1 PUSH1 0x40 MSTORE JUMPDEST SWAP4 SWAP3 POP POP POP JUMP JUMPDEST PUSH1 0x8 SLOAD PUSH1 0x1 PUSH1 0x1 PUSH1 0xA0 SHL SUB AND CALLER EQ PUSH2 0x1541 JUMPI PUSH1 0x40 MLOAD PUSH3 0x461BCD PUSH1 0xE5 SHL DUP2 MSTORE PUSH1 0x4 ADD PUSH2 0x7ED SWAP1 PUSH2 0x2311 JUMP JUMPDEST PUSH1 0xB DUP1 SLOAD PUSH2 0xFF00 NOT DUP2 AND PUSH2 0x100 SWAP2 DUP3 SWAP1 DIV PUSH1 0xFF AND ISZERO SWAP1 SWAP2 MUL OR SWAP1 SSTORE JUMP JUMPDEST PUSH1 0x8 SLOAD PUSH1 0x1 PUSH1 0x1 PUSH1 0xA0 SHL SUB AND CALLER EQ PUSH2 0x1588 JUMPI PUSH1 0x40 MLOAD PUSH3 0x461BCD PUSH1 0xE5 SHL DUP2 MSTORE PUSH1 0x4 ADD PUSH2 0x7ED SWAP1 PUSH2 0x2311 JUMP JUMPDEST PUSH1 0x1 PUSH1 0x1 PUSH1 0xA0 SHL SUB DUP2 AND PUSH2 0x15ED JUMPI PUSH1 0x40 MLOAD PUSH3 0x461BCD PUSH1 0xE5 SHL DUP2 MSTORE PUSH1 0x20 PUSH1 0x4 DUP3 ADD MSTORE PUSH1 0x26 PUSH1 0x24 DUP3 ADD MSTORE PUSH32 0x4F776E61626C653A206E6577206F776E657220697320746865207A65726F2061 PUSH1 0x44 DUP3 ADD MSTORE PUSH6 0x646472657373 PUSH1 0xD0 SHL PUSH1 0x64 DUP3 ADD MSTORE PUSH1 0x84 ADD PUSH2 0x7ED JUMP JUMPDEST PUSH2 0x1179 DUP2 PUSH2 0x19DB JUMP JUMPDEST PUSH1 0x0 DUP1 SLOAD DUP3 LT DUP1 ISZERO PUSH2 0x7BD JUMPI POP POP PUSH1 0x0 SWAP1 DUP2 MSTORE PUSH1 0x4 PUSH1 0x20 MSTORE PUSH1 0x40 SWAP1 KECCAK256 SLOAD PUSH1 0x1 PUSH1 0xE0 SHL SWAP1 DIV PUSH1 0xFF AND ISZERO SWAP1 JUMP JUMPDEST PUSH1 0x0 DUP3 DUP2 MSTORE PUSH1 0x6 PUSH1 0x20 MSTORE PUSH1 0x40 DUP1 DUP3 KECCAK256 DUP1 SLOAD PUSH1 0x1 PUSH1 0x1 PUSH1 0xA0 SHL SUB NOT AND PUSH1 0x1 PUSH1 0x1 PUSH1 0xA0 SHL SUB DUP8 DUP2 AND SWAP2 DUP3 OR SWAP1 SWAP3 SSTORE SWAP2 MLOAD DUP6 SWAP4 SWAP2 DUP6 AND SWAP2 PUSH32 0x8C5BE1E5EBEC7D5BD14F71427D1E84F3DD0314C0F7B2291E5B200AC8C7C3B925 SWAP2 LOG4 POP POP POP JUMP JUMPDEST PUSH1 0x0 PUSH2 0x1688 DUP3 PUSH2 0x18C1 JUMP JUMPDEST DUP1 MLOAD SWAP1 SWAP2 POP PUSH1 0x0 SWAP1 PUSH1 0x1 PUSH1 0x1 PUSH1 0xA0 SHL SUB AND CALLER PUSH1 0x1 PUSH1 0x1 PUSH1 0xA0 SHL SUB AND EQ DUP1 PUSH2 0x16B6 JUMPI POP DUP2 MLOAD PUSH2 0x16B6 SWAP1 CALLER PUSH2 0x723 JUMP JUMPDEST DUP1 PUSH2 0x16D1 JUMPI POP CALLER PUSH2 0x16C6 DUP5 PUSH2 0x89F JUMP JUMPDEST PUSH1 0x1 PUSH1 0x1 PUSH1 0xA0 SHL SUB AND EQ JUMPDEST SWAP1 POP DUP1 PUSH2 0x16F1 JUMPI PUSH1 0x40 MLOAD PUSH4 0x2CE44B5F PUSH1 0xE1 SHL DUP2 MSTORE PUSH1 0x4 ADD PUSH1 0x40 MLOAD DUP1 SWAP2 SUB SWAP1 REVERT JUMPDEST DUP5 PUSH1 0x1 PUSH1 0x1 PUSH1 0xA0 SHL SUB AND DUP3 PUSH1 0x0 ADD MLOAD PUSH1 0x1 PUSH1 0x1 PUSH1 0xA0 SHL SUB AND EQ PUSH2 0x1726 JUMPI PUSH1 0x40 MLOAD PUSH3 0xA11481 PUSH1 0xE8 SHL DUP2 MSTORE PUSH1 0x4 ADD PUSH1 0x40 MLOAD DUP1 SWAP2 SUB SWAP1 REVERT JUMPDEST PUSH1 0x1 PUSH1 0x1 PUSH1 0xA0 SHL SUB DUP5 AND PUSH2 0x174D JUMPI PUSH1 0x40 MLOAD PUSH4 0x3A954ECD PUSH1 0xE2 SHL DUP2 MSTORE PUSH1 0x4 ADD PUSH1 0x40 MLOAD DUP1 SWAP2 SUB SWAP1 REVERT JUMPDEST PUSH2 0x175D PUSH1 0x0 DUP5 DUP5 PUSH1 0x0 ADD MLOAD PUSH2 0x1621 JUMP JUMPDEST PUSH1 0x1 PUSH1 0x1 PUSH1 0xA0 SHL SUB DUP6 DUP2 AND PUSH1 0x0 SWAP1 DUP2 MSTORE PUSH1 0x5 PUSH1 0x20 SWAP1 DUP2 MSTORE PUSH1 0x40 DUP1 DUP4 KECCAK256 DUP1 SLOAD PUSH8 0xFFFFFFFFFFFFFFFF NOT DUP1 DUP3 AND PUSH1 0x1 PUSH1 0x1 PUSH1 0x40 SHL SUB SWAP3 DUP4 AND PUSH1 0x0 NOT ADD DUP4 AND OR SWAP1 SWAP3 SSTORE DUP10 DUP7 AND DUP1 DUP7 MSTORE DUP4 DUP7 KECCAK256 DUP1 SLOAD SWAP4 DUP5 AND SWAP4 DUP4 AND PUSH1 0x1 SWAP1 DUP2 ADD DUP5 AND SWAP5 SWAP1 SWAP5 OR SWAP1 SSTORE DUP10 DUP7 MSTORE PUSH1 0x4 SWAP1 SWAP5 MSTORE DUP3 DUP6 KECCAK256 DUP1 SLOAD PUSH1 0x1 PUSH1 0x1 PUSH1 0xE0 SHL SUB NOT AND SWAP1 SWAP5 OR PUSH1 0x1 PUSH1 0xA0 SHL TIMESTAMP SWAP1 SWAP3 AND SWAP2 SWAP1 SWAP2 MUL OR SWAP1 SWAP3 SSTORE SWAP1 DUP7 ADD DUP1 DUP4 MSTORE SWAP2 KECCAK256 SLOAD SWAP1 SWAP2 AND PUSH2 0x1847 JUMPI PUSH1 0x0 SLOAD DUP2 LT ISZERO PUSH2 0x1847 JUMPI DUP3 MLOAD PUSH1 0x0 DUP3 DUP2 MSTORE PUSH1 0x4 PUSH1 0x20 SWAP1 DUP2 MSTORE PUSH1 0x40 SWAP1 SWAP2 KECCAK256 DUP1 SLOAD SWAP2 DUP7 ADD MLOAD PUSH1 0x1 PUSH1 0x1 PUSH1 0x40 SHL SUB AND PUSH1 0x1 PUSH1 0xA0 SHL MUL PUSH1 0x1 PUSH1 0x1 PUSH1 0xE0 SHL SUB NOT SWAP1 SWAP3 AND PUSH1 0x1 PUSH1 0x1 PUSH1 0xA0 SHL SUB SWAP1 SWAP4 AND SWAP3 SWAP1 SWAP3 OR OR SWAP1 SSTORE JUMPDEST POP DUP3 DUP5 PUSH1 0x1 PUSH1 0x1 PUSH1 0xA0 SHL SUB AND DUP7 PUSH1 0x1 PUSH1 0x1 PUSH1 0xA0 SHL SUB AND PUSH32 0xDDF252AD1BE2C89B69C2B068FC378DAA952BA7F163C4A11628F55A4DF523B3EF PUSH1 0x40 MLOAD PUSH1 0x40 MLOAD DUP1 SWAP2 SUB SWAP1 LOG4 JUMPDEST POP POP POP POP POP JUMP JUMPDEST PUSH1 0x0 DUP3 PUSH2 0x189E DUP6 DUP5 PUSH2 0x1C22 JUMP JUMPDEST EQ SWAP5 SWAP4 POP POP POP POP JUMP JUMPDEST PUSH2 0x809 DUP3 DUP3 PUSH1 0x40 MLOAD DUP1 PUSH1 0x20 ADD PUSH1 0x40 MSTORE DUP1 PUSH1 0x0 DUP2 MSTORE POP PUSH2 0x1C8E JUMP JUMPDEST PUSH1 0x40 DUP1 MLOAD PUSH1 0x60 DUP2 ADD DUP3 MSTORE PUSH1 0x0 DUP1 DUP3 MSTORE PUSH1 0x20 DUP3 ADD DUP2 SWAP1 MSTORE SWAP2 DUP2 ADD SWAP2 SWAP1 SWAP2 MSTORE DUP2 PUSH1 0x0 SLOAD DUP2 LT ISZERO PUSH2 0x19C2 JUMPI PUSH1 0x0 DUP2 DUP2 MSTORE PUSH1 0x4 PUSH1 0x20 SWAP1 DUP2 MSTORE PUSH1 0x40 SWAP2 DUP3 SWAP1 KECCAK256 DUP3 MLOAD PUSH1 0x60 DUP2 ADD DUP5 MSTORE SWAP1 SLOAD PUSH1 0x1 PUSH1 0x1 PUSH1 0xA0 SHL SUB DUP2 AND DUP3 MSTORE PUSH1 0x1 PUSH1 0xA0 SHL DUP2 DIV PUSH1 0x1 PUSH1 0x1 PUSH1 0x40 SHL SUB AND SWAP3 DUP3 ADD SWAP3 SWAP1 SWAP3 MSTORE PUSH1 0x1 PUSH1 0xE0 SHL SWAP1 SWAP2 DIV PUSH1 0xFF AND ISZERO ISZERO SWAP2 DUP2 ADD DUP3 SWAP1 MSTORE SWAP1 PUSH2 0x19C0 JUMPI DUP1 MLOAD PUSH1 0x1 PUSH1 0x1 PUSH1 0xA0 SHL SUB AND ISZERO PUSH2 0x1957 JUMPI SWAP4 SWAP3 POP POP POP JUMP JUMPDEST POP PUSH1 0x0 NOT ADD PUSH1 0x0 DUP2 DUP2 MSTORE PUSH1 0x4 PUSH1 0x20 SWAP1 DUP2 MSTORE PUSH1 0x40 SWAP2 DUP3 SWAP1 KECCAK256 DUP3 MLOAD PUSH1 0x60 DUP2 ADD DUP5 MSTORE SWAP1 SLOAD PUSH1 0x1 PUSH1 0x1 PUSH1 0xA0 SHL SUB DUP2 AND DUP1 DUP4 MSTORE PUSH1 0x1 PUSH1 0xA0 SHL DUP3 DIV PUSH1 0x1 PUSH1 0x1 PUSH1 0x40 SHL SUB AND SWAP4 DUP4 ADD SWAP4 SWAP1 SWAP4 MSTORE PUSH1 0x1 PUSH1 0xE0 SHL SWAP1 DIV PUSH1 0xFF AND ISZERO ISZERO SWAP3 DUP2 ADD SWAP3 SWAP1 SWAP3 MSTORE ISZERO PUSH2 0x19BB JUMPI SWAP4 SWAP3 POP POP POP JUMP JUMPDEST PUSH2 0x1957 JUMP JUMPDEST POP JUMPDEST PUSH1 0x40 MLOAD PUSH4 0x6F96CDA1 PUSH1 0xE1 SHL DUP2 MSTORE PUSH1 0x4 ADD PUSH1 0x40 MLOAD DUP1 SWAP2 SUB SWAP1 REVERT JUMPDEST PUSH1 0x8 DUP1 SLOAD PUSH1 0x1 PUSH1 0x1 PUSH1 0xA0 SHL SUB DUP4 DUP2 AND PUSH1 0x1 PUSH1 0x1 PUSH1 0xA0 SHL SUB NOT DUP4 AND DUP2 OR SWAP1 SWAP4 SSTORE PUSH1 0x40 MLOAD SWAP2 AND SWAP2 SWAP1 DUP3 SWAP1 PUSH32 0x8BE0079C531659141344CD1FD0A4F28419497F9722A3DAAFE3B4186F6B6457E0 SWAP1 PUSH1 0x0 SWAP1 LOG3 POP POP JUMP JUMPDEST PUSH1 0x40 MLOAD PUSH4 0xA85BD01 PUSH1 0xE1 SHL DUP2 MSTORE PUSH1 0x0 SWAP1 PUSH1 0x1 PUSH1 0x1 PUSH1 0xA0 SHL SUB DUP6 AND SWAP1 PUSH4 0x150B7A02 SWAP1 PUSH2 0x1A62 SWAP1 CALLER SWAP1 DUP10 SWAP1 DUP9 SWAP1 DUP9 SWAP1 PUSH1 0x4 ADD PUSH2 0x2539 JUMP JUMPDEST PUSH1 0x20 PUSH1 0x40 MLOAD DUP1 DUP4 SUB DUP2 PUSH1 0x0 DUP8 DUP1 EXTCODESIZE ISZERO DUP1 ISZERO PUSH2 0x1A7C JUMPI PUSH1 0x0 DUP1 REVERT JUMPDEST POP GAS CALL SWAP3 POP POP POP DUP1 ISZERO PUSH2 0x1AAC JUMPI POP PUSH1 0x40 DUP1 MLOAD PUSH1 0x1F RETURNDATASIZE SWAP1 DUP2 ADD PUSH1 0x1F NOT AND DUP3 ADD SWAP1 SWAP3 MSTORE PUSH2 0x1AA9 SWAP2 DUP2 ADD SWAP1 PUSH2 0x2576 JUMP JUMPDEST PUSH1 0x1 JUMPDEST PUSH2 0x1B07 JUMPI RETURNDATASIZE DUP1 DUP1 ISZERO PUSH2 0x1ADA JUMPI PUSH1 0x40 MLOAD SWAP2 POP PUSH1 0x1F NOT PUSH1 0x3F RETURNDATASIZE ADD AND DUP3 ADD PUSH1 0x40 MSTORE RETURNDATASIZE DUP3 MSTORE RETURNDATASIZE PUSH1 0x0 PUSH1 0x20 DUP5 ADD RETURNDATACOPY PUSH2 0x1ADF JUMP JUMPDEST PUSH1 0x60 SWAP2 POP JUMPDEST POP DUP1 MLOAD PUSH2 0x1AFF JUMPI PUSH1 0x40 MLOAD PUSH4 0x68D2BF6B PUSH1 0xE1 SHL DUP2 MSTORE PUSH1 0x4 ADD PUSH1 0x40 MLOAD DUP1 SWAP2 SUB SWAP1 REVERT JUMPDEST DUP1 MLOAD DUP2 PUSH1 0x20 ADD REVERT JUMPDEST PUSH1 0x1 PUSH1 0x1 PUSH1 0xE0 SHL SUB NOT AND PUSH4 0xA85BD01 PUSH1 0xE1 SHL EQ SWAP1 POP JUMPDEST SWAP5 SWAP4 POP POP POP POP JUMP JUMPDEST PUSH1 0x60 DUP2 PUSH2 0x1B49 JUMPI POP POP PUSH1 0x40 DUP1 MLOAD DUP1 DUP3 ADD SWAP1 SWAP2 MSTORE PUSH1 0x1 DUP2 MSTORE PUSH1 0x3 PUSH1 0xFC SHL PUSH1 0x20 DUP3 ADD MSTORE SWAP1 JUMP JUMPDEST DUP2 PUSH1 0x0 JUMPDEST DUP2 ISZERO PUSH2 0x1B73 JUMPI DUP1 PUSH2 0x1B5D DUP2 PUSH2 0x2447 JUMP JUMPDEST SWAP2 POP PUSH2 0x1B6C SWAP1 POP PUSH1 0xA DUP4 PUSH2 0x2433 JUMP JUMPDEST SWAP2 POP PUSH2 0x1B4D JUMP JUMPDEST PUSH1 0x0 DUP2 PUSH1 0x1 PUSH1 0x1 PUSH1 0x40 SHL SUB DUP2 GT ISZERO PUSH2 0x1B8D JUMPI PUSH2 0x1B8D PUSH2 0x1F69 JUMP JUMPDEST PUSH1 0x40 MLOAD SWAP1 DUP1 DUP3 MSTORE DUP1 PUSH1 0x1F ADD PUSH1 0x1F NOT AND PUSH1 0x20 ADD DUP3 ADD PUSH1 0x40 MSTORE DUP1 ISZERO PUSH2 0x1BB7 JUMPI PUSH1 0x20 DUP3 ADD DUP2 DUP1 CALLDATASIZE DUP4 CALLDATACOPY ADD SWAP1 POP JUMPDEST POP SWAP1 POP JUMPDEST DUP5 ISZERO PUSH2 0x1B1D JUMPI PUSH2 0x1BCC PUSH1 0x1 DUP4 PUSH2 0x2593 JUMP JUMPDEST SWAP2 POP PUSH2 0x1BD9 PUSH1 0xA DUP7 PUSH2 0x25AA JUMP JUMPDEST PUSH2 0x1BE4 SWAP1 PUSH1 0x30 PUSH2 0x23E6 JUMP JUMPDEST PUSH1 0xF8 SHL DUP2 DUP4 DUP2 MLOAD DUP2 LT PUSH2 0x1BF9 JUMPI PUSH2 0x1BF9 PUSH2 0x25BE JUMP JUMPDEST PUSH1 0x20 ADD ADD SWAP1 PUSH1 0x1 PUSH1 0x1 PUSH1 0xF8 SHL SUB NOT AND SWAP1 DUP2 PUSH1 0x0 BYTE SWAP1 MSTORE8 POP PUSH2 0x1C1B PUSH1 0xA DUP7 PUSH2 0x2433 JUMP JUMPDEST SWAP5 POP PUSH2 0x1BBB JUMP JUMPDEST PUSH1 0x0 DUP2 DUP2 JUMPDEST DUP5 MLOAD DUP2 LT ISZERO PUSH2 0xF23 JUMPI PUSH1 0x0 DUP6 DUP3 DUP2 MLOAD DUP2 LT PUSH2 0x1C44 JUMPI PUSH2 0x1C44 PUSH2 0x25BE JUMP JUMPDEST PUSH1 0x20 MUL PUSH1 0x20 ADD ADD MLOAD SWAP1 POP DUP1 DUP4 GT PUSH2 0x1C6A JUMPI PUSH1 0x0 DUP4 DUP2 MSTORE PUSH1 0x20 DUP3 SWAP1 MSTORE PUSH1 0x40 SWAP1 KECCAK256 SWAP3 POP PUSH2 0x1C7B JUMP JUMPDEST PUSH1 0x0 DUP2 DUP2 MSTORE PUSH1 0x20 DUP5 SWAP1 MSTORE PUSH1 0x40 SWAP1 KECCAK256 SWAP3 POP JUMPDEST POP DUP1 PUSH2 0x1C86 DUP2 PUSH2 0x2447 JUMP JUMPDEST SWAP2 POP POP PUSH2 0x1C27 JUMP JUMPDEST PUSH2 0x96C DUP4 DUP4 DUP4 PUSH1 0x1 PUSH1 0x0 SLOAD PUSH1 0x1 PUSH1 0x1 PUSH1 0xA0 SHL SUB DUP6 AND PUSH2 0x1CBF JUMPI PUSH1 0x40 MLOAD PUSH3 0x2E0763 PUSH1 0xE8 SHL DUP2 MSTORE PUSH1 0x4 ADD PUSH1 0x40 MLOAD DUP1 SWAP2 SUB SWAP1 REVERT JUMPDEST DUP4 PUSH2 0x1CDD JUMPI PUSH1 0x40 MLOAD PUSH4 0xB562E8DD PUSH1 0xE0 SHL DUP2 MSTORE PUSH1 0x4 ADD PUSH1 0x40 MLOAD DUP1 SWAP2 SUB SWAP1 REVERT JUMPDEST PUSH1 0x1 PUSH1 0x1 PUSH1 0xA0 SHL SUB DUP6 AND PUSH1 0x0 DUP2 DUP2 MSTORE PUSH1 0x5 PUSH1 0x20 SWAP1 DUP2 MSTORE PUSH1 0x40 DUP1 DUP4 KECCAK256 DUP1 SLOAD PUSH16 0xFFFFFFFFFFFFFFFFFFFFFFFFFFFFFFFF NOT DUP2 AND PUSH1 0x1 PUSH1 0x1 PUSH1 0x40 SHL SUB DUP1 DUP4 AND DUP13 ADD DUP2 AND SWAP2 DUP3 OR PUSH9 0x10000000000000000 PUSH8 0xFFFFFFFFFFFFFFFF NOT SWAP1 SWAP5 AND SWAP1 SWAP3 OR DUP4 SWAP1 DIV DUP2 AND DUP13 ADD DUP2 AND SWAP1 SWAP3 MUL OR SWAP1 SWAP2 SSTORE DUP6 DUP5 MSTORE PUSH1 0x4 SWAP1 SWAP3 MSTORE SWAP1 SWAP2 KECCAK256 DUP1 SLOAD PUSH1 0x1 PUSH1 0x1 PUSH1 0xE0 SHL SUB NOT AND SWAP1 SWAP3 OR PUSH1 0x1 PUSH1 0xA0 SHL TIMESTAMP SWAP1 SWAP3 AND SWAP2 SWAP1 SWAP2 MUL OR SWAP1 SSTORE DUP1 DUP1 DUP6 ADD DUP4 DUP1 ISZERO PUSH2 0x1D8E JUMPI POP PUSH1 0x1 PUSH1 0x1 PUSH1 0xA0 SHL SUB DUP8 AND EXTCODESIZE ISZERO ISZERO JUMPDEST ISZERO PUSH2 0x1E17 JUMPI JUMPDEST PUSH1 0x40 MLOAD DUP3 SWAP1 PUSH1 0x1 PUSH1 0x1 PUSH1 0xA0 SHL SUB DUP10 AND SWAP1 PUSH1 0x0 SWAP1 PUSH32 0xDDF252AD1BE2C89B69C2B068FC378DAA952BA7F163C4A11628F55A4DF523B3EF SWAP1 DUP3 SWAP1 LOG4 PUSH2 0x1DDF PUSH1 0x0 DUP9 DUP5 DUP1 PUSH1 0x1 ADD SWAP6 POP DUP9 PUSH2 0x1A2D JUMP JUMPDEST PUSH2 0x1DFC JUMPI PUSH1 0x40 MLOAD PUSH4 0x68D2BF6B PUSH1 0xE1 SHL DUP2 MSTORE PUSH1 0x4 ADD PUSH1 0x40 MLOAD DUP1 SWAP2 SUB SWAP1 REVERT JUMPDEST DUP1 DUP3 EQ ISZERO PUSH2 0x1D94 JUMPI DUP3 PUSH1 0x0 SLOAD EQ PUSH2 0x1E12 JUMPI PUSH1 0x0 DUP1 REVERT JUMPDEST PUSH2 0x1E5D JUMP JUMPDEST JUMPDEST PUSH1 0x40 MLOAD PUSH1 0x1 DUP4 ADD SWAP3 SWAP1 PUSH1 0x1 PUSH1 0x1 PUSH1 0xA0 SHL SUB DUP10 AND SWAP1 PUSH1 0x0 SWAP1 PUSH32 0xDDF252AD1BE2C89B69C2B068FC378DAA952BA7F163C4A11628F55A4DF523B3EF SWAP1 DUP3 SWAP1 LOG4 DUP1 DUP3 EQ ISZERO PUSH2 0x1E18 JUMPI JUMPDEST POP PUSH1 0x0 SSTORE PUSH2 0x188A JUMP JUMPDEST DUP3 DUP1 SLOAD PUSH2 0x1E72 SWAP1 PUSH2 0x2346 JUMP JUMPDEST SWAP1 PUSH1 0x0 MSTORE PUSH1 0x20 PUSH1 0x0 KECCAK256 SWAP1 PUSH1 0x1F ADD PUSH1 0x20 SWAP1 DIV DUP2 ADD SWAP3 DUP3 PUSH2 0x1E94 JUMPI PUSH1 0x0 DUP6 SSTORE PUSH2 0x1EDA JUMP JUMPDEST DUP3 PUSH1 0x1F LT PUSH2 0x1EAD JUMPI DUP1 MLOAD PUSH1 0xFF NOT AND DUP4 DUP1 ADD OR DUP6 SSTORE PUSH2 0x1EDA JUMP JUMPDEST DUP3 DUP1 ADD PUSH1 0x1 ADD DUP6 SSTORE DUP3 ISZERO PUSH2 0x1EDA JUMPI SWAP2 DUP3 ADD JUMPDEST DUP3 DUP2 GT ISZERO PUSH2 0x1EDA JUMPI DUP3 MLOAD DUP3 SSTORE SWAP2 PUSH1 0x20 ADD SWAP2 SWAP1 PUSH1 0x1 ADD SWAP1 PUSH2 0x1EBF JUMP JUMPDEST POP PUSH2 0x1EE6 SWAP3 SWAP2 POP PUSH2 0x1EEA JUMP JUMPDEST POP SWAP1 JUMP JUMPDEST JUMPDEST DUP1 DUP3 GT ISZERO PUSH2 0x1EE6 JUMPI PUSH1 0x0 DUP2 SSTORE PUSH1 0x1 ADD PUSH2 0x1EEB JUMP JUMPDEST PUSH1 0x1 PUSH1 0x1 PUSH1 0xE0 SHL SUB NOT DUP2 AND DUP2 EQ PUSH2 0x1179 JUMPI PUSH1 0x0 DUP1 REVERT JUMPDEST PUSH1 0x0 PUSH1 0x20 DUP3 DUP5 SUB SLT ISZERO PUSH2 0x1F27 JUMPI PUSH1 0x0 DUP1 REVERT JUMPDEST DUP2 CALLDATALOAD PUSH2 0x1510 DUP2 PUSH2 0x1EFF JUMP JUMPDEST DUP1 CALLDATALOAD PUSH1 0x1 PUSH1 0x1 PUSH1 0xA0 SHL SUB DUP2 AND DUP2 EQ PUSH2 0x1F49 JUMPI PUSH1 0x0 DUP1 REVERT JUMPDEST SWAP2 SWAP1 POP JUMP JUMPDEST PUSH1 0x0 PUSH1 0x20 DUP3 DUP5 SUB SLT ISZERO PUSH2 0x1F60 JUMPI PUSH1 0x0 DUP1 REVERT JUMPDEST PUSH2 0x1510 DUP3 PUSH2 0x1F32 JUMP JUMPDEST PUSH4 0x4E487B71 PUSH1 0xE0 SHL PUSH1 0x0 MSTORE PUSH1 0x41 PUSH1 0x4 MSTORE PUSH1 0x24 PUSH1 0x0 REVERT JUMPDEST PUSH1 0x40 MLOAD PUSH1 0x1F DUP3 ADD PUSH1 0x1F NOT AND DUP2 ADD PUSH1 0x1 PUSH1 0x1 PUSH1 0x40 SHL SUB DUP2 GT DUP3 DUP3 LT OR ISZERO PUSH2 0x1FA7 JUMPI PUSH2 0x1FA7 PUSH2 0x1F69 JUMP JUMPDEST PUSH1 0x40 MSTORE SWAP2 SWAP1 POP JUMP JUMPDEST PUSH1 0x0 PUSH1 0x1 PUSH1 0x1 PUSH1 0x40 SHL SUB DUP4 GT ISZERO PUSH2 0x1FC8 JUMPI PUSH2 0x1FC8 PUSH2 0x1F69 JUMP JUMPDEST PUSH2 0x1FDB PUSH1 0x1F DUP5 ADD PUSH1 0x1F NOT AND PUSH1 0x20 ADD PUSH2 0x1F7F JUMP JUMPDEST SWAP1 POP DUP3 DUP2 MSTORE DUP4 DUP4 DUP4 ADD GT ISZERO PUSH2 0x1FEF JUMPI PUSH1 0x0 DUP1 REVERT JUMPDEST DUP3 DUP3 PUSH1 0x20 DUP4 ADD CALLDATACOPY PUSH1 0x0 PUSH1 0x20 DUP5 DUP4 ADD ADD MSTORE SWAP4 SWAP3 POP POP POP JUMP JUMPDEST PUSH1 0x0 PUSH1 0x20 DUP3 DUP5 SUB SLT ISZERO PUSH2 0x2018 JUMPI PUSH1 0x0 DUP1 REVERT JUMPDEST DUP2 CALLDATALOAD PUSH1 0x1 PUSH1 0x1 PUSH1 0x40 SHL SUB DUP2 GT ISZERO PUSH2 0x202E JUMPI PUSH1 0x0 DUP1 REVERT JUMPDEST DUP3 ADD PUSH1 0x1F DUP2 ADD DUP5 SGT PUSH2 0x203F JUMPI PUSH1 0x0 DUP1 REVERT JUMPDEST PUSH2 0x1B1D DUP5 DUP3 CALLDATALOAD PUSH1 0x20 DUP5 ADD PUSH2 0x1FAF JUMP JUMPDEST PUSH1 0x0 JUMPDEST DUP4 DUP2 LT ISZERO PUSH2 0x2069 JUMPI DUP2 DUP2 ADD MLOAD DUP4 DUP3 ADD MSTORE PUSH1 0x20 ADD PUSH2 0x2051 JUMP JUMPDEST DUP4 DUP2 GT ISZERO PUSH2 0x129A JUMPI POP POP PUSH1 0x0 SWAP2 ADD MSTORE JUMP JUMPDEST PUSH1 0x0 DUP2 MLOAD DUP1 DUP5 MSTORE PUSH2 0x2092 DUP2 PUSH1 0x20 DUP7 ADD PUSH1 0x20 DUP7 ADD PUSH2 0x204E JUMP JUMPDEST PUSH1 0x1F ADD PUSH1 0x1F NOT AND SWAP3 SWAP1 SWAP3 ADD PUSH1 0x20 ADD SWAP3 SWAP2 POP POP JUMP JUMPDEST PUSH1 0x20 DUP2 MSTORE PUSH1 0x0 PUSH2 0x1510 PUSH1 0x20 DUP4 ADD DUP5 PUSH2 0x207A JUMP JUMPDEST PUSH1 0x0 PUSH1 0x20 DUP3 DUP5 SUB SLT ISZERO PUSH2 0x20CB JUMPI PUSH1 0x0 DUP1 REVERT JUMPDEST POP CALLDATALOAD SWAP2 SWAP1 POP JUMP JUMPDEST PUSH1 0x0 DUP1 PUSH1 0x40 DUP4 DUP6 SUB SLT ISZERO PUSH2 0x20E5 JUMPI PUSH1 0x0 DUP1 REVERT JUMPDEST PUSH2 0x20EE DUP4 PUSH2 0x1F32 JUMP JUMPDEST SWAP5 PUSH1 0x20 SWAP4 SWAP1 SWAP4 ADD CALLDATALOAD SWAP4 POP POP POP JUMP JUMPDEST PUSH1 0x0 DUP1 PUSH1 0x0 PUSH1 0x60 DUP5 DUP7 SUB SLT ISZERO PUSH2 0x2111 JUMPI PUSH1 0x0 DUP1 REVERT JUMPDEST PUSH2 0x211A DUP5 PUSH2 0x1F32 JUMP JUMPDEST SWAP3 POP PUSH2 0x2128 PUSH1 0x20 DUP6 ADD PUSH2 0x1F32 JUMP JUMPDEST SWAP2 POP PUSH1 0x40 DUP5 ADD CALLDATALOAD SWAP1 POP SWAP3 POP SWAP3 POP SWAP3 JUMP JUMPDEST PUSH1 0x0 DUP1 PUSH1 0x40 DUP4 DUP6 SUB SLT ISZERO PUSH2 0x214B JUMPI PUSH1 0x0 DUP1 REVERT JUMPDEST DUP3 CALLDATALOAD PUSH1 0x1 PUSH1 0x1 PUSH1 0x40 SHL SUB DUP1 DUP3 GT ISZERO PUSH2 0x2162 JUMPI PUSH1 0x0 DUP1 REVERT JUMPDEST DUP2 DUP6 ADD SWAP2 POP DUP6 PUSH1 0x1F DUP4 ADD SLT PUSH2 0x2176 JUMPI PUSH1 0x0 DUP1 REVERT JUMPDEST DUP2 CALLDATALOAD PUSH1 0x20 DUP3 DUP3 GT ISZERO PUSH2 0x218A JUMPI PUSH2 0x218A PUSH2 0x1F69 JUMP JUMPDEST DUP2 PUSH1 0x5 SHL SWAP3 POP PUSH2 0x219B DUP2 DUP5 ADD PUSH2 0x1F7F JUMP JUMPDEST DUP3 DUP2 MSTORE SWAP3 DUP5 ADD DUP2 ADD SWAP3 DUP2 DUP2 ADD SWAP1 DUP10 DUP6 GT ISZERO PUSH2 0x21B5 JUMPI PUSH1 0x0 DUP1 REVERT JUMPDEST SWAP5 DUP3 ADD SWAP5 JUMPDEST DUP5 DUP7 LT ISZERO PUSH2 0x21D3 JUMPI DUP6 CALLDATALOAD DUP3 MSTORE SWAP5 DUP3 ADD SWAP5 SWAP1 DUP3 ADD SWAP1 PUSH2 0x21BA JUMP JUMPDEST SWAP10 SWAP8 SWAP1 SWAP2 ADD CALLDATALOAD SWAP8 POP POP POP POP POP POP POP JUMP JUMPDEST PUSH1 0x20 DUP1 DUP3 MSTORE DUP3 MLOAD DUP3 DUP3 ADD DUP2 SWAP1 MSTORE PUSH1 0x0 SWAP2 SWAP1 DUP5 DUP3 ADD SWAP1 PUSH1 0x40 DUP6 ADD SWAP1 DUP5 JUMPDEST DUP2 DUP2 LT ISZERO PUSH2 0x221B JUMPI DUP4 MLOAD DUP4 MSTORE SWAP3 DUP5 ADD SWAP3 SWAP2 DUP5 ADD SWAP2 PUSH1 0x1 ADD PUSH2 0x21FF JUMP JUMPDEST POP SWAP1 SWAP7 SWAP6 POP POP POP POP POP POP JUMP JUMPDEST PUSH1 0x0 DUP1 PUSH1 0x40 DUP4 DUP6 SUB SLT ISZERO PUSH2 0x223A JUMPI PUSH1 0x0 DUP1 REVERT JUMPDEST PUSH2 0x2243 DUP4 PUSH2 0x1F32 JUMP JUMPDEST SWAP2 POP PUSH1 0x20 DUP4 ADD CALLDATALOAD DUP1 ISZERO ISZERO DUP2 EQ PUSH2 0x2258 JUMPI PUSH1 0x0 DUP1 REVERT JUMPDEST DUP1 SWAP2 POP POP SWAP3 POP SWAP3 SWAP1 POP JUMP JUMPDEST PUSH1 0x0 DUP1 PUSH1 0x0 DUP1 PUSH1 0x80 DUP6 DUP8 SUB SLT ISZERO PUSH2 0x2279 JUMPI PUSH1 0x0 DUP1 REVERT JUMPDEST PUSH2 0x2282 DUP6 PUSH2 0x1F32 JUMP JUMPDEST SWAP4 POP PUSH2 0x2290 PUSH1 0x20 DUP7 ADD PUSH2 0x1F32 JUMP JUMPDEST SWAP3 POP PUSH1 0x40 DUP6 ADD CALLDATALOAD SWAP2 POP PUSH1 0x60 DUP6 ADD CALLDATALOAD PUSH1 0x1 PUSH1 0x1 PUSH1 0x40 SHL SUB DUP2 GT ISZERO PUSH2 0x22B2 JUMPI PUSH1 0x0 DUP1 REVERT JUMPDEST DUP6 ADD PUSH1 0x1F DUP2 ADD DUP8 SGT PUSH2 0x22C3 JUMPI PUSH1 0x0 DUP1 REVERT JUMPDEST PUSH2 0x22D2 DUP8 DUP3 CALLDATALOAD PUSH1 0x20 DUP5 ADD PUSH2 0x1FAF JUMP JUMPDEST SWAP2 POP POP SWAP3 SWAP6 SWAP2 SWAP5 POP SWAP3 POP JUMP JUMPDEST PUSH1 0x0 DUP1 PUSH1 0x40 DUP4 DUP6 SUB SLT ISZERO PUSH2 0x22F1 JUMPI PUSH1 0x0 DUP1 REVERT JUMPDEST PUSH2 0x22FA DUP4 PUSH2 0x1F32 JUMP JUMPDEST SWAP2 POP PUSH2 0x2308 PUSH1 0x20 DUP5 ADD PUSH2 0x1F32 JUMP JUMPDEST SWAP1 POP SWAP3 POP SWAP3 SWAP1 POP JUMP JUMPDEST PUSH1 0x20 DUP1 DUP3 MSTORE DUP2 DUP2 ADD MSTORE PUSH32 0x4F776E61626C653A2063616C6C6572206973206E6F7420746865206F776E6572 PUSH1 0x40 DUP3 ADD MSTORE PUSH1 0x60 ADD SWAP1 JUMP JUMPDEST PUSH1 0x1 DUP2 DUP2 SHR SWAP1 DUP3 AND DUP1 PUSH2 0x235A JUMPI PUSH1 0x7F DUP3 AND SWAP2 POP JUMPDEST PUSH1 0x20 DUP3 LT DUP2 EQ ISZERO PUSH2 0x237B JUMPI PUSH4 0x4E487B71 PUSH1 0xE0 SHL PUSH1 0x0 MSTORE PUSH1 0x22 PUSH1 0x4 MSTORE PUSH1 0x24 PUSH1 0x0 REVERT JUMPDEST POP SWAP2 SWAP1 POP JUMP JUMPDEST PUSH1 0x20 DUP1 DUP3 MSTORE PUSH1 0x2F SWAP1 DUP3 ADD MSTORE PUSH32 0x546573744D757368726F6F6D73203A3A2043616E6E6F742062652063616C6C65 PUSH1 0x40 DUP3 ADD MSTORE PUSH15 0x1908189E48184818DBDB9D1C9858DD PUSH1 0x8A SHL PUSH1 0x60 DUP3 ADD MSTORE PUSH1 0x80 ADD SWAP1 JUMP JUMPDEST PUSH4 0x4E487B71 PUSH1 0xE0 SHL PUSH1 0x0 MSTORE PUSH1 0x11 PUSH1 0x4 MSTORE PUSH1 0x24 PUSH1 0x0 REVERT JUMPDEST PUSH1 0x0 DUP3 NOT DUP3 GT ISZERO PUSH2 0x23F9 JUMPI PUSH2 0x23F9 PUSH2 0x23D0 JUMP JUMPDEST POP ADD SWAP1 JUMP JUMPDEST PUSH1 0x0 DUP2 PUSH1 0x0 NOT DIV DUP4 GT DUP3 ISZERO ISZERO AND ISZERO PUSH2 0x2418 JUMPI PUSH2 0x2418 PUSH2 0x23D0 JUMP JUMPDEST POP MUL SWAP1 JUMP JUMPDEST PUSH4 0x4E487B71 PUSH1 0xE0 SHL PUSH1 0x0 MSTORE PUSH1 0x12 PUSH1 0x4 MSTORE PUSH1 0x24 PUSH1 0x0 REVERT JUMPDEST PUSH1 0x0 DUP3 PUSH2 0x2442 JUMPI PUSH2 0x2442 PUSH2 0x241D JUMP JUMPDEST POP DIV SWAP1 JUMP JUMPDEST PUSH1 0x0 PUSH1 0x0 NOT DUP3 EQ ISZERO PUSH2 0x245B JUMPI PUSH2 0x245B PUSH2 0x23D0 JUMP JUMPDEST POP PUSH1 0x1 ADD SWAP1 JUMP JUMPDEST PUSH1 0x0 DUP2 MLOAD PUSH2 0x2474 DUP2 DUP6 PUSH1 0x20 DUP7 ADD PUSH2 0x204E JUMP JUMPDEST SWAP3 SWAP1 SWAP3 ADD SWAP3 SWAP2 POP POP JUMP JUMPDEST PUSH1 0x0 DUP1 DUP5 SLOAD DUP2 PUSH1 0x1 DUP3 DUP2 SHR SWAP2 POP DUP1 DUP4 AND DUP1 PUSH2 0x249A JUMPI PUSH1 0x7F DUP4 AND SWAP3 POP JUMPDEST PUSH1 0x20 DUP1 DUP5 LT DUP3 EQ ISZERO PUSH2 0x24BA JUMPI PUSH4 0x4E487B71 PUSH1 0xE0 SHL DUP7 MSTORE PUSH1 0x22 PUSH1 0x4 MSTORE PUSH1 0x24 DUP7 REVERT JUMPDEST DUP2 DUP1 ISZERO PUSH2 0x24CE JUMPI PUSH1 0x1 DUP2 EQ PUSH2 0x24DF JUMPI PUSH2 0x250C JUMP JUMPDEST PUSH1 0xFF NOT DUP7 AND DUP10 MSTORE DUP5 DUP10 ADD SWAP7 POP PUSH2 0x250C JUMP JUMPDEST PUSH1 0x0 DUP12 DUP2 MSTORE PUSH1 0x20 SWAP1 KECCAK256 PUSH1 0x0 JUMPDEST DUP7 DUP2 LT ISZERO PUSH2 0x2504 JUMPI DUP2 SLOAD DUP12 DUP3 ADD MSTORE SWAP1 DUP6 ADD SWAP1 DUP4 ADD PUSH2 0x24EB JUMP JUMPDEST POP POP DUP5 DUP10 ADD SWAP7 POP JUMPDEST POP POP POP POP POP POP PUSH2 0x2530 PUSH2 0x251F DUP3 DUP7 PUSH2 0x2462 JUMP JUMPDEST PUSH5 0x173539B7B7 PUSH1 0xD9 SHL DUP2 MSTORE PUSH1 0x5 ADD SWAP1 JUMP JUMPDEST SWAP6 SWAP5 POP POP POP POP POP JUMP JUMPDEST PUSH1 0x1 PUSH1 0x1 PUSH1 0xA0 SHL SUB DUP6 DUP2 AND DUP3 MSTORE DUP5 AND PUSH1 0x20 DUP3 ADD MSTORE PUSH1 0x40 DUP2 ADD DUP4 SWAP1 MSTORE PUSH1 0x80 PUSH1 0x60 DUP3 ADD DUP2 SWAP1 MSTORE PUSH1 0x0 SWAP1 PUSH2 0x256C SWAP1 DUP4 ADD DUP5 PUSH2 0x207A JUMP JUMPDEST SWAP7 SWAP6 POP POP POP POP POP POP JUMP JUMPDEST PUSH1 0x0 PUSH1 0x20 DUP3 DUP5 SUB SLT ISZERO PUSH2 0x2588 JUMPI PUSH1 0x0 DUP1 REVERT JUMPDEST DUP2 MLOAD PUSH2 0x1510 DUP2 PUSH2 0x1EFF JUMP JUMPDEST PUSH1 0x0 DUP3 DUP3 LT ISZERO PUSH2 0x25A5 JUMPI PUSH2 0x25A5 PUSH2 0x23D0 JUMP JUMPDEST POP SUB SWAP1 JUMP JUMPDEST PUSH1 0x0 DUP3 PUSH2 0x25B9 JUMPI PUSH2 0x25B9 PUSH2 0x241D JUMP JUMPDEST POP MOD SWAP1 JUMP JUMPDEST PUSH4 0x4E487B71 PUSH1 0xE0 SHL PUSH1 0x0 MSTORE PUSH1 0x32 PUSH1 0x4 MSTORE PUSH1 0x24 PUSH1 0x0 REVERT INVALID LOG2 PUSH5 0x6970667358 0x22 SLT KECCAK256 SELFBALANCE 0x2E MUL 0xC4 0xC2 SWAP11 LOG0 0xD POP EQ 0xE2 0xDE SLOAD ADDRESS 0x25 SIGNEXTEND 0xF7 ISZERO GASLIMIT GAS ADDRESS PUSH3 0xB8FC4F DIV PUSH32 0x21B2DD8B0564736F6C6343000809003300000000000000000000000000000000 "
				},
				"gasEstimates": {
					"creation": {
						"codeDepositCost": "1947600",
						"executionCost": "infinite",
						"totalCost": "infinite"
					},
					"external": {
						"MAX_PUBLIC_MINT()": "350",
						"MAX_SUPPLY()": "263",
						"MAX_WHITELIST_MINT()": "328",
						"PUBLIC_SALE_PRICE()": "330",
						"WHITELIST_SALE_PRICE()": "306",
						"approve(address,uint256)": "infinite",
						"balanceOf(address)": "2653",
						"getApproved(uint256)": "6914",
						"getMerkleRoot()": "2337",
						"isApprovedForAll(address,address)": "infinite",
						"isRevealed()": "2388",
						"mint(uint256)": "infinite",
						"name()": "infinite",
						"owner()": "2420",
						"ownerOf(uint256)": "infinite",
						"pause()": "2444",
						"placeholderTokenUri()": "infinite",
						"publicSale()": "2400",
						"renounceOwnership()": "28185",
						"safeTransferFrom(address,address,uint256)": "infinite",
						"safeTransferFrom(address,address,uint256,bytes)": "infinite",
						"setApprovalForAll(address,bool)": "26783",
						"setMerkleRoot(bytes32)": "24554",
						"setPlaceHolderUri(string)": "infinite",
						"setTokenUri(string)": "infinite",
						"supportsInterface(bytes4)": "557",
						"symbol()": "infinite",
						"teamMint()": "infinite",
						"teamMinted()": "2420",
						"togglePause()": "26589",
						"togglePublicSale()": "26633",
						"toggleReveal()": "26634",
						"toggleWhiteListSale()": "26612",
						"tokenURI(uint256)": "infinite",
						"totalPublicMint(address)": "2631",
						"totalSupply()": "4488",
						"totalWhitelistMint(address)": "2588",
						"transferFrom(address,address,uint256)": "infinite",
						"transferOwnership(address)": "28466",
						"walletOf()": "infinite",
						"whiteListSale()": "2355",
						"whitelistMint(bytes32[],uint256)": "infinite",
						"withdraw()": "infinite"
					},
					"internal": {
						"_baseURI()": "infinite"
					}
				},
				"methodIdentifiers": {
					"MAX_PUBLIC_MINT()": "65f13097",
					"MAX_SUPPLY()": "32cb6b0c",
					"MAX_WHITELIST_MINT()": "c08dfd3c",
					"PUBLIC_SALE_PRICE()": "07e89ec0",
					"WHITELIST_SALE_PRICE()": "bc912e1a",
					"approve(address,uint256)": "095ea7b3",
					"balanceOf(address)": "70a08231",
					"getApproved(uint256)": "081812fc",
					"getMerkleRoot()": "49590657",
					"isApprovedForAll(address,address)": "e985e9c5",
					"isRevealed()": "54214f69",
					"mint(uint256)": "a0712d68",
					"name()": "06fdde03",
					"owner()": "8da5cb5b",
					"ownerOf(uint256)": "6352211e",
					"pause()": "8456cb59",
					"placeholderTokenUri()": "4cf5f7a4",
					"publicSale()": "33bc1c5c",
					"renounceOwnership()": "715018a6",
					"safeTransferFrom(address,address,uint256)": "42842e0e",
					"safeTransferFrom(address,address,uint256,bytes)": "b88d4fde",
					"setApprovalForAll(address,bool)": "a22cb465",
					"setMerkleRoot(bytes32)": "7cb64759",
					"setPlaceHolderUri(string)": "b0962c53",
					"setTokenUri(string)": "0675b7c6",
					"supportsInterface(bytes4)": "01ffc9a7",
					"symbol()": "95d89b41",
					"teamMint()": "ba7a86b8",
					"teamMinted()": "e8b5498d",
					"togglePause()": "c4ae3168",
					"togglePublicSale()": "e222c7f9",
					"toggleReveal()": "5b8ad429",
					"toggleWhiteListSale()": "8bb64a8c",
					"tokenURI(uint256)": "c87b56dd",
					"totalPublicMint(address)": "1c16521c",
					"totalSupply()": "18160ddd",
					"totalWhitelistMint(address)": "0345e3cb",
					"transferFrom(address,address,uint256)": "23b872dd",
					"transferOwnership(address)": "f2fde38b",
					"walletOf()": "83a974a2",
					"whiteListSale()": "86a173ee",
					"whitelistMint(bytes32[],uint256)": "2904e6d9",
					"withdraw()": "3ccfd60b"
				}
			},
			"userdoc": {
				"kind": "user",
				"methods": {},
				"version": 1
			}
		}
	}
}